:100000000C9474180C94423A0C94173A0C94EC39F2
:100010000C94C1390C9496390C946B390C9440397A
:100020000C9415390C94A5180C94A5180C94A518CB
:100030000C94A5180C94A5180C94A5180C94A5184C
:100040000C94A5180C94A5180C94A5180C94A5183C
:100050000C94A5180C94A5180C94A5180C94CB38E6
:100060000C94A5180C94AD370C9484370C94A518F7
:100070000C94A5180C94A5180C94A5180C94A5180C
:100080000C943F270C94A5180C94A5180C94A51853
:100090000C94A5180C94A5180C94A5180C946D3A02
:1000A0000C94A5180C94A5180C94AA260C94A518C9
:1000B0000C94A5180C94A5180C94A5180C94A518CC
:1000C0000C94A5180C94A5180C94A5180C94A518BC
:1000D0000C94A5180C94A5180C94A5180C94A518AC
:1000E0000C94A518EE23DC1B3F23E3233F233F237F
:1000F0003F233F233F233F233F233F233F233F23F0
:100100003F233F233F233F233F233F233F233F23DF
:100110003F233F233F233F233F233F233F233F23CF
:10012000DD233F233F233F233F233F233F233F2321
:100130003F236F233F233F233F233F233F233F237F
:100140003F233F233F233F230324FE23C72FB42F06
:10015000A12F8E2F7B2F682F552F422F2F2F1C2F33
:10016000092F1A2E5536583647364B3651368F36AC
:100170005C36603666366A366E36743678367C366D
:100180008F36823686368A3608000000BE922449B1
:10019000123EABAAAA2ABECDCCCC4C3E00000080B9
:1001A000BEABAAAAAA3E00000000BF000000803F2C
:1001B0000000000000084178D3BB4387D1133D19EC
:1001C0000E3CC3BD4282AD2B3E68EC8276BED98F19
:1001D000E1A93E4C80EFFFBE01C4FF7F3F0000005D
:1001E0000000496D706F7374617A2E2064656661DA
:1001F000756C7400436172696361206461204545D8
:1002000050524F4D0053616C766120696E20454518
:1002100050524F4D004C434420636F6E74726173B3
:1002200074004D6F76696D656E746F004D656E7507
:10023000207072696E636970616C6500000912005C
:10024000FC0A01E803D720FFFD0EFD0BFD000000B6
:1002500009000E010B0B09040080808080808080E3
:100260000000808004040409030790909090080A1D
:100270000A090000242424FF2424FF242424070B3B
:100280000B0901FF107C929050381412927C1007D9
:100290000A0A09010042A4A4481010244A4A84070B
:1002A0000A0A09010060909090606294889462014B
:1002B000040409040780808080030C0C0903FF20DC
:1002C0004040808080808080404020030C0C0903E7
:1002D000FF8040402020202020204040800707074A
:1002E00009010310925438549210070707090101BD
:1002F000101010FE1010100204040904FEC0C040CB
:1003000080070101090104FE020202090400C0C0C5
:10031000070A0A0901000204040810102040408066
:10032000070A0A09010038448282828282824438A4
:10033000070A0A090100103050901010101010FE2A
:10034000070A0A090100384482020408102040FE0E
:10035000070A0A090100FE02040818040202847850
:10036000070A0A090100040C14244484FE0404044E
:10037000070A0A090100FE808080F80402028478DE
:10038000070A0A0901003C408080B8C482824438D0
:10039000070A0A090100FE020404080810101010E0
:1003A000070A0A09010038448244384482824438EA
:1003B000070A0A09010038448282463A0202047898
:1003C000020707090400C0C0000000C0C0020909FC
:1003D0000904FEC0C0000000C0C040800509090932
:1003E0000200081020408040201008070404090182
:1003F00002FE0000FE0509090902008040201008E5
:1004000010204080070A0A090100384482020408CB
:1004100010100010070A0A09010038449AAAAAAA73
:10042000AA9C403C070A0A09010010282828447C9D
:1004300044828282070A0A090100F8848284F884CF
:10044000828284F8070A0A0901003C428080808089
:100450008080423C070A0A090100F8848282828275
:10046000828284F8070A0A090100FE808080F880F1
:10047000808080FE070A0A090100FE808080F880E3
:1004800080808080070A0A09010038448280808EBB
:1004900082824438070A0A09010082828282FE822F
:1004A00082828282050A0A090200F8202020202088
:1004B000202020F8070A0A0901003E080808080859
:1004C00008888870070A0A09010082848890A0D0F1
:1004D00088848282070A0A090100808080808080E7
:1004E000808080FE070A0A0901008282C6AA9282E1
:1004F00082828282070A0A0901008282C2A2928A4B
:1005000086828282070A0A0901007C8282828282B4
:100510008282827C070A0A090100F884828284F8B8
:1005200080808080080B0B0901FF38448282828220
:10053000828A443A01070A0A090100F88482828407
:10054000F890888482070A0A0901007C8280807CF6
:10055000020202827C070A0A090100FE1010101034
:100560001010101010070A0A09010082828282828C
:100570008282824438070A0A090100828282444446
:100580004428282810070A0A0901008282828292E0
:10059000929292AA44070A0A090100828244281012
:1005A0001028448282070A0A090100828244281026
:1005B0001010101010070A0A090100FE02040810AA
:1005C00020408080FE040C0C0903FFF080808080B6
:1005D000808080808080F0070A0A09010080404006
:1005E00020101008040402040C0C0902FFF0101083
:1005F0001010101010101010F0070404090106105C
:100600002844820801010900FFFF03030309030ACC
:100610008040200707070901007C02027E82867A5B
:10062000070A0A090100808080BCC2828282C2BCA3
:100630000707070901007C82808080827C070A0A04
:100640000901000202027A86828282867A070707FF
:100650000901007C8282FE80827C070A0A0901006F
:100660001C22222020F820202020070A0A0901FD50
:100670007A84848478807C82827C070A0A0901005B
:10068000808080BCC28282828282050A0A090200BE
:10069000600000E02020202020F8050D0D0902FD5B
:1006A00018000038080808080808888870070A0A2F
:1006B000090100808080848890B0C88482050A0A7D
:1006C000090200E02020202020202020F807070732
:1006D000090100EC929292929282070707090100A9
:1006E000BCC282828282820707070901007C828263
:1006F0008282827C070A0A0901FDB8C4828282C410
:10070000B8808080070A0A0901FD3A468282824643
:100710003A0202020707070901009C62424040407A
:10072000400707070901007C82807C02827C070960
:10073000090901002020FC20202020221C07070797
:100740000901008282828282867A070707090100F6
:1007500082824444282810070707090100828292F8
:100760009292AA44070707090100824428102844EE
:1007700082070A0A0901FD42422424241818109015
:1007800060070707090100FE0408102040FE060B61
:100790000B0902001C20202020C0202020201C014A
:1007A0000C0C0904FF8080808080808080808080A5
:1007B00080060B0B090100E0101010100C10101037
:1007C00010E007030309010762928CFFFFFFFFFFA0
:1007D000FFFFFFFFFFFFFFFFFFFFFFFFFFFFFFFF29
:1007E000FFFFFFFFFFFFFFFFFFFFFFFF000000090C
:1007F000000E010B0B0904008080000080808080C7
:1008000080808006080809010008789490A0A478E8
:1008100040070A0A0901001C222020F8202060A2BB
:100820005C070606090103827C44447C82070A0AAD
:10083000090100828244287C107C101010010B0BEF
:100840000904FF8080808080008080808080040B8D
:100850000B0902FF609080609090906010906003A0
:10086000020209030BA0A00809090900013C4299F2
:10087000A5A1A599423C0507070901036090709066
:100880007800F807080809010112244890904824CC
:1008900012060404090102FC040404050101090212
:1008A00004F80809090900013C42B9A5BDA9A542FF
:1008B0003C060101090109FC0404040903066090D7
:1008C0009060070909090101101010FE10101000B6
:1008D000FE0406060901046090106080F00406061C
:1008E00009010460902010906003030309030A20AB
:1008F00040800709090901FE8282828282C6BA808D
:1009000080070A0A0901007E8A8A8A7A0A0A0A0A84
:100910000A020202090404C0C00403030902FD2004
:10092000906003060609010440C0404040E005060F
:10093000060901047088887000F807080809010199
:100940009048241212244890070A0A09010040C066
:10095000404042E60A121A06070A0A09010040C08E
:1009600040404CF2020C101E070A0A090100609078
:10097000201092660A121A06070A0A0901001000DE
:10098000101020408082827C070E0E09010020108A
:10099000080010282828447C44828282070E0E0911
:1009A00001000810200010282828447C44828282FC
:1009B000070E0E0901001028440010282828447C46
:1009C00044828282070D0D09010034580010282846
:1009D00028447C44828282070D0D090100282800EA
:1009E00010282828447C44828282070E0E090100C8
:1009F0001028281010282828447C44828282070A64
:100A00000A0901001E2828284E784888888E070D7C
:100A10000D0901FD3C42808080808080423C08249A
:100A200018070E0E09010020100800FE808080F8D3
:100A300080808080FE070E0E09010008102000FE55
:100A4000808080F880808080FE070E0E09010010F3
:100A5000284400FE808080F880808080FE070D0D95
:100A6000090100282800FE808080F880808080FEB8
:100A7000050E0E09020040201000F8202020202042
:100A8000202020F8050E0E09020010204000F8205A
:100A900020202020202020F8050E0E0902002050E2
:100AA0008800F82020202020202020F8050D0D09A6
:100AB0000200505000F82020202020202020F8079D
:100AC0000A0A09010078444242F24242424478074D
:100AD0000D0D0901003458008282C2A2928A8682DA
:100AE0008282070E0E090100201008007C8282829B
:100AF00082828282827C070E0E090100081020008B
:100B00007C82828282828282827C070E0E090100B0
:100B1000102844007C82828282828282827C070D3D
:100B20000D0901003458007C828282828282828296
:100B30007C070D0D0901002828007C8282828282B8
:100B40008282827C07070709010182442810284419
:100B500082070C0C0901FF027C868A8A9292A2A26B
:100B6000C27C80070E0E09010020100800828282DC
:100B700082828282824438070E0E0901000810200A
:100B80000082828282828282824438070E0E0901AC
:100B90000010284400828282828282828244380746
:100BA0000D0D0901002828008282828282828282C1
:100BB0004438070E0E0901000810200082824428E4
:100BC000101010101010070A0A0901008080FC8222
:100BD0008282FC808080060A0A0901003844444869
:100BE000D04844444458070B0B090100201008006A
:100BF0007C02027E82867A070B0B09010008102016
:100C0000007C02027E82867A070B0B090100102805
:100C100044007C02027E82867A070A0A09010034B7
:100C200058007C02027E82867A070A0A090100289F
:100C300028007C02027E82867A070C0C09010010D3
:100C4000282810007C02027E82867A0707070901A5
:100C5000006C12127E90926C070A0A0901FD7C82D8
:100C6000808080827C104830070B0B090100201027
:100C700008007C8282FE80827C070B0B0901000841
:100C80001020007C8282FE80827C070B0B09010011
:100C9000102844007C8282FE80827C070A0A0901B7
:100CA000002828007C8282FE80827C050C0C0902D0
:100CB000008040200000E02020202020F8050C0CBF
:100CC0000902001020400000E02020202020F8052C
:100CD0000C0C0902002050880000E0202020202079
:100CE000F8050B0B09020050500000E020202020E6
:100CF00020F8070B0B090100483050083C44828261
:100D0000824438070A0A090100345800BCC28282B2
:100D1000828282070B0B090100201008007C82826E
:100D20008282827C070B0B090100081020007C8264
:100D3000828282827C070B0B090100102844007C10
:100D400082828282827C070A0A0901003458007C70
:100D500082828282827C070A0A0901002828007C9C
:100D600082828282827C0709090901001038100002
:100D7000FE001038100709090901FF027C8A8A92D7
:100D8000A2A27C80070B0B09010040201000828288
:100D9000828282867A070B0B0901000810200082EC
:100DA00082828282867A070B0B0901001028440098
:100DB0008282828282867A070A0A09010028280034
:100DC0008282828282867A070E0E0901FD04081053
:100DD0000042422424241818109060070B0B0901CC
:100DE000FE8080B8C4828282C4B88080070D0D095D
:100DF00001FD24240042422424241818109060B0DD
:100E00002000416D6269656E2E00B0200046756D50
:100E1000690050756C697A7A696100426C6F63632E
:100E20006F00537065676E696D656E746F0053690E
:100E3000637572657A7A61005374616E642D6279AC
:100E4000005269737061726D696F004E6F726D61EF
:100E50006C6500322720616363656E73696F6E6530
:100E60000053746162696C697A7A617A696F6E6540
:100E700000416363656E73696F6E65004368656307
:100E80006B2D7570005370656E746F00000A14004E
:100E9000FC0D024A049920FFFC10FC0DFC00000030
:100EA0000A0010020D0D0A0400C0C0C0C0C0C0C0BE
:100EB000C0C0C000C0C00604040A0209CCCCCC48A3
:100EC000090B160A01011B001B001B007F80360066
:100ED00036003600FF006C006C006C00080D0D0A37
:100EE0000100187EDBD8D8D87E1B1B1BDB7E1809BF
:100EF0000C180A01007300DB00DE0076000C000C09
:100F0000001800180037003D806D806700090D1A39
:100F10000A010038006C006C006C00780030007032
:100F200000D800CD80C700C600EF0079800205051B
:100F30000A0408C0C0C0C080050D0D0A03001830A7
:100F40006060C0C0C0C0C060603018050D0D0A02EE
:100F500000C06030301818181818303060C008070A
:100F6000070A010366663CFF3C66660807070A013C
:100F700003181818FF1818180403030A03FF7070E9
:100F8000E00801010A0106FF0303030A0400E0E090
:100F9000E0070C0C0A020006060C0C181830306032
:100FA00060C0C0080D0D0A0100183C6666C3C3C3CB
:100FB000C3C366663C18080D0D0A0100183878D8BE
:100FC0001818181818181818FF080D0D0A01003CF9
:100FD00066C3C30303061C3060C0C0FF080D0D0AC2
:100FE00001003C66C3C303061C0603C3C3663C087A
:100FF0000D0D0A010002060E1E3666C6C6FF060665
:101000000606080D0D0A0100FFC0C0C0C0DCE603E3
:101010000303C3663C080D0D0A01003C66C2C0C054
:10102000DCE6C3C3C3C3663C080D0D0A0100FF0321
:101030000306060C0C181830306060080D0D0A010C
:10104000003C66C3C3C3663C66C3C3C3663C080DAD
:101050000D0A01003C66C3C3C3C3673B0303436679
:101060003C0308080A0400E0E000000000E0E0049F
:1010700009090A03FF7070000000007070E0070D9E
:101080000D0A010002060C183060C06030180C0612
:10109000020806060A0103FF00000000FF070D0D0D
:1010A0000A020080C06030180C060C183060C08046
:1010B000080D0D0A01003C66C3C3C3060C181818BE
:1010C000001818080D0D0A01003C66C3CFDFDBDBFA
:1010D000DBDECCC0633E080D0D0A0100183C6666DD
:1010E000C3C3C3FFC3C3C3C3C3080D0D0A0100F8C4
:1010F000CCC6C6C6CCFCC6C3C3C3C6FC080D0D0A0D
:1011000001003C66C3C0C0C0C0C0C0C0C3663C08CC
:101110000D0D0A0100FCC6C3C3C3C3C3C3C3C3C30D
:10112000C6FC080D0D0A0100FFC0C0C0C0C0FCC055
:10113000C0C0C0C0FF080D0D0A0100FFC0C0C0C084
:10114000C0FCC0C0C0C0C0C0080D0D0A01003C6694
:10115000C3C0C0C0CFC3C3C3C3673D080D0D0A01E0
:1011600000C3C3C3C3C3C3FFC3C3C3C3C3C3080D47
:101170000D0A0100FF181818181818181818181850
:10118000FF090D1A0A01001F80060006000600066E
:10119000000600060006000600C600C6006C003807
:1011A00000080D0D0A0100C3C3C6C6CCCCF8CCCCD8
:1011B000C6C6C3C3080D0D0A0100C0C0C0C0C0C070
:1011C000C0C0C0C0C0C0FF080D0D0A0100C3C3E706
:1011D000E7FFDBDBDBDBC3C3C3C3080D0D0A010084
:1011E000C3E3E3F3F3DBDBCFCFC7C7C3C3080D0D06
:1011F0000A01003C66C3C3C3C3C3C3C3C3C3663CC5
:10120000080D0D0A0100FCC6C3C3C3C3C6FCC0C0A1
:10121000C0C0C0080E0E0A01FF3C66C3C3C3C3C3EF
:10122000C3C3DBCF663E03080D0D0A0100FCC6C335
:10123000C3C3C3C6FCCCC6C6C3C3080D0D0A010098
:101240003C66C3C0C0603C060303C3663C080D0D8A
:101250000A0100FF18181818181818181818181864
:10126000080D0D0A0100C3C3C3C3C3C3C3C3C3C3B3
:10127000C3663C080D0D0A0100C3C3C3C36666669E
:101280003C3C3C181818080D0D0A0100C3C3C3C329
:10129000C3DBDBDBDBE7E7C3C3080D0D0A0100C3DB
:1012A000C366663C3C183C3C6666C3C3080D0D0A29
:1012B0000100C3C366663C3C1818181818181808B3
:1012C0000D0D0A0100FF0303060C0C18303060C03E
:1012D000C0FF060D0D0A0200FCC0C0C0C0C0C0C0E7
:1012E000C0C0C0C0FC070C0C0A0200C0C060603067
:1012F0003018180C0C0606060D0D0A0200FC0C0C2A
:101300000C0C0C0C0C0C0C0C0CFC0804040A010951
:10131000183C66C30901020A01FFFF800403030AA7
:10132000030AC060300808080A01003E63037FC357
:10133000C3C37D080D0D0A0100C0C0C0C0C0DCE6FB
:10134000C3C3C3C3E6DC0808080A01003E63C0C08B
:10135000C0C0633E080D0D0A010003030303033BF5
:1013600067C3C3C3C3673B0808080A01003C66C3E0
:10137000FFC0C0633E080D0D0A01001E333330303C
:10138000FC30303030303030080C0C0A01FC7DC7A6
:10139000C6C6C67CC07EC3C3C37E080D0D0A01004D
:1013A000C0C0C0C0C0DCE6C3C3C3C3C3C3080B0B0B
:1013B0000A010018180078181818181818FF070FD5
:1013C0000F0A02FC0606001E06060606060606C6EC
:1013D000C6C67C080D0D0A0100C0C0C0C0C0C6CC86
:1013E000D8F0F8CCC6C3080D0D0A010078181818FB
:1013F0001818181818181818FF0808080A0100B655
:10140000FFDBDBDBDBDBDB0808080A0100DCE6C313
:10141000C3C3C3C3C30808080A01003C66C3C3C3EF
:10142000C3663C080C0C0A01FCDCE6C3C3C3C3E67C
:10143000DCC0C0C0C0080C0C0A01FC3B67C3C3C3BE
:10144000C3673B030303030808080A0100DE736057
:1014500060606060600808080A01007EC3C07E0307
:1014600003C37E080B0B0A0100303030FC303030F3
:101470003030331E0808080A0100C3C3C3C3C3C306
:10148000673B0808080A0100C3C366663C3C18189D
:101490000808080A0100C3C3C3DBDBDBFF660808DA
:1014A000080A0100C3663C18183C66C3080C0C0A05
:1014B00001FCC3C3C3C3C3C3673B03C3663C070884
:1014C000080A0200FE060C183060C0FE080D0D0A66
:1014D00001000F1818181818F018181818180F020B
:1014E0000D0D0A0400C0C0C0C0C0C0C0C0C0C0C094
:1014F000C0C0080D0D0A0100F018181818180F18B0
:1015000018181818F00803030A010A73DBCEFFFF4E
:10151000FFFFFFFFFFFFFFFFFFFFFFFFFFFFFFFFDB
:10152000FFFFFFFFFFFFFFFFFFFFFFFFFFFFFF00CA
:1015300000000A0010020D0D0A0400C0C000C0C067
:10154000C0C0C0C0C0C0C0C0070C0C0A0100181841
:101550003C66C2C0C0C2663C1818090C180A0100DB
:101560001E003300330030003000FC00300030003B
:101570003000F800AD80E7000909120A0001808000
:10158000DD807F006300630063007F00DD8080807A
:10159000080B0B0A010081C3663C7E187E181818E0
:1015A00018020D0D0A0400C0C0C0C0C0000000C079
:1015B000C0C0C0C0080D0D0A01003C66C66078CCF2
:1015C00066331E0663663C0602020A020BCCCC0898
:1015D0000B0B0A01003C66C3BDA5A1A5BDC3663CBB
:1015E0000809090A01043E43037FC3C37D00FF09C4
:1015F0000B160A000004800D801B0036006C00D81A
:10160000006C0036001B000D8004800804040A01F1
:1016100004FFFF03030601010A0206FC080B0B0A84
:1016200001003C66C3BDA5BDA9ADC3663C08010170
:101630000A010DFF0606060A02073078CCCC783086
:101640000807070A01021818FF181800FF05070706
:101650000A020670D8183060C0F80507070A0206AB
:1016600070D8183018D8700403030A030A3060C019
:10167000070A0A0A01FDC6C6C6C6C6EEFAC0C0C041
:10168000080D0D0A01007FFFFBFBFB7B1B1B1B1BD7
:101690001B1B1B0303030A0405E0E0E00504040A26
:1016A00002FC3018D8700407070A020660E0606088
:1016B0006060F00709090A0104386CC6C6C66C38B8
:1016C00000FE090B160A01009000D8006C003600DD
:1016D0001B000D801B0036006C00D8009000080C29
:1016E0000C0A010140C04142E40812264A9E02024F
:1016F000080C0C0A010140C04142E408162941824D
:10170000040F080C0C0A0101E0106112E408122613
:101710004A9F0202080D0D0A010018180018181837
:101720003060C3C3C3663C080F0F0A010060301865
:1017300000183C66C3C3C3FFC3C3C3C3080F0F0A6B
:101740000100060C1800183C66C3C3C3FFC3C3C323
:10175000C3080F0F0A0100183C6600183C66C3C39B
:10176000C3FFC3C3C3C3080F0F0A0100327E4C007E
:10177000183C66C3C3C3FFC3C3C3C3080F0F0A012A
:1017800000666600183C6666C3C3C3FFC3C3C3C319
:101790000810100A01003C66663C00183C66C3C392
:1017A000C3FFC3C3C3C3080D0D0A01001F3C6C6C0B
:1017B000CCCCFFCCCCCCCCCCCF0811110A01FC3C5A
:1017C00066C3C0C0C0C0C0C0C0C3663C180C6C3883
:1017D000080F0F0A010060301800FFC0C0C0C0FC35
:1017E000C0C0C0C0FF080F0F0A01000C183000FF76
:1017F000C0C0C0C0FCC0C0C0C0FF080F0F0A0100BD
:10180000183C6600FFC0C0C0C0FCC0C0C0C0FF081C
:101810000F0F0A010066660000FFC0C0C0C0FCC018
:10182000C0C0C0FF060F0F0A020060301800FC3075
:101830003030303030303030FC060F0F0A020018E4
:10184000306000FC303030303030303030FC060F4B
:101850000F0A02003078CC00FC30303030303030AD
:101860003030FC060F0F0A0200CCCC00FC303030C8
:1018700030303030303030FC090D1A0A00007E0064
:1018800063006180618061806180F9806180618036
:101890006180618063007E00080F0F0A0100327EC4
:1018A0004C00C3E3F3F3DBDBCFCFC7C3C3080F0F99
:1018B0000A010030180C003C66C3C3C3C3C3C3C3D2
:1018C000663C080F0F0A01000C1830003C66C3C3C9
:1018D000C3C3C3C3C3663C080F0F0A0100183C66AC
:1018E000003C66C3C3C3C3C3C3C3663C080F0F0A2F
:1018F0000100327E4C003C66C3C3C3C3C3C3C3668E
:101900003C080F0F0A01006666003C66C3C3C3C3F0
:10191000C3C3C3C3663C0708080A010082C66C380B
:10192000386CC682080F0F0A01FF013E66C7C7CB9D
:10193000CBCBD3D3D3E3667C80080F0F0A010030F2
:10194000180C00C3C3C3C3C3C3C3C3C3663C080FDF
:101950000F0A01000C183000C3C3C3C3C3C3C3C301
:10196000C3663C080F0F0A0100183C6600C3C3C3DE
:10197000C3C3C3C3C3C3663C080F0F0A0100666636
:1019800000C3C3C3C3C3C3C3C3C3C3663C080F0FF1
:101990000A01000C183000C3C366663C3C181818D6
:1019A0001818070D0D0A0200C0C0C0FCC6C6C6C686
:1019B000C6FCC0C0C0080D0D0A01001C366363667A
:1019C000EC6C66636363666C080C0C0A01003018EB
:1019D0000C007EC3037FC3C3C37D080C0C0A010047
:1019E0000C1830007EC3037FC3C3C37D080C0C0AF0
:1019F0000100183C66007EC3037FC3C3C37D080C8F
:101A00000C0A0100327E4C007EC3037FC3C3C37D3A
:101A1000080B0B0A01006666007EC3037FC3C3C3C5
:101A20007D080D0D0A01003C66663C007EC3037F05
:101A3000C3C3C37D0808080A0100769B1B1E78D823
:101A4000D96E080C0C0A01FC3E63C0C0C0C0633EE6
:101A5000180C6C38080C0C0A0100603018003C6649
:101A6000C3FFC0C0633E080C0C0A0100060C18003E
:101A70003C66C3FFC0C0633E080C0C0A0100183C62
:101A800066003C66C3FFC0C0633E080B0B0A010042
:101A90006666003C66C3FFC0C0633E080C0C0A01CA
:101AA000006030180078181818181818FF080C0C67
:101AB0000A01000C18300078181818181818FF08B8
:101AC0000C0C0A0100183C66007818181818181831
:101AD000FF080B0B0A010066660078181818181822
:101AE00018FF080D0D0A010088D87070D88C3E6769
:101AF000C3C3C3663C080C0C0A0100327E4C00DCF8
:101B0000E6C3C3C3C3C3C3080C0C0A01006030188A
:101B1000003C66C3C3C3C3663C080C0C0A01000644
:101B20000C18003C66C3C3C3C3663C080C0C0A0116
:101B300000183C66003C66C3C3C3C3663C080C0C7B
:101B40000A0100327E4C003C66C3C3C3C3663C0836
:101B50000B0B0A01006666003C66C3C3C3C3663C48
:101B6000080A0A0A010118180000FFFF00001818EF
:101B7000080A0A0A01FF013E66CBCBD3D3667C80FC
:101B8000080C0C0A010030180C00C3C3C3C3C3C344
:101B9000673B080C0C0A0100060C1800C3C3C3C342
:101BA000C3C3673B080C0C0A0100183C6600C3C3A2
:101BB000C3C3C3C3673B080B0B0A0100666600C3BF
:101BC000C3C3C3C3C3673B0810100A01FC0C183021
:101BD00000C3C3C3C3C3C3673B03C3663C07111140
:101BE0000A02FCC0C0C0C0C0C0F8CCC6C6C6CCF893
:101BF000C0C0C0C0080F0F0A01FC666600C3C3C3A3
:101C0000C3C3C3673B03C3663C01050800FF06016D
:101C100021023520FFFF07FF06FF0900502216565C
:101C2000808080800080153353A0A0A002575750B9
:101C300050F850F850500257572070A0702870206C
:101C400013355580A040A02002475740A0A040A0D7
:101C5000A0502513538080801226564080808080BB
:101C6000401226568040404040800245559060F02A
:101C700060900255552020F8202011335360408099
:101C8000044151F011335340E040024656101020F9
:101C900040808012365640A0A0A0A0401236564088
:101CA000C0404040E00246566090106080F002461E
:101CB00056F020601090600246562060A0F0202070
:101CC000024656F080E01090600246566080E09038
:101CD0009060024656F01020204040024656609028
:101CE000609090600246566090907010601225558A
:101CF000C0C000C0C011365660600060408012361F
:101D000056204080804020034353F000F0123656A6
:101D100080402020408012365640A02040004001E4
:101D20005858304898A8A890403002465660909085
:101D3000F09090024656E090E09090E002465660A7
:101D40009080809060024656E090909090E002462D
:101D500056F080E08080F0024656F080E08080807F
:101D6000024656609080B090600246569090F09087
:101D70009090123656E040404040E00246567020B7
:101D80002020A04002465690A0C0A0A09002465637
:101D90008080808080F002465690F0F09090900213
:101DA000465690D0F0B0B090024656609090909019
:101DB00060024656E09090E0808001475760909026
:101DC000D0B06010024656E09090E09090024656E7
:101DD000609040209060123656E040404040400203
:101DE00046569090909090600246569090909060E9
:101DF00060024656909090F0F090024656909060A7
:101E0000609090025656888850202020024656F056
:101E100010204080F0123656E080808080E002463C
:101E200056808040201010123656E020202020E0FE
:101E300016325240A0014151F01622528040024415
:101E400054709090700246568080E09090E012347A
:101E5000546080806002465610107090907002446A
:101E60005460B0C060024656205040E040400145FA
:101E70005560907010600246568080E090909012FD
:101E800036564000C04040E0113757200020202047
:101E9000A040024656808090E09090123656C04096
:101EA000404040E0025454D0A8A8A8024454E09016
:101EB000909002445460909060014555E090E0801D
:101EC000800145557090701010024454A0D080805D
:101ED00012345460C020C00246564040E0405020BA
:101EE00002445490909070123454A0A0A040025428
:101EF0005488A8A8500244549060609001455590C1
:101F000090709060024454F02040F00247573040F7
:101F100020C020403022165680808080808002477A
:101F200057C02040304020C006425250A0FFFFFF63
:101F3000FFFFFFFFFFFFFFFFFFFFFFFFFFFFFFFFB1
:101F4000FFFFFFFFFFFFFFFFFFFFFFFFFFFF090096
:101F5000502216568000808080800146562070A056
:101F6000A070200246562050E04050A002555588EF
:101F7000705070880256568850F820F82022175763
:101F8000808080008080800247577080E0907010D1
:101F9000E0173151A002565670A8C8C8A870143571
:101FA0005560A06000E003435350A050123353E04B
:101FB0002020143151E002565670E8D8E8D8701746
:101FC0003151E015335340A04012355540E04000F8
:101FD000E014355540A02040E0143555C020C02005
:101FE000C01622524080014555909090E0800256E4
:101FF0005678E8E868282824115180112252408040
:1020000014355540C04040E014355540A04000E034
:10201000034353A050A0024757808080A060F02067
:102020000247578080A0D010207002475780408020
:1020300060A0F02012365640004080A04002475772
:1020400040206090F0909002475720406090F090C0
:102050009002475760906090F0909002475750A0D0
:102060006090F0909002475790006090F09090023E
:10207000475760906090F0909002465670A0A0F094
:10208000A0B0014757609080809060400247574061
:1020900020F080E080F00247572040F080E080F0A0
:1020A0000247576090F080E080F00247579000F0C0
:1020B00080E080F01237578040E0404040E0123727
:1020C000572040E0404040E012375740A0E04040F9
:1020D00040E0123757A000E0404040E00256567002
:1020E00048E848487002475750A090D0B0909002FE
:1020F0004757402060909090600247572040609082
:1021000090906002475760906090909060024757AF
:1021100050A060909090600247579000609090901F
:1021200060123353A040A002465670B0B0D0D0E049
:10213000024757402090909090600247572040906F
:102140009090906002475760909090909060024706
:102150005790009090909060025757102088502020
:10216000202002465680E09090E080024656609023
:10217000A0A090A0024757402000709090700247A6
:102180005720400070909070024757205000709088
:10219000907002475750A0007090907002465650C1
:1021A000007090907002475760906070909070023D
:1021B0005454F068B0781135556080806040024713
:1021C0005740200060B0C06002475720400060B018
:1021D000C06002475760900060B0C0600246565031
:1021E0000060B0C060123757804000C04040E0122D
:1021F0003757204000C04040E012375740A000C091
:102200004040E0123656A000C04040E0024757A0D0
:1022100040A01070906002475750A000E09090904E
:1022200002475740200060909060024757204000CE
:102230006090906002475760900060909060024705
:102240005750A000609090600246569000609090B9
:10225000601235554000E0004002445470B0D0E0B8
:10226000024757402000909090700247572040004E
:102270009090907002475760900090909070024646
:1022800056900090909070014858204000909070B7
:1022900090600147578080E090E080800147579030
:1022A000009090709060FFFFFFC005FFFFFFFFFFF1
:1022B000FC00003FFFFFFFFFE0000007FFFFFFFF04
:1022C00080000001FFFFFFFE002FF8007FFFFFFCF2
:1022D00001FFFF803FFFFFF00FFFFFF00FFFFFE068
:1022E0003FF7EFFC07FFFFC0FFF7F7FE03FFFF819B
:1022F000FF67F2FF81FFFF03FFA7E6FFC0FFFE07B6
:10230000FF27E6FFF07FFC0FFF33E47FF03FF81F6D
:10231000DF63E67DFC1FF83FBE31C67DFC1FF07F0A
:10232000BE71873EFE0FE0FF3C71871C7F07E0FF18
:1023300038F0871E7F07C1FF38E1871C7F83C3FA0F
:102340001861870C6FC383FB1841C2085FC187FC0B
:102350000801C0085FC187F90803C0184FE107F9F9
:10236000080180184FE00FF10C0000184FF00FE348
:102370001C00001847F00FE30C000018E3F01FC327
:102380000000000063F00FC70000000061F81FC3E9
:102390000000000061F81FC00000000001F81FC02D
:1023A0000000000003F81FC00000000003F81FE059
:1023B0000000000003F81FE00000000003F81FE029
:1023C0000000000007F81FF00000000007F00FF009
:1023D000A000000507F81FE0FF00007F83F00FE07A
:1023E000FFC001FF83F00FE07FE007FF07F00FF071
:1023F0003FF80FFE07F007F81FFC1FF80FE087F803
:1024000007FC3FF01FE187FC01FE3F803FE183FFB7
:10241000000000007FC1C1FF80008001FFC3C1FF39
:10242000F001C007FF83E1FFF803C01FFF07E0FFD3
:10243000FE03E03FFF07F07FFC03E03FFE0FF83FA5
:10244000FC06201FFC1FF81FFC00001FF81FFC0FDC
:10245000F800000FF03FFE0FF800001FE07FFF03C1
:10246000F880010FC0FFFF81FC84119F81FFFFC036
:102470007EC410BE03FFFFE03FCC13FC07FFFFF05C
:1024800007FEFFF00FFFFFFC01FFFF803FFFFFFE95
:10249000001FF4007FFFFFFF80000001FFFFFFFF30
:1024A000E0000007FFFF0000000000000000000047
:1024B000000000000000000000000000000000001C
:1024C000000000000000000000000000000000000C
:1024D00000000000000000000000000000000000FC
:1024E0000000000000002100240027002A002D0029
:1024F0003000330001010000040107010A0100005F
:102500002200250028002B002E003100340002019B
:102510000000050108010B01000020002300260037
:1025200029002C002F0032000001000003010601E9
:102530000901050505050705080808080202020249
:102540000A0A08080404040401010101010101014F
:102550000303030303030303040707070C0C0C0C1A
:102560000C0C0C0C02020202060606060606060603
:102570000B0B0B0B0B0B0B0B010210202008081090
:1025800020401020408002010201080402010102E3
:1025900004081020408080402010080402018004BC
:1025A0000201804020100804020108040201010217
:1025B0000408102040800102040810204080000020
:1025C0000A0B02090C0D0E080703040100000000AD
:1025D00000000000000000000000000000000000FB
:1025E00000000000000000000000121110000000B8
:1025F00000000000000000000000000000000000DB
:10260000000000004F6666004F6E20004F666600B7
:102610004F6E200056656E2E2072697363005665FA
:102620006E2E20726973630056656E2E2066756D7E
:10263000690056656E2E2066756D69004D656E7574
:10264000207072696E636970616C650053657276A3
:1026500069636500436F6E74726F6C6C6F004164E8
:10266000617474610047756172646100000609005D
:10267000FE070199032B20FFFE08FE07FE00000065
:10268000060000010707060200808080808000802D
:10269000030303060104A0A0A005070706000050DD
:1026A00050F850F850500507070600002070A07041
:1026B00028702005070706000048A8502050A89061
:1026C00005070706000040A0A040A890680103038A
:1026D00006020480808003070706010020408080F6
:1026E0008040200307070601008040202020408012
:1026F0000505050600018850F85088050505060007
:10270000012020F820200303030601FF604080051C
:102710000101060003F80303030601FF40E0400542
:1027200007070600000808102040808005070706FC
:1027300000002050888888502005070706000020E8
:1027400060A0202020F805070706000070880830E8
:102750004080F8050707060000F808103008887068
:1027600005070706000010305090F8101005070705
:10277000060000F880B0C80888700507070600004A
:10278000304080B0C88870050707060000F80810C0
:102790001020404005070706000070888870888870
:1027A0007005070706000070889868081060030726
:1027B000070601FF40E0400040E040030707060134
:1027C000FF40E04000604080040707060100102041
:1027D0004080402010050303060002F800F80407BB
:1027E00007060100804020102040800507070600F2
:1027F0000070881020200020050707060000708860
:1028000098A8B0807005070706000020508888F857
:102810008888050707060000F04848704848F0051A
:10282000070706000070888080808870050707060B
:102830000000F04848484848F0050707060000F83F
:102840008080F08080F8050707060000F88080F09F
:102850008080800507070600007088808098887057
:10286000050707060000888888F888888803070716
:10287000060100E04040404040E005070706000038
:10288000381010101090600507070600008890A00F
:10289000C0A09088050707060000808080808080A7
:1028A000F80507070600008888D8A88888880507E3
:1028B000070600008888C8A89888880507070600CA
:1028C0000070888888888870050707060000F088EF
:1028D00088F08080800508080600FF708888888856
:1028E000A87008050707060000F08888F0A0908807
:1028F00005070706000070888070088870050707C4
:10290000060000F8202020202020050707060000F0
:102910008888888888887005070706000088888866
:1029200050505020050707060000888888A8A8D8BE
:10293000880507070600008888502050888805070A
:102940000706000088885020202020050707060081
:1029500000F80810204080F8030707060100E08017
:1029600080808080E00507070600008080402010FE
:102970000808030707060100E02020202020E005CA
:1029800003030600042050880501010600FFF80239
:102990000202060206804005050506000070087860
:1029A00088780507070600008080B0C888C8B00591
:1029B000050506000070888088700507070600007E
:1029C000080868988898680505050600007088F86A
:1029D0008070050707060000304840F04040400581
:1029E00007070600FE7888887808887005070706BC
:1029F00000008080B0C8888888030707060100406F
:102A000000C0404040E00409090601FE10003010FB
:102A1000101090906005070706000080808890E005
:102A20009088030707060100C04040404040E00591
:102A30000505060000D0A8A8A88805050506000021
:102A4000B0C88888880505050600007088888870E9
:102A50000507070600FEB0C888C8B08080050707D4
:102A60000600FE68988898680808050505060000B5
:102A7000B0C880808005050506000070807008F0F1
:102A80000507070600004040F040404830050505B6
:102A90000600008888889868050505060000888873
:102AA0005050200505050600008888A8A850050597
:102AB0000506000088502050880507070600FE889C
:102AC000889868088870050505060000F810204001
:102AD000F8040707060100304020C02040300107FD
:102AE000070602008080808080808004070706013E
:102AF00000C02040304020C005030306000448A861
:102B00009000000001000000000001000000000033
:102B100001000000000001000000000001000000B2
:102B200000000100000000000100000000000100A2
:102B30000000000001000000000001000000000093
:102B40000100000000000100000000000100000082
:102B50000000010000000000010000000000010072
:102B60000000000001000000000001000000000063
:102B70000100000000000100000000000100000052
:102B80000000010000000000010000000000010042
:102B90000000000001000000000001000000000033
:102BA0000100000000000100000000000100000022
:102BB0000000010000000000010000000000010012
:102BC00000000000010000000000060000010707EF
:102BD000060200800080808080800507070600FFD5
:102BE0002078A0A0A0782005070706000030484004
:102BF000E04048B005050506000088705070880563
:102C000008080600FF88885020F8202020010707C8
:102C1000060200808080008080800508080600FF92
:102C20007080E09048380870030101060107A00594
:102C300007070600007088A8C8A888700406060662
:102C400001017090B05000F0060505060000244810
:102C5000904824040202060102F01004010106015A
:102C600003F00507070600007088E8C8C8887005EB
:102C70000101060007F803030306010440A0400514
:102C800006060600002020F82020F80405050601AD
:102C90000360902040F0040505060103E010601079
:102CA000E002020206020640800506060600FF88D2
:102CB0008888C8B08005070706000078E8E868281B
:102CC0002828010101060203800202020602FE40DA
:102CD0008003050506010340C04040E004060606E7
:102CE00001016090906000F0060505060000904824
:102CF0002448900609090600FF40C04040E40C1437
:102D00003C040609090600FF40C04040E8140408DE
:102D10001C0509090600FFC0204020C818287808B3
:102D200005070706000020002020408870050808DD
:102D30000600004020708888F8888805080806008A
:102D4000001020708888F888880508080600002090
:102D500050708888F8888805080806000048B07018
:102D60008888F88888050808060000500070888860
:102D7000F888880508080600002050708888F888C0
:102D8000880607070600003C50909CF0909C0509BF
:102D9000090600FE70888080808870204005080841
:102DA00006000040F88080F08080F80508080600E2
:102DB0000010F88080F08080F805080806000020E8
:102DC000F88080F08080F805080806000050F88040
:102DD00080F08080F80308080601008040E0404051
:102DE0004040E00308080601002040E04040404029
:102DF000E003080806010040A0E040404040E00336
:102E00000808060100A000E040404040E005070738
:102E1000060000F04848E84848F0050808060000A9
:102E2000285088C8A898888805080806000040200F
:102E3000708888888870050808060000102070884F
:102E400088888870050808060000205070888888E7
:102E500088700508080600002850708888888870E7
:102E600005080806000050007088888888700505ED
:102E700005060000885020508805070706000070EE
:102E80009898A8C8C87005080806000040208888DF
:102E900088888870050808060000102088888888BF
:102EA000887005080806000020500088888888700F
:102EB0000508080600005000888888888870050882
:102EC00008060000102088885020202005070706EB
:102ED000000080F088F08080800507070600007001
:102EE0008890A09088B00508080600004020007077
:102EF0000878887805080806000010200070087817
:102F00008878050808060000205000700878887846
:102F10000508080600002850007008788878050722
:102F20000706000050007008788878050808060039
:102F30000020502070087888780605050600007883
:102F4000147C907C0507070600FE7088808870203E
:102F5000400508080600004020007088F8807005D1
:102F600008080600001020007088F8807005080826
:102F70000600002050007088F880700507070600E2
:102F80000050007088F88070030808060100804037
:102F900000C0404040E0030808060100408000C037
:102FA000404040E003080806010040A000C0404047
:102FB00040E0060A0A0600FEA4A800FC8480808087
:102FC00084FC060A0A0600FE549400FC84040404EF
:102FD00084FC050808060000285000B0C8888888CE
:102FE0000508080600004020007088888870040AE0
:102FF0000A0602FE30408090909090909090040AD3
:103000000A0600FEC02010909090909090900607C5
:1030100007060001448C8C8480403C0607070600AC
:103020000188C4C4840408F00505050600012000D9
:10303000F8002005080806000040F0C88888987845
:1030400010050808060000E0F88888888888F805D8
:1030500005050600012030F83020050808060000AC
:103060002070F820202020E00509090600FF2070CC
:10307000A8A8B8888850200509090600FFE080C08C
:10308000B0A8A83028280509090600FFF8A88888F4
:10309000888888A8F8050A0A0600FE20505050507B
:1030A00088A8A8887056656C636974C3A0005665CB
:1030B0006C636974C3A0004D656E75207072696E93
:1030C000636970616C6500436F6E74726F6C6C6FD6
:1030D00000436F6E74726173740043616E64656C5B
:1030E000657474610000FC5A11241FBECFEFD1E259
:1030F000DEBFCDBF00E00CBF28E0A4E4B3E001C018
:103100001D92A737B207E1F713E0A0E0B2E0EEECC2
:10311000F3EC00E00BBF02C007900D92A434B1079E
:10312000D9F718E1C4E7D8E100E006C0219701090A
:10313000802FFE010E94C95EC337D10780E00807D7
:10314000A9F70E9414500C94E5610C9400000895B6
:1031500080E090E00895DF92EF92FF920F931F932B
:10316000CF93DF934A3009F49FC48901842FDB0198
:10317000453109F088C41296ED91FC911397928124
:10318000268137814FB7F894809102018260809345
:1031900002014FBFE8E2F0E03197F1F7B9017E5F3D
:1031A00048E250E01198EFB7F894809102018160F5
:1031B00080930201EFBF119A1198EFB7F8948091B4
:1031C0000201816080930201EFBF119A1198EFB75D
:1031D000F89480910201816080930201EFBF119AFF
:1031E0001198EFB7F89480910201816080930201F9
:1031F000EFBF119A1198EFB7F894809102018160A6
:1032000080930201EFBF119A1198EFB7F894809163
:1032100002018E7F80930201EFBF119A1198EFB7E0
:10322000F894809102018E7F80930201EFBF119A82
:103230001198EFB7F894809102018E7F809302017C
:10324000EFBF119AFA013197F1F7903208F0C1C23D
:10325000892F807780681198FFB7F894E091020178
:10326000E160E0930201FFBF880F119A1198FFB748
:10327000F894E0910201EE7FE0930201FFBF880F16
:10328000119A1198FFB7F894E0910201EE7FE09354
:103290000201FFBF119A1198EFB786FDC2C3F894DF
:1032A000809102018E7F80930201EFBF119A1198E5
:1032B000EFB7F894809102018E7F80930201EFBFF7
:1032C000119A1198EFB7F894809102018E7F809344
:1032D0000201EFBF119A1198EFB7F89480910201A3
:1032E0008E7F80930201EFBF119A1198EFB7F89487
:1032F000809102018E7F80930201EFBF119A119895
:10330000F92FF295F07FEFB793FD86C3F894809183
:1033100002018E7F80930201EFBF119A1198EF2F67
:10332000EE0FF6FD73C3FFB7F894809102018E7F14
:1033300080930201FFBF119A1198FE2FFF0FE6FD47
:1033400075C3EFB7F894809102018E7F80930201DC
:10335000EFBF119A1198EFB7F6FD53C3F89480911F
:1033600002018E7F80930201EFBF119A1198EFB78F
:10337000F894809102018E7F80930201EFBF119A31
:103380001198EFB7F894809102018E7F809302012B
:10339000EFBF119A1198EFB7F894809102018E7FD8
:1033A00080930201EFBF119A1198EFB7F8948091C2
:1033B00002018E7F80930201EFBF119AFA013197CB
:1033C000F1F71198EFB7F894809102018160809332
:1033D0000201EFBF119A1198EFB7F89480910201A2
:1033E0008E7F80930201EFBF119A1198EFB7F89486
:1033F000809102018E7F80930201EFBF119A119894
:10340000EFB7F894809102018E7F80930201EFBFA5
:10341000119A1198EFB7F894809102018E7F8093F2
:103420000201EFBF119A1198EFB7F8948091020151
:103430008E7F80930201EFBF119A1198EFB7F89435
:10344000809102018E7F80930201EFBF119A119843
:10345000EFB7F894809102018E7F80930201EFBF55
:10346000119A1198EFB7F894809102018E7F8093A2
:103470000201EFBF119A1198EFB7F8948091020101
:103480008E7F80930201EFBF119A1198EFB7F894E5
:10349000809102018E7F80930201EFBF119A1198F3
:1034A000EFB7F894809102018E7F80930201EFBF05
:1034B000119A1198EFB7F894809102018E7F809352
:1034C0000201EFBF119A1198EFB7F89480910201B1
:1034D0008E7F80930201EFBF119A1198EFB7F89495
:1034E000809102018E7F80930201EFBF119A1198A3
:1034F000EFB7F894809102018E7F80930201EFBFB5
:10350000119AFA013197F1F71198EFB7F894809179
:103510000201816080930201EFBF119A1198EFB709
:10352000F89480910201816080930201EFBF119AAB
:103530001198EFB7F89480910201816080930201A5
:10354000EFBF119A1198EFB7F89480910201816052
:1035500080930201EFBF119A1198EFB7F894809110
:103560000201816080930201EFBF119A1198EFB7B9
:10357000F894809102018E7F80930201EFBF119A2F
:103580001198EFB7F8948091020181608093020155
:10359000EFBF119A1198EFB7F894809102018E7FD6
:1035A00080930201EFBF119AFA013197F1F7F90107
:1035B000205F3F4FBCC0F894109102011E7F109312
:1035C00002010FBF119A1198182F110F0FB786FD26
:1035D000DAC0F894809102018E7F809302010FBFC0
:1035E000119A1198012F000F16FDC7C01FB7F8944C
:1035F000809102018E7F809302011FBF119A119862
:103600001FB706FDB5C0F894809102018E7F8093AC
:1036100002011FBF119A11981FB7F89480910201FF
:103620008E7F809302011FBF119A11981FB7F894E3
:10363000809102018E7F809302011FBF119A119821
:103640001FB7F894809102018E7F809302011FBF03
:10365000119A11981FB7F894809102018E7F809380
:1036600002011FBF119A319688811198C82FC29507
:10367000C07FDFB783FD77C0F894809102018E7F11
:1036800080930201DFBF119A11988C2F880FDFB74A
:10369000C6FD64C0F894C0910201CE7FC0930201C0
:1036A000DFBF119A1198C82FCC0FDFB786FD51C02C
:1036B000F894809102018E7F80930201DFBF119AFE
:1036C0001198C6FD40C0CFB7F894809102018E7F5B
:1036D00080930201CFBF119A1198CFB7F8948091CF
:1036E00002018E7F80930201CFBF119A1198CFB74C
:1036F000F894809102018E7F80930201CFBF119ACE
:103700001198CFB7F894809102018E7F80930201C7
:10371000CFBF119A1198CFB7F894809102018E7F94
:1037200080930201CFBF119A2E173F0789F1EF0155
:103730008081807F11980FB787FF3DCFF89410915B
:10374000020111603CCFCFB7F894809102018160F3
:10375000BFCFF894809102018160AECFF894C09100
:103760000201C1609BCFF89480910201816088CFF3
:10377000F8948091020181604ACF1FB7F89480913C
:103780000201816038CFF89480910201816025CFD9
:10379000FA013197F1F79F5F2617370709F002CD3D
:1037A0009FB7F894809102018D7F809302019FBFA3
:1037B0001296CD91DC911397CE010E94BD3B8111F1
:1037C00081C7DF91CF911F910F91FF90EF90DF9014
:1037D0000895E0EEE90F8E2F807780681198CFB7BB
:1037E000F894F0910201F160F0930201CFBF119AB9
:1037F0001198F82FFF0FCFB786FD40C1F894809144
:1038000002018E7F80930201CFBF119A1198CF2FB2
:10381000CC0FF6FD2DC1FFB7F894809102018E7F89
:1038200080930201FFBF119A1198FFB7C6FD1BC11B
:10383000F894809102018E7F80930201FFBF119A5C
:103840001198FFB7F894809102018E7F8093020156
:10385000FFBF119A1198FFB7F894809102018E7FF3
:1038600080930201FFBF119A1198FFB7F8948091DD
:1038700002018E7F80930201FFBF119A1198FFB75A
:10388000F894809102018E7F80930201FFBF119A0C
:103890001198FE2FF295F07FE3FDDFC0EFB7F894AB
:1038A000809102018E7F80930201EFBF119A1198DF
:1038B000EF2FEE0FF6FDCBC0FFB7F8948091020119
:1038C0008E7F80930201FFBF119A1198FE2FFF0F88
:1038D000E6FDB7C0EFB7F894809102018E7F809328
:1038E0000201EFBF119A1198EFB7F6FDA5C0F89449
:1038F000809102018E7F80930201EFBF119A11988F
:10390000EFB7F894809102018E7F80930201EFBFA0
:10391000119A1198EFB7F894809102018E7F8093ED
:103920000201EFBF119A1198EFB7F894809102014C
:103930008E7F80930201EFBF119A1198EFB7F89430
:10394000809102018E7F80930201EFBF119AFA01EC
:103950003197F1F71198EFB7F894809102018160E7
:1039600080930201EFBF119A1198EFB7F8948091FC
:1039700002018E7F80930201EFBF119A1198EFB779
:10398000F894809102018E7F80930201EFBF119A1B
:103990001198EFB7F894809102018E7F8093020115
:1039A000EFBF119A1198EFB7F894809102018E7FC2
:1039B00080930201EFBF119A1198EFB7F8948091AC
:1039C00002018E7F80930201EFBF119A1198EFB729
:1039D000F894809102018E7F80930201EFBF119ACB
:1039E0001198EFB7F894809102018E7F80930201C5
:1039F000EFBF119A1198EFB7F8948091020181609E
:103A000036CDF894809102018160ACCCFFB7F89478
:103A10008091020181608CCCF894809102018160D8
:103A200079CCF8948091020181603DCCEFB7F89495
:103A30008091020181608ACCF894809102018160BA
:103A40005ACFEFB7F89480910201816048CFFFB759
:103A5000F89480910201816034CFEFB7F89480919F
:103A60000201816020CFF894809102018160E4CE50
:103A7000FFB7F894809102018160D2CEF8948091D2
:103A800002018160BFCE1296CD91DC91139790E038
:103A9000FC017497E433F10508F0F1C58827EE586E
:103AA000FF4F8F4F0C94C95E80910101826080931B
:103AB00001019FB7F894809102018D7F80930201EC
:103AC0009FBF809101018160809301019FB7F894AD
:103AD000809102018E7F809302019FBF099A119A03
:103AE0009FB7F894809102018260809302019FBF8A
:103AF00088E290E00197F1F72AE530E04EE95FE0D7
:103B00008EE99FE0FA013197F1F721503109C1F7B1
:103B100011983FB7F894209102012160209302018F
:103B20003FBF119A11983FB7F8942091020121608C
:103B3000209302013FBF119A11983FB7F89420914A
:103B400002012160209302013FBF119A11983FB7F3
:103B5000F894209102012160209302013FBF119A45
:103B600011983FB7F894209102012160209302013F
:103B70003FBF119A11983FB7F894209102012E7F10
:103B8000209302013FBF119A11983FB7F8942091FA
:103B900002012E7F209302013FBF119A11983FB777
:103BA000F894209102012E7F209302013FBF119AC9
:103BB00028E230E0F9013197F1F711985FB7F894F6
:103BC000409102014E7F409302015FBF119A11980C
:103BD0005FB7F894409102014E7F409302015FBFAE
:103BE000119A11985FB7F894409102014E7F40936B
:103BF00002015FBF119A11985FB7F89440910201DA
:103C00004E7F409302015FBF119A11985FB7F894FD
:103C1000409102014E7F409302015FBF119A1198BB
:103C20005FB7F894409102014E7F409302015FBF5D
:103C3000119A11985FB7F894409102014E7F40931A
:103C400002015FBF119A11985FB7F8944091020189
:103C50004E7F409302015FBF119A11985FB7F894AD
:103C6000409102014160409302015FBF119A119897
:103C70005FB7F894409102014E7F409302015FBF0D
:103C8000119A11985FB7F894409102014E7F4093CA
:103C900002015FBF119A11985FB7F8944091020139
:103CA0004E7F409302015FBF119A11985FB7F8945D
:103CB000409102014E7F409302015FBF119A11981B
:103CC0005FB7F894409102014E7F409302015FBFBD
:103CD000119A11985FB7F894409102014E7F40937A
:103CE00002015FBF119A11985FB7F89440910201E9
:103CF0004E7F409302015FBF119AF9013197F1F7AE
:103D000011985FB7F894409102014E7F40930201F1
:103D10005FBF119A11985FB7F894409102014E7FEE
:103D2000409302015FBF119A11985FB7F8944091D8
:103D300002014E7F409302015FBF119A11985FB755
:103D4000F894409102014E7F409302015FBF119AA7
:103D500011985FB7F894409102014E7F40930201A1
:103D60005FBF119A11985FB7F894409102014E7F9E
:103D7000409302015FBF119A11985FB7F894409188
:103D800002014E7F409302015FBF119A11985FB705
:103D9000F894409102014E7F409302015FBF119A57
:103DA00011985FB7F894409102014E7F4093020151
:103DB0005FBF119A11985FB7F894409102014E7F4E
:103DC000409302015FBF119A11985FB7F894409138
:103DD00002014E7F409302015FBF119A11985FB7B5
:103DE000F894409102014160409302015FBF119A33
:103DF00011985FB7F894409102014E7F4093020101
:103E00005FBF119A11985FB7F894409102014E7FFD
:103E1000409302015FBF119A11985FB7F8944091E7
:103E200002014E7F409302015FBF119A11985FB764
:103E3000F894409102014E7F409302015FBF119AB6
:103E4000F9013197F1F7FC013197F1F7FC01319756
:103E5000F1F7FC013197F1F7FC013197F1F7FC0123
:103E60003197F1F7FC013197F1F7FC013197F1F748
:103E7000FC013197F1F7FC013197F1F70197F1F768
:103E800011989FB7F894809102018E7F8093020170
:103E90009FBF119A11989FB7F894809102018E7F6D
:103EA000809302019FBF119A11989FB7F894809157
:103EB00002018160809302019FBF119A11989FB700
:103EC000F894809102018160809302019FBF119A52
:103ED00011989FB7F894809102018E7F8093020120
:103EE0009FBF119A11989FB7F894809102018E7F1D
:103EF000809302019FBF119A11989FB7F894809107
:103F000002018E7F809302019FBF119A11989FB783
:103F1000F894809102018E7F809302019FBF119AD5
:103F200011989FB7F89480910201816080930201FB
:103F30009FBF119A11989FB7F894809102018160F8
:103F4000809302019FBF119A11989FB7F8948091B6
:103F500002018160809302019FBF119A11989FB75F
:103F6000F894809102018E7F809302019FBF119A85
:103F700011989FB7F894809102018E7F809302017F
:103F80009FBF119A11989FB7F894809102018E7F7C
:103F9000809302019FBF119A11989FB7F894809166
:103FA00002018E7F809302019FBF119A11989FB7E3
:103FB000F894809102018E7F809302019FBF119A35
:103FC000C9010197F1F760E048E250E0862F807761
:103FD000806811987FB7F894909102019160909356
:103FE00002017FBF880F119A11987FB7F8949091C2
:103FF00002019E7F909302017FBF880F119A119852
:104000007FB7F894909102019E7F909302017FBF49
:10401000119A11989FB786FD4BC3F89480910201C5
:104020008E7F809302019FBF119A11989FB7F894D9
:10403000809102018E7F809302019FBF119A119897
:104040009FB7F894809102018E7F809302019FBFF9
:10405000119A11989FB7F894809102018E7F8093F6
:1040600002019FBF119A11989FB7F89480910201A5
:104070008E7F809302019FBF119A1198962F92957F
:10408000907F7FB763FD19C3F894809102018E7F02
:10409000809302017FBF119A1198892F880F7FB7F3
:1040A00096FD01C3F894909102019E7F90930201C6
:1040B0007FBF119A1198982F990F7FB786FDEEC296
:1040C000F894809102018E7F809302017FBF119A44
:1040D000119896FDDDC29FB7F894809102018E7F02
:1040E000809302019FBF119A11989FB7F894809115
:1040F00002018E7F809302019FBF119A11989FB792
:10410000F894809102018E7F809302019FBF119AE3
:1041100011989FB7F894809102018E7F80930201DD
:104120009FBF119A11989FB7F894809102018E7FDA
:10413000809302019FBF119AC9010197F1F711986D
:104140009FB7F894809102018160809302019FBF24
:10415000119A11989FB7F894809102018E7F8093F5
:1041600002019FBF119A11989FB7F89480910201A4
:104170008E7F809302019FBF119A11989FB7F89488
:10418000809102018E7F809302019FBF119A119846
:104190009FB7F894809102018E7F809302019FBFA8
:1041A000119A11989FB7F894809102018E7F8093A5
:1041B00002019FBF119A11989FB7F8948091020154
:1041C0008E7F809302019FBF119A11989FB7F89438
:1041D000809102018E7F809302019FBF119A1198F6
:1041E0009FB7F894809102018E7F809302019FBF58
:1041F000119A11989FB7F894809102018E7F809355
:1042000002019FBF119A11989FB7F8948091020103
:104210008E7F809302019FBF119A11989FB7F894E7
:10422000809102018E7F809302019FBF119A1198A5
:104230009FB7F894809102018E7F809302019FBF07
:10424000119A11989FB7F894809102018E7F809304
:1042500002019FBF119A11989FB7F89480910201B3
:104260008E7F809302019FBF119A11989FB7F89497
:10427000809102018E7F809302019FBF119AC90134
:104280000197F1F711989FB7F8948091020181602E
:10429000809302019FBF119A11989FB7F894809163
:1042A00002018160809302019FBF119A11989FB70C
:1042B000F894809102018160809302019FBF119A5E
:1042C00011989FB7F8948091020181608093020158
:1042D0009FBF119A11989FB7F89480910201816055
:1042E000809302019FBF119A11989FB7F894809113
:1042F00002018E7F809302019FBF119A11989FB790
:10430000F894809102018160809302019FBF119A0D
:1043100011989FB7F894809102018E7F80930201DB
:104320009FBF119AC9010197F1F790E211987FB7E9
:10433000F894809102018E7F809302017FBF119AD1
:1043400011987FB7F894809102018E7F80930201CB
:104350007FBF119A11987FB7F894809102018E7FE8
:10436000809302017FBF119A11987FB7F8948091D2
:1043700002018E7F809302017FBF119A11987FB74F
:10438000F894809102018E7F809302017FBF119A81
:1043900011987FB7F894809102018E7F809302017B
:1043A0007FBF119A11987FB7F894809102018E7F98
:1043B000809302017FBF119A11987FB7F894809182
:1043C00002018E7F809302017FBF119A11987FB7FF
:1043D000F894809102018E7F809302017FBF119A31
:1043E00011987FB7F894809102018E7F809302012B
:1043F0007FBF119A11987FB7F894809102018E7F48
:10440000809302017FBF119A11987FB7F894809131
:1044100002018E7F809302017FBF119A11987FB7AE
:10442000F894809102018E7F809302017FBF119AE0
:1044300011987FB7F894809102018E7F80930201DA
:104440007FBF119A11987FB7F894809102018E7FF7
:10445000809302017FBF119A11987FB7F8948091E1
:1044600002018E7F809302017FBF119AF90131977B
:10447000F1F7915009F05ACF11989FB7F8948091B5
:1044800002018160809302019FBF119A11989FB72A
:10449000F894809102018160809302019FBF119A7C
:1044A00011989FB7F8948091020181608093020176
:1044B0009FBF119A11989FB7F89480910201816073
:1044C000809302019FBF119A11989FB7F894809131
:1044D00002018160809302019FBF119A11989FB7DA
:1044E000F894809102018E7F809302019FBF119A00
:1044F00011989FB7F894809102018E7F80930201FA
:104500009FBF119A11989FB7F894809102018E7FF6
:10451000809302019FBF119ACA010197F1F76F5F63
:10452000603209F053CD11989FB7F8948091020141
:104530008E7F809302019FBF119A11989FB7F894C4
:10454000809102018E7F809302019FBF119A119882
:104550009FB7F894809102018E7F809302019FBFE4
:10456000119A11989FB7F894809102018E7F8093E1
:1045700002019FBF119A11989FB7F8948091020190
:104580008E7F809302019FBF119A11989FB7F89474
:10459000809102018E7F809302019FBF119A119832
:1045A0009FB7F894809102018E7F809302019FBF94
:1045B000119A11989FB7F894809102018E7F809391
:1045C00002019FBF119A11989FB7F8948091020140
:1045D0008160809302019FBF119A11989FB7F89450
:1045E000809102018160809302019FBF119A11980E
:1045F0009FB7F894809102018E7F809302019FBF44
:10460000119A11989FB7F894809102018E7F809340
:1046100002019FBF119A11989FB7F89480910201EF
:104620008E7F809302019FBF119A11989FB7F894D3
:10463000809102018E7F809302019FBF119A119891
:104640009FB7F894809102018E7F809302019FBFF3
:10465000119A11989FB7F894809102018E7F8093F0
:1046600002019FBF119A88E290E00197F1F79FB78E
:10467000F894809102018D7F809302019FBF81E0B9
:10468000DF91CF911F910F91FF90EF90DF900895F0
:104690009FB7F89480910201816022CDF8948091B7
:1046A0000201816011CDF894909102019160FECCDD
:1046B000F894809102018160B4CCF8948091020159
:1046C0008160E6CC4D8184E0489FA001112460E028
:1046D00070E08E819F810E94F55E81E0D1CFF9016B
:1046E00081819381913009F44CC09330E1F448EF1B
:1046F000480F31E09B81941708F430E021E09A8163
:10470000891708F420E091E0841708F090E0492F21
:10471000432B242319F4932309F4B1CFF801F28039
:10472000EE24EA9412C02B81281708F4A8CF2A811E
:10473000821708F4A4CFF801F2809130D9F1E8F0A3
:104740009230B9F0933061F3E12CD12C09C0F8011B
:1047500090819D0D90838E0D8183FF0C09F48FCF86
:10476000F7FEF5CFB801CE010E94A83BF801818188
:10477000EECFE12CDD24DA94F3CFE12CDD24D394C9
:10478000EFCF38E0380F21E09B81981708F420E044
:1047900091E0381708F090E041E05A81351708F4AD
:1047A00040E0322F392B342319F4922309F467CFD8
:1047B000F801F280EE24E394C8CFB901CE010E9443
:1047C000A83B81E05DCFF90110828A8181838D81D0
:1047D000815082838B81838381E052CF4D81F4E0CD
:1047E0004F9FA001112460E070E08E819F810E94A4
:1047F000F55ECE010E94D33B81E042CF8981F80172
:10480000808381E03DCF8D81FACFDF92EF92FF92DE
:104810000F931F93CF93DF93EC01D62E1CAD0BADFE
:104820007C0184E0E80EF11CE98DFA8DC701199531
:10483000412F480F2D2D602FC7010E94DF459BADF2
:10484000890F8BAF81E090E0DF91CF911F910F91A5
:10485000FF90EF90DF9008958F929F92AF92BF925A
:10486000CF92DF92EF92FF92109291006091D70366
:104870007091D803072E000C880B990B0E94AC5B3B
:104880006B017C016091ED037091EE03072E000C2B
:10489000880B990B0E94AC5B4B015C012FE832EC5A
:1048A00045EF5CE30E940B5C9B01AC01C701B601C4
:1048B0000E94A65B87FF02C060E011C02CEE31E5CC
:1048C00048E75FE3C501B4010E940B5C9B01AC01AA
:1048D000C701B6010E940E5E181634F461E08091A3
:1048E000D3030E940B384AC08091F1039091F203E8
:1048F000009771F460E08091D3030E940B382091FF
:10490000DD033091DE038091EF039091F00320C02E
:104910001816190654F461E08091D3030E940B38F5
:104920008091F1039091F20315C060E08091D30370
:104930000E940B382091DD033091DE038091EF035C
:104940009091F003820F931F2091F1033091F203B5
:10495000820F931F9093990080939800809191000B
:104960008860809391008091910082608093910093
:1049700081E090E090939500809394001092A100C4
:104980006091D9037091DA03072E000C880B990B04
:104990000E94AC5B6B017C016091ED037091EE03B2
:1049A000072E000C880B990B0E94AC5B4B015C013D
:1049B0002FE832EC45EF5CE30E940B5C9B01AC01FD
:1049C000C701B6010E94A65B87FF02C060E011C06C
:1049D0002CEE31E548E75FE3C501B4010E940B5CB2
:1049E0009B01AC01C701B6010E940E5E18166CF463
:1049F00061E08091D503FF90EF90DF90CF90BF9062
:104A0000AF909F908F900C940B388091F103909110
:104A1000F203009771F460E08091D5030E940B3897
:104A20002091E5033091E6038091EF039091F0032C
:104A300020C01816190654F461E08091D5030E9435
:104A40000B388091F1039091F20315C060E08091E2
:104A5000D5030E940B382091E5033091E603809145
:104A6000EF039091F003820F931F2091F103309197
:104A7000F203820F931F9093A9008093A800809166
:104A8000A10088608093A1008091A1008260809342
:104A9000A10081E090E09093A5008093A400FF9096
:104AA000EF90DF90CF90BF90AF909F908F90089540
:104AB0000E949A38609308047093090480930A0452
:104AC00090930B04089580E197E2909348068093B9
:104AD00047062EE63FE030934A062093490690931E
:104AE0004C0680934B0684E190E0909361038093A1
:104AF0006003E8E8F3E080E090E0A0E0B0E48083C9
:104B00009183A283B38380E090E0A0ECBFE3848331
:104B10009583A683B78380879187A287B38786E62C
:104B200096E6A6EEBFE384879587A687B7878DECC8
:104B30009CECACE0B0E4808B918BA28BB38B86E6CF
:104B400096E6A6E2B0E4848B958BA68BB78B8AE9B8
:104B500099E9A9E3B0E4808F918FA28FB38F83E3AB
:104B600093E3A3E5B0E4848F958FA68FB78F80E0A1
:104B700090E0A0E8BFE380A391A3A2A3B3A384A382
:104B800095A3A6A3B7A380A791A7A2A7B3A7E4EB79
:104B9000F3E084EA96E09183808393838283958314
:104BA000848397838683918780879387828795877D
:104BB000848797878687918B808B938B828B958B4D
:104BC000848BE6E7F3E084E690E09183808393832F
:104BD000828395838483978386839187808726EE5B
:104BE00030E033872287E8E6F3E091838083938384
:104BF0008283958384839783868391878087938735
:104C000082872CEB32E03093CE032093CD0320E556
:104C100030E0309351032093500346E450E050932A
:104C200075034093740330935D0320935C033093CA
:104C3000630320936203309365032093640390938E
:104C40005F0380935E0342E050E050934B03409338
:104C50004A0385E090E09093570380935603909326
:104C600055038093540390934F0380934E03909386
:104C70004D0380934C0390935B0380935A032CE382
:104C800030E030935204209351042EE130E0309311
:104C9000CB032093CA032AE030E0309387032093AC
:104CA0008603909367038093660330938303209376
:104CB00082035093F8034093F70380ED97E09093BD
:104CC00085038093840383E090E090935303809363
:104CD000520330935903209358030895EF92FF92A3
:104CE0000F931F93CF938C017B01C42FF801808118
:104CF00091810E94BF5CF70181937F01F80180815F
:104D00009181019691838083C15081F7CF911F914A
:104D10000F91FF90EF900895EF92FF920F931F93E2
:104D2000CF938C017B01C42FF70161917F01F801C2
:104D3000808191810E94C75CF801808191810196F8
:104D400091838083C15081F7CF911F910F91FF9084
:104D5000EF9008951F920F920FB60F9211240BB689
:104D60000F922F933F934F935F936F937F938F9304
:104D70009F93AF93BF93EF93FF938091F103909133
:104D8000F203092E000CAA0BBB0B0097A105B1057D
:104D900069F461E08091D5030E940B381092A10064
:104DA0008091E9039091EA030A962EC0181619061D
:104DB0001A061B06C4F48091D5030E94E3370197BD
:104DC000C1F460E08091D5030E940B381092A100DD
:104DD0002091E5033091E6038091EF039091F00379
:104DE000820F931F25C08091D5030E94E337892B42
:104DF00081F461E08091D5030E940B381092A100EC
:104E00008091E9039091EA032091EF033091F00340
:104E10000DC060E08091D5030E940B381092A10074
:104E20002091F1033091F2038AE090E0821B930B12
:104E30009093A9008093A8008091A100886080933E
:104E4000A1008091A10082608093A10081E090E0A8
:104E50009093A5008093A400FF91EF91BF91AF9133
:104E60009F918F917F916F915F914F913F912F9182
:104E70000F900BBE0F900FBE0F901F9018951F92B2
:104E80000F920FB60F9211240BB60F922F933F93F0
:104E90004F935F936F937F938F939F93AF93BF9342
:104EA000EF93FF938091F1039091F203092E000C90
:104EB000AA0BBB0B0097A105B10569F461E08091D5
:104EC000D3030E940B38109291008091E1039091DE
:104ED000E2030A962EC0181619061A061B06C4F419
:104EE0008091D3030E94E3370197C1F460E0809181
:104EF000D3030E940B38109291002091DD03309172
:104F0000DE038091EF039091F003820F931F25C081
:104F10008091D3030E94E337892B81F461E0809173
:104F2000D3030E940B38109291008091E10390917D
:104F3000E2032091EF033091F0030DC060E0809117
:104F4000D3030E940B38109291002091F10330910D
:104F5000F2038AE090E0821B930B90939900809378
:104F600098008091910088608093910080919100D9
:104F700082608093910081E090E09093950080930F
:104F80009400FF91EF91BF91AF919F918F917F918D
:104F90006F915F914F913F912F910F900BBE0F90AA
:104FA0000FBE0F901F90189561E080E20C940B38B3
:104FB0008091510490915204A0E0B0E080930104EC
:104FC00090930204A0930304B093040481E08093BF
:104FD00005040895092E000CAA0BBB0B8093F9035E
:104FE0009093FA03A093FB03B093FC0381E08093BA
:104FF000FE031092FD0308958111D6CF60E080E298
:105000000C940B382F923F924F925F926F927F9247
:105010008F929F92AF92BF92CF92DF92EF92FF92C8
:105020000F931F93CF93DF93CDB7DEB72A970FB6B9
:10503000F894DEBF0FBECDBF40914E0650914F0693
:105040006091500670915106413080E85807610523
:10505000710508F00AC4DB01CA01B695A7959795BA
:105060008795F0905E060F2D10E020E030E080176D
:105070009107A207B30718F480935E06F82EE12C7F
:10508000DD24D39405E1202E02E0302E82E2482E6A
:1050900082E0582E9CE2692E92E0792E2BE0822E3F
:1050A000912CA12CB12CF11085C080911502882380
:1050B00009F44BC0423051056105710508F4CAC1BD
:1050C000D092250610923C068E2D90E00196982FE6
:1050D000990F890F880F880F80933D0660E281E069
:1050E00096E093DBF3016491662309F4BCC311E1FC
:1050F000C12E0CE212E001C0C82E81E096E085DBF3
:105100000F5F1F4F8FEF8C0DF80164916111F4CF89
:105110001EEF1C0D06C060E281E096E076DB812F79
:1051200011508111F8CF6BEF81E096E06EDB60E209
:1051300081E096E06ADBD092250640914E065091C0
:105140004F0660915006709151068091530681116F
:10515000D9C0809149031092530682FF0AC0809102
:105160005206811106C0423051056105710508F4EF
:1051700095C34C3051056105710508F0CBC0DB01CA
:10518000CA01B695A79597958795E82F20915E0659
:1051900030E02C5F3F4F281739070CF0D3C08CEF5D
:1051A000F82EFE0EF0925E06D0921502E12CFF2042
:1051B00009F47BCFF1E0FF12CCC080911502882367
:1051C00009F44FC07695679557954795413051053D
:1051D0006105710509F44CC1F092250610923C0658
:1051E0008E2D90E00196982F990F890F880F880FC8
:1051F00080933D0660E281E096E007DBF201649176
:10520000662309F443C3A1E1CA2E02E212E001C001
:10521000C82E81E096E0F9DA0F5F1F4F8FEF8C0DFB
:10522000F80164916111F4CF1EEF1C0D06C060E21D
:1052300081E096E0EADA812F11508111F8CF6AEF10
:1052400081E096E0E2DA60E281E096E0DEDAD09298
:10525000250640914E0650914F0660915006709180
:1052600051068091530681114DC0809149031092DF
:10527000530682FF7ECF8091520681117ACFDB01E7
:10528000CA01B695A795979587950197A105B10590
:1052900009F06FCF6BE872E080E195E00E94B34EB9
:1052A00060E772E080E195E00E94B34E0E94B13465
:1052B00086E39DE4909314028093130210924E06AD
:1052C00010924F06109250061092510681E0809382
:1052D00053062A960FB6F894DEBF0FBECDBFDF91FE
:1052E000CF911F910F91FF90EF90DF90CF90BF90E3
:1052F000AF909F908F907F906F905F904F903F9076
:105300002F900895109253064C3051056105710598
:1053100008F435CF80924E0690924F06A092500628
:10532000B092510685E090E0E5E04BE050E060E0AF
:1053300070E020915E0630E02C5F3F4F2817390760
:105340000CF42DCFE394F394F4E0FE1508F0ABCE0B
:10535000C0CFF2E0FF1293C080911502882309F4B8
:105360004FC0769567955795479542305105610531
:10537000710509F476C0D092250610923C068E2D58
:1053800090E00196982F990F890F880F880F8093CE
:105390003D0660E281E096E038DAF101649166232F
:1053A00009F472C231E1C32E05E112E001C0C82E3A
:1053B00081E096E02ADA0F5F1F4F8FEF8C0DF80126
:1053C00064916111F4CF1EEF1C0D06C060E281E014
:1053D00096E01BDA812F11508111F8CF6AEF81E03E
:1053E00096E013DA60E281E096E00FDAD0922506CB
:1053F00040914E0650914F066091500670915106B3
:105400008091530681117ECF8091490310925306FB
:1054100082FFAFCE809152068111ABCEDB01CA0173
:10542000B695A795979587950297A105B10509F0BF
:10543000A0CE6BE872E080E195E00E94B34E60E799
:1054400072E080E195E00E94B34E0E94B13489EA97
:105450009CE430CF2BEF4BEF6CE272E08E2D43D605
:105460006CCE2AEF4EE365E172E08E2D3CD6C0CFC4
:105470002AEF4EE362E272E08E2D35D6EACEF3E0FB
:10548000FF12ADC080911502882309F450C07695B3
:10549000679557954795433051056105710509F4A6
:1054A000DBC1D092250610923C068E2D90E001962D
:1054B000982F990F890F880F880F80933D0660E21F
:1054C00081E096E0A2D9E5E0F2E06491662309F478
:1054D000DFC101E1C02E05E012E001C0C82E81E06D
:1054E00096E093D90F5F1F4F8FEF8C0DF8016491F9
:1054F0006111F4CF1EEF1C0D06C060E281E096E062
:1055000084D9812F11508111F8CF60E281E096E0BB
:105510007CD960E281E096E078D9D092250640916E
:105520004E0650914F066091500670915106809141
:1055300053068111E7CE809149031092530682FFF2
:1055400018CE80915206811114CEDB01CA01B695A6
:10555000A795979587950397A105B10509F009CE01
:105560006BE872E080E195E00E94B34E60E772E084
:1055700080E195E00E94B34E0E94B13480E390E355
:105580009E838D8380E390E098878F8304E610E00C
:105590001A87098744E0BE016B5F7F4FCE010996F1
:1055A000BBDB4CE268E873E0CE010996B5DB46E16F
:1055B00064EB73E0CE010996AFDB86E590E39A8356
:1055C000898381E390E09C838B831A87098744E079
:1055D000BE016F5F7F4FCE0109969EDB2BC1F4E0C9
:1055E000FF12A8C080911502882309F450C0769557
:1055F000679557954795443051056105710509F444
:1056000024C1D092250610923C068E2D90E0019682
:10561000982F990F890F880F880F80933D0660E2BD
:1056200081E096E0F2D8E4EFF1E06491662309F4BA
:1056300033C1A1E1CA2E04EF11E001C0C82E81E000
:1056400096E0E3D80F5F1F4F8FEF8C0DF801649148
:105650006111F4CF1EEF1C0D06C060E281E096E000
:10566000D4D8812F11508111F8CF60E281E096E00B
:10567000CCD860E281E096E0C8D8D092250640916F
:105680004E0650914F0660915006709151068091E0
:105690005306811137CE809149031092530682FF41
:1056A00068CD80915206811164CDDB01CA01B695A7
:1056B000A795979587950497A105B10509F059CD50
:1056C0006BE872E080E195E00E94B34E60E772E023
:1056D00080E195E00E94B34E0E94B13484E690E0F0
:1056E0009A87898786E590E39A83898381E390E0AE
:1056F0009C838B8344E0BE016B5F7F4FCE01099694
:10570000EDDA43E050E0BE016B5F7F4FCE010196C2
:105710000E94FC5E892B09F08CC04CE268E873E0C3
:10572000CE010996DBDA46E164EB73E0CE0109961F
:10573000D5DA80C0F5E0FF121CCD809115028823D8
:1057400009F450C0769567955795479545305105B2
:105750006105710509F472C0D092250610923C06CD
:105760008E2D90E00196982F990F890F880F880F42
:1057700080933D0660E281E096E047D8E2EEF1E0FA
:105780006491662309F486C041E1C42E02EE11E063
:1057900001C0C82E81E096E038D80F5F1F4F8FEF11
:1057A0008C0DF80164916111F4CF1EEF1C0D06C041
:1057B00060E281E096E029D8812F11508111F8CF65
:1057C00060E281E096E021D860E281E096E01DD8B9
:1057D000D092250640914E0650914F06609150069A
:1057E000709151068091530681118CCD80914903AF
:1057F0001092530682FFBDCC809152068111B9CC24
:10580000DB01CA01B695A795979587950597A105E0
:10581000B10509F0AECC6BE872E080E195E00E9442
:10582000B34E60E772E080E195E00E94B34E0E94C3
:10583000B13449D981E0809353064BCD20E24EE349
:1058400062EE71E08E2D4FD4C5CF20E24EE364EFBF
:1058500071E08E2D48D413CF20E24EE365E072E074
:105860008E2D41D45CCE10E156CC10924E06109293
:105870004F06109250061092510680E090E0DC0135
:1058800040E050E0BA01EDCB10E1A0CD10E1CFCC6B
:1058900010E133CE10E18CCF10E1DFCE6BE872E087
:1058A00080E195E00E94B34E60E772E080E195E010
:1058B0000E94B34E0E94B1348FE190E4FBCCFF9282
:1058C0000F931F93CF93DF93CDB7DEB764970FB6D7
:1058D000F894DEBF0FBECDBF80915304882309F436
:1058E00066C081508093530480911502811162C07B
:1058F0008091490382FF05C080915306882309F4F3
:105900005DC120915C0630915D0640914E0650913C
:105910004F0624363105D4F5C901840F951F85360D
:10592000910594F010924E0610924F061092500678
:105930001092510684E690E019C0463FFFEF5F07E2
:10594000CCF4CA0182599F4F90935D0680935C0608
:1059500010924E0610924F06109250061092510669
:105960008A3091050CF050C18AE090E090935D067A
:1059700080935C0664960FB6F894DEBF0FBECDBF71
:10598000DF91CF911F910F91FF900895243631053B
:1059900031F0C901840F951F843691051CF224361D
:1059A000310509F41EC1C901840F951FCDCF81E0D7
:1059B00080931502FF24F394F092EC0488E6809320
:1059C0000E051092ED0410920F0560E08DEA95E04F
:1059D0000E941A3781E00E94184487E090E00E94FC
:1059E00074448DEA95E00E94D2368DEA95E00E94DB
:1059F000D2369C01332735952795359527953595D2
:105A0000279535952795922F990F290F220F182F3B
:105A1000121B8DEA95E00E94D2369C013327359502
:105A20002795359527953595279535952795922F67
:105A3000990F290F220F082F021B8DEA95E00E9473
:105A4000D2368DEA95E00E94D2368DEA95E00E942A
:105A5000D2368DEA95E00E94D236F09225068091EA
:105A6000090690910A068C589E40B9F18CE89EE098
:105A700090930A068093090680911C06882309F4F6
:105A8000D1C0813009F49EC2E9E9FEE0949190937F
:105A90001D06EAE9FEE0849180931E06E92F990F26
:105AA000FF0BE81BF10987FDF39580911F068034F9
:105AB00061F0E89FF00111240024EE0FFF1F001C8D
:105AC000EE0FFF1F001CEF2FF02DE093200680E863
:105AD00097E390931B0680931A0687E280933C0617
