:100000000C949C1B0C94E4740C94B9740C948E7432
:100010000C9463740C9438740C940D740C94E27307
:100020000C94B7730C94CD1B0C94CD1B0C94CD1B6E
:100030000C94CD1B0C94CD1B0C94CD1B0C94CD1BA0
:100040000C94CD1B0C94CD1B0C94CD1B0C94CD1B90
:100050000C94CD1B0C94CD1B0C94CD1B0C946D7388
:100060000C94CD1B0C945B720C9432720C94CD1BCF
:100070000C94CD1B0C94CD1B0C94CD1B0C94CD1B60
:100080000C949E4A0C94CD1B0C94CD1B0C94CD1B50
:100090000C94CD1B0C94CD1B0C94CD1B0C940F75A4
:1000A0000C94CD1B0C94CD1B0C94094A0C94CD1BC5
:1000B0000C94CD1B0C94CD1B0C94CD1B0C94CD1B20
:1000C0000C94CD1B0C94CD1B0C94CD1B0C94CD1B10
:1000D0000C94CD1B0C94CD1B0C94CD1B0C94CD1B00
:1000E0000C94CD1B1745053D68440C456844684495
:1000F00068446844684468446844684468446844A0
:10010000684468446844684468446844684468448F
:10011000684468446844684468446844684468447F
:1001200006456844684468446844684468446844D0
:10013000684498446844684468446844684468442F
:1001400068446844684468442C4527450271057139
:10015000F470F870FE703C7109710D7113711771B4
:100160001B712171257129713C712F7133713771A8
:1001700008000000BE922449123EABAAAA2ABECDB6
:10018000CCCC4C3E00000080BEABAAAAAA3E000028
:100190000000BF000000803F000000000008417820
:1001A000D3BB4387D1133D190E3CC3BD4282AD2B57
:1001B0003E68EC8276BED98FE1A93E4C80EFFFBE4F
:1001C00001C4FF7F3F00000000005B302E2E39305D
:1001D00030207365632E5D0050756C697A6961200B
:1001E000696E20737065676E696D652E0050756C61
:1001F000697A696120737065676E2E005B302E2E00
:10020000393030207365632E5D0050726573706500
:10021000676E696D656E746F0050726573706567A7
:100220006E696D656E746F005B302E2E3930302034
:100230007365632E5D00447572617461207370652F
:10024000676E696D656E746F202020696E2073740F
:10025000616E64627900537065672E207374616EFD
:10026000646279005B302E2E393030207365632E46
:100270005D004475726174612070756C697A6961A2
:1002800020202020202020706572696F64696361DE
:10029000004475726174612070756C2E005B302EA5
:1002A0002E393030207365632E5D00506572696FA2
:1002B000646F2070756C697A696100506572692E8F
:1002C0002070756C697A6961005B302E2E39303090
:1002D000207365632E5D0053746162696C697A7A7C
:1002E000617A696F6E650053746162696C697A2E18
:1002F000005B302E2E393030207365632E5D004D4B
:10030000617373696D6F2074656D706F20706572B5
:10031000202020206C27616363656E73696F6E65B2
:10032000004D61782074656D706F20616363005BC0
:10033000302E2E393030207365632E5D00416365A9
:100340006E73696F6E6520666973736100416363E4
:10035000206669737361005B302E2E393030207354
:1003600065632E5D0050726563617269636F207012
:10037000656C6C6574730050726563617269636F5C
:10038000005B302E2E393030207365632E5D0050B7
:10039000726572697363616C646F2063616E642E51
:1003A000005072652E2063616E642E005B302E2E2D
:1003B000393030207365632E5D0050756C697A2E7C
:1003C00020696E2020616363656E73696F6E6500DE
:1003D00050756C2E206163632E00506172616D65F3
:1003E000747269005B302E2E3235302043275D0059
:1003F00042797061737320616363656E73696F6EB8
:100400006500427970617373206163632E005B3015
:100410002E2E3235302043275D0053696375726597
:100420007A7A612066756D69005369632E2066755E
:100430006D69005B302E2E3235302043275D004D34
:100440006F64756C617A696F6E652066756D6900A1
:100450004D6F642E2066756D69005B302E2E32352F
:10046000302043275D0050617373616767696F20B7
:10047000646120766172696162696C6520696E20D1
:1004800073746162696C697A7A617A696F6E65000A
:10049000506173732E20696E20737461622E005B4D
:1004A000302E2E3235302043275D0041747469763A
:1004B000617A696F6E652076656E746F6C6120205D
:1004C00072697363616C64616D656E746F00417411
:1004D000742E2076656E742E20726973632E005B15
:1004E000302E2E3235302043275D004D616E636122
:1004F0006E7A61206669616D6D61004D616E636148
:10050000206669616D6D61005B302E2E32353020C2
:1005100043275D004469736174742E2063616E64C7
:10052000656C65747461004469736174742E206332
:10053000616E642E005B302E2E3235302043275DF5
:10054000005374756661207370656E746100537436
:10055000756661207370656E746100506172616DC3
:100560006574726900496D706F7374617A2E2064CE
:10057000656661756C7400436172696361206461D2
:1005800020454550524F4D0053616C766120696E95
:1005900020454550524F4D004F6666004F6E20007B
:1005A0004F6666004F6E2000436F636C6561004FBD
:1005B0006666004F6E20004F6666004F6E20004357
:1005C000616E64656C65747461005B302E2E32332D
:1005D0003020566F6C745D0056656E746F6C6120D0
:1005E00072697363616C64616D656E746F005665EA
:1005F0006E2E2072697363005B302E2E32383030DD
:100600002047697269275D0056656C6F6369746184
:100610002076656E746F6C612066756D6900566535
:100620006E2E2066756D69004D656E75207072695D
:100630006E636970616C65005B302E2E3235302040
:1006400043275D00537065676E696D656E746F203A
:1006500062617373612020202074656D7065726122
:10066000747572610042617373612074656D2E0050
:100670005B302E2E3630207365632E5D0054656D21
:10068000706F20636F636C65610054656D706F20DF
:10069000636F636C6561005B302E2E323330205601
:1006A0006F6C745D0056656E746F6C612072697357
:1006B00063616C64616D656E746F0056656E2E20AB
:1006C00072697363005B3330302E2E323830302045
:1006D00047697269275D0056656C6F6369746120B4
:1006E00076656E746F6C612066756D690056656E17
:1006F0002E2066756D69004C6976656C6C6920709A
:100700006F742E004C6976656C6C6F2036004C69F6
:1007100076656C6C6F2035004C6976656C6C6F206B
:1007200034004C6976656C6C6F2033004C697665DB
:100730006C6C6F2032004C6976656C6C6F203100F8
:10074000506172616D6574726900496D706F737488
:10075000617A2E2064656661756C7400436172690C
:10076000636120646120454550524F4D0053616CD8
:10077000766120696E20454550524F4D0054657298
:100780006D6F73746174690054696D657273004CA8
:100790006976656C6C6920706F742E004D656E759E
:1007A000207072696E636970616C650001050800F4
:1007B000FF060121023520FFFF07FF06FF09005059
:1007C000221656808080800080153353A0A0A0029E
:1007D00057575050F850F850500257572070A0709B
:1007E00028702013355580A040A02002475740A014
:1007F000A040A0A050251353808080122656408030
:1008000080808040122656804040404080024555FE
:100810009060F060900255552020F820201133534D
:10082000604080044151F011335340E0400246568D
:1008300010102040808012365640A0A0A0A0401288
:10084000365640C0404040E00246566090106080FE
:10085000F0024656F020601090600246562060A0DC
:10086000F02020024656F080E0109060024656606C
:1008700080E0909060024656F010202040400246F2
:100880005660906090906002465660909070106044
:10089000122555C0C000C0C01136566060006040CF
:1008A00080123656204080804020034353F000F0F1
:1008B00012365680402020408012365640A02040FC
:1008C0000040015858304898A8A890403002465639
:1008D000609090F09090024656E090E09090E00298
:1008E0004656609080809060024656E090909090CE
:1008F000E0024656F080E08080F0024656F080E04C
:10090000808080024656609080B09060024656908B
:1009100090F0909090123656E040404040E0024601
:100920005670202020A04002465690A0C0A0A09063
:100930000246568080808080F002465690F0F0900B
:10094000909002465690D0F0B0B09002465660901B
:1009500090909060024656E09090E080800147576A
:10096000609090D0B06010024656E09090E0909079
:10097000024656609040209060123656E04040405B
:10098000404002465690909090906002465690905B
:1009900090906060024656909090F0F0900246561B
:1009A00090906060909002565688885020202002D7
:1009B0004656F010204080F0123656E0808080804D
:1009C000E0024656808040201010123656E020206B
:1009D0002020E016325240A0014151F016225280F0
:1009E00040024454709090700246568080E090908F
:1009F000E01234546080806002465610107090906F
:100A00007002445460B0C060024656205040E0403E
:100A10004001455560907010600246568080E0901D
:100A200090901236564000C04040E01137572000E9
:100A3000202020A040024656808090E09090123600
:100A400056C040404040E0025454D0A8A8A80244F8
:100A500054E090909002445460909060014555E0BD
:100A600090E080800145557090701010024454A0B1
:100A7000D0808012345460C020C00246564040E00E
:100A800040502002445490909070123454A0A0A082
:100A90004002545488A8A8500244549060609001C9
:100AA00045559090709060024454F02040F0024709
:100AB00057304020C02040302216568080808080F1
:100AC00080024757C02040304020C006425250A00C
:100AD000FFFFFFFFFFFFFFFFFFFFFFFFFFFFFFFF26
:100AE000FFFFFFFFFFFFFFFFFFFFFFFFFFFFFFFF16
:100AF000FF090050221656800080808080014656F3
:100B00002070A0A070200246562050E04050A00265
:100B1000555588705070880256568850F820F82035
:100B2000221757808080008080800247577080E0C5
:100B3000907010E0173151A002565670A8C8C8A88E
:100B40007014355560A06000E003435350A050126C
:100B50003353E02020143151E002565670E8D8E8B3
:100B6000D870173151E015335340A040123555402D
:100B7000E04000E014355540A02040E0143555C059
:100B800020C020C01622524080014555909090E030
:100B90008002565678E8E8682828241151801122EE
:100BA00052408014355540C04040E014355540A0B7
:100BB0004000E0034353A050A0024757808080A02C
:100BC00060F0200247578080A0D010207002475765
:100BD00080408060A0F02012365640004080A04047
:100BE00002475740206090F09090024757204060A5
:100BF00090F0909002475760906090F0909002477C
:100C00005750A06090F0909002475790006090F08D
:100C1000909002475760906090F090900246567016
:100C2000A0A0F0A0B0014757609080809060400283
:100C300047574020F080E080F00247572040F08086
:100C4000E080F00247576090F080E080F002475764
:100C50009000F080E080F01237578040E040404044
:100C6000E01237572040E0404040E012375740A0A4
:100C7000E0404040E0123757A000E0404040E00232
:100C800056567048E848487002475750A090D0B078
:100C90009090024757402060909090600247572004
:100CA0004060909090600247576090609090906094
:100CB00002475750A06090909060024757900060A4
:100CC00090909060123353A040A002465670B0B08E
:100CD000D0D0E00247574020909090906002475754
:100CE0002040909090906002475760909090909034
:100CF00060024757900090909090600257571020E4
:100D0000885020202002465680E09090E0800246E5
:100D1000566090A0A090A00247574020007090908D
:100D20007002475720400070909070024757205043
:100D3000007090907002475750A000709090700221
:100D400046565000709090700247576090607090C7
:100D50009070025454F068B078113555608080600E
:100D60004002475740200060B0C060024757204013
:100D70000060B0C06002475760900060B0C0600281
:100D80004656500060B0C060123757804000C040E7
:100D900040E0123757204000C04040E01237574033
:100DA000A000C04040E0123656A000C04040E00223
:100DB0004757A040A01070906002475750A000E035
:100DC00090909002475740200060909060024757F3
:100DD00020400060909060024757609000609090C3
:100DE0006002475750A00060909060024656900005
:100DF000609090601235554000E00040024454700D
:100E0000B0D0E002475740200090909070024757C2
:100E10002040009090907002475760900090909012
:100E20007002465690009090907001485820400003
:100E300090907090600147578080E090E080800142
:100E4000475790009090709060FFFFFFC005FFFF34
:100E5000FFFFFFFC00003FFFFFFFFFE0000007FF78
:100E6000FFFFFF80000001FFFFFFFE002FF8007F63
:100E7000FFFFFC01FFFF803FFFFFF00FFFFFF00FC0
:100E8000FFFFE03FF7EFFC07FFFFC0FFF7F7FE03B0
:100E9000FFFF81FF67F2FF81FFFF03FFA7E6FFC0AF
:100EA000FFFE07FF27E6FFF07FFC0FFF33E47FF034
:100EB0003FF81FDF63E67DFC1FF83FBE31C67DFCB7
:100EC0001FF07FBE71873EFE0FE0FF3C71871C7FE5
:100ED00007E0FF38F0871E7F07C1FF38E1871C7FDE
:100EE00083C3FA1861870C6FC383FB1841C2085F84
:100EF000C187FC0801C0085FC187F90803C0184F0B
:100F0000E107F9080180184FE00FF10C0000184FBD
:100F1000F00FE31C00001847F00FE30C000018E38B
:100F2000F01FC30000000063F00FC7000000006165
:100F3000F81FC30000000061F81FC000000000019E
:100F4000F81FC00000000003F81FC00000000003ED
:100F5000F81FE00000000003F81FE000000000039D
:100F6000F81FE00000000007F81FF0000000000775
:100F7000F00FF0A000000507F81FE0FF00007F83DE
:100F8000F00FE0FFC001FF83F00FE07FE007FF07F5
:100F9000F00FF03FF80FFE07F007F81FFC1FF80FE7
:100FA000E087F807FC3FF01FE187FC01FE3F803F30
:100FB000E183FF000000007FC1C1FF80008001FFCE
:100FC000C3C1FFF001C007FF83E1FFF803C01FFFAB
:100FD00007E0FFFE03E03FFF07F07FFC03E03FFE7A
:100FE0000FF83FFC06201FFC1FF81FFC00001FF835
:100FF0001FFC0FF800000FF03FFE0FF800001FE08D
:101000007FFF03F880010FC0FFFF81FC84119F81E7
:10101000FFFFC07EC410BE03FFFFE03FCC13FC0700
:10102000FFFFF007FEFFF00FFFFFFC01FFFF803F17
:10103000FFFFFE001FF4007FFFFFFF80000001FFA5
:10104000FFFFFFE0000007FFFF00000000000000BE
:101050000000000000000000000000000000000090
:101060000000000000000000000000000000000080
:101070000000000000000000000000000000000070
:10108000000000000000003FC03FC03FC03FC03F25
:10109000C03FC01FC01FC01FC01FC01FC01FC00F48
:1010A000C00FC00FC00FC00FC00FC007C007C007E0
:1010B000C007C007C007C003C003C003C003C0030C
:1010C000C003C001C001C001C001C001C03FC020B9
:1010D0004020402040204020401FC01FC01FC01F94
:1010E000C01FC01FC00FC00FC00FC00FC00FC00F68
:1010F000C007C007C007C007C007C007C003C003C0
:10110000C003C003C003C003C001C001C001C001CF
:10111000C001C03FC020402040204020402040105F
:1011200040104010401040104010400FC00FC00F42
:10113000C00FC00FC00FC007C007C007C007C0075F
:10114000C007C003C003C003C003C003C003C00185
:10115000C001C001C001C001C03FC02040204020EC
:1011600040204020401040104010401040104010DF
:101170004008400840084008400840084007C007B1
:10118000C007C007C007C007C003C003C003C00337
:10119000C003C003C001C001C001C001C001C03F05
:1011A000C0204020402040204020401040104010EF
:1011B00040104010401040084008400840084008D7
:1011C00040084004400440044004400440044003FC
:1011D000C003C003C003C003C003C001C001C001FD
:1011E000C001C001C03FC02040204020402040201E
:1011F000401040104010401040104010400840087F
:1012000040084008400840084004400440044004AE
:1012100040044004400240024002400240024002BA
:101220004001C001C001C001C001C03FC02040203A
:1012300040204020402040104010401040104010FE
:10124000401040084008400840084008400840045A
:101250004004400440044004400440024002400274
:101260004002400240024001400140014001400173
:10127000C0B02000416D6269656E2E00B02000464E
:10128000756D690000091200FC0A01E803D720FF10
:10129000FD0EFD0BFD00000009000E010B0B090403
:1012A00000808080808080800000808004040409A9
:1012B000030790909090080A0A090000242424FF54
:1012C0002424FF242424070B0B0901FF107C929097
:1012D00050381412927C10070A0A09010042A4A493
:1012E000481010244A4A84070A0A090100609090B5
:1012F00090606294889462010404090407808080ED
:1013000080030C0C0903FF20404080808080808097
:10131000404020030C0C0903FF8040402020202087
:1013200020204040800707070901031092543854D9
:101330009210070707090101101010FE101010028B
:1013400004040904FEC0C04080070101090104FE35
:10135000020202090400C0C0070A0A0901000204CF
:101360000408101020404080070A0A090100384490
:101370008282828282824438070A0A090100103080
:1013800050901010101010FE070A0A09010038448E
:1013900082020408102040FE070A0A090100FE022A
:1013A0000408180402028478070A0A090100040CE0
:1013B00014244484FE040404070A0A090100FE8080
:1013C0008080F80402028478070A0A0901003C4080
:1013D0008080B8C482824438070A0A090100FE02EC
:1013E0000404080810101010070A0A090100384404
:1013F0008244384482824438070A0A09010038448A
:101400008282463A02020478020707090400C0C03B
:10141000000000C0C00209090904FEC0C0000000AD
:10142000C0C0408005090909020008102040804022
:10143000201008070404090102FE0000FE05090946
:10144000090200804020100810204080070A0A0985
:10145000010038448202040810100010070A0A092B
:10146000010038449AAAAAAAAA9C403C070A0A0981
:10147000010010282828447C44828282070A0A0935
:101480000100F8848284F884828284F8070A0A09B9
:1014900001003C42808080808080423C070A0A092B
:1014A0000100F88482828282828284F8070A0A0913
:1014B0000100FE808080F880808080FE070A0A0993
:1014C0000100FE808080F88080808080070A0A0901
:1014D000010038448280808E82824438070A0A09DB
:1014E000010082828282FE8282828282050A0A0949
:1014F0000200F82020202020202020F8070A0A09D6
:1015000001003E080808080808888870070A0A09C8
:10151000010082848890A0D088848282070A0A0908
:101520000100808080808080808080FE070A0A0918
:1015300001008282C6AA928282828282070A0A09F6
:1015400001008282C2A2928A86828282070A0A09E6
:1015500001007C82828282828282827C070A0A095E
:101560000100F884828284F880808080080B0B0957
:1015700001FF384482828282828A443A01070A0A41
:10158000090100F884828284F890888482070A0A1C
:101590000901007C8280807C020202827C070A0AA8
:1015A000090100FE101010101010101010070A0A88
:1015B00009010082828282828282824438070A0A7A
:1015C00009010082828244444428282810070A0A1C
:1015D0000901008282828292929292AA44070A0AA8
:1015E00009010082824428101028448282070A0AD6
:1015F00009010082824428101010101010070A0AF6
:10160000090100FE0204081020408080FE040C0C3A
:101610000903FFF080808080808080808080F007D8
:101620000A0A090100804040201010080404020446
:101630000C0C0902FFF010101010101010101010F8
:10164000F00704040901061028448208010109007A
:10165000FFFF03030309030A80402007070709016E
:10166000007C02027E82867A070A0A0901008080D5
:1016700080BCC2828282C2BC0707070901007C824B
:10168000808080827C070A0A0901000202027A86B1
:10169000828282867A0707070901007C8282FE80A7
:1016A000827C070A0A0901001C22222020F820203F
:1016B0002020070A0A0901FD7A84848478807C82CC
:1016C000827C070A0A090100808080BCC282828273
:1016D0008282050A0A090200600000E02020202022
:1016E00020F8050D0D0902FD18000038080808084B
:1016F0000808888870070A0A0901008080808488A9
:1017000090B0C88482050A0A090200E02020202047
:1017100020202020F8070707090100EC92929292FE
:101720009282070707090100BCC282828282820777
:1017300007070901007C82828282827C070A0A09EB
:1017400001FDB8C4828282C4B8808080070A0A0979
:1017500001FD3A46828282463A02020207070709E1
:1017600001009C6242404040400707070901007C9D
:1017700082807C02827C0709090901002020FC206C
:10178000202020221C070707090100828282828212
:10179000867A070707090100828244442828100737
:1017A00007070901008282929292AA44070707095B
:1017B000010082442810284482070A0A0901FD42D8
:1017C000422424241818109060070707090100FE1E
:1017D0000408102040FE060B0B0902001C202020EC
:1017E00020C0202020201C010C0C0904FF808080D8
:1017F000808080808080808080060B0B090100E063
:10180000101010100C10101010E00703030901074E
:1018100062928CFFFFFFFFFFFFFFFFFFFFFFFFFF55
:10182000FFFFFFFFFFFFFFFFFFFFFFFFFFFFFFFFC8
:10183000FFFFFFFF00000009000E010B0B09040071
:1018400080800000808080808080800608080901F8
:101850000008789490A0A47840070A0A0901001CA7
:10186000222020F8202060A25C07060609010382DE
:101870007C44447C82070A0A090100828244287C55
:10188000107C101010010B0B0904FF8080808080F9
:10189000008080808080040B0B0902FF60908060D4
:1018A0009090906010906003020209030BA0A008C2
:1018B00009090900013C4299A5A1A599423C0507E7
:1018C00007090103609070907800F8070808090183
:1018D000011224489090482412060404090102FCD5
:1018E000040404050101090204F8080909090001BA
:1018F0003C42B9A5BDA9A5423C060101090109FC6C
:1019000004040409030660909060070909090101B5
:10191000101010FE10101000FE04060609010460ED
:1019200090106080F0040606090104609020109079
:101930006003030309030A2040800709090901FE27
:101940008282828282C6BA8080070A0A0901007EEA
:101950008A8A8A7A0A0A0A0A0A020202090404C066
:10196000C00403030902FD20906003060609010478
:1019700040C0404040E005060609010470888870B8
:1019800000F8070808090101904824121224489021
:10199000070A0A09010040C0404042E60A121A063E
:1019A000070A0A09010040C040404CF2020C101E18
:1019B000070A0A0901006090201092660A121A06AE
:1019C000070A0A0901001000101020408082827C62
:1019D000070E0E0901002010080010282828447C5A
:1019E00044828282070E0E09010008102000102890
:1019F0002828447C44828282070E0E0901001028A8
:101A0000440010282828447C44828282070D0D0956
:101A1000010034580010282828447C448282820720
:101A20000D0D09010028280010282828447C448234
:101A30008282070E0E09010010282810102828287D
:101A4000447C44828282070A0A0901001E28282851
:101A50004E784888888E070D0D0901FD3C42808034
:101A600080808080423C082418070E0E0901002067
:101A7000100800FE808080F880808080FE070E0EB7
:101A800009010008102000FE808080F8808080809E
:101A9000FE070E0E09010010284400FE808080F829
:101AA00080808080FE070D0D090100282800FE803F
:101AB0008080F880808080FE050E0E0902004020A4
:101AC0001000F82020202020202020F8050E0E09EC
:101AD000020010204000F82020202020202020F8A4
:101AE000050E0E09020020508800F820202020203A
:101AF000202020F8050D0D090200505000F820208C
:101B0000202020202020F8070A0A090100784442FA
:101B100042F24242424478070D0D09010034580058
:101B20008282C2A2928A86828282070E0E090100F8
:101B3000201008007C82828282828282827C070E50
:101B40000E090100081020007C828282828282823B
:101B5000827C070E0E090100102844007C828282DC
:101B600082828282827C070D0D0901003458007C3C
:101B700082828282828282827C070D0D0901002886
:101B800028007C82828282828282827C0707070907
:101B9000010182442810284482070C0C0901FF022D
:101BA0007C868A8A9292A2A2C27C80070E0E0901CC
:101BB000002010080082828282828282824438075A
:101BC0000E0E090100081020008282828282828229
:101BD000824438070E0E09010010284400828282D8
:101BE00082828282824438070D0D09010028280074
:101BF00082828282828282824438070E0E0901002C
:101C00000810200082824428101010101010070ABB
:101C10000A0901008080FC828282FC808080060AA2
:101C20000A09010038444448D04844444458070B4A
:101C30000B090100201008007C02027E82867A07D0
:101C40000B0B090100081020007C02027E82867ABC
:101C5000070B0B090100102844007C02027E8286DB
:101C60007A070A0A0901003458007C02027E828643
:101C70007A070A0A0901002828007C02027E82866F
:101C80007A070C0C09010010282810007C02027E43
:101C900082867A0707070901006C12127E90926C07
:101CA000070A0A0901FD7C82808080827C1048300E
:101CB000070B0B090100201008007C8282FE808245
:101CC0007C070B0B090100081020007C8282FE803B
:101CD000827C070B0B090100102844007C8282FEE5
:101CE00080827C070A0A0901002828007C8282FE83
:101CF00080827C050C0C0902008040200000E0205E
:101D000020202020F8050C0C0902001020400000C3
:101D1000E02020202020F8050C0C0902002050882B
:101D20000000E02020202020F8050B0B09020050C5
:101D3000500000E02020202020F8070B0B090100B4
:101D4000483050083C448282824438070A0A09011C
:101D500000345800BCC28282828282070B0B0901C8
:101D600000201008007C82828282827C070B0B0993
:101D70000100081020007C82828282827C070B0B8B
:101D8000090100102844007C82828282827C070A3A
:101D90000A0901003458007C82828282827C070A10
:101DA0000A0901002828007C82828282827C07093D
:101DB0000909010010381000FE0010381007090949
:101DC0000901FF027C8A8A92A2A27C80070B0B0980
:101DD0000100402010008282828282867A070B0BEB
:101DE000090100081020008282828282867A070B15
:101DF0000B090100102844008282828282867A07C1
:101E00000A0A0901002828008282828282867A07D3
:101E10000E0E0901FD040810004242242424181863
:101E2000109060070B0B0901FE8080B8C48282828B
:101E3000C4B88080070D0D0901FD2424004242240E
:101E400024241818109060000A1400FC0D024A04A3
:101E50009920FFFC10FC0DFC0000000A0010020D90
:101E60000D0A0400C0C0C0C0C0C0C0C0C0C000C017
:101E7000C00604040A0209CCCCCC48090B160A019E
:101E8000011B001B001B007F80360036003600FF60
:101E9000006C006C006C00080D0D0A0100187EDB60
:101EA000D8D8D87E1B1B1BDB7E18090C180A010032
:101EB0007300DB00DE0076000C000C001800180038
:101EC00037003D806D806700090D1A0A0100380057
:101ED0006C006C006C00780030007000D800CD8081
:101EE000C700C600EF0079800205050A0408C0C0DB
:101EF000C0C080050D0D0A030018306060C0C0C06E
:101F0000C0C060603018050D0D0A0200C06030309E
:101F10001818181818303060C00807070A0103663F
:101F2000663CFF3C66660807070A0103181818FF9D
:101F30001818180403030A03FF7070E00801010A6F
:101F40000106FF0303030A0400E0E0E0070C0C0AAB
:101F5000020006060C0C181830306060C0C0080D76
:101F60000D0A0100183C6666C3C3C3C3C366663C62
:101F700018080D0D0A0100183878D8181818181804
:101F8000181818FF080D0D0A01003C66C3C30303AF
:101F9000061C3060C0C0FF080D0D0A01003C66C37E
:101FA000C303061C0603C3C3663C080D0D0A0100EB
:101FB00002060E1E3666C6C6FF06060606080D0D8C
:101FC0000A0100FFC0C0C0C0DCE6030303C3663CD7
:101FD000080D0D0A01003C66C2C0C0DCE6C3C3C3E5
:101FE000C3663C080D0D0A0100FF030306060C0C36
:101FF000181830306060080D0D0A01003C66C3C33C
:10200000C3663C66C3C3C3663C080D0D0A01003CB1
:1020100066C3C3C3C3673B030343663C0308080AA4
:102020000400E0E000000000E0E00409090A03FF0A
:102030007070000000007070E0070D0D0A010002D2
:10204000060C183060C06030180C06020806060A3C
:102050000103FF00000000FF070D0D0A020080C011
:102060006030180C060C183060C080080D0D0A0195
:10207000003C66C3C3C3060C181818001818080DD6
:102080000D0A01003C66C3CFDFDBDBDBDECCC063C7
:102090003E080D0D0A0100183C6666C3C3C3FFC3AA
:1020A000C3C3C3C3080D0D0A0100F8CCC6C6C6CC15
:1020B000FCC6C3C3C3C6FC080D0D0A01003C66C3C1
:1020C000C0C0C0C0C0C0C0C3663C080D0D0A01003E
:1020D000FCC6C3C3C3C3C3C3C3C3C3C6FC080D0D7F
:1020E0000A0100FFC0C0C0C0C0FCC0C0C0C0C0FF6B
:1020F000080D0D0A0100FFC0C0C0C0C0FCC0C0C0B8
:10210000C0C0C0080D0D0A01003C66C3C0C0C0CFEE
:10211000C3C3C3C3673D080D0D0A0100C3C3C3C3D6
:10212000C3C3FFC3C3C3C3C3C3080D0D0A0100FF6C
:102130001818181818181818181818FF090D1A0A5E
:1021400001001F80060006000600060006000600CB
:1021500006000600C600C6006C003800080D0D0A17
:102160000100C3C3C6C6CCCCF8CCCCC6C6C3C3081A
:102170000D0D0A0100C0C0C0C0C0C0C0C0C0C0C0FA
:10218000C0FF080D0D0A0100C3C3E7E7FFDBDBDB7F
:10219000DBC3C3C3C3080D0D0A0100C3E3E3F3F3BC
:1021A000DBDBCFCFC7C7C3C3080D0D0A01003C66F8
:1021B000C3C3C3C3C3C3C3C3C3663C080D0D0A0175
:1021C00000FCC6C3C3C3C3C6FCC0C0C0C0C0080EA9
:1021D0000E0A01FF3C66C3C3C3C3C3C3C3DBCF66E0
:1021E0003E03080D0D0A0100FCC6C3C3C3C3C6FCF1
:1021F000CCC6C6C3C3080D0D0A01003C66C3C0C0EF
:10220000603C060303C3663C080D0D0A0100FF187D
:102210001818181818181818181818080D0D0A0189
:1022200000C3C3C3C3C3C3C3C3C3C3C3663C080D96
:102230000D0A0100C3C3C3C36666663C3C3C181864
:1022400018080D0D0A0100C3C3C3C3C3DBDBDBDB0E
:10225000E7E7C3C3080D0D0A0100C3C366663C3C33
:10226000183C3C6666C3C3080D0D0A0100C3C36673
:10227000663C3C18181818181818080D0D0A0100AB
:10228000FF0303060C0C18303060C0C0FF060D0DB4
:102290000A0200FCC0C0C0C0C0C0C0C0C0C0C0FCFA
:1022A000070C0C0A0200C0C06060303018180C0C1B
:1022B0000606060D0D0A0200FC0C0C0C0C0C0C0C96
:1022C0000C0C0C0CFC0804040A0109183C66C30938
:1022D00001020A01FFFF800403030A030AC0603001
:1022E0000808080A01003E63037FC3C3C37D080DCD
:1022F0000D0A0100C0C0C0C0C0DCE6C3C3C3C3E652
:10230000DC0808080A01003E63C0C0C0C0633E0884
:102310000D0D0A010003030303033B67C3C3C3C3DB
:10232000673B0808080A01003C66C3FFC0C0633E63
:10233000080D0D0A01001E33333030FC30303030D0
:10234000303030080C0C0A01FC7DC7C6C6C67CC004
:102350007EC3C3C37E080D0D0A0100C0C0C0C0C04B
:10236000DCE6C3C3C3C3C3C3080B0B0A01001818C0
:102370000078181818181818FF070F0F0A02FC0623
:1023800006001E06060606060606C6C6C67C080D1C
:102390000D0A0100C0C0C0C0C0C6CCD8F0F8CCC681
:1023A000C3080D0D0A010078181818181818181805
:1023B000181818FF0808080A0100B6FFDBDBDBDB92
:1023C000DBDB0808080A0100DCE6C3C3C3C3C3C3E0
:1023D0000808080A01003C66C3C3C3C3663C080C76
:1023E0000C0A01FCDCE6C3C3C3C3E6DCC0C0C0C04A
:1023F000080C0C0A01FC3B67C3C3C3C3673B030360
:1024000003030808080A0100DE7360606060606012
:102410000808080A01007EC3C07E0303C37E080BC0
:102420000B0A0100303030FC3030303030331E08C1
:1024300008080A0100C3C3C3C3C3C3673B08080835
:102440000A0100C3C366663C3C18180808080A0164
:1024500000C3C3C3DBDBDBFF660808080A0100C357
:10246000663C18183C66C3080C0C0A01FCC3C3C3C5
:10247000C3C3C3673B03C3663C0708080A0200FEE8
:10248000060C183060C0FE080D0D0A01000F181868
:10249000181818F018181818180F020D0D0A040053
:1024A000C0C0C0C0C0C0C0C0C0C0C0C0C0080D0D4A
:1024B0000A0100F018181818180F1818181818F032
:1024C0000803030A010A73DBCEFFFFFFFFFFFFFFD4
:1024D000FFFFFFFFFFFFFFFFFFFFFFFFFFFFFFFF0C
:1024E000FFFFFFFFFFFFFFFFFFFF0000000A0010DC
:1024F000020D0D0A0400C0C000C0C0C0C0C0C0C0F2
:10250000C0C0C0070C0C0A010018183C66C2C0C04D
:10251000C2663C1818090C180A01001E003300336B
:102520000030003000FC00300030003000F800AD1A
:1025300080E7000909120A00018080DD807F0063C6
:1025400000630063007F00DD808080080B0B0A01C0
:102550000081C3663C7E187E18181818020D0D0AFB
:102560000400C0C0C0C0C0000000C0C0C0C0C008DF
:102570000D0D0A01003C66C66078CC66331E06630A
:10258000663C0602020A020BCCCC080B0B0A0100C7
:102590003C66C3BDA5A1A5BDC3663C0809090A01E7
:1025A000043E43037FC3C37D00FF090B160A0000EE
:1025B00004800D801B0036006C00D8006C003600D3
:1025C0001B000D8004800804040A0104FFFF0303BC
:1025D0000601010A0206FC080B0B0A01003C66C357
:1025E000BDA5BDA9ADC3663C0801010A010DFF06EA
:1025F00006060A02073078CCCC78300807070A01B3
:10260000021818FF181800FF0507070A020670D8FD
:10261000183060C0F80507070A020670D81830188D
:10262000D8700403030A030A3060C0070A0A0A01CB
:10263000FDC6C6C6C6C6EEFAC0C0C0080D0D0A016A
:10264000007FFFFBFBFB7B1B1B1B1B1B1B1B0303DD
:10265000030A0405E0E0E00504040A02FC3018D88F
:10266000700407070A020660E060606060F0070916
:10267000090A0104386CC6C6C66C3800FE090B1680
:102680000A01009000D8006C0036001B000D801B72
:102690000036006C00D8009000080C0C0A010140C4
:1026A000C04142E40812264A9E0202080C0C0A01AC
:1026B0000140C04142E40816294182040F080C0C75
:1026C0000A0101E0106112E40812264A9F02020882
:1026D0000D0D0A01001818001818183060C3C3C384
:1026E000663C080F0F0A010060301800183C66C3F2
:1026F000C3C3FFC3C3C3C3080F0F0A0100060C18EE
:1027000000183C66C3C3C3FFC3C3C3C3080F0F0A8B
:102710000100183C6600183C66C3C3C3FFC3C3C3B3
:10272000C3080F0F0A0100327E4C00183C66C3C379
:10273000C3FFC3C3C3C3080F0F0A010066660018B6
:102740003C6666C3C3C3FFC3C3C3C30810100A01FA
:10275000003C66663C00183C66C3C3C3FFC3C3C3EA
:10276000C3080D0D0A01001F3C6C6CCCCCFFCCCC17
:10277000CCCCCCCF0811110A01FC3C66C3C0C0C050
:10278000C0C0C0C0C3663C180C6C38080F0F0A01EB
:102790000060301800FFC0C0C0C0FCC0C0C0C0FF97
:1027A000080F0F0A01000C183000FFC0C0C0C0FCA9
:1027B000C0C0C0C0FF080F0F0A0100183C6600FF30
:1027C000C0C0C0C0FCC0C0C0C0FF080F0F0A0100DD
:1027D00066660000FFC0C0C0C0FCC0C0C0C0FF062D
:1027E0000F0F0A020060301800FC303030303030FB
:1027F000303030FC060F0F0A020018306000FC3049
:102800003030303030303030FC060F0F0A020030EC
:1028100078CC00FC303030303030303030FC060FB7
:102820000F0A0200CCCC00FC303030303030303079
:102830003030FC090D1A0A00007E006300618061DF
:102840008061806180F980618061806180618063E6
:10285000007E00080F0F0A0100327E4C00C3E3F334
:10286000F3DBDBCFCFC7C3C3080F0F0A010030185B
:102870000C003C66C3C3C3C3C3C3C3663C080F0F8D
:102880000A01000C1830003C66C3C3C3C3C3C3C3F2
:10289000663C080F0F0A0100183C66003C66C3C383
:1028A000C3C3C3C3C3663C080F0F0A0100327E4C8A
:1028B000003C66C3C3C3C3C3C3C3663C080F0F0A4F
:1028C00001006666003C66C3C3C3C3C3C3C3C3661B
:1028D0003C0708080A010082C66C38386CC68208BA
:1028E0000F0F0A01FF013E66C7C7CBCBCBD3D3D3B3
:1028F000E3667C80080F0F0A010030180C00C3C388
:10290000C3C3C3C3C3C3C3663C080F0F0A01000C93
:10291000183000C3C3C3C3C3C3C3C3C3663C080FDB
:102920000F0A0100183C6600C3C3C3C3C3C3C3C3BB
:10293000C3663C080F0F0A0100666600C3C3C3C329
:10294000C3C3C3C3C3C3663C080F0F0A01000C18FE
:102950003000C3C366663C3C1818181818070D0DE4
:102960000A0200C0C0C0FCC6C6C6C6C6FCC0C0C005
:10297000080D0D0A01001C36636366EC6C66636328
:1029800063666C080C0C0A010030180C007EC3034F
:102990007FC3C3C37D080C0C0A01000C1830007EF5
:1029A000C3037FC3C3C37D080C0C0A0100183C6637
:1029B000007EC3037FC3C3C37D080C0C0A01003231
:1029C0007E4C007EC3037FC3C3C37D080B0B0A018B
:1029D000006666007EC3037FC3C3C37D080D0D0A76
:1029E00001003C66663C007EC3037FC3C3C37D0811
:1029F00008080A0100769B1B1E78D8D96E080C0CBB
:102A00000A01FC3E63C0C0C0C0633E180C6C3808AD
:102A10000C0C0A0100603018003C66C3FFC0C063A4
:102A20003E080C0C0A0100060C18003C66C3FFC0EF
:102A3000C0633E080C0C0A0100183C66003C66C3EB
:102A4000FFC0C0633E080B0B0A01006666003C66CF
:102A5000C3FFC0C0633E080C0C0A010060301800C0
:102A600078181818181818FF080C0C0A01000C1810
:102A7000300078181818181818FF080C0C0A0100F4
:102A8000183C660078181818181818FF080B0B0A5D
:102A9000010066660078181818181818FF080D0D40
:102AA0000A010088D87070D88C3E67C3C3C3663CE7
:102AB000080C0C0A0100327E4C00DCE6C3C3C3C321
:102AC000C3C3080C0C0A0100603018003C66C3C385
:102AD000C3C3663C080C0C0A0100060C18003C66D7
:102AE000C3C3C3C3663C080C0C0A0100183C660053
:102AF0003C66C3C3C3C3663C080C0C0A0100327EAB
:102B00004C003C66C3C3C3C3663C080B0B0A010000
:102B10006666003C66C3C3C3C3663C080A0A0A0172
:102B20000118180000FFFF00001818080A0A0A011F
:102B3000FF013E66CBCBD3D3667C80080C0C0A0128
:102B40000030180C00C3C3C3C3C3C3673B080C0CDD
:102B50000A0100060C1800C3C3C3C3C3C3673B0804
:102B60000C0C0A0100183C6600C3C3C3C3C3C3678F
:102B70003B080B0B0A0100666600C3C3C3C3C3C393
:102B8000673B0810100A01FC0C183000C3C3C3C314
:102B9000C3C3673B03C3663C0711110A02FCC0C0F4
:102BA000C0C0C0C0F8CCC6C6C6CCF8C0C0C0C00843
:102BB0000F0F0A01FC666600C3C3C3C3C3C3673BF0
:102BC00003C3663C00002100240027002A002D00DA
:102BD0003000330001010000040107010A01000078
:102BE0002200250028002B002E00310034000201B5
:102BF0000000050108010B01000020002300260051
:102C000029002C002F003200000100000301060102
:102C10000901050505050705080808080202020262
:102C20000A0A080804040404010101010101010168
:102C30000303030303030303040707070C0C0C0C33
:102C40000C0C0C0C0202020206060606060606061C
:102C50000B0B0B0B0B0B0B0B0102102020080810A9
:102C600020401020408002010201080402010102FC
:102C700004081020408080402010080402018004D5
:102C80000201804020100804020108040201010230
:102C90000408102040800102040810204080000039
:102CA0000A0B02090C0D0E080703040100000000C6
:102CB0000000000000000000000000000000000014
:102CC00000000000000000000000121110000000D1
:102CD00000000000000000000000000000000000F4
:102CE000000000005365727669636500506172618F
:102CF0006D65747269004775617264610000060950
:102D000000FE070199032B20FFFE08FE07FE0000CE
:102D10000006000001070706020080808080800016
:102D200080030303060104A0A0A005070706000016
:102D30005050F850F850500507070600002070A0CA
:102D40007028702005070706000048A8502050A8EA
:102D50009005070706000040A0A040A89068010366
:102D600003060204808080030707060100204080DC
:102D7000808040200307070601008040202020407B
:102D8000800505050600018850F8508805050506F0
:102D900000012020F820200303030601FF6040808B
:102DA000050101060003F80303030601FF40E040AC
:102DB0000507070600000808102040808005070767
:102DC000060000205088888850200507070600006C
:102DD0002060A0202020F805070706000070880862
:102DE000304080F8050707060000F8081030088812
:102DF0007005070706000010305090F81010050706
:102E000007060000F880B0C80888700507070600AC
:102E100000304080B0C88870050707060000F80839
:102E20001010204040050707060000708888708851
:102E3000887005070706000070889868081060030E
:102E400007070601FF40E0400040E0400307070697
:102E500001FF40E0400060408004070706010010C9
:102E6000204080402010050303060002F800F8040B
:102E70000707060100804020102040800507070654
:102E80000000708810202000200507070600007051
:102E90008898A8B080700507070600002050888831
:102EA000F88888050707060000F04848704848F091
:102EB0000507070600007088808080887005070776
:102EC000060000F04848484848F00507070600009B
:102ED000F88080F08080F8050707060000F8808001
:102EE000F080808005070706000070888080988841
:102EF00070050707060000888888F8888888030717
:102F000007060100E04040404040E005070706009A
:102F10000038101010109060050707060000889018
:102F2000A0C0A090880507070600008080808080F0
:102F300080F80507070600008888D8A888888805D3
:102F400007070600008888C8A8988888050707062C
:102F5000000070888888888870050707060000F0E0
:102F60008888F08080800508080600FF70888888BF
:102F700088A87008050707060000F08888F0A09070
:102F800088050707060000708880700888700507AC
:102F900007060000F8202020202020050707060053
:102FA0000088888888888870050707060000888858
:102FB0008850505020050707060000888888A8A878
:102FC000D8880507070600008888502050888805A3
:102FD00007070600008888502020202005070706E4
:102FE0000000F80810204080F8030707060100E001
:102FF0008080808080E005070706000080804020F8
:10300000100808030707060100E02020202020E028
:103010000503030600042050880501010600FFF89F
:10302000020202060206804005050506000070083F
:103030007888780507070600008080B0C888C8B087
:1030400005050506000070888088700507070600E2
:1030500000080868988898680505050600007088CB
:10306000F88070050707060000304840F0404040F7
:103070000507070600FE7888887808887005070726
:103080000600008080B0C888888803070706010012
:103090004000C0404040E00409090601FE10003035
:1030A000101010909060050707060000808088903F
:1030B000E09088030707060100C04040404040E020
:1030C000050505060000D0A8A8A888050505060086
:1030D00000B0C888888805050506000070888888C3
:1030E000700507070600FEB0C888C8B080800507D5
:1030F000070600FE68988898680808050505060018
:1031000000B0C8808080050505060000708070084A
:10311000F00507070600004040F040404830050534
:10312000050600008888889868050505060000885F
:10313000885050200505050600008888A8A850057D
:10314000050506000088502050880507070600FE88
:1031500088889868088870050505060000F8102022
:1031600040F8040707060100304020C0204030012D
:1031700007070602008080808080808004070706A1
:103180000100C02040304020C00503030600044871
:10319000A8900000000100000000000100000000F5
:1031A000000100000000000100000000000100001C
:1031B000000000010000000000010000000000010C
:1031C00000000000000100000000000100000000FD
:1031D00000010000000000010000000000010000EC
:1031E00000000001000000000001000000000001DC
:1031F00000000000000100000000000100000000CD
:1032000000010000000000010000000000010000BB
:1032100000000001000000000001000000000001AB
:10322000000000000001000000000001000000009C
:10323000000100000000000100000000000100008B
:10324000000000010000000000010000000000017B
:10325000000000000001000000000006000001075F
:103260000706020080008080808080050707060036
:10327000FF2078A0A0A078200507070600003048AE
:1032800040E04048B0050505060000887050708891
:103290000508080600FF88885020F8202020010734
:1032A00007060200808080008080800508080600F4
:1032B000FF7080E09048380870030101060107A004
:1032C0000507070600007088A8C8A88870040606CD
:1032D0000601017090B05000F006050506000024BC
:1032E00048904824040202060102F010040101067D
:1032F0000103F00507070600007088E8C8C8887059
:10330000050101060007F803030306010440A0407D
:103310000506060600002020F82020F80405050612
:10332000010360902040F0040505060103E01060F1
:1033300010E002020206020640800506060600FFB3
:10334000888888C8B08005070706000078E8E86824
:10335000282828010101060203800202020602FE5B
:10336000408003050506010340C04040E004060616
:103370000601016090906000F006050506000090CF
:10338000482448900609090600FF40C04040E40C6C
:10339000143C040609090600FF40C04040E814043C
:1033A000081C0509090600FFC0204020C81828781D
:1033B0000805070706000020002020408870050847
:1033C000080600004020708888F8888805080806EC
:1033D00000001020708888F888880508080600001A
:1033E0002050708888F8888805080806000048B0D2
:1033F000708888F8888805080806000050007088E2
:1034000088F888880508080600002050708888F829
:1034100088880607070600003C50909CF0909C05A9
:1034200009090600FE7088808080887020400508A9
:103430000806000040F88080F08080F80508080643
:10344000000010F88080F08080F805080806000071
:1034500020F88080F08080F805080806000050F809
:103460008080F08080F80308080601008040E0407A
:10347000404040E00308080601002040E040404092
:1034800040E003080806010040A0E040404040E062
:10349000030808060100A000E040404040E00507A6
:1034A00007060000F04848E84848F005080806000C
:1034B00000285088C8A89888880508080600004099
:1034C0002070888888887005080806000010207021
:1034D0008888888870050808060000205070888851
:1034E0008888700508080600002850708888888839
:1034F00070050808060000500070888888887005EC
:1035000005050600008850205088050707060000C2
:10351000709898A8C8C87005080806000040208860
:103520008888888870050808060000102088888828
:103530008888700508080600002050008888888860
:103540007005080806000050008888888888700583
:103550000808060000102088885020202005070752
:1035600006000080F088F0808080050707060000D4
:10357000708890A09088B0050808060000402000E0
:103580007008788878050808060000102000700888
:1035900078887805080806000020500070087888B0
:1035A000780508080600002850007008788878051B
:1035B000070706000050007008788878050808069C
:1035C0000000205020700878887806050506000065
:1035D00078147C907C0507070600FE708880887050
:1035E00020400508080600004020007088F8807020
:1035F0000508080600001020007088F88070050893
:10360000080600002050007088F880700507070643
:10361000000050007088F8807003080806010080E0
:103620004000C0404040E003080806010040800020
:10363000C0404040E003080806010040A000C04030
:103640004040E0060A0A0600FEA4A800FC84808030
:103650008084FC060A0A0600FE549400FC840404DC
:103660000484FC050808060000285000B0C88888BB
:1036700088050808060000402000708888887004CB
:103680000A0A0602FE30408090909090909090043C
:103690000A0A0600FEC0201090909090909090062C
:1036A0000707060001448C8C8480403C060707060F
:1036B000000188C4C4840408F00505050600012043
:1036C00000F8002005080806000040F0C888889827
:1036D0007810050808060000E0F88888888888F8CF
:1036E0000505050600012030F83020050808060011
:1036F000002070F820202020E00509090600FF20A6
:1037000070A8A8B8888850200509090600FFE08045
:10371000C0B0A8A83028280509090600FFF8A88825
:1037200088888888A8F8050A0A0600FE20505050AC
:103730005088A8A88870238B11241FBECFEFD1E238
:10374000DEBFCDBF00E00CBF13E0A0E0B2E0E6E1D9
:10375000F4E201E00BBF02C007900D92AC3FB1074D
:10376000D9F729E0ACEFB3E001C01D92A430B20755
:10377000E1F71BE1CCE9DBE100E006C0219701099C
:10378000802FFE010E94C58ECB39D10780E008074B
:10379000A9F70E940B810C9409920C9400003F92AF
:1037A0004F925F926F927F928F929F92AF92BF9251
:1037B000CF92DF92EF92FF920F931F93CF93DF93FD
:1037C0004091E0065091E1066091E2067091E306B7
:1037D000413080E858076105710510F00C94C62C43
:1037E000DB01CA01B695A79597958795C09100040E
:1037F0000C2F10E020E030E080179107A207B307FC
:1038000018F480930004C82FD0E0BAE0EB2EF12C1E
:1038100014E6C12ED12C07E7402E03E0502E81EA9A
:10382000682E83E0782E97E1892E912CA12CB12C63
:10383000C1118FC080911702882309F454C042300F
:1038400051056105710508F4B1C281E08093B806A5
:103850001092CF068D2F90E00196982F990F890F27
:10386000880F880F8093D00660E284E996E00E947A
:103870002E45EAEDF3E06491662311F40C94D62C06
:10388000A1E13A2E0AED13E001C0382E84E996E05A
:103890000E942E450F5F1F4F8FEF830DF80164913B
:1038A0006111F3CF1EEF130D07C060E284E996E0CB
:1038B0000E942E45812F11508111F7CF6BEF84E9C3
:1038C00096E00E942E4560E284E996E00E942E4533
:1038D00081E08093B8064091E0065091E106609146
:1038E000E2067091E3068091E50681112DC1809179
:1038F0000C041092E50682FF0BC08091E406811152
:1039000007C0423051056105710510F40C94D92CA3
:10391000483151056105710508F01EC1DB01CA017E
:10392000B695A79597958795E82F2091000430E0EC
:103930002C5F3F4F281739070CF026C1CCEFCE0F74
:10394000C093000481E080931702D0E0CC2309F4F7
:1039500071CFC13009F02FC180911702882309F47B
:103960007AC0769567955795479520910D043091CB
:103970000E04413051056105710509F493C22436E6
:1039800031050CF425C2C901B6010E94748ECB0129
:10399000B7010E94748E805D80931805E8E1F5E020
:1039A000C901B7010E94748ECB01B7010E94748EC9
:1039B000805D80931905C901B7010E94748E805DF6
:1039C00080931A0510921B0501900020E9F73197AA
:1039D000E851F54081E1382E3E1A1092CF068D2F26
:1039E00090E00196982F990F890F880F880F809388
:1039F000D00660E284E996E00E942E45E0EDF3E017
:103A00006491662361F08F0184E996E00E942E455F
:103A10000F5F1F4F3A94F80164916111F5CF6AE38B
:103A200084E996E00E942E4506C060E284E996E0B3
:103A30000E942E453A943110F8CF68E175E084E990
:103A400096E00E94847F4091E0065091E1066091EB
:103A5000E2067091E3068091E506811175C08091C0
:103A60000C041092E50682FF53CF8091E406811189
:103A70004FCFDB01CA01B695A7959795879501971A
:103A8000A105B10509F044CFC2E0C09317022FB7DA
:103A9000F8948091030490910404A0910504B091DE
:103AA00006042FBF8C509E4FAF4FBF4F809308042A
:103AB00090930904A0930A04B0930B040E94276A10
:103AC0008091150290911602909323058093220510
:103AD0008091E0069091E106909321058093200566
:103AE000C093170289ED94E6909316028093150215
:103AF0008AEB93E090932705809326058CEA93E068
:103B000090932905809328058DE094E090932505F6
:103B10008093240510922E0510922F0510923005E7
:103B20001092310584E893E0A0E0B0E080932A058C
:103B300090932B05A0932C05B0932D0580910D0437
:103B400090910E040C9492281092E506483151058C
:103B50006105710508F4E2CE8092E0069092E106DC
:103B6000A092E206B092E3068BE090E0EBE047E142
:103B700050E060E070E02091000430E02C5F3F4FA7
:103B8000281739070CF4DACEDF5FCF5FD53008F4A1
:103B90004FCEDF91CF911F910F91FF90EF90DF906B
:103BA000CF90BF90AF909F908F907F906F905F90DD
:103BB0004F903F900895C23009F0D4C18091170210
:103BC000882309F47AC07695679557954795209193
:103BD0001B0430911C04423051056105710509F444
:103BE00001C1243631050CF4E9C0C901B6010E94B7
:103BF000748ECB01B7010E94748E805D809318058E
:103C0000E8E1F5E0C901B7010E94748ECB01B7016C
:103C10000E94748E805D80931905C901B7010E94CE
:103C2000748E805D80931A0510921B050190002010
:103C3000E9F73197E851F54081E1382E3E1A1092AC
:103C4000CF068D2F90E00196982F990F890F880F3E
:103C5000880F8093D00660E284E996E00E942E45AA
:103C6000F3016491662369F001EA13E084E996E0C8
:103C70000E942E450F5F1F4F3A94F8016491611125
:103C8000F5CF6AE384E996E00E942E4506C060E223
:103C900084E996E00E942E453A943110F8CF68E10D
:103CA00075E084E996E00E94847F4091E00650919F
:103CB000E1066091E2067091E3068091E5068111CC
:103CC00043CF80910C041092E50682FF21CE8091B3
:103CD000E40681111DCEDB01CA01B695A795979523
:103CE00087950297A105B10509F012CEC2E0C093F5
:103CF00017022FB7F8948091030490910404A091C7
:103D00000504B09106042FBF8C509E4FAF4FBF4F9C
:103D10008093080490930904A0930A04B0930B04C1
:103D20000E94276A809115029091160290932305B4
:103D3000809322058091E0069091E1069093210501
:103D400080932005C093170289ED94E690931602A4
:103D5000809315028FE893E09093270580932605C2
:103D600081E893E090932905809328058BE194E006
:103D7000909325058093240510922E0510922F050F
:103D8000109230051092310584E893E0A0E0B0E095
:103D900080932A0590932B05A0932C05B0932D05B5
:103DA00080911B0490911C040C9492282BEF4BEFF4
:103DB0006AED73E08D2F0E9488808DCDE8E1F5E0FB
:103DC00080E2809318052A3031050CF424CF1ACFF5
:103DD000E8E1F5E080E2809318052A3031050CF423
:103DE000E8CDDECD2436310514F40C94602CC901E5
:103DF000B6010E94748ECB01B7010E94748E805D63
:103E000080931805E8E1F5E0C901B7010E94748EBE
:103E1000CB01B7010E94748E805D80931905C901A2
:103E2000B7010E94748E805D80931A0510921B0565
:103E300001900020E9F73197E851F54081E1382EF3
:103E40003E1A1092CF068D2F90E00196982F990F71
:103E5000890F880F880F8093D0066EE384E996E07F
:103E60000E942E45F3016491662369F001EA13E094
:103E700084E996E00E942E450F5F1F4F3A94F801A7
:103E800064916111F5CF6AE384E996E00E942E45C2
:103E900006C060E284E996E00E942E453A94311013
:103EA000F8CFFDCE2436310514F40C94542CC901FE
:103EB000B6010E94748ECB01B7010E94748E805DA2
:103EC00080931805E8E1F5E0C901B7010E94748EFE
:103ED000CB01B7010E94748E805D80931905C901E2
:103EE000B7010E94748E805D80931A0510921B05A5
:103EF00001900020E9F73197E851F54081E1382E33
:103F00003E1A1092CF068D2F90E00196982F990FB0
:103F1000890F880F880F8093D0066EE384E996E0BE
:103F20000E942E45E0EDF3E06491662361F08F017D
:103F300084E996E00E942E450F5F1F4F3A94F801E6
:103F400064916111F5CF6AE384E996E00E942E4501
:103F500006C060E284E996E00E942E453A94311052
:103F6000F8CF6BCDC33009F0F9C0809117028823D8
:103F700009F47CC07695679557954795209119046B
:103F800030911A04433051056105710511F40C9408
:103F9000BA292436310514F40C94B328C901B601AA
:103FA0000E94748ECB01B7010E94748E805D809355
:103FB0001805E8E1F5E0C901B7010E94748ECB0154
:103FC000B7010E94748E805D80931905C901B70105
:103FD0000E94748E805D80931A0510921B050190DB
:103FE0000020E9F73197E851F54081E1382E3E1A7B
:103FF0001092CF068D2F90E00196982F990F890F80
:10400000880F880F8093D00660E284E996E00E94D2
:104010002E45F2016491662369F007E713E084E915
:1040200096E00E942E450F5F1F4F3A94F80164916D
:104030006111F5CF6AE384E996E00E942E4506C03F
:1040400060E284E996E00E942E453A943110F8CF60
:1040500068E175E084E996E00E94847F4091E00683
:104060005091E1066091E2067091E3068091E506C9
:1040700081116ACD80910C041092E50682FF48CC34
:104080008091E406811144CCDB01CA01B695A79565
:10409000979587950397A105B10509F039CCC2E042
:1040A000C09317022FB7F8948091030490910404F1
:1040B000A0910504B09106042FBF8C509E4FAF4FC6
:1040C000BF4F8093080490930904A0930A04B0930F
:1040D0000B040E94276A809115029091160290931A
:1040E0002305809322058091E0069091E10690934C
:1040F000210580932005C093170289ED94E69093E3
:1041000016028093150285E693E09093270580932D
:10411000260587E593E0909329058093280589E19A
:1041200094E0909325058093240510922E0510921B
:104130002F05109230051092310584E893E0A0E03D
:10414000B0E080932A0590932B05A0932C05B093A3
:104150002D058091190490911A04E4C7C43009F028
:10416000F8C080911702882309F47BC07695679583
:104170005795479520911104309112044430510510
:104180006105710511F40C945A29243631050CF49B
:10419000E0C7C901B6010E94748ECB01B7010E942D
:1041A000748E805D80931805E8E1F5E0C901B701E0
:1041B0000E94748ECB01B7010E94748E805D809343
:1041C0001905C901B7010E94748E805D80931A059C
:1041D00010921B0501900020E9F73197E851F54056
:1041E00081E1382E3E1A1092CF068D2F90E0019675
:1041F000982F990F890F880F880F8093D00660E25F
:1042000084E996E00E942E45EDE4F3E06491662394
:1042100061F08F0184E996E00E942E450F5F1F4FE9
:104220003A94F80164916111F5CF6AE384E996E06C
:104230000E942E4506C060E284E996E00E942E4569
:104240003A943110F8CF68E175E084E996E00E9475
:10425000847F4091E0065091E1066091E206709102
:10426000E3068091E50681116FCC80910C041092D9
:10427000E50682FF4DCB8091E406811149CBDB013D
:10428000CA01B695A795979587950497A105B1059D
:1042900009F03ECBC2E0C09317022FB7F89480918B
:1042A000030490910404A0910504B09106042FBF6B
:1042B0008C509E4FAF4FBF4F8093080490930904DA
:1042C000A0930A04B0930B040E94276A8091150200
:1042D0009091160290932305809322058091E00629
:1042E0009091E1069093210580932005C0931702D9
:1042F00089ED94E690931602809315028DE393E086
:1043000090932705809326058FE293E090932905EB
:104310008093280581E194E09093250580932405FE
:1043200010922E0510922F05109230051092310533
:1043300084E893E0A0E0B0E080932A0590932B05F9
:10434000A0932C05B0932D05809111049091120437
:10435000E9C6C53009F0F7C080911702882309F437
:104360007AC0769567955795479520910F043091BF
:104370001004453051056105710509F43CC7243628
:1043800031050CF4DCC6C901B6010E94748ECB0164
:10439000B7010E94748E805D80931805E8E1F5E016
:1043A000C901B7010E94748ECB01B7010E94748EBF
:1043B000805D80931905C901B7010E94748E805DEC
:1043C00080931A0510921B0501900020E9F73197A0
:1043D000E851F54081E1382E3E1A1092CF068D2F1C
:1043E00090E00196982F990F890F880F880F80937E
:1043F000D00660E284E996E00E942E45E1E2F3E017
:104400006491662361F08F0184E996E00E942E4555
:104410000F5F1F4F3A94F80164916111F5CF6AE381
:1044200084E996E00E942E4506C060E284E996E0A9
:104430000E942E453A943110F8CF68E175E084E986
:1044400096E00E94847F4091E0065091E1066091E1
:10445000E2067091E3068091E506811175CB8091AB
:104460000C041092E50682FF53CA8091E406811184
:104470004FCADB01CA01B695A79597958795059711
:10448000A105B10509F044CAC2E0C09317022FB7D5
:10449000F8948091030490910404A0910504B091D4
:1044A00006042FBF8C509E4FAF4FBF4F8093080420
:1044B00090930904A0930A04B0930B040E94276A06
:1044C0008091150290911602909323058093220506
:1044D0008091E0069091E10690932105809320055C
:1044E000C093170289ED94E690931602809315020B
:1044F0008FEF92E0909327058093260581EF92E05D
:1045000090932905809328058FE094E090932505EA
:104510008093240510922E0510922F0510923005DD
:104520001092310584E893E0A0E0B0E080932A0582
:1045300090932B05A0932C05B0932D0580910F042B
:1045400090911004EFC5C63009F0F7C080911702B2
:10455000882309F47AC076956795579547952091F9
:104560001F0430912004463051056105710509F49E
:1045700061C7243631050CF416C6C901B6010E9484
:10458000748ECB01B7010E94748E805D80931805F4
:10459000E8E1F5E0C901B7010E94748ECB01B701D3
:1045A0000E94748E805D80931905C901B7010E9435
:1045B000748E805D80931A0510921B050190002077
:1045C000E9F73197E851F54081E1382E3E1A109213
:1045D000CF068D2F90E00196982F990F890F880FA5
:1045E000880F8093D00660E284E996E00E942E4511
:1045F000E7EEF2E06491662361F08F0184E996E0D2
:104600000E942E450F5F1F4F3A94F801649161118B
:10461000F5CF6AE384E996E00E942E4506C060E289
:1046200084E996E00E942E453A943110F8CF68E173
:1046300075E084E996E00E94847F4091E006509105
:10464000E1066091E2067091E3068091E506811132
:104650007BCA80910C041092E50682FF59C98091B3
:10466000E406811155C9DB01CA01B695A795979556
:1046700087950697A105B10509F04AC9C2E0C09324
:1046800017022FB7F8948091030490910404A0912D
:104690000504B09106042FBF8C509E4FAF4FBF4F03
:1046A0008093080490930904A0930A04B0930B0428
:1046B0000E94276A8091150290911602909323051B
:1046C000809322058091E0069091E1069093210568
:1046D00080932005C093170289ED94E6909316020B
:1046E0008093150287ED92E090932705809326052D
:1046F00089EC92E090932905809328058FE194E05E
:10470000909325058093240510922E0510922F0575
:10471000109230051092310584E893E0A0E0B0E0FB
:1047200080932A0590932B05A0932C05B0932D051B
:1047300080911F0490912004F5C4C73009F0F7C0A0
:1047400080911702882309F47AC07695679557956A
:1047500047952091FC033091FD03473051056105D9
:10476000710509F484C7243631050CF412C5C9015A
:10477000B6010E94748ECB01B7010E94748E805DD9
:1047800080931805E8E1F5E0C901B7010E94748E35
:10479000CB01B7010E94748E805D80931905C90119
:1047A000B7010E94748E805D80931A0510921B05DC
:1047B00001900020E9F73197E851F54081E1382E6A
:1047C0003E1A1092CF068D2F90E00196982F990FE8
:1047D000890F880F880F8093D00660E284E996E005
:1047E0000E942E45EBEBF2E06491662361F08F01AD
:1047F00084E996E00E942E450F5F1F4F3A94F8011E
:1048000064916111F5CF6AE384E996E00E942E4538
:1048100006C060E284E996E00E942E453A94311089
:10482000F8CF68E175E084E996E00E94847F4091CA
:10483000E0065091E1066091E2067091E3068091F6
:10484000E506811181C980910C041092E50682FF72
:104850005FC88091E40681115BC8DB01CA01B6958F
:10486000A795979587950797A105B10509F050C8B9
:10487000C2E0C09317022FB7F8948091030490917F
:104880000404A0910504B09106042FBF8C509E4FE4
:10489000AF4FBF4F8093080490930904A0930A047C
:1048A000B0930B040E94276A809115029091160222
:1048B00090932305809322058091E0069091E10674
:1048C0009093210580932005C093170289ED94E60B
:1048D00090931602809315028BEA92E0909327053D
:1048E000809326058DE992E0909329058093280511
:1048F0008CEF93E0909325058093240510922E056C
:1049000010922F05109230051092310584E893E043
:10491000A0E0B0E080932A0590932B05A0932C058E
:10492000B0932D058091FC039091FD03FBC3C8302B
:1049300009F0FBC080911702882309F47AC07695AC
:1049400067955795479520918F0430919004483092
:1049500051056105710509F42BC6243631050CF4A7
:104960000EC4C901B6010E94748ECB01B7010E942A
:10497000748E805D80931805E8E1F5E0C901B70108
:104980000E94748ECB01B7010E94748E805D80936B
:104990001905C901B7010E94748E805D80931A05C4
:1049A00010921B0501900020E9F73197E851F5407E
:1049B00081E1382E3E1A1092CF068D2F90E001969D
:1049C000982F990F890F880F880F8093D00660E287
:1049D00084E996E00E942E45E1E9F2E064916623C5
:1049E00061F08F0184E996E00E942E450F5F1F4F12
:1049F0003A94F80164916111F5CF6AE384E996E095
:104A00000E942E4506C060E284E996E00E942E4591
:104A10003A943110F8CF68E175E084E996E00E949D
:104A2000847F4091E0065091E1066091E20670912A
:104A3000E3068091E506811187C880910C041092ED
:104A4000E50682FD02C00C94881C8091E406811169
:104A50000C94881CDB01CA01B695A795979587959C
:104A60000897A105B10511F00C94881CC2E0C09311
:104A700017022FB7F8948091030490910404A09139
:104A80000504B09106042FBF8C509E4FAF4FBF4F0F
:104A90008093080490930904A0930A04B0930B0434
:104AA0000E94276A80911502909116029093230527
:104AB000809322058091E0069091E1069093210574
:104AC00080932005C093170289ED94E69093160217
:104AD0008093150282E792E0909327058093260544
:104AE00084E692E090932905809328058FE894E06E
:104AF000909325058093240510922E0510922F0582
:104B0000109230051092310584E893E0A0E0B0E007
:104B100080932A0590932B05A0932C05B0932D0527
:104B200080918F0490919004FDC2C93009F0FCC0BF
:104B300080911702882309F47AC076956795579576
:104B4000479520914B0430914C0449305105610543
:104B5000710509F4CEC4243631050CF42EC3C90105
:104B6000B6010E94748ECB01B7010E94748E805DE5
:104B700080931805E8E1F5E0C901B7010E94748E41
:104B8000CB01B7010E94748E805D80931905C90125
:104B9000B7010E94748E805D80931A0510921B05E8
:104BA00001900020E9F73197E851F54081E1382E76
:104BB0003E1A1092CF068D2F90E00196982F990FF4
:104BC000890F880F880F8093D00660E284E996E011
:104BD0000E942E45E6E5F2E06491662361F08F01C4
:104BE00084E996E00E942E450F5F1F4F3A94F8012A
:104BF00064916111F5CF6AE384E996E00E942E4545
:104C000006C060E284E996E00E942E453A94311095
:104C1000F8CF68E175E084E996E00E94847F4091D6
:104C2000E0065091E1066091E2067091E306809102
:104C3000E50681110C94A41D80910C041092E506E8
:104C400082FD02C00C94881C8091E40681110C94B2
:104C5000881CDB01CA01B695A7959795879509979A
:104C6000A105B10511F00C94881CC2E0C093170295
:104C70002FB7F8948091030490910404A091050447
:104C8000B09106042FBF8C509E4FAF4FBF4F809303
:104C9000080490930904A0930A04B0930B040E94A3
:104CA000276A8091150290911602909323058093B4
:104CB00022058091E0069091E10690932105809372
:104CC0002005C093170289ED94E690931602809315
:104CD000150286E392E0909327058093260588E2EB
:104CE00092E090932905809328058BE494E09093BB
:104CF00025058093240510922E0510922F05109201
:104D000030051092310584E893E0A0E0B0E0809394
:104D10002A0590932B05A0932C05B0932D05809127
:104D20004B0490914C04FEC1CA3009F0FCC0809144
:104D30001702882309F47AC07695679557954795A9
:104D400020912B0430912C044A30510561057105E6
:104D500009F44BC5243631050CF443C2C901B60130
:104D60000E94748ECB01B7010E94748E805D809387
:104D70001805E8E1F5E0C901B7010E94748ECB0186
:104D8000B7010E94748E805D80931905C901B70137
:104D90000E94748E805D80931A0510921B0501900D
:104DA0000020E9F73197E851F54081E1382E3E1AAD
:104DB0001092CF068D2F90E00196982F990F890FB2
:104DC000880F880F8093D00660E284E996E00E9405
:104DD0002E45E9E1F2E06491662361F08F0184E9F8
:104DE00096E00E942E450F5F1F4F3A94F8016491A0
:104DF0006111F5CF6AE384E996E00E942E4506C072
:104E000060E284E996E00E942E453A943110F8CF92
:104E100068E175E084E996E00E94847F4091E006B5
:104E20005091E1066091E2067091E3068091E506FB
:104E300081110C94A41D80910C041092E50682FD52
:104E400002C00C94881C8091E40681110C94881C8B
:104E5000DB01CA01B695A795979587950A97A10595
:104E6000B10511F00C94881CC2E0C09317022FB753
:104E7000F8948091030490910404A0910504B091EA
:104E800006042FBF8C509E4FAF4FBF4F8093080436
:104E900090930904A0930A04B0930B040E94276A1C
:104EA000809115029091160290932305809322051C
:104EB0008091E0069091E106909321058093200572
:104EC000C093170289ED94E6909316028093150221
:104ED0008AE092E090932705809326058CEF91E07D
:104EE00090932905809328058BE294E09093250503
:104EF0008093240510922E0510922F0510923005F4
:104F00001092310584E893E0A0E0B0E080932A0598
:104F100090932B05A0932C05B0932D0580912B0425
:104F200090912C04FFC0CB3011F00C94881C809120
:104F30001702882309F47AC07695679557954795A7
:104F400020914704309148044B30510561057105AB
:104F500009F4ECC3243631050CF439C1C901B6019A
:104F60000E94748ECB01B7010E94748E805D809385
:104F70001805E8E1F5E0C901B7010E94748ECB0184
:104F8000B7010E94748E805D80931905C901B70135
:104F90000E94748E805D80931A0510921B0501900B
:104FA0000020E9F73197E851F54081E1382E3E1AAB
:104FB0001092CF068D2F90E00196982F990F890FB0
:104FC000880F880F8093D00660E284E996E00E9403
:104FD0002E45EDEEF1E06491662361F08F0184E9E6
:104FE00096E00E942E450F5F1F4F3A94F80164919E
:104FF0006111F5CF6AE384E996E00E942E4506C070
:1050000060E284E996E00E942E453A943110F8CF90
:1050100068E175E084E996E00E94847F4091E006B3
:105020005091E1066091E2067091E3068091E506F9
:1050300081110C94A41D80910C041092E50682FD50
:1050400002C00C94881C8091E40681110C94881C89
:10505000DB01CA01B695A795979587950B97A10592
:10506000B10511F00C94881CC2E0C09317022FB751
:10507000F8948091030490910404A0910504B091E8
:1050800006042FBF8C509E4FAF4FBF4F8093080434
:1050900090930904A0930A04B0930B040E94276A1A
:1050A000809115029091160290932305809322051A
:1050B0008091E0069091E106909321058093200570
:1050C000C093170289ED94E690931602809315021F
:1050D00088ED91E090932705809326058AEC91E076
:1050E000909329058093280587E494E09093250503
:1050F0008093240510922E0510922F0510923005F2
:105100001092310584E893E0A0E0B0E080932A0596
:1051100090932B05A0932C05B0932D058091470407
:1051200090914804092E000CAA0BBB0B8093E0065B
:105130009093E106A093E206B093E30664C4E8E12D
:10514000F5E080E2809318052A3031050CF431C96E
:1051500027C9E8E1F5E080E2809318052A3031059F
:105160000CF42DC823C8E8E1F5E080E2809318052F
:105170002A30310514F40C94E41F0C94DB1FE8E191
:10518000F5E080E2809318052A3031050CF4FFCB5E
:10519000F5CBE8E1F5E080E2809318052A3031058F
:1051A0000CF4FBCAF1CAE8E1F5E080E2809318054F
:1051B0002A3031050CF4F7C9EDC9E8E1F5E080E2E9
:1051C000809318052A3031050CF4DFCCD5CCE8E10A
:1051D000F5E080E2809318052A3031050CF4D4CE36
:1051E000CACEE8E1F5E080E2809318052A30310567
:1051F0000CF4CACDC0CD243631050CF4A9C3C901C5
:10520000B6010E94748ECB01B7010E94748E805D3E
:1052100080931805E8E1F5E0C901B7010E94748E9A
:10522000CB01B7010E94748E805D80931905C9017E
:10523000B7010E94748E805D80931A0510921B0541
:1052400001900020E9F73197E851F54081E1382ECF
:105250003E1A1092CF068D2F90E00196982F990F4D
:10526000890F880F880F8093D0066EE384E996E05B
:105270000E942E45E1E2F3E06491662361F08F0124
:1052800084E996E00E942E450F5F1F4F3A94F80183
:1052900064916111F5CF6AE384E996E00E942E459E
:1052A00006C060E284E996E00E942E453A943110EF
:1052B000F8CFC3C8243631050CF418C3C901B601B0
:1052C0000E94748ECB01B7010E94748E805D809322
:1052D0001805E8E1F5E0C901B7010E94748ECB0121
:1052E000B7010E94748E805D80931905C901B701D2
:1052F0000E94748E805D80931A0510921B050190A8
:105300000020E9F73197E851F54081E1382E3E1A47
:105310001092CF068D2F90E00196982F990F890F4C
:10532000880F880F8093D0066EE384E996E00E9490
:105330002E45EDE4F3E06491662361F08F0184E98A
:1053400096E00E942E450F5F1F4F3A94F80164913A
:105350006111F5CF6AE384E996E00E942E4506C00C
:1053600060E284E996E00E942E453A943110F8CF2D
:105370000C942321243631050CF4AEC2C901B601C8
:105380000E94748ECB01B7010E94748E805D809361
:105390001805E8E1F5E0C901B7010E94748ECB0160
:1053A000B7010E94748E805D80931905C901B70111
:1053B0000E94748E805D80931A0510921B050190E7
:1053C0000020E9F73197E851F54081E1382E3E1A87
:1053D0001092CF068D2F90E00196982F990F890F8C
:1053E000880F880F8093D0066EE384E996E00E94D0
:1053F0002E45F2016491662369F007E713E084E922
:1054000096E00E942E450F5F1F4F3A94F801649179
:105410006111F5CF6AE384E996E00E942E4506C04B
:1054200060E284E996E00E942E453A943110F8CF6C
:105430000C942820243631050CF480C2C901B60131
:105440000E94748ECB01B7010E94748E805D8093A0
:105450001805E8E1F5E0C901B7010E94748ECB019F
:10546000B7010E94748E805D80931905C901B70150
:105470000E94748E805D80931A0510921B05019026
:105480000020E9F73197E851F54081E1382E3E1AC6
:105490001092CF068D2F90E00196982F990F890FCB
:1054A000880F880F8093D0066EE384E996E00E940F
:1054B0002E45E7EEF2E06491662361F08F0184E906
:1054C00096E00E942E450F5F1F4F3A94F8016491B9
:1054D0006111F5CF6AE384E996E00E942E4506C08B
:1054E00060E284E996E00E942E453A943110F8CFAC
:1054F0009EC8243631050CF417C2C901B6010E94BA
:10550000748ECB01B7010E94748E805D8093180564
:10551000E8E1F5E0C901B7010E94748ECB01B70143
:105520000E94748E805D80931905C901B7010E94A5
:10553000748E805D80931A0510921B0501900020E7
:10554000E9F73197E851F54081E1382E3E1A109283
:10555000CF068D2F90E00196982F990F890F880F15
:10556000880F8093D0066EE384E996E00E942E4572
:10557000E6E5F2E06491662361F08F0184E996E04C
:105580000E942E450F5F1F4F3A94F80164916111FC
:10559000F5CF6AE384E996E00E942E4506C060E2FA
:1055A00084E996E00E942E453A943110F8CF31CB31
:1055B000243631050CF4AEC1C901B6010E94748EC7
:1055C000CB01B7010E94748E805D80931805E8E1DD
:1055D000F5E0C901B7010E94748ECB01B7010E94AA
:1055E000748E805D80931905C901B7010E94748E85
:1055F000805D80931A0510921B0501900020E9F749
:105600003197E851F54081E1382E3E1A1092CF06CD
:105610008D2F90E00196982F990F890F880F880F92
:105620008093D0066EE384E996E00E942E45E1E97E
:10563000F2E06491662361F08F0184E996E00E94B4
:105640002E450F5F1F4F3A94F80164916111F5CF19
:105650006AE384E996E00E942E4506C060E284E990
:1056600096E00E942E453A943110F8CFD4C92436E2
:1056700031050CF445C1C901B6010E94748ECB01FD
:10568000B7010E94748E805D80931805E8E1F5E013
:10569000C901B7010E94748ECB01B7010E94748EBC
:1056A000805D80931905C901B7010E94748E805DE9
:1056B00080931A0510921B0501900020E9F731979D
:1056C000E851F54081E1382E3E1A1092CF068D2F19
:1056D00090E00196982F990F890F880F880F80937B
:1056E000D0066EE384E996E00E942E45EBEBF2E0F3
:1056F0006491662361F08F0184E996E00E942E4553
:105700000F5F1F4F3A94F80164916111F5CF6AE37E
:1057100084E996E00E942E4506C060E284E996E0A6
:105720000E942E453A943110F8CF7BC824363105BB
:105730000CF422C1C901B6010E94748ECB01B701DD
:105740000E94748E805D80931805E8E1F5E0C90140
:10575000B7010E94748ECB01B7010E94748E805DE8
:1057600080931905C901B7010E94748E805D8093F2
:105770001A0510921B0501900020E9F73197E851B6
:10578000F54081E1382E3E1A1092CF068D2F90E021
:105790000196982F990F890F880F880F8093D00654
:1057A0006EE384E996E00E942E45EDEEF1E064910F
:1057B000662361F08F0184E996E00E942E450F5F19
:1057C0001F4F3A94F80164916111F5CF6AE384E9BF
:1057D00096E00E942E4506C060E284E996E00E94B1
:1057E0002E453A943110F8CF13CC243631050CF401
:1057F000B9C0C901B6010E94748ECB01B7010E94E5
:10580000748E805D80931805E8E1F5E0C901B70169
:105810000E94748ECB01B7010E94748E805D8093CC
:105820001905C901B7010E94748E805D80931A0525
:1058300010921B0501900020E9F73197E851F540DF
:1058400081E1382E3E1A1092CF068D2F90E00196FE
:10585000982F990F890F880F880F8093D0066EE3D9
:1058600084E996E00E942E45E9E1F2E06491662326
:1058700061F08F0184E996E00E942E450F5F1F4F73
:105880003A94F80164916111F5CF6AE384E996E0F6
:105890000E942E4506C060E284E996E00E942E45F3
:1058A0003A943110F8CFB4CAE8E1F5E080E2809391
:1058B00018052A30310514F40C946D1F0C94641FE4
:1058C000E8E1F5E080E2809318052A30310514F410
:1058D0000C940D1F0C94041FE8E1F5E080E2809326
:1058E00018052A3031050CF45FCD55CDE8E1F5E01F
:1058F00080E2809318052A3031050CF4F5CCEBCC0E
:10590000E8E1F5E080E2809318052A3031050CF4D7
:10591000C8CEBECEE8E1F5E080E2809318052A30DB
:1059200031050CF45FCE55CEE8E1F5E080E28093DE
:1059300018052A3031050CF4F6CDECCDE8E1F5E0A0
:1059400080E2809318052A3031050CF48DCD83CD8B
:10595000E8E1F5E080E2809318052A3031050CF487
:1059600064CC5ACCE8E1F5E080E2809318052A3057
:1059700031050CF454CF4ACFE8E1F5E080E28093A2
:1059800018052A3031050CF4EBCEE1CE1092E0067A
:105990001092E1061092E2061092E30680E090E099
:1059A000DC0140E050E0BA010C94F61B10E10C94CD
:1059B000551C82E0809317022FB7F894809103045E
:1059C00090910404A0910504B09106042FBF8C505F
:1059D0009E4FAF4FBF4F8093080490930904A0934C
:1059E0000A04B0930B040E94276A81EE9EE590930F
:1059F0001602809315021092E0061092E1061092B2
:105A0000E2061092E30681E08093E5060C94C91D3E
:105A10003F924F925F926F927F928F929F92AF923E
:105A2000BF92CF92DF92EF92FF920F931F93CF938B
:105A3000DF934091E0065091E1066091E20670919B
:105A4000E306413080E858076105710510F00C94B9
:105A50008E39DB01CA01B695A79597958795109168
:105A60000004C12ED12CE12CF12C8C159D05AE0526
:105A7000BF0518F480930004182F00E0BAE0EB2E65
:105A8000F12CC4E6CC2ED12CDEE44D2ED5E05D2EDB
:105A90008BE5682E85E0782E91E1892E912CA12C42
:105AA000B12C11118DC080911702882309F452C0C6
:105AB000423051056105710508F4ABC281E0809365
:105AC000B8061092CF06802F90E00196982F990F7C
:105AD000890F880F880F8093D00660E284E996E0F2
