:100000000C94041A0C94ED650C94C2650C949765DD
:100010000C946C650C9441650C9416650C94EB641F
:100020000C94C0640C94351A0C94351A0C94351A3F
:100030000C94351A0C94351A0C94351A0C94351A04
:100040000C94351A0C94351A0C94351A0C94351AF4
:100050000C94351A0C94351A0C94351A0C94766459
:100060000C94351A0C9464630C943B630C94351A0D
:100070000C94351A0C94351A0C94351A0C94351AC4
:100080000C94033B0C94351A0C94351A0C94351AC5
:100090000C94351A0C94351A0C94351A0C94186675
:1000A0000C94351A0C94351A0C946E3A0C94351A3B
:1000B0000C94351A0C94351A0C94351A0C94351A84
:1000C0000C94351A0C94351A0C94351A0C94351A74
:1000D0000C94351A0C94351A0C94351A0C94351A64
:1000E0000C94351A8235702DD3347735D334D3340C
:1000F000D334D334D334D334D334D334D334D334C8
:10010000D334D334D334D334D334D334D334D334B7
:10011000D334D334D334D334D334D334D334D334A7
:100120007135D334D334D334D334D334D334D334F8
:10013000D3340335D334D334D334D334D334D33456
:10014000D334D334D334D334973592350B620E6223
:10015000FD61016207624562126216621C622062E2
:1001600024622A622E623262456238623C624062D8
:1001700008000000BE922449123EABAAAA2ABECDB6
:10018000CCCC4C3E00000080BEABAAAAAA3E000028
:100190000000BF000000803F000000000008417820
:1001A000D3BB4387D1133D190E3CC3BD4282AD2B57
:1001B0003E68EC8276BED98FE1A93E4C80EFFFBE4F
:1001C00001C4FF7F3F00000000005B302E2E39305D
:1001D00030207365632E5D0050756C697A6961200B
:1001E000737065676E696D656E746F0050756C69CC
:1001F0007A696120737065676E2E005B302E2E3930
:100200003030207365632E5D0050726573706567D2
:100210006E696D656E746F00507265737065676EA0
:10022000696D656E746F005B302E2E39303020732F
:1002300065632E5D0044757261746120737065673B
:100240002E207374616E64627900537065672E208E
:100250007374616E646279005B302E2E3930302009
:100260007365632E5D004475726174612070756CF6
:100270002E20706572696F646963610044757261F4
:1002800074612070756C2E005B302E2E393030205A
:100290007365632E5D00506572696F646F207075C1
:1002A0006C697A696100506572692E2070756C699D
:1002B0007A6961005B302E2E393030207365632EF1
:1002C0005D0053746162696C697A7A617A696F6EF4
:1002D000650053746162696C697A2E005B302E2E62
:1002E000393030207365632E5D004D617820746570
:1002F0006D706F20616363656E73696F6E65004D2D
:1003000061782074656D706F20616363005B302ECF
:100310002E393030207365632E5D004163656E7346
:10032000696F6E652066697373610041636320665F
:1003300069737361005B302E2E3930302073656332
:100340002E5D0050726563617269636F2070656C29
:100350006C6574730050726563617269636F005BF2
:10036000302E2E393030207365632E5D005072655B
:1003700072697363616C646F2063616E642E0050F8
:1003800072652E2063616E642E005B302E2E393034
:1003900030207365632E5D0050756C697A2E20697C
:1003A0006E2020616363656E73696F6E65005075C2
:1003B0006C2E206163632E00506172616D657472F2
:1003C0006900496D706F7374617A2E20646566618F
:1003D000756C7400436172696361206461204545F6
:1003E00050524F4D0053616C766120696E20454537
:1003F00050524F4D004F6666004F6E20004F6666AC
:10040000004F6E2000436F636C6561004F666600AD
:100410004F6E20004F6666004F6E200043616E6491
:10042000656C65747461005B302E2E32333020565B
:100430006F6C745D0056656E746F6C6120726973C9
:1004400063616C64616D656E746F0056656E2E201D
:1004500072697363005B302E2E323830302047696A
:100460007269275D0056656C6F63697461207665FB
:100470006E746F6C612066756D690056656E2E2016
:1004800066756D69004D656E75207072696E636981
:1004900070616C65004C6976656C6C6F2036004C41
:1004A0006976656C6C6F2035004C6976656C6C6F95
:1004B0002034004C6976656C6C6F2033004C697693
:1004C000656C6C6F2032004C6976656C6C6F203106
:1004D00000506172616D6574726900496D706F736F
:1004E00074617A2E2064656661756C740043617274
:1004F00069636120646120454550524F4D0053614E
:100500006C766120696E20454550524F4D00546510
:10051000726D6F73746174690054696D65727300F4
:100520004C6976656C6C6920706F742E004D656E39
:1005300075207072696E636970616C65005B302E46
:100540002E3235302043275D004D616E63616E7A37
:1005500061206669616D6D6120757575757575755C
:10056000757575757575004D616E6361206669619D
:100570006D6D61005B302E2E3235302043275D00DB
:100580004469736174742E2063616E64656C657474
:100590007461004469736174742E2063616E642E0B
:1005A000005B302E2E3235302043275D00537475AA
:1005B0006661207370656E746100537475666120A6
:1005C0007370656E746100506172616D65747269FB
:1005D0000000091200FC0A01E803D720FFFD0EFD10
:1005E0000BFD00000009000E010B0B0904008080C8
:1005F00080808080800000808004040409030790CC
:10060000909090080A0A090000242424FF2424FF63
:10061000242424070B0B0901FF107C9290503814FE
:1006200012927C10070A0A09010042A4A448101083
:10063000244A4A84070A0A09010060909090606287
:100640009488946201040409040780808080030C6C
:100650000C0903FF20404080808080808040402043
:10066000030C0C0903FF8040402020202020204064
:10067000408007070709010310925438549210076D
:100680000707090101101010FE10101002040409E0
:1006900004FEC0C04080070101090104FE020202FD
:1006A000090400C0C0070A0A090100020404081076
:1006B0001020404080070A0A0901003844828282E3
:1006C0008282824438070A0A0901001030509010D3
:1006D00010101010FE070A0A0901003844820204B3
:1006E00008102040FE070A0A090100FE020408184B
:1006F0000402028478070A0A090100040C14244445
:1007000084FE040404070A0A090100FE808080F8C0
:100710000402028478070A0A0901003C408080B87C
:10072000C482824438070A0A090100FE0204040850
:100730000810101010070A0A0901003844824438D2
:100740004482824438070A0A0901003844828246FA
:100750003A02020478020707090400C0C000000042
:10076000C0C00209090904FEC0C0000000C0C040AA
:100770008005090909020008102040804020100867
:10078000070404090102FE0000FE05090909020030
:10079000804020100810204080070A0A0901003814
:1007A000448202040810100010070A0A09010038E8
:1007B000449AAAAAAAAA9C403C070A0A0901001066
:1007C000282828447C44828282070A0A090100F80A
:1007D000848284F884828284F8070A0A0901003C32
:1007E00042808080808080423C070A0A090100F82C
:1007F0008482828282828284F8070A0A090100FECA
:10080000808080F880808080FE070A0A090100FE4F
:10081000808080F88080808080070A0A0901003883
:10082000448280808E82824438070A0A090100824D
:10083000828282FE8282828282050A0A090200F88E
:100840002020202020202020F8070A0A0901003E4D
:10085000080808080808888870070A0A0901008241
:10086000848890A0D088848282070A0A09010080C7
:100870008080808080808080FE070A0A09010082D3
:1008800082C6AA928282828282070A0A09010082B3
:1008900082C2A2928A86828282070A0A0901007CA9
:1008A00082828282828282827C070A0A090100F89F
:1008B00084828284F880808080080B0B0901FF38D5
:1008C0004482828282828A443A01070A0A0901002C
:1008D000F884828284F890888482070A0A090100D9
:1008E0007C8280807C020202827C070A0A09010065
:1008F000FE101010101010101010070A0A09010045
:1009000082828282828282824438070A0A09010036
:1009100082828244444428282810070A0A090100D8
:100920008282828292929292AA44070A0A09010064
:1009300082824428101028448282070A0A09010092
:1009400082824428101010101010070A0A090100B2
:10095000FE0204081020408080FE040C0C0903FFF6
:10096000F080808080808080808080F0070A0A0983
:10097000010080404020101008040402040C0C09FF
:1009800002FFF010101010101010101010F00704DB
:1009900004090106102844820801010900FFFF0331
:1009A000030309030A8040200707070901007C02AE
:1009B000027E82867A070A0A090100808080BCC212
:1009C000828282C2BC0707070901007C8280808086
:1009D000827C070A0A0901000202027A8682828268
:1009E000867A0707070901007C8282FE80827C07E5
:1009F0000A0A0901001C22222020F82020202007BA
:100A00000A0A0901FD7A84848478807C82827C07CA
:100A10000A0A090100808080BCC28282828282052B
:100A20000A0A090200600000E02020202020F805CA
:100A30000D0D0902FD18000038080808080808888C
:100A40008870070A0A090100808080848890B0C8F5
:100A50008482050A0A090200E020202020202020AC
:100A600020F8070707090100EC9292929292820700
:100A70000707090100BCC282828282820707070938
:100A800001007C82828282827C070A0A0901FDB809
:100A9000C4828282C4B8808080070A0A0901FD3AB4
:100AA00046828282463A0202020707070901009C39
:100AB0006242404040400707070901007C82807C79
:100AC00002827C0709090901002020FC2020202047
:100AD000221C0707070901008282828282867A0728
:100AE00007070901008282444428281007070709E4
:100AF00001008282929292AA4407070709010082AC
:100B0000442810284482070A0A0901FD424224248D
:100B1000241818109060070707090100FE04081048
:100B20002040FE060B0B0902001C20202020C020C4
:100B30002020201C010C0C0904FF80808080808014
:100B4000808080808080060B0B090100E01010106F
:100B5000100C10101010E007030309010762928CBB
:100B6000FFFFFFFFFFFFFFFFFFFFFFFFFFFFFFFF95
:100B7000FFFFFFFFFFFFFFFFFFFFFFFFFFFFFFFF85
:100B8000FF00000009000E010B0B0904008080002B
:100B90000080808080808080060808090100087835
:100BA0009490A0A47840070A0A0901001C22202082
:100BB000F8202060A25C070606090103827C4444F9
:100BC0007C82070A0A090100828244287C107C107A
:100BD0001010010B0B0904FF808080808000808052
:100BE000808080040B0B0902FF60908060909090E1
:100BF0006010906003020209030BA0A00809090914
:100C000000013C4299A5A1A599423C0507070901AD
:100C100003609070907800F8070808090101122419
:100C2000489090482412060404090102FC040404BC
:100C3000050101090204F80809090900013C42B94B
:100C4000A5BDA9A5423C060101090109FC04040453
:100C5000090306609090600709090901011010104E
:100C6000FE10101000FE04060609010460901060DA
:100C700080F00406060901046090201090600303D0
:100C80000309030A2040800709090901FE828282C4
:100C90008282C6BA8080070A0A0901007E8A8A8A8F
:100CA0007A0A0A0A0A0A020202090404C0C00403FA
:100CB000030902FD20906003060609010440C040BC
:100CC0004040E00506060901047088887000F807B6
:100CD00008080901019048241212244890070A0AC2
:100CE00009010040C0404042E60A121A06070A0AFB
:100CF00009010040C040404CF2020C101E070A0AD5
:100D00000901006090201092660A121A06070A0A6A
:100D10000901001000101020408082827C070E0E16
:100D20000901002010080010282828447C448282F1
:100D300082070E0E09010008102000102828284400
:100D40007C44828282070E0E0901001028440010A4
:100D5000282828447C44828282070D0D0901003432
:100D6000580010282828447C44828282070D0D09EF
:100D7000010028280010282828447C448282820709
:100D80000E0E0901001028281010282828447C4441
:100D9000828282070A0A0901001E2828284E784804
:100DA00088888E070D0D0901FD3C4280808080807F
:100DB00080423C082418070E0E090100201008008C
:100DC000FE808080F880808080FE070E0E09010082
:100DD00008102000FE808080F880808080FE070E52
:100DE0000E09010010284400FE808080F880808079
:100DF00080FE070D0D090100282800FE808080F884
:100E000080808080FE050E0E09020040201000F850
:100E10002020202020202020F8050E0E090200109E
:100E2000204000F82020202020202020F8050E0E51
:100E300009020020508800F82020202020202020B7
:100E4000F8050D0D090200505000F8202020202048
:100E5000202020F8070A0A09010078444242F242A1
:100E600042424478070D0D0901003458008282C2C5
:100E7000A2928A86828282070E0E09010020100843
:100E8000007C82828282828282827C070E0E09012D
:100E900000081020007C82828282828282827C070B
:100EA0000E0E090100102844007C82828282828218
:100EB00082827C070D0D0901003458007C828282F9
:100EC00082828282827C070D0D0901002828007C25
:100ED00082828282828282827C07070709010182E4
:100EE000442810284482070C0C0901FF027C868AE2
:100EF0008A9292A2A2C27C80070E0E0901002010E5
:100F0000080082828282828282824438070E0E0921
:100F1000010008102000828282828282828244380C
:100F2000070E0E090100102844008282828282820C
:100F300082824438070D0D09010028280082828230
:100F400082828282824438070E0E09010008102036
:100F50000082824428101010101010070A0A09019C
:100F6000008080FC828282FC808080060A0A09015F
:100F70000038444448D04844444458070B0B090106
:100F800000201008007C02027E82867A070B0B0983
:100F90000100081020007C02027E82867A070B0B7B
:100FA000090100102844007C02027E82867A070A2A
:100FB0000A0901003458007C02027E82867A070A00
:100FC0000A0901002828007C02027E82867A070C2A
:100FD0000C09010010282810007C02027E82867A0B
:100FE0000707070901006C12127E90926C070A0A2B
:100FF0000901FD7C82808080827C104830070B0BC9
:10100000090100201008007C8282FE80827C070B90
:101010000B090100081020007C8282FE80827C0780
:101020000B0B090100102844007C8282FE80827C28
:10103000070A0A0901002828007C8282FE80827C3F
:10104000050C0C0902008040200000E02020202038
:1010500020F8050C0C0902001020400000E02020C0
:10106000202020F8050C0C0902002050880000E028
:101070002020202020F8050B0B0902005050000012
:10108000E02020202020F8070B0B090100483050F9
:10109000083C448282824438070A0A090100345815
:1010A00000BCC28282828282070B0B0901002010E1
:1010B00008007C82828282827C070B0B0901000877
:1010C0001020007C82828282827C070B0B09010047
:1010D000102844007C82828282827C070A0A0901ED
:1010E000003458007C82828282827C070A0A0901CD
:1010F000002828007C82828282827C0709090901FB
:101100000010381000FE001038100709090901FF0F
:10111000027C8A8A92A2A27C80070B0B0901004004
:101120002010008282828282867A070B0B090100DE
:10113000081020008282828282867A070B0B0901C6
:1011400000102844008282828282867A070A0A0975
:1011500001002828008282828282867A070E0E0988
:1011600001FD040810004242242424181810906045
:10117000070B0B0901FE8080B8C4828282C4B8804C
:1011800080070D0D0901FD24240042422424241867
:1011900018109060B02000416D6269656E2E00B03D
:1011A000200046756D6900000A1400FC0D024A0417
:1011B0009920FFFC10FC0DFC0000000A0010020D3D
:1011C0000D0A0400C0C0C0C0C0C0C0C0C0C000C0C4
:1011D000C00604040A0209CCCCCC48090B160A014B
:1011E000011B001B001B007F80360036003600FF0D
:1011F000006C006C006C00080D0D0A0100187EDB0D
:10120000D8D8D87E1B1B1BDB7E18090C180A0100DE
:101210007300DB00DE0076000C000C0018001800E4
:1012200037003D806D806700090D1A0A0100380003
:101230006C006C006C00780030007000D800CD802D
:10124000C700C600EF0079800205050A0408C0C087
:10125000C0C080050D0D0A030018306060C0C0C01A
:10126000C0C060603018050D0D0A0200C06030304B
:101270001818181818303060C00807070A010366EC
:10128000663CFF3C66660807070A0103181818FF4A
:101290001818180403030A03FF7070E00801010A1C
:1012A0000106FF0303030A0400E0E0E0070C0C0A58
:1012B000020006060C0C181830306060C0C0080D23
:1012C0000D0A0100183C6666C3C3C3C3C366663C0F
:1012D00018080D0D0A0100183878D81818181818B1
:1012E000181818FF080D0D0A01003C66C3C303035C
:1012F000061C3060C0C0FF080D0D0A01003C66C32B
:10130000C303061C0603C3C3663C080D0D0A010097
:1013100002060E1E3666C6C6FF06060606080D0D38
:101320000A0100FFC0C0C0C0DCE6030303C3663C83
:10133000080D0D0A01003C66C2C0C0DCE6C3C3C391
:10134000C3663C080D0D0A0100FF030306060C0CE2
:10135000181830306060080D0D0A01003C66C3C3E8
:10136000C3663C66C3C3C3663C080D0D0A01003C5E
:1013700066C3C3C3C3673B030343663C0308080A51
:101380000400E0E000000000E0E00409090A03FFB7
:101390007070000000007070E0070D0D0A0100027F
:1013A000060C183060C06030180C06020806060AE9
:1013B0000103FF00000000FF070D0D0A020080C0BE
:1013C0006030180C060C183060C080080D0D0A0142
:1013D000003C66C3C3C3060C181818001818080D83
:1013E0000D0A01003C66C3CFDFDBDBDBDECCC06374
:1013F0003E080D0D0A0100183C6666C3C3C3FFC357
:10140000C3C3C3C3080D0D0A0100F8CCC6C6C6CCC1
:10141000FCC6C3C3C3C6FC080D0D0A01003C66C36D
:10142000C0C0C0C0C0C0C0C3663C080D0D0A0100EA
:10143000FCC6C3C3C3C3C3C3C3C3C3C6FC080D0D2B
:101440000A0100FFC0C0C0C0C0FCC0C0C0C0C0FF17
:10145000080D0D0A0100FFC0C0C0C0C0FCC0C0C064
:10146000C0C0C0080D0D0A01003C66C3C0C0C0CF9B
:10147000C3C3C3C3673D080D0D0A0100C3C3C3C383
:10148000C3C3FFC3C3C3C3C3C3080D0D0A0100FF19
:101490001818181818181818181818FF090D1A0A0B
:1014A00001001F8006000600060006000600060078
:1014B00006000600C600C6006C003800080D0D0AC4
:1014C0000100C3C3C6C6CCCCF8CCCCC6C6C3C308C7
:1014D0000D0D0A0100C0C0C0C0C0C0C0C0C0C0C0A7
:1014E000C0FF080D0D0A0100C3C3E7E7FFDBDBDB2C
:1014F000DBC3C3C3C3080D0D0A0100C3E3E3F3F369
:10150000DBDBCFCFC7C7C3C3080D0D0A01003C66A4
:10151000C3C3C3C3C3C3C3C3C3663C080D0D0A0121
:1015200000FCC6C3C3C3C3C6FCC0C0C0C0C0080E55
:101530000E0A01FF3C66C3C3C3C3C3C3C3DBCF668C
:101540003E03080D0D0A0100FCC6C3C3C3C3C6FC9D
:10155000CCC6C6C3C3080D0D0A01003C66C3C0C09B
:10156000603C060303C3663C080D0D0A0100FF182A
:101570001818181818181818181818080D0D0A0136
:1015800000C3C3C3C3C3C3C3C3C3C3C3663C080D43
:101590000D0A0100C3C3C3C36666663C3C3C181811
:1015A00018080D0D0A0100C3C3C3C3C3DBDBDBDBBB
:1015B000E7E7C3C3080D0D0A0100C3C366663C3CE0
:1015C000183C3C6666C3C3080D0D0A0100C3C36620
:1015D000663C3C18181818181818080D0D0A010058
:1015E000FF0303060C0C18303060C0C0FF060D0D61
:1015F0000A0200FCC0C0C0C0C0C0C0C0C0C0C0FCA7
:10160000070C0C0A0200C0C06060303018180C0CC7
:101610000606060D0D0A0200FC0C0C0C0C0C0C0C42
:101620000C0C0C0CFC0804040A0109183C66C309E4
:1016300001020A01FFFF800403030A030AC06030AD
:101640000808080A01003E63037FC3C3C37D080D79
:101650000D0A0100C0C0C0C0C0DCE6C3C3C3C3E6FE
:10166000DC0808080A01003E63C0C0C0C0633E0831
:101670000D0D0A010003030303033B67C3C3C3C388
:10168000673B0808080A01003C66C3FFC0C0633E10
:10169000080D0D0A01001E33333030FC303030307D
:1016A000303030080C0C0A01FC7DC7C6C6C67CC0B1
:1016B0007EC3C3C37E080D0D0A0100C0C0C0C0C0F8
:1016C000DCE6C3C3C3C3C3C3080B0B0A010018186D
:1016D0000078181818181818FF070F0F0A02FC06D0
:1016E00006001E06060606060606C6C6C67C080DC9
:1016F0000D0A0100C0C0C0C0C0C6CCD8F0F8CCC62E
:10170000C3080D0D0A0100781818181818181818B1
:10171000181818FF0808080A0100B6FFDBDBDBDB3E
:10172000DBDB0808080A0100DCE6C3C3C3C3C3C38C
:101730000808080A01003C66C3C3C3C3663C080C22
:101740000C0A01FCDCE6C3C3C3C3E6DCC0C0C0C0F6
:10175000080C0C0A01FC3B67C3C3C3C3673B03030C
:1017600003030808080A0100DE73606060606060BF
:101770000808080A01007EC3C07E0303C37E080B6D
:101780000B0A0100303030FC3030303030331E086E
:1017900008080A0100C3C3C3C3C3C3673B080808E2
:1017A0000A0100C3C366663C3C18180808080A0111
:1017B00000C3C3C3DBDBDBFF660808080A0100C304
:1017C000663C18183C66C3080C0C0A01FCC3C3C372
:1017D000C3C3C3673B03C3663C0708080A0200FE95
:1017E000060C183060C0FE080D0D0A01000F181815
:1017F000181818F018181818180F020D0D0A040000
:10180000C0C0C0C0C0C0C0C0C0C0C0C0C0080D0DF6
:101810000A0100F018181818180F1818181818F0DE
:101820000803030A010A73DBCEFFFFFFFFFFFFFF80
:10183000FFFFFFFFFFFFFFFFFFFFFFFFFFFFFFFFB8
:10184000FFFFFFFFFFFFFFFFFFFF0000000A001088
:10185000020D0D0A0400C0C000C0C0C0C0C0C0C09E
:10186000C0C0C0070C0C0A010018183C66C2C0C0FA
:10187000C2663C1818090C180A01001E0033003318
:101880000030003000FC00300030003000F800ADC7
:1018900080E7000909120A00018080DD807F006373
:1018A00000630063007F00DD808080080B0B0A016D
:1018B0000081C3663C7E187E18181818020D0D0AA8
:1018C0000400C0C0C0C0C0000000C0C0C0C0C0088C
:1018D0000D0D0A01003C66C66078CC66331E0663B7
:1018E000663C0602020A020BCCCC080B0B0A010074
:1018F0003C66C3BDA5A1A5BDC3663C0809090A0194
:10190000043E43037FC3C37D00FF090B160A00009A
:1019100004800D801B0036006C00D8006C0036007F
:101920001B000D8004800804040A0104FFFF030368
:101930000601010A0206FC080B0B0A01003C66C303
:10194000BDA5BDA9ADC3663C0801010A010DFF0696
:1019500006060A02073078CCCC78300807070A015F
:10196000021818FF181800FF0507070A020670D8AA
:10197000183060C0F80507070A020670D81830183A
:10198000D8700403030A030A3060C0070A0A0A0178
:10199000FDC6C6C6C6C6EEFAC0C0C0080D0D0A0117
:1019A000007FFFFBFBFB7B1B1B1B1B1B1B1B03038A
:1019B000030A0405E0E0E00504040A02FC3018D83C
:1019C000700407070A020660E060606060F00709C3
:1019D000090A0104386CC6C6C66C3800FE090B162D
:1019E0000A01009000D8006C0036001B000D801B1F
:1019F0000036006C00D8009000080C0C0A01014071
:101A0000C04142E40812264A9E0202080C0C0A0158
:101A10000140C04142E40816294182040F080C0C21
:101A20000A0101E0106112E40812264A9F0202082E
:101A30000D0D0A01001818001818183060C3C3C330
:101A4000663C080F0F0A010060301800183C66C39E
:101A5000C3C3FFC3C3C3C3080F0F0A0100060C189A
:101A600000183C66C3C3C3FFC3C3C3C3080F0F0A38
:101A70000100183C6600183C66C3C3C3FFC3C3C360
:101A8000C3080F0F0A0100327E4C00183C66C3C326
:101A9000C3FFC3C3C3C3080F0F0A01006666001863
:101AA0003C6666C3C3C3FFC3C3C3C30810100A01A7
:101AB000003C66663C00183C66C3C3C3FFC3C3C397
:101AC000C3080D0D0A01001F3C6C6CCCCCFFCCCCC4
:101AD000CCCCCCCF0811110A01FC3C66C3C0C0C0FD
:101AE000C0C0C0C0C3663C180C6C38080F0F0A0198
:101AF0000060301800FFC0C0C0C0FCC0C0C0C0FF44
:101B0000080F0F0A01000C183000FFC0C0C0C0FC55
:101B1000C0C0C0C0FF080F0F0A0100183C6600FFDC
:101B2000C0C0C0C0FCC0C0C0C0FF080F0F0A010089
:101B300066660000FFC0C0C0C0FCC0C0C0C0FF06D9
:101B40000F0F0A020060301800FC303030303030A7
:101B5000303030FC060F0F0A020018306000FC30F5
:101B60003030303030303030FC060F0F0A02003099
:101B700078CC00FC303030303030303030FC060F64
:101B80000F0A0200CCCC00FC303030303030303026
:101B90003030FC090D1A0A00007E0063006180618C
:101BA0008061806180F98061806180618061806393
:101BB000007E00080F0F0A0100327E4C00C3E3F3E1
:101BC000F3DBDBCFCFC7C3C3080F0F0A0100301808
:101BD0000C003C66C3C3C3C3C3C3C3663C080F0F3A
:101BE0000A01000C1830003C66C3C3C3C3C3C3C39F
:101BF000663C080F0F0A0100183C66003C66C3C330
:101C0000C3C3C3C3C3663C080F0F0A0100327E4C36
:101C1000003C66C3C3C3C3C3C3C3663C080F0F0AFB
:101C200001006666003C66C3C3C3C3C3C3C3C366C7
:101C30003C0708080A010082C66C38386CC6820866
:101C40000F0F0A01FF013E66C7C7CBCBCBD3D3D35F
:101C5000E3667C80080F0F0A010030180C00C3C334
:101C6000C3C3C3C3C3C3C3663C080F0F0A01000C40
:101C7000183000C3C3C3C3C3C3C3C3C3663C080F88
:101C80000F0A0100183C6600C3C3C3C3C3C3C3C368
:101C9000C3663C080F0F0A0100666600C3C3C3C3D6
:101CA000C3C3C3C3C3C3663C080F0F0A01000C18AB
:101CB0003000C3C366663C3C1818181818070D0D91
:101CC0000A0200C0C0C0FCC6C6C6C6C6FCC0C0C0B2
:101CD000080D0D0A01001C36636366EC6C666363D5
:101CE00063666C080C0C0A010030180C007EC303FC
:101CF0007FC3C3C37D080C0C0A01000C1830007EA2
:101D0000C3037FC3C3C37D080C0C0A0100183C66E3
:101D1000007EC3037FC3C3C37D080C0C0A010032DD
:101D20007E4C007EC3037FC3C3C37D080B0B0A0137
:101D3000006666007EC3037FC3C3C37D080D0D0A22
:101D400001003C66663C007EC3037FC3C3C37D08BD
:101D500008080A0100769B1B1E78D8D96E080C0C67
:101D60000A01FC3E63C0C0C0C0633E180C6C38085A
:101D70000C0C0A0100603018003C66C3FFC0C06351
:101D80003E080C0C0A0100060C18003C66C3FFC09C
:101D9000C0633E080C0C0A0100183C66003C66C398
:101DA000FFC0C0633E080B0B0A01006666003C667C
:101DB000C3FFC0C0633E080C0C0A0100603018006D
:101DC00078181818181818FF080C0C0A01000C18BD
:101DD000300078181818181818FF080C0C0A0100A1
:101DE000183C660078181818181818FF080B0B0A0A
:101DF000010066660078181818181818FF080D0DED
:101E00000A010088D87070D88C3E67C3C3C3663C93
:101E1000080C0C0A0100327E4C00DCE6C3C3C3C3CD
:101E2000C3C3080C0C0A0100603018003C66C3C331
:101E3000C3C3663C080C0C0A0100060C18003C6683
:101E4000C3C3C3C3663C080C0C0A0100183C6600FF
:101E50003C66C3C3C3C3663C080C0C0A0100327E57
:101E60004C003C66C3C3C3C3663C080B0B0A0100AD
:101E70006666003C66C3C3C3C3663C080A0A0A011F
:101E80000118180000FFFF00001818080A0A0A01CC
:101E9000FF013E66CBCBD3D3667C80080C0C0A01D5
:101EA0000030180C00C3C3C3C3C3C3673B080C0C8A
:101EB0000A0100060C1800C3C3C3C3C3C3673B08B1
:101EC0000C0C0A0100183C6600C3C3C3C3C3C3673C
:101ED0003B080B0B0A0100666600C3C3C3C3C3C340
:101EE000673B0810100A01FC0C183000C3C3C3C3C1
:101EF000C3C3673B03C3663C0711110A02FCC0C0A1
:101F0000C0C0C0C0F8CCC6C6C6CCF8C0C0C0C008EF
:101F10000F0F0A01FC666600C3C3C3C3C3C3673B9C
:101F200003C3663C01050800FF060121023520FFBE
:101F3000FF07FF06FF0900502216568080808000B0
:101F400080153353A0A0A00257575050F850F850B6
:101F5000500257572070A07028702013355580A06C
:101F600040A02002475740A0A040A0A050251353F6
:101F700080808012265640808080804012265680C5
:101F800040404040800245559060F06090025555B9
:101F90002020F82020113353604080044151F0117B
:101FA000335340E0400246561010204080801236E5
:101FB0005640A0A0A0A04012365640C0404040E08D
:101FC0000246566090106080F0024656F020601085
:101FD00090600246562060A0F02020024656F08015
:101FE000E01090600246566080E090906002465695
:101FF000F0102020404002465660906090906002B1
:102000004656609090701060122555C0C000C0C048
:102010001136566060006040801236562040808045
:102020004020034353F000F01236568040202040F9
:102030008012365640A02040004001585830489841
:10204000A8A8904030024656609090F090900246CA
:1020500056E090E09090E00246566090808090605C
:10206000024656E090909090E0024656F080E08064
:1020700080F0024656F080E08080800246566090F4
:1020800080B090600246569090F090909012365634
:10209000E040404040E002465670202020A0400230
:1020A000465690A0C0A0A0900246568080808080B6
:1020B000F002465690F0F090909002465690D0F084
:1020C000B0B090024656609090909060024656E004
:1020D0009090E08080014757609090D0B0601002EF
:1020E0004656E09090E090900246566090402090D6
:1020F00060123656E0404040404002465690909074
:102100009090600246569090909060600246569083
:102110009090F0F090024656909060609090025639
:1021200056888850202020024656F010204080F02B
:10213000123656E080808080E00246568080402043
:102140001010123656E020202020E016325240A017
:10215000014151F016225280400244547090907018
:102160000246568080E09090E01234546080806097
:1021700002465610107090907002445460B0C060D7
:10218000024656205040E040400145556090701096
:10219000600246568080E09090901236564000C013
:1021A0004040E01137572000202020A04002465632
:1021B000808090E09090123656C040404040E0024F
:1021C0005454D0A8A8A8024454E0909090024454DB
:1021D00060909060014555E090E080800145557029
:1021E00090701010024454A0D0808012345460C00B
:1021F00020C00246564040E0405020024454909097
:102200009070123454A0A0A04002545488A8A85042
:102210000244549060609001455590907090600227
:102220004454F02040F0024757304020C020403056
:10223000221656808080808080024757C020403020
:102240004020C006425250A0FFFFFFFFFFFFFFFFEC
:10225000FFFFFFFFFFFFFFFFFFFFFFFFFFFFFFFF8E
:10226000FFFFFFFFFFFFFFFFFF0900502216568010
:1022700000808080800146562070A0A07020024619
:10228000562050E04050A00255558870507088028A
:1022900056568850F820F8202217578080800080FA
:1022A00080800247577080E0907010E0173151A095
:1022B00002565670A8C8C8A87014355560A06000B2
:1022C000E003435350A050123353E0202014315107
:1022D000E002565670E8D8E8D870173151E015334F
:1022E0005340A04012355540E04000E014355540C1
:1022F000A02040E0143555C020C020C01622524016
:1023000080014555909090E08002565678E8E86844
:10231000282824115180112252408014355540C084
:102320004040E014355540A04000E0034353A05026
:10233000A0024757808080A060F02002475780802D
:10234000A0D010207002475780408060A0F020127B
:10235000365640004080A04002475740206090F031
:10236000909002475720406090F09090024757604D
:10237000906090F0909002475750A06090F090903D
:1023800002475790006090F090900247576090602D
:1023900090F0909002465670A0A0F0A0B001475770
:1023A000609080809060400247574020F080E0803D
:1023B000F00247572040F080E080F00247576090DD
:1023C000F080E080F00247579000F080E080F0124B
:1023D00037578040E0404040E01237572040E0400F
:1023E0004040E012375740A0E0404040E0123757ED
:1023F000A000E0404040E00256567048E84848706F
:1024000002475750A090D0B09090024757402060AC
:1024100090909060024757204060909090600247F3
:10242000576090609090906002475750A0609090E5
:10243000906002475790006090909060123353A0D4
:1024400040A002465670B0B0D0D0E00247574020BE
:10245000909090906002475720409090909060023A
:1024600047576090909090906002475790009090EE
:102470009090600257571020885020202002465626
:1024800080E09090E0800246566090A0A090A0026C
:1024900047574020007090907002475720400070CE
:1024A00090907002475720500070909070024757EC
:1024B00050A000709090700246565000709090703E
:1024C00002475760906070909070025454F068B06A
:1024D0007811355560808060400247574020006089
:1024E000B0C06002475720400060B0C0600247574C
:1024F00060900060B0C060024656500060B0C0609E
:10250000123757804000C04040E01237572040004B
:10251000C04040E012375740A000C04040E01236B3
:1025200056A000C04040E0024757A040A010709065
:102530006002475750A000E090909002475740201B
:1025400000609090600247572040006090906002C9
:1025500047576090006090906002475750A000601D
:102560009090600246569000609090601235554001
:1025700000E0004002445470B0D0E00247574020D1
:102580000090909070024757204000909090700209
:10259000475760900090909070024656900090903F
:1025A000907001485820400090907090600147570B
:1025B0008080E090E080800147579000909070907C
:1025C00060FFFFFFC005FFFFFFFFFFFC00003FFFB4
:1025D000FFFFFFE0000007FFFFFFFF80000001FF9B
:1025E000FFFFFE002FF8007FFFFFFC01FFFF803F91
:1025F000FFFFF00FFFFFF00FFFFFE03FF7EFFC07DB
:10260000FFFFC0FFF7F7FE03FFFF81FF67F2FF81C7
:10261000FFFF03FFA7E6FFC0FFFE07FF27E6FFF06F
:102620007FFC0FFF33E47FF03FF81FDF63E67DFCA4
:102630001FF83FBE31C67DFC1FF07FBE71873EFE96
:102640000FE0FF3C71871C7F07E0FF38F0871E7F9B
:1026500007C1FF38E1871C7F83C3FA1861870C6FBD
:10266000C383FB1841C2085FC187FC0801C0085F33
:10267000C187F90803C0184FE107F9080180184F16
:10268000E00FF10C0000184FF00FE31C000018479A
:10269000F00FE30C000018E3F01FC300000000631C
:1026A000F00FC70000000061F81FC30000000061C8
:1026B000F81FC00000000001F81FC0000000000368
:1026C000F81FC00000000003F81FE0000000000336
:1026D000F81FE00000000003F81FE0000000000702
:1026E000F81FF00000000007F00FF0A00000050741
:1026F000F81FE0FF00007F83F00FE0FFC001FF83C1
:10270000F00FE07FE007FF07F00FF03FF80FFE0744
:10271000F007F81FFC1FF80FE087F807FC3FF01FD9
:10272000E187FC01FE3F803FE183FF000000007F66
:10273000C1C1FF80008001FFC3C1FFF001C007FFDE
:1027400083E1FFF803C01FFF07E0FFFE03E03FFF48
:1027500007F07FFC03E03FFE0FF83FFC06201FFC64
:102760001FF81FFC00001FF81FFC0FF800000FF0FF
:102770003FFE0FF800001FE07FFF03F880010FC04D
:10278000FFFF81FC84119F81FFFFC07EC410BE0348
:10279000FFFFE03FCC13FC07FFFFF007FEFFF00F49
:1027A000FFFFFC01FFFF803FFFFFFE001FF4007FE3
:1027B000FFFFFF80000001FFFFFFFFE0000007FFB9
:1027C000FF0000000000000000000000000000000A
:1027D00000000000000000000000000000000000F9
:1027E00000000000000000000000000000000000E9
:1027F0000000000000000000000000000000005B7E
:10280000302E2E3630207365632E5D0054656D705A
:102810006F20636F636C65610054656D706F20633A
:102820006F636C6561005B302E2E32333020566F43
:102830006C745D0056656E746F6C612072697363B1
:10284000616C64616D656E746F0056656E2E2072EA
:10285000697363005B3330302E2E323830302047BE
:10286000697269275D0056656C6F636974612076D3
:10287000656E746F6C612066756D690056656E2EAD
:102880002066756D69004C6976656C6C6920706FA7
:10289000742E0000002100240027002A002D0030A3
:1028A00000330001010000040107010A01000022B9
:1028B00000250028002B002E00310034000201000A
:1028C00000050108010B010000200023002600295B
:1028D000002C002F00320000010000030106010956
:1028E0000105050505070508080808020202020A95
:1028F0000A080804040404010101010101010103A3
:1029000003030303030303040707070C0C0C0C0C5D
:102910000C0C0C0202020206060606060606060B50
:102920000B0B0B0B0B0B0B010210202008081020C7
:10293000401020408002010201080402010102044B
:10294000081020408080402010080402018004020A
:102950000180402010080402010804020101020461
:102960000810204080010204081020408000000A66
:102970000B02090C0D0E0807030401000000000003
:102980000000000000000000000000000000000047
:102990000000000000000000001211100000000004
:1029A0000000000000000000000000000000000027
:1029B00000000000060900FE070199032B20FFFE1E
:1029C00008FE07FE000000060000010707060200DF
:1029D00080808080800080030303060104A0A0A003
:1029E0000507070600005050F850F850500507073B
:1029F0000600002070A07028702005070706000060
:102A000048A8502050A89005070706000040A0A045
:102A100040A8906801030306020480808003070732
:102A20000601002040808080402003070706010047
:102A3000804020202040800505050600018850F8D0
:102A400050880505050600012020F8202003030317
:102A50000601FF604080050101060003F80303033F
:102A60000601FF40E04005070706000008081020A7
:102A70004080800507070600002050888888502085
:102A80000507070600002060A0202020F8050707A2
:102A9000060000708808304080F80507070600002F
:102AA000F80810300888700507070600001030503D
:102AB00090F81010050707060000F880B0C80888D5
:102AC00070050707060000304080B0C88870050711
:102AD00007060000F8081010204040050707060010
:102AE0000070888870888870050707060000708865
:102AF00098680810600307070601FF40E0400040A7
:102B0000E0400307070601FF40E04000604080040A
:102B1000070706010010204080402010050303062F
:102B20000002F800F804070706010080402010208A
:102B3000408005070706000070881020200020054F
:102B40000707060000708898A8B080700507070680
:102B5000000020508888F88888050707060000F0E4
:102B60004848704848F005070706000070888080D4
:102B7000808870050707060000F04848484848F07C
:102B8000050707060000F88080F08080F805070739
:102B9000060000F88080F0808080050707060000AE
:102BA00070888080988870050707060000888888EC
:102BB000F8888888030707060100E040404040404D
:102BC000E005070706000038101010109060050798
:102BD000070600008890A0C0A0908805070706009F
:102BE00000808080808080F80507070600008888C4
:102BF000D8A88888880507070600008888C8A8988C
:102C0000888805070706000070888888888870050E
:102C10000707060000F08888F08080800508080615
:102C200000FF7088888888A87008050707060000DC
:102C3000F08888F0A090880507070600007088805B
:102C400070088870050707060000F8202020202063
:102C5000200507070600008888888888887005078F
:102C60000706000088888850505020050707060096
:102C700000888888A8A8D8880507070600008888E3
:102C800050205088880507070600008888502020BB
:102C90002020050707060000F80810204080F803F0
:102CA0000707060100E08080808080E005070706B6
:102CB000000080804020100808030707060100E09C
:102CC0002020202020E00503030600042050880572
:102CD00001010600FFF80202020602068040050517
:102CE0000506000070087888780507070600008050
:102CF00080B0C888C8B005050506000070888088C7
:102D00007005070706000008086898889868050598
:102D1000050600007088F88070050707060000307F
:102D20004840F04040400507070600FE7888887854
:102D30000888700507070600008080B0C88888886A
:102D40000307070601004000C0404040E0040909B5
:102D50000601FE1000301010109090600507070665
:102D6000000080808890E09088030707060100C07B
:102D70004040404040E0050505060000D0A8A8A856
:102D800088050505060000B0C88888880505050681
:102D9000000070888888700507070600FEB0C888A4
:102DA000C8B080800507070600FE68988898680804
:102DB00008050505060000B0C880808005050506E9
:102DC000000070807008F00507070600004040F022
:102DD0004040483005050506000088888898680549
:102DE00005050600008888505020050505060000EE
:102DF0008888A8A85005050506000088502050883E
:102E00000507070600FE888898680888700505058C
:102E1000060000F8102040F80407070601003040C3
:102E200020C020403001070706020080808080809B
:102E30008080040707060100C02040304020C00504
:102E4000030306000448A8900000000100000000F1
:102E5000000100000000000100000000000100006F
:102E6000000000010000000000010000000000015F
:102E70000000000000010000000000010000000050
:102E8000000100000000000100000000000100003F
:102E9000000000010000000000010000000000012F
:102EA0000000000000010000000000010000000020
:102EB000000100000000000100000000000100000F
:102EC00000000001000000000001000000000001FF
:102ED00000000000000100000000000100000000F0
:102EE00000010000000000010000000000010000DF
:102EF00000000001000000000001000000000001CF
:102F000000000000000100000000000100000000BF
:102F10000006000001070706020080008080808014
:102F2000800507070600FF2078A0A0A078200507ED
:102F300007060000304840E04048B005050506009F
:102F40000088705070880508080600FF88885020A7
:102F5000F820202001070706020080808000808082
:102F6000800508080600FF7080E09048380870036C
:102F70000101060107A00507070600007088A8C820
:102F8000A888700406060601017090B05000F00693
:102F900005050600002448904824040202060102A8
:102FA000F010040101060103F00507070600007098
:102FB00088E8C8C88870050101060007F803030304
:102FC00006010440A0400506060600002020F82067
:102FD00020F804050506010360902040F004050573
:102FE000060103E0106010E00202020602064080C3
:102FF0000506060600FF888888C8B0800507070612
:10300000000078E8E868282828010101060203800A
:103010000202020602FE408003050506010340C0CD
:103020004040E00406060601016090906000F00652
:10303000050506000090482448900609090600FF8F
:1030400040C04040E40C143C040609090600FF405F
:10305000C04040E81404081C0509090600FFC02010
:103060004020C8182878080507070600002000201F
:10307000204088700508080600004020708888F805
:1030800088880508080600001020708888F888885D
:103090000508080600002050708888F88888050810
:1030A0000806000048B0708888F888880508080677
:1030B00000005000708888F888880508080600001D
:1030C0002050708888F888880607070600003C5062
:1030D000909CF0909C0509090600FE708880808015
:1030E0008870204005080806000040F88080F080C5
:1030F00080F805080806000010F88080F08080F84D
:1031000005080806000020F88080F08080F8050897
:103110000806000050F88080F08080F80308080658
:1031200001008040E040404040E003080806010004
:103130002040E040404040E003080806010040A075
:10314000E040404040E0030808060100A000E040E5
:10315000404040E0050707060000F04848E84848BE
:10316000F0050808060000285088C8A89888880537
:1031700008080600004020708888888870050808C4
:1031800006000010207088888888700508080600EE
:10319000002050708888888870050808060000287C
:1031A00050708888888870050808060000500070F4
:1031B000888888887005050506000088502050889A
:1031C000050707060000709898A8C8C87005080889
:1031D0000600004020888888888870050808060056
:1031E000001020888888888870050808060000205C
:1031F00050008888888870050808060000500088FC
:103200008888888870050808060000102088885083
:1032100020202005070706000080F088F0808080CD
:10322000050707060000708890A09088B005080880
:10323000060000402000700878887805080806001D
:103240000010200070087888780508080600002023
:10325000500070087888780508080600002850009B
:103260007008788878050707060000500070087815
:1032700088780508080600002050207008788878B3
:1032800006050506000078147C907C0507070600FB
:10329000FE708880887020400508080600004020E5
:1032A000007088F880700508080600001020007083
:1032B00088F880700508080600002050007088F823
:1032C000807005070706000050007088F8807003C2
:1032D0000808060100804000C0404040E0030808A4
:1032E000060100408000C0404040E003080806019D
:1032F0000040A000C0404040E0060A0A0600FEA4CC
:10330000A800FC8480808084FC060A0A0600FE5423
:103310009400FC8404040484FC05080806000028CA
:103320005000B0C8888888050808060000402000C2
:103330007088888870040A0A0602FE3040809090E7
:103340009090909090040A0A0600FEC02010909081
:103350009090909090060707060001448C8C848022
:10336000403C06070706000188C4C4840408F00531
:1033700005050600012000F80020050808060000E9
:1033800040F0C88888987810050808060000E0F822
:103390008888888888F80505050600012030F830FF
:1033A000200508080600002070F820202020E005F5
:1033B00009090600FF2070A8A8B8888850200509D0
:1033C000090600FFE080C0B0A8A830282805090938
:1033D0000600FFF8A88888888888A8F8050A0A06E1
:1033E00000FE205050505088A8A88870536572760F
:1033F00069636500506172616D657472690047753B
:10340000617264610000C97A11241FBECFEFD1E25E
:10341000DEBFCDBF00E00CBF13E0A0E0B2E0E2E60B
:10342000F3E001E00BBF02C007900D92A03EB10790
:10343000D9F728E0A0EEB3E001C01D92A93EB20783
:10344000E1F71AE1C4E0DAE100E006C021970109E2
:10345000802FFE010E946B7EC330D10780E00807F9
:10346000A9F70E94DC700C94AF810C9400003F928D
:103470004F925F926F927F928F929F92AF92BF9284
:10348000CF92DF92EF92FF920F931F93CF93DF9330
:103490004091C5085091C6086091C7087091C8084E
:1034A000413080E858076105710510F00C94132A2B
:1034B000DB01CA01B695A79597958795C091F7044A
:1034C0000C2F10E020E030E080179107A207B3072F
:1034D00018F48093F704C82FD0E0BAE0EB2EF12C5B
:1034E00014E6C12ED12C05E5402E03E0502E8FE7C7
:1034F000682E83E0782E97E1892E912CA12CB12C97
:10350000C1118FC080912402882309F454C0423035
:1035100051056105710508F47FC281E080939D0625
:103520001092B4068D2F90E00196982F990F890F75
:10353000880F880F8093B50660E289E796E00E94C5
:103540009935E8EBF3E06491662311F40C94232A97
:10355000A1E13A2E08EB13E001C0382E89E796E08E
:103560000E9499350F5F1F4F8FEF830DF801649113
:103570006111F3CF1EEF130D07C060E289E796E0FB
:103580000E949935812F11508111F7CF6BEF89E798
:1035900096E00E94993560E289E796E00E949935AD
:1035A00081E080939D064091C5085091C6086091C6
:1035B000C7087091C8088091CA08811114C1809110
:1035C000EF031092CA0882FF0BC08091C9088111D5
:1035D00007C0423051056105710510F40C94262A8C
:1035E000483151056105710508F005C1DB01CA01CB
:1035F000B695A79597958795E82F2091F70430E029
:103600002C5F3F4F281739070CF00DC1CCEFCE0FC0
:10361000C093F70481E080932402D0E0CC2309F426
:1036200071CFC13009F016C180912402882309F4BA
:103630007AC076956795579547952091F00330911C
:10364000F103413051056105710509F461C2243669
:1036500031050CF4F3C1C901B6010E941A7ECB01F9
:10366000B7010E941A7E805D8093FB04EBEFF4E0CB
:10367000C901B7010E941A7ECB01B7010E941A7ED0
:10368000805D8093FC04C901B7010E941A7E805DB1
:103690008093FD041092FE0401900020E9F7319719
:1036A000EB5FF44081E1382E3E1A1092B4068D2F64
:1036B00090E00196982F990F890F880F880F8093BB
:1036C000B50660E289E796E00E949935EEEAF3E0FC
:1036D0006491662361F08F0189E796E00E94993535
:1036E0000F5F1F4F3A94F80164916111F5CF6AE3BF
:1036F00089E796E00E94993506C060E289E796E086
:103700000E9499353A943110F8CF6BEF74E089E755
:1037100096E00E945B694091C5085091C60860918F
:10372000C7087091C8088091CA0881115CC0809157
:10373000EF031092CA0882FF53CF8091C90881110C
:103740004FCFDB01CA01B695A7959795879501974D
:10375000A105B10509F044CF0E94435A809122028D
:103760009091230290930605809305058091C508EA
:103770009091C608909304058093030582E080939E
:10378000240286EE9AE4909323028093220288E931
:1037900093E090930A05809309058AE893E090935B
:1037A0000C0580930B0580EF93E0909308058093C0
:1037B0000705109211051092120510921305109230
:1037C000140584E893E0A0E0B0E080930D059093A9
:1037D0000E05A0930F05B09310058091F003909112
:1037E000F1030C94E2251092CA0848315105610595
:1037F000710508F4FBCE8092C5089092C608A0928D
:10380000C708B092C8088BE090E0EBE047E150E0D9
:1038100060E070E02091F70430E02C5F3F4F281704
:1038200039070CF4F3CEDF5FCF5FD53008F468CEF4
:10383000DF91CF911F910F91FF90EF90DF90CF908C
:10384000BF90AF909F908F907F906F905F904F90C0
:103850003F900895C23009F0BBC1809124028823B3
:1038600009F47AC076956795579547952091FE03A0
:103870003091FF03423051056105710509F4E8C03C
:10388000243631050CF4D0C0C901B6010E941A7E5D
:10389000CB01B7010E941A7E805D8093FB04EBEFA1
:1038A000F4E0C901B7010E941A7ECB01B7010E9462
:1038B0001A7E805D8093FC04C901B7010E941A7EC4
:1038C000805D8093FD041092FE0401900020E9F7D2
:1038D0003197EB5FF44081E1382E3E1A1092B40626
:1038E0008D2F90E00196982F990F890F880F880FE0
:1038F0008093B50660E289E796E00E949935F3016E
:103900006491662369F00FE713E089E796E00E946F
:1039100099350F5F1F4F3A94F80164916111F5CF0B
:103920006AE389E796E00E94993506C060E289E77C
:1039300096E00E9499353A943110F8CF6BEF74E01D
:1039400089E796E00E945B694091C5085091C608DE
:103950006091C7087091C8088091CA08811143CF4F
:103960008091EF031092CA0882FF3ACE8091C90875
:10397000811136CEDB01CA01B695A795979587953B
:103980000297A105B10509F02BCE0E94435A809100
:103990002202909123029093060580930505809161
:1039A000C5089091C608909304058093030582E0B2
:1039B0008093240286EE9AE490932302809322025D
:1039C0008DE693E090930A05809309058FE593E0D7
:1039D00090930C0580930B058EEF93E09093080570
:1039E000809307051092110510921205109213058D
:1039F0001092140584E893E0A0E0B0E080930D05F8
:103A000090930E05A0930F05B09310058091FE03CF
:103A10009091FF030C94E2252BEF4BEF68EB73E0E2
:103A20008D2F0E94F455BFCDEBEFF4E080E2809340
:103A3000FB042A3031050CF43DCF33CFEBEFF4E03B
:103A400080E28093FB042A3031050CF41ACE10CEAC
:103A50002436310514F40C94AD29C901B6010E9435
:103A60001A7ECB01B7010E941A7E805D8093FB0411
:103A7000EBEFF4E0C901B7010E941A7ECB01B70158
:103A80000E941A7E805D8093FC04C901B7010E94E8
:103A90001A7E805D8093FD041092FE040190002048
:103AA000E9F73197EB5FF44081E1382E3E1A10922E
:103AB000B4068D2F90E00196982F990F890F880FEB
:103AC000880F8093B5066EE389E796E00E949935EA
:103AD000F3016491662369F00FE713E089E796E04C
:103AE0000E9499350F5F1F4F3A94F801649161115C
:103AF000F5CF6AE389E796E00E94993506C060E257
:103B000089E796E00E9499353A943110F8CF16CFA4
:103B10002436310514F40C94A129C901B6010E9480
:103B20001A7ECB01B7010E941A7E805D8093FB0450
:103B3000EBEFF4E0C901B7010E941A7ECB01B70197
:103B40000E941A7E805D8093FC04C901B7010E9427
:103B50001A7E805D8093FD041092FE040190002087
:103B6000E9F73197EB5FF44081E1382E3E1A10926D
:103B7000B4068D2F90E00196982F990F890F880F2A
:103B8000880F8093B5066EE389E796E00E94993529
:103B9000EEEAF3E06491662361F08F0189E796E035
:103BA0000E9499350F5F1F4F3A94F801649161119B
:103BB000F5CF6AE389E796E00E94993506C060E296
:103BC00089E796E00E9499353A943110F8CF9DCD5F
:103BD000C33009F0E0C080912402882309F47CC03E
:103BE00076956795579547952091FC033091FD0395
:103BF000433051056105710511F40C9407272436F3
:103C0000310514F40C940326C901B6010E941A7EF2
:103C1000CB01B7010E941A7E805D8093FB04EBEF1D
:103C2000F4E0C901B7010E941A7ECB01B7010E94DE
:103C30001A7E805D8093FC04C901B7010E941A7E40
:103C4000805D8093FD041092FE0401900020E9F74E
:103C50003197EB5FF44081E1382E3E1A1092B406A2
:103C60008D2F90E00196982F990F890F880F880F5C
:103C70008093B50660E289E796E00E949935F201EB
:103C80006491662369F005E513E089E796E00E94F8
:103C900099350F5F1F4F3A94F80164916111F5CF88
:103CA0006AE389E796E00E94993506C060E289E7F9
:103CB00096E00E9499353A943110F8CF6BEF74E09A
:103CC00089E796E00E945B694091C5085091C6085B
:103CD0006091C7087091C8088091CA08811183CD8E
:103CE0008091EF031092CA0882FF7ACC8091C908B4
:103CF000811176CCDB01CA01B695A795979587957A
:103D00000397A105B10509F06BCC0E94435A80913D
:103D100022029091230290930605809305058091DD
:103D2000C5089091C608909304058093030582E02E
:103D30008093240286EE9AE49093230280932202D9
:103D400083E493E090930A058093090585E393E06B
:103D500090930C0580930B058CEF93E090930805EE
:103D60008093070510921105109212051092130509
:103D70001092140584E893E0A0E0B0E080930D0574
:103D800090930E05A0930F05B09310058091FC034E
:103D90009091FD0317C7C43009F0DEC08091240262
:103DA000882309F47AC076956795579547952091B1
:103DB000F4033091F503443051056105710509F4B0
:103DC000C7C7243631050CF414C7C901B6010E94D7
:103DD0001A7ECB01B7010E941A7E805D8093FB049E
:103DE000EBEFF4E0C901B7010E941A7ECB01B701E5
:103DF0000E941A7E805D8093FC04C901B7010E9475
:103E00001A7E805D8093FD041092FE0401900020D4
:103E1000E9F73197EB5FF44081E1382E3E1A1092BA
:103E2000B4068D2F90E00196982F990F890F880F77
:103E3000880F8093B50660E289E796E00E94993585
:103E4000EBE2F3E06491662361F08F0189E796E08D
:103E50000E9499350F5F1F4F3A94F80164916111E8
:103E6000F5CF6AE389E796E00E94993506C060E2E3
:103E700089E796E00E9499353A943110F8CF6BEFBC
:103E800074E089E796E00E945B694091C508509113
:103E9000C6086091C7087091C8088091CA0881114E
:103EA000A2CC8091EF031092CA0882FF99CB809137
:103EB000C908811195CBDB01CA01B695A7959795E5
:103EC00087950497A105B10509F08ACB0E94435A52
:103ED000809122029091230290930605809305051C
:103EE0008091C5089091C6089093040580930305BE
:103EF00082E08093240286EE9AE4909323028093DA
:103F000022028BE193E090930A05809309058DE0EE
:103F100093E090930C0580930B0584EF93E09093CE
:103F20000805809307051092110510921205109252
:103F300013051092140584E893E0A0E0B0E08093AC
:103F40000D0590930E05A0930F05B0931005809179
:103F5000F4039091F50336C6C53009F0DEC08091B8
:103F60002402882309F47AC076956795579547957A
:103F70002091F2033091F30345305105610571053D
:103F800009F487C6243631050CF429C6C901B601E7
:103F90000E941A7ECB01B7010E941A7E805D809339
:103FA000FB04EBEFF4E0C901B7010E941A7ECB01DC
:103FB000B7010E941A7E805D8093FC04C901B7019D
:103FC0000E941A7E805D8093FD041092FE04019091
:103FD0000020E9F73197EB5FF44081E1382E3E1A7B
:103FE0001092B4068D2F90E00196982F990F890FAB
:103FF000880F880F8093B50660E289E796E00E94FB
:104000009935EFEFF2E06491662361F08F0189E763
:1040100096E00E9499350F5F1F4F3A94F801649122
:104020006111F5CF6AE389E796E00E94993506C0F1
:1040300060E289E796E00E9499353A943110F8CF12
:104040006BEF74E089E796E00E945B694091C508D8
:104050005091C6086091C7087091C8088091CA083D
:104060008111C1CB8091EF031092CA0882FFB8CAB8
:104070008091C9088111B4CADB01CA01B695A79520
:10408000979587950597A105B10509F0A9CA0E94E2
:10409000435A8091220290912302909306058093C7
:1040A00005058091C5089091C608909304058093FA
:1040B000030582E08093240286EE9AE49093230223
:1040C000809322028AEE92E090930A05809309057C
:1040D0008CED92E090930C0580930B0582EF93E0BA
:1040E0009093080580930705109211051092120510
:1040F000109213051092140584E893E0A0E0B0E05C
:1041000080930D0590930E05A0930F05B0931005B5
:104110008091F2039091F30355C5C63009F0DEC0DB
:1041200080912402882309F47AC076956795579583
:1041300047952091020430910304463051056105F2
:10414000710509F4C4C6243631050CF47AC5C901D9
:10415000B6010E941A7ECB01B7010E941A7E805DD3
:104160008093FB04EBEFF4E0C901B7010E941A7ED3
:10417000CB01B7010E941A7E805D8093FC04C901C7
:10418000B7010E941A7E805D8093FD041092FE04A8
:1041900001900020E9F73197EB5FF44081E1382E80
:1041A0003E1A1092B4068D2F90E00196982F990F29
:1041B000890F880F880F8093B50660E289E796E043
:1041C0000E949935E2EDF2E06491662361F08F017F
:1041D00089E796E00E9499350F5F1F4F3A94F801E6
:1041E00064916111F5CF6AE389E796E00E94993501
:1041F00006C060E289E796E00E9499353A94311052
:10420000F8CF6BEF74E089E796E00E945B6940911C
:10421000C5085091C6086091C7087091C808809180
:10422000CA088111E0CA8091EF031092CA0882FF88
:10423000D7C98091C9088111D3C9DB01CA01B695DC
:10424000A795979587950697A105B10509F0C8C967
:104250000E94435A80912202909123029093060576
:10426000809305058091C5089091C6089093040538
:104270008093030582E08093240286EE9AE4909373
:1042800023028093220282EC92E090930A058093AD
:10429000090584EB92E090930C0580930B0582E076
:1042A00094E09093080580930705109211051092F1
:1042B0001205109213051092140584E893E0A0E013
:1042C000B0E080930D0590930E05A0930F05B09379
:1042D0001005809102049091030474C4C73009F062
:1042E000DEC080912402882309F47AC07695679510
:1042F000579547952091E0033091E10347305105F0
:104300006105710509F400C7243631050CF48FC42A
:10431000C901B6010E941A7ECB01B7010E941A7E24
:10432000805D8093FB04EBEFF4E0C901B7010E94CC
:104330001A7ECB01B7010E941A7E805D8093FC0437
:10434000C901B7010E941A7E805D8093FD0410921E
:10435000FE0401900020E9F73197EB5FF44081E122
:10436000382E3E1A1092B4068D2F90E00196982FA9
:10437000990F890F880F880F8093B50660E289E74F
:1043800096E00E949935E6EAF2E06491662361F0D6
:104390008F0189E796E00E9499350F5F1F4F3A948D
:1043A000F80164916111F5CF6AE389E796E00E9414
:1043B000993506C060E289E796E00E9499353A9403
:1043C0003110F8CF6BEF74E089E796E00E945B69EB
:1043D0004091C5085091C6086091C7087091C808FF
:1043E0008091CA088111FFC98091EF031092CA0819
:1043F00082FFF6C88091C9088111F2C8DB01CA01A9
:10440000B695A795979587950797A105B10509F0EA
:10441000E7C80E94435A8091220290912302909310
:104420000605809305058091C5089091C608909374
:1044300004058093030582E08093240286EE9AE4CB
:10444000909323028093220286E992E090930A05DA
:104450008093090588E892E090930C0580930B0502
:1044600080EE93E090930805809307051092110564
:1044700010921205109213051092140584E893E02F
:10448000A0E0B0E080930D0590930E05A0930F057A
:10449000B09310058091E0039091E10393C3C8307D
:1044A00009F0DFC080912402882309F47AC0769550
:1044B0006795579547952091720430917304483061
:1044C00051056105710509F4C0C5243631050CF4A8
:1044D000A4C3C901B6010E941A7ECB01B7010E9494
:1044E0001A7E805D8093FB04EBEFF4E0C901B70115
:1044F0000E941A7ECB01B7010E941A7E805D8093D4
:10450000FC04C901B7010E941A7E805D8093FD04FE
:104510001092FE0401900020E9F73197EB5FF44020
:1045200081E1382E3E1A1092B4068D2F90E001964C
:10453000982F990F890F880F880F8093B50660E236
:1045400089E796E00E949935ECE7F2E064916623F2
:1045500061F08F0189E796E00E9499350F5F1F4F48
:104560003A94F80164916111F5CF6AE389E796E026
:104570000E94993506C060E289E796E00E9499356D
:104580003A943110F8CF6BEF74E089E796E00E941F
:104590005B694091C5085091C6086091C708709149
:1045A000C8088091CA0881111EC98091EF0310923A
:1045B000CA0882FD01C014C88091C908811110C8C1
:1045C000DB01CA01B695A795979587950897A10530
:1045D000B10509F005C80E94435A809122029091CA
:1045E000230290930605809305058091C50890915C
:1045F000C608909304058093030582E0809324020B
:1046000086EE9AE4909323028093220286E692E05B
:1046100090930A058093090588E592E090930C0534
:1046200080930B0582E794E090930805809307053B
:104630001092110510921205109213051092140594
:1046400084E893E0A0E0B0E080930D0590930E0520
:10465000A0930F05B093100580917204909173049C
:10466000B1C2C93009F0E2C080912402882309F464
:104670007AC0769567955795479520912E0430918D
:104680002F04493051056105710509F47FC42436B2
:1046900031050CF4E0C2C901B6010E941A7ECB01BB
:1046A000B7010E941A7E805D8093FB04EBEFF4E07B
:1046B000C901B7010E941A7ECB01B7010E941A7E80
:1046C000805D8093FC04C901B7010E941A7E805D61
:1046D0008093FD041092FE0401900020E9F73197C9
:1046E000EB5FF44081E1382E3E1A1092B4068D2F14
:1046F00090E00196982F990F890F880F880F80936B
:10470000B50660E289E796E00E949935EAE4F2E0B6
:104710006491662361F08F0189E796E00E949935E4
:104720000F5F1F4F3A94F80164916111F5CF6AE36E
:1047300089E796E00E94993506C060E289E796E035
:104740000E9499353A943110F8CF6BEF74E089E705
:1047500096E00E945B694091C5085091C60860913F
:10476000C7087091C8088091CA0881113CC880911F
:10477000EF031092CA0882FD02C00C94F01A8091D7
:10478000C90881110C94F01ADB01CA01B695A795EE
:10479000979587950997A105B10511F00C94F01A2A
:1047A0000E94435A80912202909123029093060521
:1047B000809305058091C5089091C60890930405E3
:1047C0008093030582E08093240286EE9AE490931E
:1047D00023028093220285E392E090930A0580935E
:1047E000090587E292E090930C0580930B058EE219
:1047F00094E090930805809307051092110510929C
:104800001205109213051092140584E893E0A0E0BD
:10481000B0E080930D0590930E05A0930F05B09323
:10482000100580912E0490912F04CCC1CA3009F05C
:10483000E3C080912402882309F47AC076956795B5
:104840005795479520910E0430910F044A30510539
:104850006105710509F416C5243631050CF40FC243
:10486000C901B6010E941A7ECB01B7010E941A7ECF
:10487000805D8093FB04EBEFF4E0C901B7010E9477
:104880001A7ECB01B7010E941A7E805D8093FC04E2
:10489000C901B7010E941A7E805D8093FD041092C9
:1048A000FE0401900020E9F73197EB5FF44081E1CD
:1048B000382E3E1A1092B4068D2F90E00196982F54
:1048C000990F890F880F880F8093B50660E289E7FA
:1048D00096E00E949935E8E1F2E06491662361F088
:1048E0008F0189E796E00E9499350F5F1F4F3A9438
:1048F000F80164916111F5CF6AE389E796E00E94BF
:10490000993506C060E289E796E00E9499353A94AD
:104910003110F8CF6BEF74E089E796E00E945B6995
:104920004091C5085091C6086091C7087091C808A9
:104930008091CA0881110C94F31B8091EF031092AF
:10494000CA0882FD02C00C94F01A8091C908811136
:104950000C94F01ADB01CA01B695A7959795879537
:104960000A97A105B10511F00C94F01A0E94435A60
:104970008091220290912302909306058093050571
:104980008091C5089091C608909304058093030513
:1049900082E08093240286EE9AE49093230280932F
:1049A000220289E092E090930A05809309058BEF3B
:1049B00091E090930C0580930B058EE094E090932A
:1049C00008058093070510921105109212051092A8
:1049D00013051092140584E893E0A0E0B0E0809302
:1049E0000D0590930E05A0930F05B09310058091CF
:1049F0000E0490910F04E6C0CB3011F00C94F01A25
:104A000080912402882309F47AC07695679557959A
:104A1000479520912A0430912B044B3051056105B4
:104A2000710509F4D0C3243631050CF41EC1C90147
:104A3000B6010E941A7ECB01B7010E941A7E805DEA
:104A40008093FB04EBEFF4E0C901B7010E941A7EEA
:104A5000CB01B7010E941A7E805D8093FC04C901DE
:104A6000B7010E941A7E805D8093FD041092FE04BF
:104A700001900020E9F73197EB5FF44081E1382E97
:104A80003E1A1092B4068D2F90E00196982F990F40
:104A9000890F880F880F8093B50660E289E796E05A
:104AA0000E949935ECEEF1E06491662361F08F018C
:104AB00089E796E00E9499350F5F1F4F3A94F801FD
:104AC00064916111F5CF6AE389E796E00E94993518
:104AD00006C060E289E796E00E9499353A94311069
:104AE000F8CF6BEF74E089E796E00E945B69409134
:104AF000C5085091C6086091C7087091C808809198
:104B0000CA0881110C94F31B8091EF031092CA081C
:104B100082FD02C00C94F01A8091C90881110C9496
:104B2000F01ADB01CA01B695A795979587950B9763
:104B3000A105B10511F00C94F01A0E94435A80911E
:104B4000220290912302909306058093050580919F
:104B5000C5089091C608909304058093030582E0F0
:104B60008093240286EE9AE490932302809322029B
:104B700088ED91E090930A05809309058AEC91E015
:104B800090930C0580930B058AE294E090930805BE
:104B900080930705109211051092120510921305CB
:104BA0001092140584E893E0A0E0B0E080930D0536
:104BB00090930E05A0930F05B093100580912A04E1
:104BC00090912B04092E000CAA0BBB0B8093C508F7
:104BD0009093C608A093C708B093C80847C4EBEFEA
:104BE000F4E080E28093FB042A3031050CF4E4C940
:104BF000DAC9EBEFF4E080E28093FB042A30310560
:104C00000CF4F9C8EFC8EBEFF4E080E28093FB040A
:104C10002A3031050CF40EC804C8EBEFF4E080E252
:104C20008093FB042A3031050CF469CC5FCCEBEFA8
:104C3000F4E080E28093FB042A3031050CF47ECB53
:104C400074CBEBEFF4E080E28093FB042A30310573
:104C50000CF493CA89CAEBEFF4E080E28093FB0482
:104C60002A3031050CF42DCD23CDEBEFF4E080E2BA
:104C70008093FB042A3031050CF4EFCEE5CEEBEF48
:104C8000F4E080E28093FB042A3031050CF4FECD81
:104C9000F4CD243631050CF4A8C3C901B6010E9435
:104CA0001A7ECB01B7010E941A7E805D8093FB04BF
:104CB000EBEFF4E0C901B7010E941A7ECB01B70106
:104CC0000E941A7E805D8093FC04C901B7010E9496
:104CD0001A7E805D8093FD041092FE0401900020F6
:104CE000E9F73197EB5FF44081E1382E3E1A1092DC
:104CF000B4068D2F90E00196982F990F890F880F99
:104D0000880F8093B5066EE389E796E00E94993597
:104D1000EFEFF2E06491662361F08F0189E796E09E
:104D20000E9499350F5F1F4F3A94F8016491611109
:104D3000F5CF6AE389E796E00E94993506C060E204
:104D400089E796E00E9499353A943110F8CF78C9F6
:104D5000243631050CF417C3C901B6010E941A7E2E
:104D6000CB01B7010E941A7E805D8093FB04EBEFBC
:104D7000F4E0C901B7010E941A7ECB01B7010E947D
:104D80001A7E805D8093FC04C901B7010E941A7EDF
:104D9000805D8093FD041092FE0401900020E9F7ED
:104DA0003197EB5FF44081E1382E3E1A1092B40641
:104DB0008D2F90E00196982F990F890F880F880FFB
:104DC0008093B5066EE389E796E00E949935EBE2A1
:104DD000F3E06491662361F08F0189E796E00E9419
:104DE00099350F5F1F4F3A94F80164916111F5CF27
:104DF0006AE389E796E00E94993506C060E289E798
:104E000096E00E9499353A943110F8CF38C824368C
:104E100031050CF4AEC2C901B6010E941A7ECB0165
:104E2000B7010E941A7E805D8093FB04EBEFF4E0F3
:104E3000C901B7010E941A7ECB01B7010E941A7EF8
:104E4000805D8093FC04C901B7010E941A7E805DD9
:104E50008093FD041092FE0401900020E9F7319741
:104E6000EB5FF44081E1382E3E1A1092B4068D2F8C
:104E700090E00196982F990F890F880F880F8093E3
:104E8000B5066EE389E796E00E949935F2016491D8
:104E9000662369F005E513E089E796E00E949935FD
:104EA0000F5F1F4F3A94F80164916111F5CF6AE3E7
:104EB00089E796E00E94993506C060E289E796E0AE
:104EC0000E9499353A943110F8CF0C945E1E243626
:104ED00031050CF480C2C901B6010E941A7ECB01D3
:104EE000B7010E941A7E805D8093FB04EBEFF4E033
:104EF000C901B7010E941A7ECB01B7010E941A7E38
:104F0000805D8093FC04C901B7010E941A7E805D18
:104F10008093FD041092FE0401900020E9F7319780
:104F2000EB5FF44081E1382E3E1A1092B4068D2FCB
:104F300090E00196982F990F890F880F880F809322
:104F4000B5066EE389E796E00E949935E2EDF2E05E
:104F50006491662361F08F0189E796E00E9499359C
:104F60000F5F1F4F3A94F80164916111F5CF6AE326
:104F700089E796E00E94993506C060E289E796E0ED
:104F80000E9499353A943110F8CF3BC92436310547
:104F90000CF417C2C901B6010E941A7ECB01B701F9
:104FA0000E941A7E805D8093FB04EBEFF4E0C90160
:104FB000B7010E941A7ECB01B7010E941A7E805D64
:104FC0008093FC04C901B7010E941A7E805D809322
:104FD000FD041092FE0401900020E9F73197EB5F89
:104FE000F44081E1382E3E1A1092B4068D2F90E0E5
:104FF0000196982F990F890F880F880F8093B50617
:105000006EE389E796E00E949935EAE4F2E0649164
:10501000662361F08F0189E796E00E9499350F5F62
:105020001F4F3A94F80164916111F5CF6AE389E763
:1050300096E00E94993506C060E289E796E00E94FA
:1050400099353A943110F8CF80CB243631050CF4E1
:10505000AEC1C901B6010E941A7ECB01B7010E9400
:105060001A7E805D8093FB04EBEFF4E0C901B70189
:105070000E941A7ECB01B7010E941A7E805D809348
:10508000FC04C901B7010E941A7E805D8093FD0473
:105090001092FE0401900020E9F73197EB5FF44095
:1050A00081E1382E3E1A1092B4068D2F90E00196C1
:1050B000982F990F890F880F880F8093B5066EE39C
:1050C00089E796E00E949935ECE7F2E06491662367
:1050D00061F08F0189E796E00E9499350F5F1F4FBD
:1050E0003A94F80164916111F5CF6AE389E796E09B
:1050F0000E94993506C060E289E796E00E949935E2
:105100003A943110F8CF3FCA243631050CF445C12A
:10511000C901B6010E941A7ECB01B7010E941A7E16
:10512000805D8093FB04EBEFF4E0C901B7010E94BE
:105130001A7ECB01B7010E941A7E805D8093FC0429
:10514000C901B7010E941A7E805D8093FD04109210
:10515000FE0401900020E9F73197EB5FF44081E114
:10516000382E3E1A1092B4068D2F90E00196982F9B
:10517000990F890F880F880F8093B5066EE389E732
:1051800096E00E949935E6EAF2E06491662361F0C8
:105190008F0189E796E00E9499350F5F1F4F3A947F
:1051A000F80164916111F5CF6AE389E796E00E9406
:1051B000993506C060E289E796E00E9499353A94F5
:1051C0003110F8CFFFC8243631050CF422C1C901D3
:1051D000B6010E941A7ECB01B7010E941A7E805D43
:1051E0008093FB04EBEFF4E0C901B7010E941A7E43
:1051F000CB01B7010E941A7E805D8093FC04C90137
:10520000B7010E941A7E805D8093FD041092FE0417
:1052100001900020E9F73197EB5FF44081E1382EEF
:105220003E1A1092B4068D2F90E00196982F990F98
:10523000890F880F880F8093B5066EE389E796E0A3
:105240000E949935ECEEF1E06491662361F08F01E4
:1052500089E796E00E9499350F5F1F4F3A94F80155
:1052600064916111F5CF6AE389E796E00E94993570
:1052700006C060E289E796E00E9499353A943110C1
:10528000F8CF2FCC243631050CF4B9C0C901B601D2
:105290000E941A7ECB01B7010E941A7E805D809326
:1052A000FB04EBEFF4E0C901B7010E941A7ECB01C9
:1052B000B7010E941A7E805D8093FC04C901B7018A
:1052C0000E941A7E805D8093FD041092FE0401907E
:1052D0000020E9F73197EB5FF44081E1382E3E1A68
:1052E0001092B4068D2F90E00196982F990F890F98
:1052F000880F880F8093B5066EE389E796E00E94D9
:105300009935E8E1F2E06491662361F08F0189E765
:1053100096E00E9499350F5F1F4F3A94F80164910F
:105320006111F5CF6AE389E796E00E94993506C0DE
:1053300060E289E796E00E9499353A943110F8CFFF
:10534000E9CAEBEFF4E080E28093FB042A303105F8
:1053500014F40C94A31D0C949A1DEBEFF4E080E27E
:105360008093FB042A30310514F40C94431D0C94F3
:105370003A1DEBEFF4E080E28093FB042A30310524
:105380000CF45FCD55CDEBEFF4E080E28093FB04AD
:105390002A3031050CF4F6CCECCCEBEFF4E080E2F3
:1053A0008093FB042A3031050CF4C8CEBECEEBEF5F
:1053B000F4E080E28093FB042A3031050CF45FCEE8
:1053C00055CEEBEFF4E080E28093FB042A30310508
:1053D0000CF4F6CDECCDEBEFF4E080E28093FB042F
:1053E0002A3031050CF48DCD83CDEBEFF4E080E273
:1053F0008093FB042A3031050CF465CC5BCCEBEFD9
:10540000F4E080E28093FB042A3031050CF454CFA1
:105410004ACFEBEFF4E080E28093FB042A303105C1
:105420000CF4EBCEE1CE1092C5081092C608109293
:10543000C7081092C80880E090E0DC0140E050E02E
:10544000BA010C945E1A10E10C94BD1A0E94435AE2
:1054500082E996E490932302809322021092C50879
:105460001092C6081092C7081092C80881E0809375
:10547000CA080C94181C089580E090E00895DF920B
:10548000EF92FF920F931F93CF93DF934A3009F46B
:105490009FC48901842FDB01453109F088C412962D
:1054A000ED91FC9113979281268137814FB7F89443
:1054B000809102018260809302014FBFE8E2F0E038
:1054C0003197F1F7B9017E5F48E250E01198EFB7EC
:1054D000F89480910201816080930201EFBF119ADC
:1054E0001198EFB7F89480910201816080930201D6
:1054F000EFBF119A1198EFB7F89480910201816083
:1055000080930201EFBF119A1198EFB7F894809140
:105510000201816080930201EFBF119A1198EFB7E9
:10552000F89480910201816080930201EFBF119A8B
:105530001198EFB7F894809102018E7F8093020159
:10554000EFBF119A1198EFB7F894809102018E7F06
:1055500080930201EFBF119A1198EFB7F8948091F0
:1055600002018E7F80930201EFBF119AFA013197F9
:10557000F1F7903208F0C1C2892F807780681198C6
:10558000FFB7F894E0910201E160E0930201FFBFF0
:10559000880F119A1198FFB7F894E0910201EE7FFD
:1055A000E0930201FFBF880F119A1198FFB7F8949A
:1055B000E0910201EE7FE0930201FFBF119A119882
:1055C000EFB786FDC2C3F894809102018E7F80936D
:1055D0000201EFBF119A1198EFB7F8948091020180
:1055E0008E7F80930201EFBF119A1198EFB7F89464
:1055F000809102018E7F80930201EFBF119A119872
:10560000EFB7F894809102018E7F80930201EFBF83
:10561000119A1198EFB7F894809102018E7F8093D0
:105620000201EFBF119A1198F92FF295F07FEFB7B1
:1056300093FD86C3F894809102018E7F80930201CE
:10564000EFBF119A1198EF2FEE0FF6FD73C3FFB75E
:10565000F894809102018E7F80930201FFBF119A1E
:105660001198FE2FFF0FE6FD75C3EFB7F8948091F8
:1056700002018E7F80930201EFBF119A1198EFB75C
:10568000F6FD53C3F894809102018E7F809302014E
:10569000EFBF119A1198EFB7F894809102018E7FB5
:1056A00080930201EFBF119A1198EFB7F89480919F
:1056B00002018E7F80930201EFBF119A1198EFB71C
:1056C000F894809102018E7F80930201EFBF119ABE
:1056D0001198EFB7F894809102018E7F80930201B8
:1056E000EFBF119AFA013197F1F71198EFB7F894DB
:1056F00080910201816080930201EFBF119A11989D
:10570000EFB7F894809102018E7F80930201EFBF82
:10571000119A1198EFB7F894809102018E7F8093CF
:105720000201EFBF119A1198EFB7F894809102012E
:105730008E7F80930201EFBF119A1198EFB7F89412
:10574000809102018E7F80930201EFBF119A119820
:10575000EFB7F894809102018E7F80930201EFBF32
:10576000119A1198EFB7F894809102018E7F80937F
:105770000201EFBF119A1198EFB7F89480910201DE
:105780008E7F80930201EFBF119A1198EFB7F894C2
:10579000809102018E7F80930201EFBF119A1198D0
:1057A000EFB7F894809102018E7F80930201EFBFE2
:1057B000119A1198EFB7F894809102018E7F80932F
:1057C0000201EFBF119A1198EFB7F894809102018E
:1057D0008E7F80930201EFBF119A1198EFB7F89472
:1057E000809102018E7F80930201EFBF119A119880
:1057F000EFB7F894809102018E7F80930201EFBF92
:10580000119A1198EFB7F894809102018E7F8093DE
:105810000201EFBF119A1198EFB7F894809102013D
:105820008E7F80930201EFBF119AFA013197F1F751
:105830001198EFB7F8948091020181608093020182
:10584000EFBF119A1198EFB7F8948091020181602F
:1058500080930201EFBF119A1198EFB7F8948091ED
:105860000201816080930201EFBF119A1198EFB796
:10587000F89480910201816080930201EFBF119A38
:105880001198EFB7F8948091020181608093020132
:10589000EFBF119A1198EFB7F894809102018E7FB3
:1058A00080930201EFBF119A1198EFB7F89480919D
:1058B0000201816080930201EFBF119A1198EFB746
:1058C000F894809102018E7F80930201EFBF119ABC
:1058D000FA013197F1F7F901205F3F4FBCC0F8940E
:1058E000109102011E7F109302010FBF119A1198AF
:1058F000182F110F0FB786FDDAC0F89480910201BE
:105900008E7F809302010FBF119A1198012F000F13
:1059100016FDC7C01FB7F894809102018E7F809357
:1059200002011FBF119A11981FB706FDB5C0F89468
:10593000809102018E7F809302011FBF119A1198FE
:105940001FB7F894809102018E7F809302011FBFE0
:10595000119A11981FB7F894809102018E7F80935D
:1059600002011FBF119A11981FB7F894809102018C
:105970008E7F809302011FBF119A11981FB7F89470
:10598000809102018E7F809302011FBF119A319690
:1059900088811198C82FC295C07FDFB783FD77C07B
:1059A000F894809102018E7F80930201DFBF119AEB
:1059B00011988C2F880FDFB7C6FD64C0F894C09192
:1059C0000201CE7FC0930201DFBF119A1198C82F48
:1059D000CC0FDFB786FD51C0F894809102018E7F15
:1059E00080930201DFBF119A1198C6FD40C0CFB766
:1059F000F894809102018E7F80930201CFBF119AAB
:105A00001198CFB7F894809102018E7F80930201A4
:105A1000CFBF119A1198CFB7F894809102018E7F71
:105A200080930201CFBF119A1198CFB7F89480915B
:105A300002018E7F80930201CFBF119A1198CFB7D8
:105A4000F894809102018E7F80930201CFBF119A5A
:105A50002E173F0789F1EF018081807F11980FB7E2
:105A600087FF3DCFF8941091020111603CCFCFB772
:105A7000F894809102018160BFCFF8948091020177
:105A80008160AECFF894C0910201C1609BCFF894C1
:105A900080910201816088CFF89480910201816039
:105AA0004ACF1FB7F89480910201816038CFF894F3
:105AB00080910201816025CFFA013197F1F79F5F54
:105AC0002617370709F002CD9FB7F894809102019D
:105AD0008D7F809302019FBF1296CD91DC91139729
