:100000000C94C51B0C9446480C941B480C94F04768
:100010000C94C5470C949A470C946F470C94444732
:100020000C9419470C94F61B0C94F61B0C94F61BBD
:100030000C94F61B0C94F61B0C94F61B0C94F61BFC
:100040000C94F61B0C94F61B0C94F61B0C94F61BEC
:100050000C94F61B0C94F61B0C94F61B0C94CF46D8
:100060000C94F61B0C949E450C9475450C94F61B51
:100070000C94F61B0C94F61B0C94F61B0C94F61BBC
:100080000C94AC240C94F61B0C94F61B0C94F61BED
:100090000C94F61B0C94F61B0C94F61B0C9410415C
:1000A0000C94F61B0C94F61B0C9417240C94F61B62
:1000B0000C94F61B0C94F61B0C94F61B0C94F61B7C
:1000C0000C94F61B0C94F61B0C94F61B0C94F61B6C
:1000D0000C94F61B0C94F61B0C94F61B0C94F61B5C
:1000E0000C94F61B9053A153D353F054F2564D5534
:1000F000DA55F256B1565656B156B456E9564940FD
:10010000C9407940724088408E40BC400545084552
:10011000F744FB4401453F450C45104516451A453B
:100120001E45244528452C453F45324536453A4530
:1001300008000000BE922449123EABAAAA2ABECDF6
:10014000CCCC4C3E00000080BEABAAAAAA3E000068
:100150000000BF000000803F000000000008417860
:10016000D3BB4387D1133D190E3CC3BD4282AD2B97
:100170003E68EC8276BED98FE1A93E4C80EFFFBE8F
:1001800001C4FF7F3F0000000000000021002400A8
:1001900027002A002D003000330001010000040177
:1001A00007010A0101021020200808102040102039
:1001B000408002010201080402010102040810202B
:1001C0004080804020100804020180040201804029
:1001D0002010080402010804020101020408102092
:1001E0004080010204081020408005050505070530
:1001F00008080808020202020A0A080804040404A3
:1002000001010101010101010303030303030303CE
:10021000040707070C0C0C0C0C0C0C0C020202025D
:1002200006060606060606060B0B0B0B0B0B0B0B46
:10023000FFFFFFC005FFFFFFFFFFFC00003FFFFFC8
:10024000FFFFE0000007FFFFFFFF80000001FFFF4E
:10025000FFFE002FF8007FFFFFFC01FFFF803FFF44
:10026000FFF00FFFFFF00FFFFFE03FF7EFFC07FF8E
:10027000FFC0FFF7F7FE03FFFF81FF67F2FF81FF7B
:10028000FF03FFA7E6FFC0FFFE07FF27E6FFF07FA3
:10029000FC0FFF33E47FF03FF81FDF63E67DFC1FB8
:1002A000F83FBE31C67DFC1FF07FBE71873EFE0F5A
:1002B000E0FF3C71871C7F07E0FF38F0871E7F0757
:1002C000C1FF38E1871C7F83C3FA1861870C6FC3B5
:1002D00083FB1841C2085FC187FC0801C0085FC1E9
:1002E00087F90803C0184FE107F9080180184FE0AB
:1002F0000FF10C0000184FF00FE31C00001847F03E
:100300000FE30C000018E3F01FC30000000063F0CF
:100310000FC70000000061F81FC30000000061F873
:100320001FC00000000001F81FC00000000003F81B
:100330001FC00000000003F81FE00000000003F8E9
:100340001FE00000000003F81FE00000000007F8B5
:100350001FF00000000007F00FF0A000000507F8F4
:100360001FE0FF00007F83F00FE0FFC001FF83F07C
:100370000FE07FE007FF07F00FF03FF80FFE07F0F8
:1003800007F81FFC1FF80FE087F807FC3FF01FE19C
:1003900087FC01FE3F803FE183FF000000007FC13A
:1003A000C1FF80008001FFC3C1FFF001C007FF83D0
:1003B000E1FFF803C01FFF07E0FFFE03E03FFF0778
:1003C000F07FFC03E03FFE0FF83FFC06201FFC1F00
:1003D000F81FFC00001FF81FFC0FF800000FF03F93
:1003E000FE0FF800001FE07FFF03F880010FC0FF41
:1003F000FF81FC84119F81FFFFC07EC410BE03FFFC
:10040000FFE03FCC13FC07FFFFF007FEFFF00FFFFC
:10041000FFFC01FFFF803FFFFFFE001FF4007FFF96
:10042000FFFF80000001FFFFFFFFE0000007FFFF6C
:1004300000000000000000000000000000000000BC
:1004400000000000000000000000000000000000AC
:10045000000000000000000000000000000000009C
:100460000000000000000000000000000000010586
:100470000800FF060121023520FFFF07FF06FF09E4
:100480000050221656808080800080153353A0A033
:10049000A00257575050F850F8505002575720704C
:1004A000A07028702013355580A040A02002475727
:1004B00040A0A040A0A05025135380808012265653
:1004C000408080808040122656804040404080021C
:1004D00045559060F060900255552020F82020117D
:1004E0003353604080044151F011335340E04002E7
:1004F000465610102040808012365640A0A0A0A082
:100500004012365640C0404040E0024656609010CF
:100510006080F0024656F02060109060024656203F
:1005200060A0F02020024656F080E0109060024665
:10053000566080E0909060024656F01020204040C7
:1005400002465660906090906002465660909070AF
:100550001060122555C0C000C0C011365660600042
:10056000604080123656204080804020034353F084
:1005700000F012365680402020408012365640A0AF
:1005800020400040015858304898A8A890403002B8
:100590004656609090F09090024656E090E0909021
:1005A000E0024656609080809060024656E090904F
:1005B0009090E0024656F080E08080F0024656F0CF
:1005C00080E0808080024656609080B09060024655
:1005D000569090F0909090123656E040404040E0A7
:1005E00002465670202020A04002465690A0C0A08F
:1005F000A0900246568080808080F002465690F09F
:10060000F090909002465690D0F0B0B090024656CE
:10061000609090909060024656E09090E08080015B
:100620004757609090D0B06010024656E09090E03E
:100630009090024656609040209060123656E040FE
:10064000404040400246569090909090600246563E
:10065000909090906060024656909090F0F09002DA
:1006600046569090606090900256568888502020A0
:1006700020024656F010204080F0123656E080806E
:100680008080E0024656808040201010123656E0EE
:1006900020202020E016325240A0014151F01622C5
:1006A000528040024454709090700246568080E020
:1006B0009090E012345460808060024656101070B2
:1006C00090907002445460B0C06002465620504082
:1006D000E0404001455560907010600246568080B1
:1006E000E09090901236564000C04040E0113757DD
:1006F0002000202020A040024656808090E090906C
:10070000123656C040404040E0025454D0A8A8A839
:10071000024454E0909090024454609090600145EF
:1007200055E090E0808001455570907010100244B3
:1007300054A0D0808012345460C020C0024656407D
:1007400040E040502002445490909070123454A0E5
:10075000A0A04002545488A8A8500244549060605D
:10076000900145559090709060024454F02040F004
:10077000024757304020C0204030221656808080EB
:10078000808080024757C02040304020C00642523F
:1007900050A0FFFFFFFFFFFFFFFFFFFFFFFFFFFF77
:1007A000FFFFFFFFFFFFFFFFFFFFFFFFFFFFFFFF59
:1007B000FFFFFF09005022165680008080808001D4
:1007C00046562070A0A070200246562050E04050AF
:1007D000A002555588705070880256568850F820EF
:1007E000F820221757808080008080800247577051
:1007F00080E0907010E0173151A002565670A8C8E2
:10080000C8A87014355560A06000E003435350A0A1
:1008100050123353E02020143151E002565670E854
:10082000D8E8D870173151E015335340A040123545
:100830005540E04000E014355540A02040E014351C
:1008400055C020C020C016225240800145559090CE
:1008500090E08002565678E8E868282824115180F4
:10086000112252408014355540C04040E0143555A7
:1008700040A04000E0034353A050A00247578080AF
:1008800080A060F0200247578080A0D01020700226
:10089000475780408060A0F02012365640004080CC
:1008A000A04002475740206090F0909002475720A8
:1008B000406090F0909002475760906090F0909068
:1008C00002475750A06090F0909002475790006008
:1008D00090F0909002475760906090F090900246A0
:1008E0005670A0A0F0A0B001475760908080906043
:1008F000400247574020F080E080F00247572040F8
:10090000F080E080F00247576090F080E080F002D5
:1009100047579000F080E080F01237578040E04069
:100920004040E01237572040E0404040E012375747
:1009300040A0E0404040E0123757A000E040404077
:10094000E00256567048E848487002475750A09059
:10095000D0B090900247574020609090906002473E
:100960005720406090909060024757609060909050
:10097000906002475750A060909090600247579057
:10098000006090909060123353A040A002465670D1
:10099000B0B0D0D0E00247574020909090906002D5
:1009A00047572040909090906002475760909090F9
:1009B0009090600247579000909090906002575737
:1009C0001020885020202002465680E09090E08041
:1009D0000246566090A0A090A002475740200070A9
:1009E00090907002475720400070909070024757D7
:1009F0002050007090907002475750A00070909067
:100A00007002465650007090907002475760906098
:100A100070909070025454F068B078113555608031
:100A200080604002475740200060B0C060024757D6
:100A300020400060B0C06002475760900060B0C0C6
:100A400060024656500060B0C060123757804000C8
:100A5000C04040E0123757204000C04040E012370D
:100A60005740A000C04040E0123656A000C04040B1
:100A7000E0024757A040A01070906002475750A076
:100A800000E09090900247574020006090906002F4
:100A90004757204000609090600247576090006088
:100AA00090906002475750A00060909060024656B8
:100AB0009000609090601235554000E00040024484
:100AC0005470B0D0E00247574020009090907002E0
:100AD00047572040009090907002475760900090D8
:100AE0009090700246569000909090700148582067
:100AF000400090907090600147578080E090E080C7
:100B0000800147579000909070906000060900FEA9
:100B1000070199032B20FFFE08FE07FE00000006D8
:100B200000000107070602008080808080008003AB
:100B30000303060104A0A0A005070706000050500B
:100B4000F850F850500507070600002070A07028E4
:100B5000702005070706000048A8502050A89005FF
:100B6000070706000040A0A040A890680103030604
:100B700002048080800307070601002040808080F7
:100B80004020030707060100804020202040800508
:100B900005050600018850F8508805050506000186
:100BA0002020F820200303030601FF604080050198
:100BB00001060003F80303030601FF40E0400507B8
:100BC000070600000808102040808005070706007F
:100BD0000020508888885020050707060000206004
:100BE000A0202020F8050707060000708808304084
:100BF00080F8050707060000F8081030088870051F
:100C0000070706000010305090F81010050707067F
:100C10000000F880B0C8088870050707060000309B
:100C20004080B0C88870050707060000F80810105B
:100C3000204040050707060000708888708888708B
:100C4000050707060000708898680810600307070A
:100C50000601FF40E0400040E0400307070601FFB7
:100C600040E040006040800407070601001020407B
:100C700080402010050303060002F800F80407076F
:100C80000601008040201020408005070706000074
:100C90007088102020002005070706000070889843
:100CA000A8B0807005070706000020508888F888E3
:100CB00088050707060000F04848704848F0050717
:100CC000070600007088808080887005070706008E
:100CD00000F04848484848F0050707060000F8803B
:100CE00080F08080F8050707060000F88080F0801B
:100CF000808005070706000070888080988870054E
:100D00000707060000888888F88888880307070690
:100D10000100E04040404040E00507070600003881
:100D20001010101090600507070600008890A0C002
:100D3000A09088050707060000808080808080F8EA
:100D40000507070600008888D8A88888880507074F
:100D50000600008888C8A89888880507070600004C
:100D600070888888888870050707060000F08888E2
:100D7000F08080800508080600FF7088888888A8B1
:100D80007008050707060000F08888F0A090880525
:100D9000070706000070888070088870050707063E
:100DA0000000F820202020202005070706000088EA
:100DB000888888888870050707060000888888501A
:100DC000505020050707060000888888A8A8D88802
:100DD0000507070600008888502050888805070707
:100DE0000600008888502020202005070706000004
:100DF000F80810204080F8030707060100E0808013
:100E0000808080E0050707060000808040201008F1
:100E100008030707060100E02020202020E005034A
:100E2000030600042050880501010600FFF80202B5
:100E30000206020680400505050600007008788855
:100E4000780507070600008080B0C888C8B005058F
:100E500005060000708880887005070706000008F6
:100E60000868988898680505050600007088F8806D
:100E700070050707060000304840F0404040050775
:100E8000070600FE7888887808887005070706003E
:100E9000008080B0C88888880307070601004000EA
:100EA000C0404040E00409090601FE100030101067
:100EB0001090906005070706000080808890E09001
:100EC00088030707060100C04040404040E0050598
:100ED00005060000D0A8A8A888050505060000B0F2
:100EE000C888888805050506000070888888700510
:100EF00007070600FEB0C888C8B08080050707064F
:100F000000FE68988898680808050505060000B086
:100F1000C880808005050506000070807008F00517
:100F200007070600004040F0404048300505050630
:100F300000008888889868050505060000888850A4
:100F400050200505050600008888A8A8500505055D
:100F500006000088502050880507070600FE888894
:100F60009868088870050505060000F8102040F80C
:100F7000040707060100304020C020403001070769
:100F800006020080808080808080040707060100C0
:100F9000C02040304020C005030306000448A8904C
:100FA000000000010000000000010000000000013E
:100FB000000000000001000000000001000000002F
:100FC000000100000000000100000000000100001E
:100FD000000000010000000000010000000000010E
:100FE00000000000000100000000000100000000FF
:100FF00000010000000000010000000000010000EE
:1010000000000001000000000001000000000001DD
:1010100000000000000100000000000100000000CE
:1010200000010000000000010000000000010000BD
:1010300000000001000000000001000000000001AD
:10104000000000000001000000000001000000009E
:10105000000100000000000100000000000100008D
:101060000000000100000000000600000107070664
:101070000200800080808080800507070600FF2036
:1010800078A0A0A07820050707060000304840E0BF
:101090004048B005050506000088705070880508B6
:1010A000080600FF88885020F82020200107070646
:1010B0000200808080008080800508080600FF70A4
:1010C00080E09048380870030101060107A0050779
:1010D000070600007088A8C8A888700406060601E4
:1010E000017090B05000F0060505060000244890FD
:1010F0004824040202060102F01004010106010363
:10110000F00507070600007088E8C8C88870050168
:1011100001060007F803030306010440A04005068A
:10112000060600002020F82020F80405050601032B
:1011300060902040F0040505060103E0106010E017
:1011400002020206020640800506060600FF8888A5
:1011500088C8B08005070706000078E8E8682828F6
:1011600028010101060203800202020602FE4080FD
:1011700003050506010340C04040E00406060601E1
:10118000016090906000F00605050600009048247C
:1011900048900609090600FF40C04040E40C143C9A
:1011A000040609090600FF40C04040E81404081C7A
:1011B0000509090600FFC0204020C8182878080546
:1011C0000707060000200020204088700508080658
:1011D00000004020708888F888880508080600000C
:1011E0001020708888F888880508080600002050BC
:1011F000708888F8888805080806000048B070885C
:1012000088F888880508080600005000708888F86B
:1012100088880508080600002050708888F88888AB
:101220000607070600003C50909CF0909C050909B9
:101230000600FE70888080808870204005080806BF
:10124000000040F88080F08080F805080806000063
:1012500010F88080F08080F805080806000020F86B
:101260008080F08080F805080806000050F8808033
:10127000F08080F80308080601008040E04040400C
:1012800040E00308080601002040E040404040E004
:1012900003080806010040A0E040404040E0030889
:1012A00008060100A000E040404040E005070706B6
:1012B0000000F04848E84848F00508080600002803
:1012C0005088C8A898888805080806000040207043
:1012D00088888888700508080600001020708888B3
:1012E0008888700508080600002050708888888863
:1012F00070050808060000285070888888887005E6
:101300000808060000500070888888887005050568
:1013100006000088502050880507070600007098D6
:1013200098A8C8C87005080806000040208888886A
:10133000888870050808060000102088888888883A
:10134000700508080600002050008888888870050D
:1013500008080600005000888888888870050808FA
:10136000060000102088885020202005070706006E
:101370000080F088F08080800507070600007088F4
:1013800090A09088B0050808060000402000700872
:101390007888780508080600001020007008788812
:1013A0007805080806000020500070087888780545
:1013B000080806000028500070087888780507079C
:1013C00006000050007008788878050808060000BC
:1013D00020502070087888780605050600007814EB
:1013E0007C907C0507070600FE708880887020408E
:1013F0000508080600004020007088F88070050885
:10140000080600001020007088F8807005080806A3
:1014100000002050007088F8807005070706000063
:1014200050007088F88070030808060100804000B2
:10143000C0404040E0030808060100408000C04072
:101440004040E003080806010040A000C0404040C2
:10145000E0060A0A0600FEA4A800FC8480808084BE
:10146000FC060A0A0600FE549400FC84040404846A
:10147000FC050808060000285000B0C888888805C8
:1014800008080600004020007088888870040A0A56
:101490000602FE30408090909090909090040A0A4E
:1014A0000600FEC020109090909090909006070744
:1014B000060001448C8C8480403C0607070600012E
:1014C00088C4C4840408F00505050600012000F85E
:1014D000002005080806000040F0C88888987810A9
:1014E000050808060000E0F88888888888F805055F
:1014F000050600012030F83020050808060000200D
:1015000070F820202020E00509090600FF2070A8BF
:10151000A8B8888850200509090600FFE080C0B0FF
:10152000A8A83028280509090600FFF8A888888897
:101530008888A8F8050A0A0600FE205050505088F6
:10154000A8A888703FC03FC03FC03FC03FC03FC059
:101550001FC01FC01FC01FC01FC01FC00FC00FC0B3
:101560000FC00FC00FC00FC007C007C007C007C023
:1015700007C007C003C003C003C003C003C003C04B
:1015800001C001C001C001C001C03FC020402040D7
:101590002040204020401FC01FC01FC01FC01FC0D0
:1015A0001FC00FC00FC00FC00FC00FC00FC007C0BB
:1015B00007C007C007C007C007C003C003C003C0FF
:1015C00003C003C003C001C001C001C001C001C00D
:1015D0003FC020402040204020402040104010408C
:1015E00010401040104010400FC00FC00FC00FC07F
:1015F0000FC00FC007C007C007C007C007C007C0A3
:1016000003C003C003C003C003C003C001C001C0C6
:1016100001C001C001C03FC0204020402040204008
:101620002040104010401040104010401040084032
:101630000840084008400840084007C007C007C0ED
:1016400007C007C007C003C003C003C003C003C076
:1016500003C001C001C001C001C001C03FC02040A3
:1016600020402040204020401040104010401040BA
:10167000104010400840084008400840084008401A
:1016800004400440044004400440044003C003C03C
:1016900003C003C003C003C001C001C001C001C03A
:1016A00001C03FC02040204020402040204010404A
:1016B00010401040104010401040084008400840C2
:1016C00008400840084004400440044004400440EE
:1016D000044002400240024002400240024001C079
:1016E00001C001C001C001C03FC0204020402040D7
:1016F000204020401040104010401040104010404A
:1017000008400840084008400840084004400440A1
:1017100004400440044004400240024002400240B1
:1017200002400240014001400140014001C0B020A0
:1017300000416D6269656E2E00B0200046756D69CE
:10174000005365727669636500506172616D6574FE
:1017500072690047756172646100496D706F7374DE
:10176000617A2E2064656661756C740043617269EC
:10177000636120646120454550524F4D0053616CB8
:10178000766120696E20454550524F4D004F666688
:10179000004F6E20004F6666004F6E2000436F635F
:1017A0006C6561004F6666004F6E20004F666600F4
:1017B0004F6E200043616E64656C65747461005BFC
:1017C000302E2E32333020566F6C745D0056656EAD
:1017D000746F6C612072697363616C64616D656EB6
:1017E000746F0056656E2E2072697363005B302E35
:1017F0002E323830302047697269275D0056656C9B
:101800006F636974612076656E746F6C61206675B4
:101810006D690056656E2E2066756D69004D656EAA
:1018200075207072696E636970616C6500000912E1
:1018300000FC0A01E803D720FFFD0EFD0BFD0000B0
:101840000009000E010B0B0904008080808080805D
:1018500080000080800404040903079090909008A1
:101860000A0A090000242424FF2424FF2424240736
:101870000B0B0901FF107C929050381412927C10CF
:10188000070A0A09010042A4A4481010244A4A8405
:10189000070A0A090100609090906062948894623F
:1018A00001040409040780808080030C0C0903FFF5
:1018B000204040808080808080404020030C0C09C4
:1018C00003FF804040202020202020404080070748
:1018D00007090103109254385492100707070901B1
:1018E00001101010FE1010100204040904FEC0C004
:1018F0004080070101090104FE020202090400C040
:10190000C0070A0A09010002040408101020404020
:1019100080070A0A09010038448282828282824456
:1019200038070A0A090100103050901010101010EA
:10193000FE070A0A09010038448202040810204008
:10194000FE070A0A090100FE0204081804020284C4
:1019500078070A0A090100040C14244484FE0404D4
:1019600004070A0A090100FE808080F8040202844C
:1019700078070A0A0901003C408080B8C48282448A
:1019800038070A0A090100FE0204040808101010B2
:1019900010070A0A0901003844824438448282440C
:1019A00038070A0A09010038448282463A020204D2
:1019B00078020707090400C0C0000000C0C0020987
:1019C000090904FEC0C0000000C0C040800509092C
:1019D0000902000810204080402010080704040974
:1019E0000102FE0000FE05090909020080402010E6
:1019F0000810204080070A0A0901003844820204C6
:101A00000810100010070A0A09010038449AAAAA0F
:101A1000AAAA9C403C070A0A090100102828284469
:101A20007C44828282070A0A090100F8848284F8D1
:101A300084828284F8070A0A0901003C428080807F
:101A4000808080423C070A0A090100F88482828271
:101A500082828284F8070A0A090100FE808080F8E9
:101A600080808080FE070A0A090100FE808080F8DD
:101A70008080808080070A0A0901003844828080C3
:101A80008E82824438070A0A09010082828282FE1D
:101A90008282828282050A0A090200F82020202020
:101AA00020202020F8070A0A0901003E080808083B
:101AB0000808888870070A0A09010082848890A0B3
:101AC000D088848282070A0A090100808080808091
:101AD00080808080FE070A0A0901008282C6AA92DD
:101AE0008282828282070A0A0901008282C2A2924D
:101AF0008A86828282070A0A0901007C82828282A7
:101B0000828282827C070A0A090100F88482828428
:101B1000F880808080080B0B0901FF3844828282A4
:101B200082828A443A01070A0A090100F884828203
:101B300084F890888482070A0A0901007C828080E8
:101B40007C020202827C070A0A090100FE101010C2
:101B5000101010101010070A0A09010082828282F8
:101B6000828282824438070A0A0901008282824402
:101B7000444428282810070A0A0901008282828228
:101B800092929292AA44070A0A090100828244288A
:101B9000101028448282070A0A0901008282442820
:101BA000101010101010070A0A090100FE020408A4
:101BB0001020408080FE040C0C0903FFF080808020
:101BC00080808080808080F0070A0A0901008040C0
:101BD0004020101008040402040C0C0902FFF0104D
:101BE000101010101010101010F007040409010656
:101BF000102844820801010900FFFF0303030903C1
:101C00000A8040200707070901007C02027E8286C5
:101C10007A070A0A090100808080BCC2828282C2DF
:101C2000BC0707070901007C82808080827C070A4C
:101C30000A0901000202027A86828282867A0707F6
:101C4000070901007C8282FE80827C070A0A090162
:101C5000001C22222020F820202020070A0A090147
:101C6000FD7A84848478807C82827C070A0A090158
:101C700000808080BCC28282828282050A0A0902B8
:101C800000600000E02020202020F8050D0D090252
:101C9000FD18000038080808080808888870070A36
:101CA0000A090100808080848890B0C88482050A77
:101CB0000A090200E02020202020202020F8070729
:101CC00007090100EC92929292928207070709019C
:101CD00000BCC282828282820707070901007C82DF
:101CE000828282827C070A0A0901FDB8C48282824C
:101CF000C4B8808080070A0A0901FD3A46828282C0
:101D0000463A0202020707070901009C624240406E
:101D100040400707070901007C82807C02827C0723
:101D200009090901002020FC20202020221C07078F
:101D3000070901008282828282867A0707070901E9
:101D40000082824444282810070707090100828284
:101D5000929292AA4407070709010082442810289A
:101D60004482070A0A0901FD42422424241818105B
:101D70009060070707090100FE0408102040FE06D6
:101D80000B0B0902001C20202020C0202020201C3A
:101D9000010C0C0904FF808080808080808080801E
:101DA0008080060B0B090100E0101010100C1010C1
:101DB0001010E007030309010762928CFFFFFFFF89
:101DC000FFFFFFFFFFFFFFFFFFFFFFFFFFFFFFFF23
:101DD000FFFFFFFFFFFFFFFFFFFFFFFFFF00000010
:101DE00009000E010B0B0904008080000080808038
:101DF0008080808006080809010008789490A0A4DB
:101E00007840070A0A0901001C222020F8202060DF
:101E1000A25C070606090103827C44447C82070A0F
:101E20000A090100828244287C107C101010010BEA
:101E30000B0904FF80808080800080808080800487
:101E40000B0B0902FF609080609090906010906092
:101E500003020209030BA0A00809090900013C4282
:101E600099A5A1A599423C05070709010360907057
:101E7000907800F80708080901011224489090485A
:101E80002412060404090102FC04040405010109EA
:101E90000204F80809090900013C42B9A5BDA9A539
:101EA000423C060101090109FC040404090306601F
:101EB000909060070909090101101010FE10101020
:101EC00000FE0406060901046090106080F004061C
:101ED0000609010460902010906003030309030ABF
:101EE0002040800709090901FE8282828282C6BAE7
:101EF0008080070A0A0901007E8A8A8A7A0A0A0A09
:101F00000A0A020202090404C0C00403030902FD14
:101F100020906003060609010440C0404040E005EF
:101F200006060901047088887000F807080809018E
:101F3000019048241212244890070A0A090100401F
:101F4000C0404042E60A121A06070A0A0901004088
:101F5000C040404CF2020C101E070A0A0901006042
:101F600090201092660A121A06070A0A0901001048
:101F700000101020408082827C070E0E0901002094
:101F800010080010282828447C44828282070E0E04
:101F90000901000810200010282828447C4482826F
:101FA00082070E0E0901001028440010282828443A
:101FB0007C44828282070D0D0901003458001028EC
:101FC0002828447C44828282070D0D0901002828BC
:101FD0000010282828447C44828282070E0E0901C2
:101FE000001028281010282828447C448282820768
:101FF0000A0A0901001E2828284E784888888E077A
:102000000D0D0901FD3C42808080808080423C08AB
:102010002418070E0E09010020100800FE808080A1
:10202000F880808080FE070E0E0901000810200055
:10203000FE808080F880808080FE070E0E090100FF
:1020400010284400FE808080F880808080FE070D8C
:102050000D090100282800FE808080F880808080A3
:10206000FE050E0E09020040201000F8202020205E
:1020700020202020F8050E0E09020010204000F854
:102080002020202020202020F8050E0E090200200C
:10209000508800F82020202020202020F8050D0D59
:1020A000090200505000F82020202020202020F895
:1020B000070A0A09010078444242F2424242447847
:1020C000070D0D0901003458008282C2A2928A864F
:1020D000828282070E0E090100201008007C828295
:1020E0008282828282827C070E0E09010008102003
:1020F000007C82828282828282827C070E0E0901AB
:1021000000102844007C82828282828282827C0744
:102110000D0D0901003458007C8282828282828205
:10212000827C070D0D0901002828007C82828282B2
:10213000828282827C0707070901018244281028D5
:102140004482070C0C0901FF027C868A8A9292A2C3
:10215000A2C27C80070E0E090100201008008282B6
:102160008282828282824438070E0E0901000810A2
:10217000200082828282828282824438070E0E0987
:102180000100102844008282828282828282443846
:10219000070D0D0901002828008282828282828236
:1021A000824438070E0E0901000810200082824484
:1021B00028101010101010070A0A0901008080FC76
:1021C000828282FC808080060A0A09010038444429
:1021D00048D04844444458070B0B0901002010081C
:1021E000007C02027E82867A070B0B090100081030
:1021F00020007C02027E82867A070B0B0901001008
:102200002844007C02027E82867A070A0A090100BD
:102210003458007C02027E82867A070A0A0901008D
:102220002828007C02027E82867A070C0C090100B5
:1022300010282810007C02027E82867A0707070990
:1022400001006C12127E90926C070A0A0901FD7C53
:1022500082808080827C104830070B0B09010020AF
:102260001008007C8282FE80827C070B0B09010033
:10227000081020007C8282FE80827C070B0B090103
:1022800000102844007C8282FE80827C070A0A09B2
:1022900001002828007C8282FE80827C050C0C09CB
:1022A00002008040200000E02020202020F8050CC3
:1022B0000C0902001020400000E02020202020F81F
:1022C000050C0C0902002050880000E0202020208E
:1022D00020F8050B0B09020050500000E0202020E0
:1022E0002020F8070B0B090100483050083C4482BD
:1022F00082824438070A0A090100345800BCC282AD
:1023000082828282070B0B090100201008007C8268
:10231000828282827C070B0B090100081020007C5E
:1023200082828282827C070B0B0901001028440004
:102330007C82828282827C070A0A0901003458006A
:102340007C82828282827C070A0A09010028280096
:102350007C82828282827C07090909010010381080
:1023600000FE001038100709090901FF027C8A8A63
:1023700092A2A27C80070B0B090100402010008272
:1023800082828282867A070B0B09010008102000E6
:102390008282828282867A070B0B09010010284410
:1023A000008282828282867A070A0A09010028282E
:1023B000008282828282867A070E0E0901FD04085D
:1023C000100042422424241818109060070B0B09B7
:1023D00001FE8080B8C4828282C4B88080070D0D5F
:1023E0000901FD242400424224242418181090607E
:1023F000000A1400FC0D024A049920FFFC10FC0D99
:10240000FC0000000A0010020D0D0A0400C0C0C04C
:10241000C0C0C0C0C0C0C000C0C00604040A0209D9
:10242000CCCCCC48090B160A01011B001B001B0079
:102430007F80360036003600FF006C006C006C00B8
:10244000080D0D0A0100187EDBD8D8D87E1B1B1B97
:10245000DB7E18090C180A01007300DB00DE007631
:10246000000C000C001800180037003D806D8067DC
:1024700000090D1A0A010038006C006C006C00782D
:102480000030007000D800CD80C700C600EF007992
:10249000800205050A0408C0C0C0C080050D0D0AF1
:1024A000030018306060C0C0C0C0C0606030180554
:1024B0000D0D0A0200C0603030181818181830309E
:1024C00060C00807070A010366663CFF3C666608B1
:1024D00007070A0103181818FF1818180403030A3D
:1024E00003FF7070E00801010A0106FF0303030AFD
:1024F0000400E0E0E0070C0C0A020006060C0C18D1
:102500001830306060C0C0080D0D0A0100183C662C
:1025100066C3C3C3C3C366663C18080D0D0A010039
:10252000183878D81818181818181818FF080D0D2A
:102530000A01003C66C3C30303061C3060C0C0FF31
:10254000080D0D0A01003C66C3C303061C0603C345
:10255000C3663C080D0D0A010002060E1E3666C653
:10256000C6FF06060606080D0D0A0100FFC0C0C022
:10257000C0DCE6030303C3663C080D0D0A01003C02
:1025800066C2C0C0DCE6C3C3C3C3663C080D0D0A07
:102590000100FF030306060C0C18183030606008B9
:1025A0000D0D0A01003C66C3C3C3663C66C3C3C3CA
:1025B000663C080D0D0A01003C66C3C3C3C3673BFC
:1025C000030343663C0308080A0400E0E00000003F
:1025D00000E0E00409090A03FF70700000000070C9
:1025E00070E0070D0D0A010002060C183060C06093
:1025F00030180C06020806060A0103FF000000005E
:10260000FF070D0D0A020080C06030180C060C1880
:102610003060C080080D0D0A01003C66C3C3C306CC
:102620000C181818001818080D0D0A01003C66C394
:10263000CFDFDBDBDBDECCC0633E080D0D0A010023
:10264000183C6666C3C3C3FFC3C3C3C3C3080D0D31
:102650000A0100F8CCC6C6C6CCFCC6C3C3C3C6FCC0
:10266000080D0D0A01003C66C3C0C0C0C0C0C0C098
:10267000C3663C080D0D0A0100FCC6C3C3C3C3C337
:10268000C3C3C3C3C6FC080D0D0A0100FFC0C0C010
:10269000C0C0FCC0C0C0C0C0FF080D0D0A0100FFD3
:1026A000C0C0C0C0C0FCC0C0C0C0C0C0080D0D0AC2
:1026B00001003C66C3C0C0C0CFC3C3C3C3673D08ED
:1026C0000D0D0A0100C3C3C3C3C3C3FFC3C3C3C348
:1026D000C3C3080D0D0A0100FF18181818181818A0
:1026E00018181818FF090D1A0A01001F80060006A5
:1026F00000060006000600060006000600C600C62A
:10270000006C003800080D0D0A0100C3C3C6C6CC1A
:10271000CCF8CCCCC6C6C3C3080D0D0A0100C0C09E
:10272000C0C0C0C0C0C0C0C0C0C0FF080D0D0A01FD
:1027300000C3C3E7E7FFDBDBDBDBC3C3C3C3080DB9
:102740000D0A0100C3E3E3F3F3DBDBCFCFC7C7C35D
:10275000C3080D0D0A01003C66C3C3C3C3C3C3C392
:10276000C3C3663C080D0D0A0100FCC6C3C3C3C346
:10277000C6FCC0C0C0C0C0080E0E0A01FF3C66C344
:10278000C3C3C3C3C3C3DBCF663E03080D0D0A0139
:1027900000FCC6C3C3C3C3C6FCCCC6C6C3C3080DB6
:1027A0000D0A01003C66C3C0C0603C060303C3665B
:1027B0003C080D0D0A0100FF1818181818181818F1
:1027C00018181818080D0D0A0100C3C3C3C3C3C3EA
:1027D000C3C3C3C3C3663C080D0D0A0100C3C3C312
:1027E000C36666663C3C3C181818080D0D0A0100CB
:1027F000C3C3C3C3C3DBDBDBDBE7E7C3C3080D0D28
:102800000A0100C3C366663C3C183C3C6666C3C311
:10281000080D0D0A0100C3C366663C3C1818181861
:10282000181818080D0D0A0100FF0303060C0C18F8
:10283000303060C0C0FF060D0D0A0200FCC0C0C0F1
:10284000C0C0C0C0C0C0C0C0FC070C0C0A0200C0A1
:10285000C06060303018180C0C0606060D0D0A0218
:1028600000FC0C0C0C0C0C0C0C0C0C0C0CFC0804E0
:10287000040A0109183C66C30901020A01FFFF802E
:102880000403030A030AC060300808080A01003E76
:1028900063037FC3C3C37D080D0D0A0100C0C0C020
:1028A000C0C0DCE6C3C3C3C3E6DC0808080A0100F5
:1028B0003E63C0C0C0C0633E080D0D0A01000303A3
:1028C0000303033B67C3C3C3C3673B0808080A018C
:1028D000003C66C3FFC0C0633E080D0D0A01001E28
:1028E00033333030FC30303030303030080C0C0AAC
:1028F00001FC7DC7C6C6C67CC07EC3C3C37E080DAF
:102900000D0A0100C0C0C0C0C0DCE6C3C3C3C3C35E
:10291000C3080B0B0A0100181800781818181818AB
:1029200018FF070F0F0A02FC0606001E0606060621
:10293000060606C6C6C67C080D0D0A0100C0C0C04A
:10294000C0C0C6CCD8F0F8CCC6C3080D0D0A010033
:10295000781818181818181818181818FF080808E0
:102960000A0100B6FFDBDBDBDBDBDB0808080A0162
:1029700000DCE6C3C3C3C3C3C30808080A01003CA4
:1029800066C3C3C3C3663C080C0C0A01FCDCE6C387
:10299000C3C3C3E6DCC0C0C0C0080C0C0A01FC3BCA
:1029A00067C3C3C3C3673B030303030808080A01E3
:1029B00000DE736060606060600808080A01007EE5
:1029C000C3C07E0303C37E080B0B0A010030303006
:1029D000FC3030303030331E0808080A0100C3C311
:1029E000C3C3C3C3673B0808080A0100C3C36666C4
:1029F0003C3C18180808080A0100C3C3C3DBDBDB32
:102A0000FF660808080A0100C3663C18183C66C344
:102A1000080C0C0A01FCC3C3C3C3C3C3673B03C395
:102A2000663C0708080A0200FE060C183060C0FE6B
:102A3000080D0D0A01000F1818181818F0181818AA
:102A400018180F020D0D0A0400C0C0C0C0C0C0C0DD
:102A5000C0C0C0C0C0C0080D0D0A0100F018181891
:102A600018180F1818181818F00803030A010A7329
:102A7000DBCEFFFFFFFFFFFFFFFFFFFFFFFFFFFFBB
:102A8000FFFFFFFFFFFFFFFFFFFFFFFFFFFFFFFF56
:102A9000FFFFFF0000000A0010020D0D0A0400C035
:102AA000C000C0C0C0C0C0C0C0C0C0C0070C0C0ABD
:102AB000010018183C66C2C0C0C2663C1818090C58
:102AC000180A01001E003300330030003000FC0003
:102AD000300030003000F800AD80E7000909120A2C
:102AE00000018080DD807F006300630063007F0061
:102AF000DD808080080B0B0A010081C3663C7E18D4
:102B00007E18181818020D0D0A0400C0C0C0C0C0FD
:102B1000000000C0C0C0C0C0080D0D0A01003C6626
:102B2000C66078CC66331E0663663C0602020A0263
:102B30000BCCCC080B0B0A01003C66C3BDA5A1A5BC
:102B4000BDC3663C0809090A01043E43037FC3C3B1
:102B50007D00FF090B160A000004800D801B003663
:102B6000006C00D8006C0036001B000D800480084B
:102B700004040A0104FFFF03030601010A0206FC24
:102B8000080B0B0A01003C66C3BDA5BDA9ADC36619
:102B90003C0801010A010DFF0606060A020730780B
:102BA000CCCC78300807070A01021818FF18180063
:102BB000FF0507070A020670D8183060C0F805073D
:102BC000070A020670D8183018D8700403030A03E5
:102BD0000A3060C0070A0A0A01FDC6C6C6C6C6EEAC
:102BE000FAC0C0C0080D0D0A01007FFFFBFBFB7B94
:102BF0001B1B1B1B1B1B1B0303030A0405E0E0E05C
:102C00000504040A02FC3018D8700407070A0206FB
:102C100060E060606060F00709090A0104386CC672
:102C2000C6C66C3800FE090B160A01009000D800D9
:102C30006C0036001B000D801B0036006C00D800B5
:102C40009000080C0C0A010140C04142E408122621
:102C50004A9E0202080C0C0A010140C04142E408ED
:102C600016294182040F080C0C0A0101E0106112C0
:102C7000E40812264A9F0202080D0D0A01001818E6
:102C8000001818183060C3C3C3663C080F0F0A0150
:102C90000060301800183C66C3C3C3FFC3C3C3C37E
:102CA000080F0F0A0100060C1800183C66C3C3C3C6
:102CB000FFC3C3C3C3080F0F0A0100183C66001806
:102CC0003C66C3C3C3FFC3C3C3C3080F0F0A0100DD
:102CD000327E4C00183C66C3C3C3FFC3C3C3C308E2
:102CE0000F0F0A0100666600183C6666C3C3C3FF87
:102CF000C3C3C3C30810100A01003C66663C001839
:102D00003C66C3C3C3FFC3C3C3C3080D0D0A0100A0
:102D10001F3C6C6CCCCCFFCCCCCCCCCCCF081111F4
:102D20000A01FC3C66C3C0C0C0C0C0C0C0C3663C92
:102D3000180C6C38080F0F0A010060301800FFC033
:102D4000C0C0C0FCC0C0C0C0FF080F0F0A01000C0B
:102D5000183000FFC0C0C0C0FCC0C0C0C0FF080F1A
:102D60000F0A0100183C6600FFC0C0C0C0FCC0C014
:102D7000C0C0FF080F0F0A010066660000FFC0C058
:102D8000C0C0FCC0C0C0C0FF060F0F0A0200603008
:102D90001800FC303030303030303030FC060F0F4F
:102DA0000A020018306000FC3030303030303030F3
:102DB00030FC060F0F0A02003078CC00FC303030B7
:102DC000303030303030FC060F0F0A0200CCCC001F
:102DD000FC30303030303030303030FC090D1A0AE1
:102DE00000007E0063006180618061806180F98005
:102DF000618061806180618063007E00080F0F0A3E
:102E00000100327E4C00C3E3F3F3DBDBCFCFC7C35B
:102E1000C3080F0F0A010030180C003C66C3C3C37F
:102E2000C3C3C3C3663C080F0F0A01000C1830006F
:102E30003C66C3C3C3C3C3C3C3663C080F0F0A01C8
:102E400000183C66003C66C3C3C3C3C3C3C3663C2F
:102E5000080F0F0A0100327E4C003C66C3C3C3C397
:102E6000C3C3C3663C080F0F0A01006666003C66D8
:102E7000C3C3C3C3C3C3C3C3663C0708080A010076
:102E800082C66C38386CC682080F0F0A01FF013EFB
:102E900066C7C7CBCBCBD3D3D3E3667C80080F0FF9
:102EA0000A010030180C00C3C3C3C3C3C3C3C3C3E8
:102EB000663C080F0F0A01000C183000C3C3C3C3DF
:102EC000C3C3C3C3C3663C080F0F0A0100183C66A6
:102ED00000C3C3C3C3C3C3C3C3C3663C080F0F0A45
:102EE0000100666600C3C3C3C3C3C3C3C3C3C36611
:102EF0003C080F0F0A01000C183000C3C366663C83
:102F00003C1818181818070D0D0A0200C0C0C0FCA4
:102F1000C6C6C6C6C6FCC0C0C0080D0D0A01001C4E
:102F200036636366EC6C66636363666C080C0C0A5C
:102F3000010030180C007EC3037FC3C3C37D080C9F
:102F40000C0A01000C1830007EC3037FC3C3C37D8D
:102F5000080C0C0A0100183C66007EC3037FC3C343
:102F6000C37D080C0C0A0100327E4C007EC3037F37
:102F7000C3C3C37D080B0B0A01006666007EC30352
:102F80007FC3C3C37D080D0D0A01003C66663C008B
:102F90007EC3037FC3C3C37D0808080A0100769B74
:102FA0001B1E78D8D96E080C0C0A01FC3E63C0C009
:102FB000C0C0633E180C6C38080C0C0A010060306D
:102FC00018003C66C3FFC0C0633E080C0C0A010039
:102FD000060C18003C66C3FFC0C0633E080C0C0A18
:102FE0000100183C66003C66C3FFC0C0633E080B8E
:102FF0000B0A01006666003C66C3FFC0C0633E0862
:103000000C0C0A01006030180078181818181818ED
:10301000FF080C0C0A01000C18300078181818185A
:103020001818FF080C0C0A0100183C6600781818E4
:1030300018181818FF080B0B0A01006666007818AC
:103040001818181818FF080D0D0A010088D870709C
:10305000D88C3E67C3C3C3663C080C0C0A0100321F
:103060007E4C00DCE6C3C3C3C3C3C3080C0C0A0117
:1030700000603018003C66C3C3C3C3663C080C0C38
:103080000A0100060C18003C66C3C3C3C3663C08B3
:103090000C0C0A0100183C66003C66C3C3C3C3663F
:1030A0003C080C0C0A0100327E4C003C66C3C3C3D2
:1030B000C3663C080B0B0A01006666003C66C3C38E
:1030C000C3C3663C080A0A0A010118180000FFFF82
:1030D00000001818080A0A0A01FF013E66CBCBD38C
:1030E000D3667C80080C0C0A010030180C00C3C3A6
:1030F000C3C3C3C3673B080C0C0A0100060C1800CD
:10310000C3C3C3C3C3C3673B080C0C0A0100183C0C
:103110006600C3C3C3C3C3C3673B080B0B0A0100EC
:10312000666600C3C3C3C3C3C3673B0810100A016C
:10313000FC0C183000C3C3C3C3C3C3673B03C366DF
:103140003C0711110A02FCC0C0C0C0C0C0F8CCC608
:10315000C6C6CCF8C0C0C0C0080F0F0A01FC666626
:1031600000C3C3C3C3C3C3673B03C3663C5B302E0A
:103170002E3235302043275D00537065676E696DD0
:10318000656E746F20626173736120202020746506
:103190006D70657261747572610042617373612054
:1031A00074656D2E005B302E2E3630207365632ED5
:1031B0005D0054656D706F20636F636C65610054D2
:1031C000656D706F20636F636C6561005B302E2EE0
:1031D00032333020566F6C745D0056656E746F6CC0
:1031E000612072697363616C64616D656E746F00F8
:1031F00056656E2E2072697363005B3330302E2E5D
:10320000323830302047697269275D0056656C6F2F
:10321000636974612076656E746F6C612066756D8C
:10322000690056656E2E2066756D69004C6976657D
:103230006C6C6920706F742E005B302E2E3930302C
:10324000207365632E5D0050756C697A6961206931
:103250006E20737065676E696D652E0050756C69C0
:103260007A696120737065676E2E005B302E2E398F
:103270003030207365632E5D005072657370656732
:103280006E696D656E746F00507265737065676E00
:10329000696D656E746F005B302E2E39303020738F
:1032A00065632E5D0044757261746120737065679B
:1032B0006E696D656E746F202020696E2073746175
:1032C0006E64627900537065672E207374616E645A
:1032D0006279005B302E2E393030207365632E5DAD
:1032E000004475726174612070756C697A6961203F
:1032F000202020202020706572696F64696361005E
:103300004475726174612070756C2E005B302E2ED6
:10331000393030207365632E5D00506572696F64CB
:103320006F2070756C697A696100506572692E2032
:1033300070756C697A6961005B302E2E39303020EF
:103340007365632E5D0053746162696C697A7A619A
:103350007A696F6E650053746162696C697A2E00D8
:103360005B302E2E393030207365632E5D004D6149
:103370007373696D6F2074656D706F207065722056
:103380002020206C27616363656E73696F6E650032
:103390004D61782074656D706F20616363005B30F0
:1033A0002E2E393030207365632E5D004163656ECB
:1033B00073696F6E65206669737361004163632092
:1033C0006669737361005B302E2E3930302073656F
:1033D000632E5D0050726563617269636F20706572
:1033E0006C6C6574730050726563617269636F0021
:1033F0005B302E2E393030207365632E5D005072A5
:103400006572697363616C646F2063616E642E0022
:103410005072652E2063616E642E005B302E2E3953
:103420003030207365632E5D0050756C697A2E20F4
:10343000696E2020616363656E73696F6E6500500D
:10344000756C2E206163632E00506172616D65742E
:103450007269001F1C1F1E1F1E1F1F1E1F1E1F49DB
:103460006D706F7374617A2E2064656661756C741B
:103470000043617269636120646120454550524F89
:103480004D0053616C766120696E20454550524F66
:103490004D004F7261206520646174610054657253
:1034A0006D6F73746174690054696D657273004C5B
:1034B0006976656C6C6920706F742E004D656E7551
:1034C000207072696E636970616C65004D696E751C
:1034D0007469004D696E757469004F7265004F72B2
:1034E0006500506172616D65747269004C69766542
:1034F0006C6C6F2036004C6976656C6C6F20350003
:103500004C6976656C6C6F2034004C6976656C6C28
:103510006F2033004C6976656C6C6F2032004C690B
:1035200076656C6C6F203100506172616D657472EC
:1035300069005B302E2E3235302043275D005370FA
:1035400065676E696D656E746F206261737361206B
:1035500020202074656D7065726174757261206DD4
:103560006F64756C617A696F6E6500426173736137
:103570002074656D2E005B302E2E323530204327AF
:103580005D0042797061737320616363656E736976
:103590006F6E6500427970617373206163632E0002
:1035A0005B302E2E3235302043275D005369637522
:1035B00072657A7A612066756D69005369632E20A1
:1035C00066756D69005B302E2E3235302043275DE5
:1035D000004D6F64756C617A696F6E652066756DFC
:1035E00069004D6F642E2066756D69005B302E2E6C
:1035F0003235302043275D0050617373616767691E
:103600006F20646120766172696162696C6520690E
:103610006E2073746162696C697A7A617A696F6E1F
:103620006500506173732E20696E20737461622E81
:10363000005B302E2E3235302043275D00417474FC
:103640006976617A696F6E652076656E746F6C61FC
:10365000202072697363616C64616D656E746F00C4
:103660004174742E2076656E742E20726973632EF9
:10367000005B302E2E3235302043275D004D616EC9
:1036800063616E7A61206669616D6D61004D616E86
:103690006361206669616D6D61005B302E2E32358D
:1036A000302043275D004469736174742E20636188
:1036B0006E64656C65747461004469736174742E22
:1036C0002063616E642E005B302E2E323530204335
:1036D000275D005374756661207370656E746100B8
:1036E0005374756661207370656E74610050617209
:1036F000616D657472690000002200250028002BAE
:10370000002E003100340002010000050108010B09
:1037100001000020002300260029002C002F003289
:10372000000001000003010601090100000A0B026C
:10373000090C0D0E08070304010000000000000042
:103740000000000000000000000000000000000079
:103750000000000000000012111000000000000036
:103760000000000000000000000000000000000059
:1037700000FFD0FFE0FFCFFF64FFD1FF32380C061F
:103780000201FF64FFD0FFFEAF5911241FBECFEF2F
:10379000D1E2DEBFCDBF00E00CBF14E0A0E0B2E09C
:1037A000ECE1F2EC00E00BBF02C007900D92AE30EE
:1037B000B107D9F727E0AEE0B4E001C01D92AC3A02
:1037C000B207E1F71BE1C5ECDBE100E006C02197A1
:1037D0000109802FFE010E94E85DC43CD10780E012
:1037E0000807A9F70E942E4D0C940C610C94000060
:1037F0001092DB041092DA041092B7041092B6040F
:103800001092B5041092B40481E0809317041092D2
:10381000A6071092A7071092A8071092A90783E1A4
:1038200098E290932502809324021092E90410926A
:10383000E8040895089580E090E00895CF93DF9321
:10384000FC016491EC012196662331F08FE596E04E
:103850000E940F4CCE01F4CFDF91CF9108950F93CA
:103860001F93CF93DF93CDB7DEB766970FB6F8946B
:10387000DEBF0FBECDBF80914105882321F081506E
:103880008093410503C081E080932302809123024D
:10389000882309F4DCC02091A00630E030933C0777
:1038A00020933B078091A10690E090933A07809384
:1038B00039072931310534F028E130E030933C07F5
:1038C00020933B07CC9734F08BE390E090933A073A
:1038D0008093390781E08093830680EF93E20E9412
:1038E000A33087E280939A0688E280939B064091FA
:1038F000EF0430913A072091390790913C0780916D
:103900003B078E010F5F1F4F40FD07C03F932F9372
:103910009F938F938CE693E006C03F932F939F93E2
:103920008F9387E793E09F938F931F930F930E944A
:10393000315EB8018FE596E00E945B4C0FB6F894BB
:10394000DEBF0FBECDBF8BE09BE00E94A33011E035
:1039500010939A0608E000939B068CE397E16EDFD4
:1039600010939A0610E110939B068091DC049091CD
:10397000DD049E8B8D8BCE0145960E944943BC0190
:103980008FE596E00E945B4C89E397E157DF86E57F
:1039900080939A0600939B0681E397E14FDF84E6CC
:1039A00080939A0610939B068091DE049091DF0429
:1039B0009E8B8D8BCE0145960E944943BC018FE5BD
:1039C00096E00E945B4C8EE297E138DF8091E8043C
:1039D0009091E9048530910511F00B9759F4E0912D
:1039E0001302F0911402EE0FFF1FEF5BFD4F0081F9
:1039F000118102C008EE16E123E242E064E183E7B0
:103A00000E9418318BE09BE00E94A330EFE9F4E0C4
:103A100001900020E9F785EB94E08E1B9F0B97FD4A
:103A200001969595879546E0489F9001499F300DF6
:103A3000112420939A068DE380939B066FE974E02E
:103A40008FE596E00E945B4C8AE08093410580916F
:103A5000180482FF05C080911704882309F479C0F7
:103A600020913F05309140058091A6079091A707CE
:103A70002C3331052CF4820F931FCD9744F415C0DD
:103A80002C33310591F0820F931FCC9774F4109270
:103A9000A6071092A7071092A8071092A9078CE317
:103AA00090E09093400580933F0520913F05309131
:103AB00040058091A6079091A7072C33310561F44A
:103AC0008B30910514F0C29609C0863F2FEF920704
:103AD0008CF48A5B9F4F02C0820F931F9093400526
:103AE00080933F051092A6071092A7071092A8078F
:103AF0001092A90780913F05909140050A9734F4F0
:103B00008AE090E09093400580933F0580913F05C7
:103B100090914005CD9734F08CE390E09093400570
:103B200080933F0580913F05909140056AE070E0E9
:103B30000E94D55D709314026093130266960FB6CF
:103B4000F894DEBF0FBECDBFDF91CF911F910F91D3
:103B5000089581E0809317041092A6071092A7079A
:103B60001092A8071092A90783E198E2909325028A
:103B7000809324020E94C94373CFDF92EF92FF9299
:103B80000F931F93CF93DF93D82E8B01D42F7901FE
:103B9000C9010E94BC5AC1E1C81B10929A068CE070
:103BA0008D9D800D112480939B066D2F8FE596E0EF
:103BB0000E940F4CF8016491662341F08FE596E076
:103BC0000E940F4C0F5F1F4FC150F4CF6AE38FE587
:103BD00096E00E940F4CCC2339F060E28FE596E02E
:103BE0000E940F4CC150F7CFC701DF91CF911F91B9
:103BF0000F91FF90EF90DF9021CEDF92EF92FF9236
:103C00000F931F93CF93DF93EC01D62E1CAD0BAD1A
:103C10007C0184E0E80EF11CE98DFA8DC70119954D
:103C2000412F480F2D2D602FC7010E94474A9BADA1
:103C3000890F8BAF81E090E0DF91CF911F910F91C1
:103C4000FF90EF90DF900895EF92FF920F931F93F4
:103C5000CF938C017B01C42FF801808191810E9458
:103C6000C55AF70181937F01F80180819181019606
:103C700091838083C15081F7CF911F910F91FF9065
:103C8000EF900895EF92FF920F931F93CF938C01C3
:103C90007B01C42FF70161917F01F801808191813F
:103CA0000E94CD5AF8018081918101969183808391
:103CB000C15081F7CF911F910F91FF90EF90089520
:103CC0008F929F92AF92BF92CF92DF92EF92FF922C
:103CD000109291006091BE047091BF04072E000CF9
:103CE000880B990B0E94365C6B017C016091D404B7
:103CF0007091D504072E000C880B990B0E94365C3E
:103D00004B015C012FE832EC45EF5CE30E942F5D34
:103D10009B01AC01C701B6010E94975B87FF02C0FF
:103D200060E011C02CEE31E548E75FE3C501B40166
:103D30000E942F5D9B01AC01C701B6010E94E65CA9
:103D4000181634F461E08091BA040E94FC454AC020
:103D50008091D8049091D904009771F460E080912B
:103D6000BA040E94FC452091C4043091C50480919E
:103D7000D6049091D70420C01816190654F461E0B7
:103D80008091BA040E94FC458091D8049091D90496
:103D900015C060E08091BA040E94FC452091C404E3
:103DA0003091C5048091D6049091D704820F931F5F
:103DB0002091D8043091D904820F931F90939900D9
:103DC0008093980080919100886080939100809109
:103DD000910082608093910081E090E09093950043
:103DE000809394001092A1006091C0047091C1046E
:103DF000072E000C880B990B0E94365C6B017C012E
:103E00006091D4047091D504072E000C880B990B97
:103E10000E94365C4B015C012FE832EC45EF5CE31D
:103E20000E942F5D9B01AC01C701B6010E94975B08
:103E300087FF02C060E011C02CEE31E548E75FE388
:103E4000C501B4010E942F5D9B01AC01C701B60101
:103E50000E94E65C18166CF461E08091BC04FF904F
:103E6000EF90DF90CF90BF90AF909F908F900C9489
:103E7000FC458091D8049091D904009771F460E0DA
:103E80008091BC040E94FC452091CC043091CD046B
:103E90008091D6049091D70420C01816190654F4C6
:103EA00061E08091BC040E94FC458091D80490910F
:103EB000D90415C060E08091BC040E94FC452091AB
:103EC000CC043091CD048091D6049091D704820F18
:103ED000931F2091D8043091D904820F931F90939F
:103EE000A9008093A8008091A10088608093A10020
:103EF0008091A10082608093A10081E090E0909386
:103F0000A5008093A400FF90EF90DF90CF90BF902A
:103F1000AF909F908F9008950E9466466093F00442
:103F20007093F1048093F2049093F3040895CF9377
:103F3000389ACAE0409A63E070E080E090E00E9426
:103F40008B46409863E070E080E090E00E948B46F2
:103F5000C15081F7CF910895CF92DF92EF92FF92F7
:103F60000F931F93CF93DF937C018B01EA01C12C48
:103F7000D12CF701EC0DFD1DE491EE2321F08FEF24
:103F8000C81AD80AF6CF8BE09BE00E94A33085E1E7
:103F9000C816D1041CF520E030E0F701E20FF31F52
:103FA000E491EE2319F02F5F3F4FF7CF85E190E0CA
:103FB000821B930B97FD01969595879546E0489F48
:103FC0009001499F300D112420939A068CE0809334
:103FD0009B06C70133DC81E090E016C010929A0680
:103FE0008CE080939B0660E070E0C7010E94164C55
:103FF00010929A0688E180939B0665E170E0C70104
:104000000E94164C82E090E09C012F5F3F4F20976A
:1040100019F140E050E0FE01E40FF51FE491EE23BA
:1040200019F04F5F5F4FF7CF85E190E0841B950B50
:1040300097FD01969595879536E0389FA001399FA9
:10404000500D112440939A068CE0289F802D112456
:1040500080939B06CE01F2DB8DE298E10E94A330B3
:104060008DE280939A0686E380939B06B8018FE5E4
:1040700096E0DF91CF911F910F91FF90EF90DF902D
:10408000CF900C945B4CEF92FF920F931F93CF93C2
:104090007B018901F90101900020E9F7C22FCE1BB5
:1040A000CE5E10929A069CE0989F900D11249093FA
:1040B0009B06642F8FE596E00E940F4CF7016491F8
:1040C000662349F08FE596E00E940F4CFFEFEF1A50
:1040D000FF0AC150F3CF6AE38FE596E00E940F4CD0
:1040E000CC2339F060E28FE596E00E940F4CC1507E
:1040F000F7CFB8018FE596E0CF911F910F91FF9018
:10410000EF900C945B4CFF920F931F93CF93DF9330
:10411000D82F8B01C42FF22E81E0809383064E337B
:1041200011F04B3F59F48CE0D89F802D11244CE0C6
:1041300060E88D5F0E9405321092830610929A0605
:104140008CE08D9F800D112480939B06CE3339F037
:104150006C2F8FE596E00E940F4CC1E102C060E237
:10416000F8CFF8016491662341F08FE596E00E9454
:104170000F4C0F5F1F4FC150F4CFCC2339F060E2DA
:104180008FE596E00E940F4CC150F7CF6F2D8FE561
:1041900096E00E940F4C60E28FE596E00E940F4C83
:1041A00081E080938306DF91CF911F910F91FF9063
:1041B000089580EA96E89093AC068093AB068EE66D
:1041C0009FE09093AE068093AD068AE296E29093CC
:1041D000B0068093AF0688E290E09093320480931B
:1041E0003104E9E5F4E080E090E0A0E0B0E4808311
:1041F0009183A283B38380E090E0A0ECBFE384834B
:104200009583A683B78380879187A287B38786E645
:1042100096E6A6EEBFE384879587A687B7878DECE1
:104220009CECACE0B0E4808B918BA28BB38B86E6E8
:1042300096E6A6E2B0E4848B958BA68BB78B8AE9D1
:1042400099E9A9E3B0E4808F918FA28FB38F83E3C4
:1042500093E3A3E5B0E4848F958FA68FB78F80E0BA
:1042600090E0A0E8BFE380A391A3A2A3B3A384A39B
:1042700095A3A6A3B7A380A791A7A2A7B3A7E5E894
:10428000F4E084EA96E0918380839383828395832C
:104290008483978386839187808793878287958796
:1042A000848797878687918B808B938B828B958B66
:1042B000848BE7E4F4E084E690E091838083938349
:1042C000828395838483978386839187808726EE74
:1042D00030E033872287E9E3F4E09183808393839E
:1042E000828395838483978386839187808793874E
:1042F00082872CEB32E030939E0420939D0420E5CE
:1043000030E03093200420931F0426E430E0309303
:104310004604209345042AE832E030934007209376
:104320003F0730932E0420932D0424E932E030938C
:1043300034042093330420E233E030933604209396
:1043400035049093300480932F0490933E0780931C
:104350003D0742E050E050931A044093190485E071
:1043600090E09093280480932704909326048093F0
:10437000250490931E0480931D0490931C04809345
:104380001B0490932C0480932B042CE330E0309397
:104390004805209347052EE130E030939C0420939C
:1043A0009B042AE030E03093580420935704909304
:1043B000380480933704309354042093530450936B
:1043C000E1044093E00480ED97E0909356048093DD
:1043D00055048AE999E9A9E9BEE3809342059093DF
:1043E0004305A0934405B093450580E090E0A0E428
:1043F000B0E48093210490932204A0932304B0930B
:10440000240430932A04209329040895CF93DF9342
:10441000CDB7DEB72A970FB6F894DEBF0FBECDBF7B
:1044200084E690E09A8789878091B7039091B803DA
:10443000A091B903B091BA038D839E83AF83B887EF
:1044400044E0BE016F5F7F4FCE010996FDDBCE01D8
:1044500001960E94C83243E050E0BE016F5F7F4F7B
:10446000CE0105960E94145E892B09F0C9C042E076
:104470006BEA76E0CE010996E7DB42E06DEA76E092
:10448000CE010996E1DB42E06FEA76E0CE010996C3
:10449000DBDB42E061E374E0CE010996D5DB4CE260
:1044A00069E574E0CE010996CFDB46E165E874E08A
:1044B000CE010996C9DB4CE067E474E0CE010996B1
:1044C000C3DB4CE069E374E0CE010996BDDB42E05A
:1044D0006DE974E0CE010996B7DB42E06FE174E06C
:1044E000CE010996B1DB42E065E474E0CE010996A5
:1044F000ABDB42E06FE377E0CE010996A5DB42E05B
:104500006DE274E0CE0109969FDB42E063E374E064
:10451000CE01099699DB42E065E374E0CE0109968D
:1045200093DB42E06FE274E0CE0109968DDB42E05E
:104530006DE377E0CE01099687DB42E069E174E044
:10454000CE01099681DB42E067E274E0CE01099674
:104550007BDB42E065E274E0CE01099675DB42E068
:104560006DE174E0CE0109966FDB42E06BE174E02F
:10457000CE01099669DB42E06BE274E0CE01099658
:1045800063DB42E067E475E0CE0109965DDB42E063
:104590006BE974E0CE01099657DB42E067E574E011
:1045A000CE01099651DB42E067E374E0CE01099643
:1045B0004BDB42E063E574E0CE01099645DB42E067
:1045C00060EE74E0CE0109963FDB42E065E574E001
:1045D000CE01099639DB44E062E475E0CE0109962C
:1045E00033DB44E061E274E0CE0109962DDB42E06A
:1045F00069E274E0CE01099627DB82E893E003C00C
:10460000D8DD8CE993E00E94C8322A960FB6F89460
:10461000DEBF0FBECDBFDF91CF9108950F931F93E3
:10462000CF93DF93CDB7DEB72A970FB6F894DEBFEE
:104630000FBECDBF8091BB039091BC03A091BD0381
:10464000B091BE0389839A83AB83BC8304E610E0F8
:104650001A87098744E0BE016F5F7F4FCE0109963C
:1046600011DB42E06BEA76E0CE0109960BDB42E01B
:104670006DEA76E0CE01099605DB42E06FEA76E06E
:10468000CE010996FFDA42E061E374E0CE010996BB
:10469000F9DA4CE269E574E0CE010996F3DA46E115
:1046A00065E874E0CE010996EDDA4CE067E474E069
:1046B000CE010996E7DA4CE069E374E0CE01099691
:1046C000E1DA42E06DE974E0CE010996DBDA42E01E
:1046D0006FE174E0CE010996D5DA42E065E474E05A
:1046E000CE010996CFDA42E06FE377E0CE0109967A
:1046F000C9DA42E06DE274E0CE010996C3DA42E025
:1047000063E374E0CE010996BDDA42E065E374E04C
:10471000CE010996B7DA42E06FE274E0CE01099665
:10472000B1DA42E06DE377E0CE010996ABDA42E020
:1047300069E174E0CE010996A5DA42E067E274E02F
:10474000CE0109969FDA42E065E274E0CE01099657
:1047500099DA42E06DE174E0CE01099693DA42E025
:104760006BE174E0CE0109968DDA42E06BE274E011
:10477000CE01099687DA42E067E475E0CE0109963A
:1047800081DA42E06BE974E0CE0109967BDA42E01F
:1047900067E574E0CE01099675DA42E067E374E0FC
:1047A000CE0109966FDA42E063E574E0CE01099626
:1047B00069DA42E060EE74E0CE01099663DA42E025
:1047C00065E574E0CE0109965DDA44E062E475E0E7
:1047D000CE01099657DA44E061E274E0CE01099611
:1047E00051DA42E069E274E0CE0109964BDA809139
:1047F000B7039091B803A091B903B091BA038D8328
:104800009E83AF83B8871A87098744E0BE016B5F38
:104810007F4FCE01099636DA2A960FB6F894DEBF9E
:104820000FBECDBFDF91CF911F910F9108951F92C1
:104830000F920FB60F9211240BB60F922F933F9346
:104840004F935F936F937F938F939F93AF93BF9398
:10485000EF93FF938091D8049091D904092E000C16
:10486000AA0BBB0B0097A105B10569F461E080912B
:10487000BC040E94FC451092A1008091D00490914C
:10488000D1040A962EC0181619061A061B06C4F47F
:104890008091BC040E94D4450197C1F460E08091EE
:1048A000BC040E94FC451092A1002091CC043091E0
:1048B000CD048091D6049091D704820F931F25C018
:1048C0008091BC040E94D445892B81F461E08091E1
:1048D000BC040E94FC451092A1008091D0049091EC
:1048E000D1042091D6043091D7040DC060E08091AE
:1048F000BC040E94FC451092A1002091D804309184
:10490000D9048AE090E0821B930B9093A9008093D6
:10491000A8008091A10088608093A1008091A100EF
:1049200082608093A10081E090E09093A500809345
:10493000A400FF91EF91BF91AF919F918F917F91D3
:104940006F915F914F913F912F910F900BBE0F9000
:104950000FBE0F901F9018951F920F920FB60F92D7
:1049600011240BB60F922F933F934F935F936F9346
:104970007F938F939F93AF93BF93EF93FF93809118
:10498000D8049091D904092E000CAA0BBB0B0097F8
:10499000A105B10569F461E08091BA040E94FC456B
:1049A000109291008091C8049091C9040A962EC07B
:1049B000181619061A061B06C4F48091BA040E9440
:1049C000D4450197C1F460E08091BA040E94FC458F
:1049D000109291002091C4043091C5048091D604B6
:1049E0009091D704820F931F25C08091BA040E9432
:1049F000D445892B81F461E08091BA040E94FC4582
:104A0000109291008091C8049091C9042091D6041D
:104A10003091D7040DC060E08091BA040E94FC453B
:104A2000109291002091D8043091D9048AE090E04E
:104A3000821B930B90939900809398008091910032
:104A400088608093910080919100826080939100B2
:104A500081E090E09093950080939400FF91EF9116
:104A6000BF91AF919F918F917F916F915F914F9186
:104A70003F912F910F900BBE0F900FBE0F901F9084
:104A800018958091470590914805A0E0B0E080938B
:104A9000EA049093EB04A093EC04B093ED0481E05E
:104AA0008093EE040895092E000CAA0BBB0B809393
:104AB000E2049093E304A093E404B093E50481E05E
:104AC0008093E7041092E6040895BF92CF92DF929C
:104AD000EF92FF920F931F93CF93DF931F921F923A
:104AE000CDB7DEB78CE090E09093E9048093E804C2
:104AF0008091A6079091A707A091A807B091A90758
:104B000081309048A105B10540F01092A60710929F
:104B1000A7071092A8071092A9078091A607909165
:104B2000A707A091A807B091A907B695A795979553
:104B300087954091410750E060E070E08417950749
:104B4000A607B70710F4809341070091410710E0D2
:104B5000FFE0CF2ED12CE12CF12CBB24B39480911B
:104B6000A6079091A707A091A807B091A9070111E6
:104B700030C020912302222361F02BEF0297A10580
:104B8000B10510F44BEF01C040E26DE178E1812FF7
:104B9000BADA80911704811102C28091180482FF51
:104BA000FEC1809116048111FAC18091A6079091EF
:104BB000A707A091A807B091A9070297A105B10581
:104BC00008F0EDC10E94C94388EF9BE10E94BC43FD
:104BD000CEC0013009F04DC0209123022223F9F00C
:104BE000B695A795979587952091DA043091DB04C7
:104BF0003A8329830197A105B10539F4CE010196C5
:104C00000E9449439C014EE306C0CE0101960E94DA
:104C100049439C0140E263E178E1812F34DA8091DD
:104C200017048111BCC18091180482FFB8C1809122
:104C300016048111B4C18091A6079091A707A09195
:104C4000A807B091A907B695A7959795879501975D
:104C5000A105B10509F0A3C10E94C9430DEE17E1FA
:104C60002DEF37E140EF5AE060E070E08AED94E02C
:104C70004FC0023009F04FC0209123022223F9F0E7
:104C8000B695A795979587952091B6043091B7046E
:104C90003A8329830297A105B10539F4CE01019623
:104CA0000E9449439C014EE306C0CE0101960E943A
:104CB00049439C0140E263EE77E1812FE4D9809182
:104CC000170481116CC18091180482FF68C1809122
:104CD0001604811164C18091A6079091A707A09145
:104CE000A807B091A907B695A795979587950297BC
:104CF000A105B10509F053C10E94C9430FEB17E1AB
:104D00002DEC37E146EE50E060E070E086EB94E099
:104D10000E94D0422CC0033071F1043009F475C0F8
:104D2000053009F0D0C0209123022111BBC0809131
:104D30001704811134C18091180482FF30C1809121
:104D4000160481112CC18091A6079091A707A0910C
:104D5000A807B091A907B695A79597958795059748
:104D6000A105B10509F01BC10E94C94357DC81E0D0
:104D7000809317044CC120912302222301F1B695A0
:104D8000A795979587952091B5040397A105B1053F
:104D900049F4211103C02CEA37E102C020EB37E1CE
:104DA0004EE308C0211103C024EA37E102C028EA1B
:104DB00037E140E264EB77E1812F0E94BD1D8091D5
:104DC00017048111ECC08091180482FFE8C0809123
:104DD00016048111E4C08091A6079091A707A091C5
:104DE000A807B091A907B695A795979587950397BA
:104DF000A105B10509F0D3C00E94C9439091B50443
:104E000081E098279093B50429C0209123022111B5
:104E100028C0809117048111C2C08091180482FFBC
:104E2000BEC0809116048111BAC08091A6079091EE
:104E3000A707A091A807B091A907B695A795979540
:104E400087950497A105B10509F0A9C00E94C9433F
:104E50009091B40481E098279093B4048093160451
:104E600087CFB695A795979587952091B404049719
:104E7000A105B10549F4211103C025E937E102C0BC
:104E800029E937E14EE308C0211103C02DE837E1DD
:104E900002C021E937E140E26DE977E1812F0E940C
:104EA000BD1DB7CFB695A7959795879520E2059735
:104EB000A105B10511F44EE301C040E26DE777E1D1
:104EC000812F21D934CF0630A1F52091230222234E
:104ED00081F0B695A7959795879520E20697A1054D
:104EE000B10511F44EE301C040E26CE677E1812F99
:104EF0000AD980911704811152C08091180482FF51
:104F00004EC08091160481114AC08091A6079091ED
:104F1000A707A091A807B091A907B695A79597955F
:104F200087950697A105B105D1F50E94C9436EDAB0
:104F30001ECF0730A1F520912302222381F0B695E0
:104F4000A7959795879520E20797A105B10511F4DC
:104F50004EE301C040E26AE577E1812FD4D8809129
:104F6000170481111CC08091180482FF18C0809121
:104F70001604811114C08091A6079091A707A091F3
:104F8000A807B091A907B695A79597958795079714
:104F9000A105B10521F40E94C9430BD9E8CE809147
:104FA000A6079091A707A091A807B091A9074097DD
:104FB000A105B10540F0C092A607D092A707E092E4
:104FC000A807F092A9078091A6079091A707A09142
:104FD000A807B091A907B695A795979587952091B1
:104FE000410730E02C5F3F4F482F50E02417350732
:104FF0004CF42CEF280F20934107B09223020BEFC3
:10500000080F1FEF1F5F0F5F153008F4A8CD0F903A
:105010000F90DF91CF911F910F91FF90EF90DF9054
:10502000CF90BF900895CF92DF92EF92FF921F939F
:10503000CF93DF938091A6079091A707A091A8072F
:10504000B091A90781309048A105B10540F01092B8
:10505000A6071092A7071092A8071092A90780919F
:10506000A6079091A707A091A807B091A907B695A8
:10507000A795979587954091410750E060E070E0D3
:1050800084179507A607B70710F480934107D091BE
:105090004107C0E075E0C72ED12CE12CF12C11E0C6
:1050A0008091A6079091A707A091A807B091A907A2
:1050B000D11130C020912302222361F02BEF0297FF
:1050C000A105B10510F44BEF01C040E263E577E1C3
:1050D0008C2F19D880911704811192C080911804E7
:1050E00082FF8EC08091160481118AC08091A6072C
:1050F0009091A707A091A807B091A9070297A105D1
:10510000B10508F07DC00E94C9438FE29CE10E9476
:10511000BC4372C0D130B9F520912302222389F01B
:10512000B695A795979587952AEF0197A105B105A3
:1051300011F44EE301C040E269E477E18C2F0E9454
:1051400083208091170481115BC08091180482FF35
:1051500057C080911604811153C08091A607909189
:10516000A707A091A807B091A907B695A79597950D
:1051700087950197A105B10509F042C00E94C94376
:105180008CE696E337C0D230D9F520912302222352
:1051900089F0B695A795979587952AEF0297A1056F
:1051A000B10511F44EE301C040E261E477E18C2FD8
:1051B0000E94832080911704811122C080911804DD
:1051C00082FF1EC08091160481111AC08091A6072B
:1051D0009091A707A091A807B091A907B695A795A8
:1051E000979587950297A105B10551F40E94C9438F
:1051F00085E695E20E94BC4381E08093170438C0A5
:105200008091A6079091A707A091A807B091A90740
:105210000697A105B10540F0C092A607D092A70756
:10522000E092A807F092A9078091A6079091A7079E
:10523000A091A807B091A907B695A79597958795CE
:105240002091410730E02C5F3F4F482F50E024175A
:1052500035074CF42CEF280F2093410710932302BD
:10526000DBEFD80FCFEFCF5FDF5FC53008F418CF8B
:10527000DF91CF911F91FF90EF90DF90CF90089535
:10528000BF92CF92DF92EF92FF920F931F93CF9333
:10529000DF931F921F92CDB7DEB78091A607909142
:1052A000A707A091A807B091A90781309048A10550
:1052B000B10540F01092A6071092A7071092A80718
:1052C0001092A9078091A6079091A707A091A8071F
:1052D000B091A907B695A7959795879540914107F5
:1052E00050E060E070E084179507A607B70710F458
:1052F000809341070091410710E0F7E1CF2ED12CB8
:10530000E12CF12CBB24B3948091A6079091A707C0
:10531000A091A807B091A907011131C020912302E3
:10532000222369F02BEF0297A105B10510F44BEF92
:1053300001C040E269E474E3812F0E9483208091E0
:105340001704811186C38091180482FF82C3809163
:10535000160481117EC38091A6079091A707A091A2
:10536000A807B091A9070297A105B10508F071C37C
:105370000E94C9438CE696E30E94BC43CEC0013034
:1053800009F04CC020912302222301F1B695A79584
:10539000979587952091190430911A043A832983AF
:1053A0000197A105B10539F4CE0101960E94494348
:1053B0009C014EE306C0CE0101960E9449439C0128
:1053C00040E26FE374E3812F0E9443208091170431
:1053D00081113FC38091180482FF3BC38091160462
:1053E000811137C38091A6079091A707A091A807C4
:1053F000B091A907B695A795979587950197A105AF
:10540000B10509F026C30E94C9432BE134E349E208
:1054100054E364E873E089E194E07DC0023009F070
:105420004CC020912302222301F1B695A7959795B0
:10543000879520912704309128043A832983029785
:10544000A105B10539F4CE0101960E9449439C01A2
:105450004EE306C0CE0101960E9449439C0140E202
:1054600060E174E3812F0E94432080911704811131
:10547000F0C28091180482FFECC280911604811161
:10548000E8C28091A6079091A707A091A807B091C4
:10549000A907B695A795979587950297A105B10598
:1054A00009F0D7C20E94C94320EF33E34EEF53E324
:1054B00064E873E087E294E02EC0033009F052C044
:1054C0002091230221112DC0809117048111C1C2A6
:1054D0008091180482FFBDC2809116048111B9C267
:1054E0008091A6079091A707A091A807B091A9075E
:1054F000B695A795979587950397A105B10509F0EE
:10550000A8C20E94C94326EC33E344ED53E364E8A8
:1055100073E085E294E00E94C64B81E0809317041B
:10552000D0C2B695A795979587952091250430917F
:1055300026043A8329830397A105B10539F4CE01E6
:1055400001960E9449439C014EE306C0CE0101969C
:105550000E9449439C0140E266EE73E3812F0E9462
:105560004320B2CF043009F04CC020912302222303
:1055700001F1B695A7959795879520911D043091D7
:105580001E043A8329830497A105B10539F4CE019D
:1055900001960E9449439C014EE306C0CE0101964C
:1055A0000E9449439C0140E26CEB73E3812F0E940F
:1055B00043208091170481114CC28091180482FF0E
:1055C00048C280911604811144C28091A60790912F
:1055D000A707A091A807B091A907B695A795979599
:1055E00087950497A105B10509F033C20E94C9430C
:1055F0002EE933E34CEA53E364E873E08DE194E091
:105600008ACF053009F04CC020912302222301F1FA
:10561000B695A7959795879520911B0430911C040A
:105620003A8329830597A105B10539F4CE01019686
:105630000E9449439C014EE306C0CE0101960E94A0
:1056400049439C0140E260E973E3812F0E944320BB
:10565000809117048111FDC18091180482FFF9C166
:10566000809116048111F5C18091A6079091A7073A
:10567000A091A807B091A907B695A795979587958A
:105680000597A105B10509F0E4C10E94C94320E6D0
:1056900033E34EE653E364E873E08BE194E03BCF01
:1056A000063009F04CC020912302222301F1B69567
:1056B000A7959795879520912B0430912C043A83D8
:1056C00029830697A105B10539F4CE0101960E9400
:1056D00049439C014EE306C0CE0101960E94494316
:1056E0009C0140E266E573E3812F0E944320809194
:1056F00017048111AEC18091180482FFAAC1809164
:1057000016048111A6C18091A6079091A707A091C8
:10571000A807B091A907B695A7959795879506977D
:10572000A105B10509F095C10E94C94328E333E3FF
:1057300046E453E364E873E08BE294E0ECCE073098
:1057400009F04CC020912302222301F1B695A795C0
:105750009795879520914705309148053A8329838D
:105760000797A105B10539F4CE0101960E9449437E
:105770009C014EE306C0CE0101960E9449439C0164
:1057800040E26AE273E3812F0E9443208091170474
:1057900081115FC18091180482FF5BC18091160462
:1057A000811157C18091A6079091A707A091A807E2
:1057B000B091A907B695A795979587950797A105E5
:1057C000B10509F046C10E94C9432CE033E34AE128
:1057D00053E364E873E087E495E09DCE083009F078
:1057E0004CC020912302222301F1B695A7959795ED
:1057F000879520919B0430919C043A8329830897D4
:10580000A105B10539F4CE0101960E9449439C01DE
:105810004EE306C0CE0101960E9449439C0140E23E
:1058200060E073E3812F0E9443208091170481116F
:1058300010C18091180482FF0CC18091160481115F
:1058400008C18091A6079091A707A091A807B091E1
:10585000A907B695A795979587950897A105B105CE
:1058600009F0F7C00E94C94323ED32E341EE52E351
:1058700064E873E08BE994E04ECE093009F04CC047
:1058800020912302222301F1B695A795979587953C
:1058900020915704309158043A8329830997A10530
:1058A000B10539F4CE0101960E9449439C014EE3B3
:1058B00006C0CE0101960E9449439C0140E265EC7E
:1058C00072E3812F0E944320809117048111C1C08F
:1058D0008091180482FFBDC0809116048111B9C067
:1058E0008091A6079091A707A091A807B091A9075A
:1058F000B695A795979587950997A105B10509F0E4
:10590000A8C00E94C94327E932E345EA52E364E8AC
:1059100073E087E594E0FFCD0A3009F04CC0209198
:105920002302222301F1B695A7959795879520919B
:105930003704309138043A8329830A97A105B105C9
:1059400039F4CE0101960E9449439C014EE306C002
:10595000CE0101960E9449439C0140E268E872E34F
:10596000812F0E94432080911704811172C0809181
:10597000180482FF6EC08091160481116AC0809164
:10598000A6079091A707A091A807B091A907B6957F
:10599000A795979587950A97A105B10509F059C074
:1059A0000E94C9432BE632E349E752E364E873E01F
:1059B00087E394E0B0CD0B3009F04BC02091230277
:1059C000222301F1B695A7959795879520915304C9
:1059D000309154043A8329830B97A105B10539F41A
:1059E000CE0101960E9449439C014EE306C0CE01C0
:1059F00001960E9449439C0140E26CE572E3812FCD
:105A00000E94432080911704811123C080911804C3
:105A100082FF1FC08091160481111BC08091A607D0
:105A20009091A707A091A807B091A907B695A7954F
:105A3000979587950B97A105B10559F40E94C94325
:105A400029E332E347E452E364E873E083E594E05A
:105A500062CD8091A6079091A707A091A807B09169
:105A6000A9074897A105B10540F0C092A607D092BA
:105A7000A707E092A807F092A9078091A607909146
:105A8000A707A091A807B091A907B695A7959795E4
:105A900087952091410730E02C5F3F4F482F50E021
:105AA000241735074CF42CEF280F20934107B092B0
:105AB00023020BEF080F1FEF1F5F0F5F153008F475
:105AC00023CC0F900F90DF91CF911F910F91FF90FA
:105AD000EF90DF90CF90BF900895BF92CF92DF926A
