:100000000C94801B0C94436D0C94186D0C94ED6C47
:100010000C94C26C0C94976C0C946C6C0C94416CAA
:100020000C94166C0C94B11B0C94B11B0C94B11B6A
:100030000C94B11B0C94B11B0C94B11B0C94B11B10
:100040000C94B11B0C94B11B0C94B11B0C94B11B00
:100050000C94B11B0C94B11B0C94B11B0C94CC6B85
:100060000C94B11B0C94BA6A0C94916A0C94B11B59
:100070000C94B11B0C94B11B0C94B11B0C94B11BD0
:100080000C9467480C94B11B0C94B11B0C94B11BDD
:100090000C94B11B0C94B11B0C94B11B0C946E6DA1
:1000A0000C94B11B0C94B11B0C94D2470C94B11B53
:1000B0000C94B11B0C94B11B0C94B11B0C94B11B90
:1000C0000C94B11B0C94B11B0C94B11B0C94B11B80
:1000D0000C94B11B0C94B11B0C94B11B0C94B11B70
:1000E0000C94B11BE042CE3A3142D542314231420A
:1000F0003142314231423142314231423142314268
:100100003142314231423142314231423142314257
:100110003142314231423142314231423142314247
:10012000CF42314231423142314231423142314299
:1001300031426142314231423142314231423142F7
:100140003142314231423142F542F04261696469E3
:10015000536957695D699B6968696C6972697669F9
:100160007A698069846988699B698E6992699669F0
:1001700008000000BE922449123EABAAAA2ABECDB6
:10018000CCCC4C3E00000080BEABAAAAAA3E000028
:100190000000BF000000803F000000000008417820
:1001A000D3BB4387D1133D190E3CC3BD4282AD2B57
:1001B0003E68EC8276BED98FE1A93E4C80EFFFBE4F
:1001C00001C4FF7F3F00000000005B302E2E39305D
:1001D00030207365632E5D0050756C697A6961200B
:1001E000696E20737065676E696D652E0050756C61
:1001F000697A696120737065676E2E005B302E2E00
:10020000393030207365632E5D0050726573706500
:10021000676E696D656E746F0050726573706567A7
:100220006E696D656E746F005B302E2E3930302034
:100230007365632E5D00447572617461207370652F
:10024000676E696D656E746F202020696E2073740F
:10025000616E64627900537065672E207374616EFD
:10026000646279005B302E2E393030207365632E46
:100270005D004475726174612070756C697A6961A2
:1002800020202020202020706572696F64696361DE
:10029000004475726174612070756C2E005B302EA5
:1002A0002E393030207365632E5D00506572696FA2
:1002B000646F2070756C697A696100506572692E8F
:1002C0002070756C697A6961005B302E2E39303090
:1002D000207365632E5D0053746162696C697A7A7C
:1002E000617A696F6E650053746162696C697A2E18
:1002F000005B302E2E393030207365632E5D004D4B
:10030000617373696D6F2074656D706F20706572B5
:10031000202020206C27616363656E73696F6E65B2
:10032000004D61782074656D706F20616363005BC0
:10033000302E2E393030207365632E5D00416365A9
:100340006E73696F6E6520666973736100416363E4
:10035000206669737361005B302E2E393030207354
:1003600065632E5D0050726563617269636F207012
:10037000656C6C6574730050726563617269636F5C
:10038000005B302E2E393030207365632E5D0050B7
:10039000726572697363616C646F2063616E642E51
:1003A000005072652E2063616E642E005B302E2E2D
:1003B000393030207365632E5D0050756C697A2E7C
:1003C00020696E2020616363656E73696F6E6500DE
:1003D00050756C2E206163632E00506172616D65F3
:1003E000747269005B302E2E3235302043275D0059
:1003F00042797061737320616363656E73696F6EB8
:100400006500427970617373206163632E005B3015
:100410002E2E3235302043275D0053696375726597
:100420007A7A612066756D69005369632E2066755E
:100430006D69005B302E2E3235302043275D004D34
:100440006F64756C617A696F6E652066756D6900A1
:100450004D6F642E2066756D69005B302E2E32352F
:10046000302043275D0050617373616767696F20B7
:10047000646120766172696162696C6520696E20D1
:1004800073746162696C697A7A617A696F6E65000A
:10049000506173732E20696E20737461622E005B4D
:1004A000302E2E3235302043275D0041747469763A
:1004B000617A696F6E652076656E746F6C6120205D
:1004C00072697363616C64616D656E746F00417411
:1004D000742E2076656E742E20726973632E005B15
:1004E000302E2E3235302043275D004D616E636122
:1004F0006E7A61206669616D6D61004D616E636148
:10050000206669616D6D61005B302E2E32353020C2
:1005100043275D004469736174742E2063616E64C7
:10052000656C65747461004469736174742E206332
:10053000616E642E005B302E2E3235302043275DF5
:10054000005374756661207370656E746100537436
:10055000756661207370656E746100506172616DC3
:100560006574726900496D706F7374617A2E2064CE
:10057000656661756C7400436172696361206461D2
:1005800020454550524F4D0053616C766120696E95
:1005900020454550524F4D004F6666004F6E20007B
:1005A0004F6666004F6E2000436F636C6561004FBD
:1005B0006666004F6E20004F6666004F6E20004357
:1005C000616E64656C65747461005B302E2E32332D
:1005D0003020566F6C745D0056656E746F6C6120D0
:1005E00072697363616C64616D656E746F005665EA
:1005F0006E2E2072697363005B302E2E32383030DD
:100600002047697269275D0056656C6F6369746184
:100610002076656E746F6C612066756D6900566535
:100620006E2E2066756D69004D656E75207072695D
:100630006E636970616C65004C6976656C6C6F20E7
:1006400036004C6976656C6C6F2035004C697665B8
:100650006C6C6F2034004C6976656C6C6F203300D5
:100660004C6976656C6C6F2032004C6976656C6CF9
:100670006F203100506172616D6574726900496D5F
:10068000706F7374617A2E2064656661756C740096
:1006900043617269636120646120454550524F4D4A
:1006A0000053616C766120696E20454550524F4D74
:1006B000005465726D6F73746174690054696D657F
:1006C0007273004C6976656C6C6920706F742E00D3
:1006D0004D656E75207072696E636970616C65003E
:1006E0003FC03FC03FC03FC03FC03FC01FC01FC052
:1006F0001FC01FC01FC01FC00FC00FC00FC00FC042
:100700000FC00FC007C007C007C007C007C007C0A1
:1007100003C003C003C003C003C003C001C001C0C5
:1007200001C001C001C03FC0204020402040204007
:1007300020401FC01FC01FC01FC01FC01FC00FC050
:100740000FC00FC00FC00FC00FC007C007C007C049
:1007500007C007C007C003C003C003C003C003C075
:1007600003C001C001C001C001C001C03FC02040A2
:1007700020402040204020401040104010401040B9
:10078000104010400FC00FC00FC00FC00FC00FC0EF
:1007900007C007C007C007C007C007C003C003C029
:1007A00003C003C003C003C001C001C001C001C039
:1007B00001C03FC020402040204020402040104049
:1007C00010401040104010401040084008400840C1
:1007D00008400840084007C007C007C007C007C05E
:1007E00007C003C003C003C003C003C003C001C0EF
:1007F00001C001C001C001C03FC0204020402040D6
:100800002040204010401040104010401040104048
:1008100008400840084008400840084004400440A0
:10082000044004400440044003C003C003C003C0AC
:1008300003C003C001C001C001C001C001C03FC06E
:1008400020402040204020402040104010401040D8
:100850001040104010400840084008400840084040
:100860000840044004400440044004400440024066
:100870000240024002400240024001C001C001C0EB
:1008800001C001C03FC02040204020402040204007
:1008900010401040104010401040104008400840E8
:1008A0000840084008400840044004400440044018
:1008B0000440044002400240024002400240024024
:1008C000014001400140014001C0B02000416D6283
:1008D00069656E2E00B0200046756D690000091232
:1008E00000FC0A01E803D720FFFD0EFD0BFD000010
:1008F0000009000E010B0B090400808080808080BD
:100900008000008080040404090307909090900800
:100910000A0A090000242424FF2424FF2424240795
:100920000B0B0901FF107C929050381412927C102E
:10093000070A0A09010042A4A4481010244A4A8464
:10094000070A0A090100609090906062948894629E
:1009500001040409040780808080030C0C0903FF54
:10096000204040808080808080404020030C0C0923
:1009700003FF8040402020202020204040800707A7
:100980000709010310925438549210070707090110
:1009900001101010FE1010100204040904FEC0C063
:1009A0004080070101090104FE020202090400C09F
:1009B000C0070A0A09010002040408101020404080
:1009C00080070A0A090100384482828282828244B6
:1009D00038070A0A0901001030509010101010104A
:1009E000FE070A0A09010038448202040810204068
:1009F000FE070A0A090100FE020408180402028424
:100A000078070A0A090100040C14244484FE040433
:100A100004070A0A090100FE808080F804020284AB
:100A200078070A0A0901003C408080B8C4828244E9
:100A300038070A0A090100FE020404080810101011
:100A400010070A0A0901003844824438448282446B
:100A500038070A0A09010038448282463A02020431
:100A600078020707090400C0C0000000C0C00209E6
:100A7000090904FEC0C0000000C0C040800509098B
:100A800009020008102040804020100807040409D3
:100A90000102FE0000FE0509090902008040201045
:100AA0000810204080070A0A090100384482020425
:100AB0000810100010070A0A09010038449AAAAA6F
:100AC000AAAA9C403C070A0A0901001028282844C9
:100AD0007C44828282070A0A090100F8848284F831
:100AE00084828284F8070A0A0901003C42808080DF
:100AF000808080423C070A0A090100F884828282D1
:100B000082828284F8070A0A090100FE808080F848
:100B100080808080FE070A0A090100FE808080F83C
:100B20008080808080070A0A090100384482808022
:100B30008E82824438070A0A09010082828282FE7C
:100B40008282828282050A0A090200F8202020207F
:100B500020202020F8070A0A0901003E080808089A
:100B60000808888870070A0A09010082848890A012
:100B7000D088848282070A0A0901008080808080F0
:100B800080808080FE070A0A0901008282C6AA923C
:100B90008282828282070A0A0901008282C2A292AC
:100BA0008A86828282070A0A0901007C8282828206
:100BB000828282827C070A0A090100F88482828488
:100BC000F880808080080B0B0901FF384482828204
:100BD00082828A443A01070A0A090100F884828263
:100BE00084F890888482070A0A0901007C82808048
:100BF0007C020202827C070A0A090100FE10101022
:100C0000101010101010070A0A0901008282828257
:100C1000828282824438070A0A0901008282824461
:100C2000444428282810070A0A0901008282828287
:100C300092929292AA44070A0A09010082824428E9
:100C4000101028448282070A0A090100828244287F
:100C5000101010101010070A0A090100FE02040803
:100C60001020408080FE040C0C0903FFF08080807F
:100C700080808080808080F0070A0A09010080401F
:100C80004020101008040402040C0C0902FFF010AC
:100C9000101010101010101010F0070404090106B5
:100CA000102844820801010900FFFF030303090320
:100CB0000A8040200707070901007C02027E828625
:100CC0007A070A0A090100808080BCC2828282C23F
:100CD000BC0707070901007C82808080827C070AAC
:100CE0000A0901000202027A86828282867A070756
:100CF000070901007C8282FE80827C070A0A0901C2
:100D0000001C22222020F820202020070A0A0901A6
:100D1000FD7A84848478807C82827C070A0A0901B7
:100D200000808080BCC28282828282050A0A090217
:100D300000600000E02020202020F8050D0D0902B1
:100D4000FD18000038080808080808888870070A95
:100D50000A090100808080848890B0C88482050AD6
:100D60000A090200E02020202020202020F8070788
:100D700007090100EC9292929292820707070901FB
:100D800000BCC282828282820707070901007C823E
:100D9000828282827C070A0A0901FDB8C4828282AB
:100DA000C4B8808080070A0A0901FD3A468282821F
:100DB000463A0202020707070901009C62424040CE
:100DC00040400707070901007C82807C02827C0783
:100DD00009090901002020FC20202020221C0707EF
:100DE000070901008282828282867A070707090149
:100DF00000828244442828100707070901008282E4
:100E0000929292AA440707070901008244281028F9
:100E10004482070A0A0901FD4242242424181810BA
:100E20009060070707090100FE0408102040FE0635
:100E30000B0B0902001C20202020C0202020201C99
:100E4000010C0C0904FF808080808080808080807D
:100E50008080060B0B090100E0101010100C101020
:100E60001010E007030309010762928CFFFFFFFFE8
:100E7000FFFFFFFFFFFFFFFFFFFFFFFFFFFFFFFF82
:100E8000FFFFFFFFFFFFFFFFFFFFFFFFFF0000006F
:100E900009000E010B0B0904008080000080808097
:100EA0008080808006080809010008789490A0A43A
:100EB0007840070A0A0901001C222020F82020603F
:100EC000A25C070606090103827C44447C82070A6F
:100ED0000A090100828244287C107C101010010B4A
:100EE0000B0904FF808080808000808080808004E7
:100EF0000B0B0902FF6090806090909060109060F2
:100F000003020209030BA0A00809090900013C42E1
:100F100099A5A1A599423C050707090103609070B6
:100F2000907800F8070808090101122448909048B9
:100F30002412060404090102FC0404040501010949
:100F40000204F80809090900013C42B9A5BDA9A598
:100F5000423C060101090109FC040404090306607E
:100F6000909060070909090101101010FE1010107F
:100F700000FE0406060901046090106080F004067B
:100F80000609010460902010906003030309030A1E
:100F90002040800709090901FE8282828282C6BA46
:100FA0008080070A0A0901007E8A8A8A7A0A0A0A68
:100FB0000A0A020202090404C0C00403030902FD74
:100FC00020906003060609010440C0404040E0054F
:100FD00006060901047088887000F80708080901EE
:100FE000019048241212244890070A0A090100407F
:100FF000C0404042E60A121A06070A0A09010040E8
:10100000C040404CF2020C101E070A0A09010060A1
:1010100090201092660A121A06070A0A09010010A7
:1010200000101020408082827C070E0E09010020F3
:1010300010080010282828447C44828282070E0E63
:101040000901000810200010282828447C448282CE
:1010500082070E0E09010010284400102828284499
:101060007C44828282070D0D09010034580010284B
:101070002828447C44828282070D0D09010028281B
:101080000010282828447C44828282070E0E090121
:10109000001028281010282828447C4482828207C7
:1010A0000A0A0901001E2828284E784888888E07D9
:1010B0000D0D0901FD3C42808080808080423C080B
:1010C0002418070E0E09010020100800FE80808001
:1010D000F880808080FE070E0E09010008102000B5
:1010E000FE808080F880808080FE070E0E0901005F
:1010F00010284400FE808080F880808080FE070DEC
:101100000D090100282800FE808080F88080808002
:10111000FE050E0E09020040201000F820202020BD
:1011200020202020F8050E0E09020010204000F8B3
:101130002020202020202020F8050E0E090200206B
:10114000508800F82020202020202020F8050D0DB8
:10115000090200505000F82020202020202020F8F4
:10116000070A0A09010078444242F24242424478A6
:10117000070D0D0901003458008282C2A2928A86AE
:10118000828282070E0E090100201008007C8282F4
:101190008282828282827C070E0E09010008102062
:1011A000007C82828282828282827C070E0E09010A
:1011B00000102844007C82828282828282827C07A4
:1011C0000D0D0901003458007C8282828282828265
:1011D000827C070D0D0901002828007C8282828212
:1011E000828282827C070707090101824428102835
:1011F0004482070C0C0901FF027C868A8A9292A223
:10120000A2C27C80070E0E09010020100800828215
:101210008282828282824438070E0E090100081001
:10122000200082828282828282824438070E0E09E6
:1012300001001028440082828282828282824438A5
:10124000070D0D0901002828008282828282828295
:10125000824438070E0E09010008102000828244E3
:1012600028101010101010070A0A0901008080FCD5
:10127000828282FC808080060A0A09010038444488
:1012800048D04844444458070B0B0901002010087B
:10129000007C02027E82867A070B0B09010008108F
:1012A00020007C02027E82867A070B0B0901001067
:1012B0002844007C02027E82867A070A0A0901001D
:1012C0003458007C02027E82867A070A0A090100ED
:1012D0002828007C02027E82867A070C0C09010015
:1012E00010282810007C02027E82867A07070709F0
:1012F00001006C12127E90926C070A0A0901FD7CB3
:1013000082808080827C104830070B0B090100200E
:101310001008007C8282FE80827C070B0B09010092
:10132000081020007C8282FE80827C070B0B090162
:1013300000102844007C8282FE80827C070A0A0911
:1013400001002828007C8282FE80827C050C0C092A
:1013500002008040200000E02020202020F8050C22
:101360000C0902001020400000E02020202020F87E
:10137000050C0C0902002050880000E020202020ED
:1013800020F8050B0B09020050500000E02020203F
:101390002020F8070B0B090100483050083C44821C
:1013A00082824438070A0A090100345800BCC2820C
:1013B00082828282070B0B090100201008007C82C8
:1013C000828282827C070B0B090100081020007CBE
:1013D00082828282827C070B0B0901001028440064
:1013E0007C82828282827C070A0A090100345800CA
:1013F0007C82828282827C070A0A090100282800F6
:101400007C82828282827C070909090100103810DF
:1014100000FE001038100709090901FF027C8A8AC2
:1014200092A2A27C80070B0B0901004020100082D1
:1014300082828282867A070B0B0901000810200045
:101440008282828282867A070B0B0901001028446F
:10145000008282828282867A070A0A09010028288D
:10146000008282828282867A070E0E0901FD0408BC
:10147000100042422424241818109060070B0B0916
:1014800001FE8080B8C4828282C4B88080070D0DBE
:101490000901FD24240042422424241818109060DD
:1014A000000A1400FC0D024A049920FFFC10FC0DF8
:1014B000FC0000000A0010020D0D0A0400C0C0C0AC
:1014C000C0C0C0C0C0C0C000C0C00604040A020939
:1014D000CCCCCC48090B160A01011B001B001B00D9
:1014E0007F80360036003600FF006C006C006C0018
:1014F000080D0D0A0100187EDBD8D8D87E1B1B1BF7
:10150000DB7E18090C180A01007300DB00DE007690
:10151000000C000C001800180037003D806D80673B
:1015200000090D1A0A010038006C006C006C00788C
:101530000030007000D800CD80C700C600EF0079F1
:10154000800205050A0408C0C0C0C080050D0D0A50
:10155000030018306060C0C0C0C0C06060301805B3
:101560000D0D0A0200C060303018181818183030FD
:1015700060C00807070A010366663CFF3C66660810
:1015800007070A0103181818FF1818180403030A9C
:1015900003FF7070E00801010A0106FF0303030A5C
:1015A0000400E0E0E0070C0C0A020006060C0C1830
:1015B0001830306060C0C0080D0D0A0100183C668C
:1015C00066C3C3C3C3C366663C18080D0D0A010099
:1015D000183878D81818181818181818FF080D0D8A
:1015E0000A01003C66C3C30303061C3060C0C0FF91
:1015F000080D0D0A01003C66C3C303061C0603C3A5
:10160000C3663C080D0D0A010002060E1E3666C6B2
:10161000C6FF06060606080D0D0A0100FFC0C0C081
:10162000C0DCE6030303C3663C080D0D0A01003C61
:1016300066C2C0C0DCE6C3C3C3C3663C080D0D0A66
:101640000100FF030306060C0C1818303060600818
:101650000D0D0A01003C66C3C3C3663C66C3C3C329
:10166000663C080D0D0A01003C66C3C3C3C3673B5B
:10167000030343663C0308080A0400E0E00000009E
:1016800000E0E00409090A03FF7070000000007028
:1016900070E0070D0D0A010002060C183060C060F2
:1016A00030180C06020806060A0103FF00000000BD
:1016B000FF070D0D0A020080C06030180C060C18E0
:1016C0003060C080080D0D0A01003C66C3C3C3062C
:1016D0000C181818001818080D0D0A01003C66C3F4
:1016E000CFDFDBDBDBDECCC0633E080D0D0A010083
:1016F000183C6666C3C3C3FFC3C3C3C3C3080D0D91
:101700000A0100F8CCC6C6C6CCFCC6C3C3C3C6FC1F
:10171000080D0D0A01003C66C3C0C0C0C0C0C0C0F7
:10172000C3663C080D0D0A0100FCC6C3C3C3C3C396
:10173000C3C3C3C3C6FC080D0D0A0100FFC0C0C06F
:10174000C0C0FCC0C0C0C0C0FF080D0D0A0100FF32
:10175000C0C0C0C0C0FCC0C0C0C0C0C0080D0D0A21
:1017600001003C66C3C0C0C0CFC3C3C3C3673D084C
:101770000D0D0A0100C3C3C3C3C3C3FFC3C3C3C3A7
:10178000C3C3080D0D0A0100FF18181818181818FF
:1017900018181818FF090D1A0A01001F8006000604
:1017A00000060006000600060006000600C600C689
:1017B000006C003800080D0D0A0100C3C3C6C6CC7A
:1017C000CCF8CCCCC6C6C3C3080D0D0A0100C0C0FE
:1017D000C0C0C0C0C0C0C0C0C0C0FF080D0D0A015D
:1017E00000C3C3E7E7FFDBDBDBDBC3C3C3C3080D19
:1017F0000D0A0100C3E3E3F3F3DBDBCFCFC7C7C3BD
:10180000C3080D0D0A01003C66C3C3C3C3C3C3C3F1
:10181000C3C3663C080D0D0A0100FCC6C3C3C3C3A5
:10182000C6FCC0C0C0C0C0080E0E0A01FF3C66C3A3
:10183000C3C3C3C3C3C3DBCF663E03080D0D0A0198
:1018400000FCC6C3C3C3C3C6FCCCC6C6C3C3080D15
:101850000D0A01003C66C3C0C0603C060303C366BA
:101860003C080D0D0A0100FF181818181818181850
:1018700018181818080D0D0A0100C3C3C3C3C3C349
:10188000C3C3C3C3C3663C080D0D0A0100C3C3C371
:10189000C36666663C3C3C181818080D0D0A01002A
:1018A000C3C3C3C3C3DBDBDBDBE7E7C3C3080D0D87
:1018B0000A0100C3C366663C3C183C3C6666C3C371
:1018C000080D0D0A0100C3C366663C3C18181818C1
:1018D000181818080D0D0A0100FF0303060C0C1858
:1018E000303060C0C0FF060D0D0A0200FCC0C0C051
:1018F000C0C0C0C0C0C0C0C0FC070C0C0A0200C001
:10190000C06060303018180C0C0606060D0D0A0277
:1019100000FC0C0C0C0C0C0C0C0C0C0C0CFC08043F
:10192000040A0109183C66C30901020A01FFFF808D
:101930000403030A030AC060300808080A01003ED5
:1019400063037FC3C3C37D080D0D0A0100C0C0C07F
:10195000C0C0DCE6C3C3C3C3E6DC0808080A010054
:101960003E63C0C0C0C0633E080D0D0A0100030302
:101970000303033B67C3C3C3C3673B0808080A01EB
:10198000003C66C3FFC0C0633E080D0D0A01001E87
:1019900033333030FC30303030303030080C0C0A0B
:1019A00001FC7DC7C6C6C67CC07EC3C3C37E080D0E
:1019B0000D0A0100C0C0C0C0C0DCE6C3C3C3C3C3BE
:1019C000C3080B0B0A01001818007818181818180B
:1019D00018FF070F0F0A02FC0606001E0606060681
:1019E000060606C6C6C67C080D0D0A0100C0C0C0AA
:1019F000C0C0C6CCD8F0F8CCC6C3080D0D0A010093
:101A0000781818181818181818181818FF0808083F
:101A10000A0100B6FFDBDBDBDBDBDB0808080A01C1
:101A200000DCE6C3C3C3C3C3C30808080A01003C03
:101A300066C3C3C3C3663C080C0C0A01FCDCE6C3E6
:101A4000C3C3C3E6DCC0C0C0C0080C0C0A01FC3B29
:101A500067C3C3C3C3673B030303030808080A0142
:101A600000DE736060606060600808080A01007E44
:101A7000C3C07E0303C37E080B0B0A010030303065
:101A8000FC3030303030331E0808080A0100C3C370
:101A9000C3C3C3C3673B0808080A0100C3C3666623
:101AA0003C3C18180808080A0100C3C3C3DBDBDB91
:101AB000FF660808080A0100C3663C18183C66C3A4
:101AC000080C0C0A01FCC3C3C3C3C3C3673B03C3F5
:101AD000663C0708080A0200FE060C183060C0FECB
:101AE000080D0D0A01000F1818181818F01818180A
:101AF00018180F020D0D0A0400C0C0C0C0C0C0C03D
:101B0000C0C0C0C0C0C0080D0D0A0100F0181818F0
:101B100018180F1818181818F00803030A010A7388
:101B2000DBCEFFFFFFFFFFFFFFFFFFFFFFFFFFFF1A
:101B3000FFFFFFFFFFFFFFFFFFFFFFFFFFFFFFFFB5
:101B4000FFFFFF0000000A0010020D0D0A0400C094
:101B5000C000C0C0C0C0C0C0C0C0C0C0070C0C0A1C
:101B6000010018183C66C2C0C0C2663C1818090CB7
:101B7000180A01001E003300330030003000FC0062
:101B8000300030003000F800AD80E7000909120A8B
:101B900000018080DD807F006300630063007F00C0
:101BA000DD808080080B0B0A010081C3663C7E1833
:101BB0007E18181818020D0D0A0400C0C0C0C0C05D
:101BC000000000C0C0C0C0C0080D0D0A01003C6686
:101BD000C66078CC66331E0663663C0602020A02C3
:101BE0000BCCCC080B0B0A01003C66C3BDA5A1A51C
:101BF000BDC3663C0809090A01043E43037FC3C311
:101C00007D00FF090B160A000004800D801B0036C2
:101C1000006C00D8006C0036001B000D80048008AA
:101C200004040A0104FFFF03030601010A0206FC83
:101C3000080B0B0A01003C66C3BDA5BDA9ADC36678
:101C40003C0801010A010DFF0606060A020730786A
:101C5000CCCC78300807070A01021818FF181800C2
:101C6000FF0507070A020670D8183060C0F805079C
:101C7000070A020670D8183018D8700403030A0344
:101C80000A3060C0070A0A0A01FDC6C6C6C6C6EE0B
:101C9000FAC0C0C0080D0D0A01007FFFFBFBFB7BF3
:101CA0001B1B1B1B1B1B1B0303030A0405E0E0E0BB
:101CB0000504040A02FC3018D8700407070A02065B
:101CC00060E060606060F00709090A0104386CC6D2
:101CD000C6C66C3800FE090B160A01009000D80039
:101CE0006C0036001B000D801B0036006C00D80015
:101CF0009000080C0C0A010140C04142E408122681
:101D00004A9E0202080C0C0A010140C04142E4084C
:101D100016294182040F080C0C0A0101E01061121F
:101D2000E40812264A9F0202080D0D0A0100181845
:101D3000001818183060C3C3C3663C080F0F0A01AF
:101D40000060301800183C66C3C3C3FFC3C3C3C3DD
:101D5000080F0F0A0100060C1800183C66C3C3C325
:101D6000FFC3C3C3C3080F0F0A0100183C66001865
:101D70003C66C3C3C3FFC3C3C3C3080F0F0A01003C
:101D8000327E4C00183C66C3C3C3FFC3C3C3C30841
:101D90000F0F0A0100666600183C6666C3C3C3FFE6
:101DA000C3C3C3C30810100A01003C66663C001898
:101DB0003C66C3C3C3FFC3C3C3C3080D0D0A010000
:101DC0001F3C6C6CCCCCFFCCCCCCCCCCCF08111154
:101DD0000A01FC3C66C3C0C0C0C0C0C0C0C3663CF2
:101DE000180C6C38080F0F0A010060301800FFC093
:101DF000C0C0C0FCC0C0C0C0FF080F0F0A01000C6B
:101E0000183000FFC0C0C0C0FCC0C0C0C0FF080F79
:101E10000F0A0100183C6600FFC0C0C0C0FCC0C073
:101E2000C0C0FF080F0F0A010066660000FFC0C0B7
:101E3000C0C0FCC0C0C0C0FF060F0F0A0200603067
:101E40001800FC303030303030303030FC060F0FAE
:101E50000A020018306000FC303030303030303052
:101E600030FC060F0F0A02003078CC00FC30303016
:101E7000303030303030FC060F0F0A0200CCCC007E
:101E8000FC30303030303030303030FC090D1A0A40
:101E900000007E0063006180618061806180F98064
:101EA000618061806180618063007E00080F0F0A9D
:101EB0000100327E4C00C3E3F3F3DBDBCFCFC7C3BB
:101EC000C3080F0F0A010030180C003C66C3C3C3DF
:101ED000C3C3C3C3663C080F0F0A01000C183000CF
:101EE0003C66C3C3C3C3C3C3C3663C080F0F0A0128
:101EF00000183C66003C66C3C3C3C3C3C3C3663C8F
:101F0000080F0F0A0100327E4C003C66C3C3C3C3F6
:101F1000C3C3C3663C080F0F0A01006666003C6637
:101F2000C3C3C3C3C3C3C3C3663C0708080A0100D5
:101F300082C66C38386CC682080F0F0A01FF013E5A
:101F400066C7C7CBCBCBD3D3D3E3667C80080F0F58
:101F50000A010030180C00C3C3C3C3C3C3C3C3C347
:101F6000663C080F0F0A01000C183000C3C3C3C33E
:101F7000C3C3C3C3C3663C080F0F0A0100183C6605
:101F800000C3C3C3C3C3C3C3C3C3663C080F0F0AA4
:101F90000100666600C3C3C3C3C3C3C3C3C3C36670
:101FA0003C080F0F0A01000C183000C3C366663CE2
:101FB0003C1818181818070D0D0A0200C0C0C0FC04
:101FC000C6C6C6C6C6FCC0C0C0080D0D0A01001CAE
:101FD00036636366EC6C66636363666C080C0C0ABC
:101FE000010030180C007EC3037FC3C3C37D080CFF
:101FF0000C0A01000C1830007EC3037FC3C3C37DED
:10200000080C0C0A0100183C66007EC3037FC3C3A2
:10201000C37D080C0C0A0100327E4C007EC3037F96
:10202000C3C3C37D080B0B0A01006666007EC303B1
:102030007FC3C3C37D080D0D0A01003C66663C00EA
:102040007EC3037FC3C3C37D0808080A0100769BD3
:102050001B1E78D8D96E080C0C0A01FC3E63C0C068
:10206000C0C0633E180C6C38080C0C0A01006030CC
:1020700018003C66C3FFC0C0633E080C0C0A010098
:10208000060C18003C66C3FFC0C0633E080C0C0A77
:102090000100183C66003C66C3FFC0C0633E080BED
:1020A0000B0A01006666003C66C3FFC0C0633E08C1
:1020B0000C0C0A010060301800781818181818184D
:1020C000FF080C0C0A01000C1830007818181818BA
:1020D0001818FF080C0C0A0100183C660078181844
:1020E00018181818FF080B0B0A010066660078180C
:1020F0001818181818FF080D0D0A010088D87070FC
:10210000D88C3E67C3C3C3663C080C0C0A0100327E
:102110007E4C00DCE6C3C3C3C3C3C3080C0C0A0176
:1021200000603018003C66C3C3C3C3663C080C0C97
:102130000A0100060C18003C66C3C3C3C3663C0812
:102140000C0C0A0100183C66003C66C3C3C3C3669E
:102150003C080C0C0A0100327E4C003C66C3C3C331
:10216000C3663C080B0B0A01006666003C66C3C3ED
:10217000C3C3663C080A0A0A010118180000FFFFE1
:1021800000001818080A0A0A01FF013E66CBCBD3EB
:10219000D3667C80080C0C0A010030180C00C3C305
:1021A000C3C3C3C3673B080C0C0A0100060C18002C
:1021B000C3C3C3C3C3C3673B080C0C0A0100183C6C
:1021C0006600C3C3C3C3C3C3673B080B0B0A01004C
:1021D000666600C3C3C3C3C3C3673B0810100A01CC
:1021E000FC0C183000C3C3C3C3C3C3673B03C3663F
:1021F0003C0711110A02FCC0C0C0C0C0C0F8CCC668
:10220000C6C6CCF8C0C0C0C0080F0F0A01FC666685
:1022100000C3C3C3C3C3C3673B03C3663C5B302E69
:102220002E3630207365632E5D0054656D706F200F
:10223000636F636C65610054656D706F20636F63DD
:102240006C6561005B302E2E32333020566F6C741B
:102250005D0056656E746F6C612072697363616CAA
:1022600064616D656E746F0056656E2E20726973C1
:1022700063005B3330302E2E3238303020476972A5
:1022800069275D0056656C6F636974612076656EC1
:10229000746F6C612066756D690056656E2E2066E0
:1022A000756D69004C6976656C6C6920706F742E71
:1022B0000001050800FF060121023520FFFF07FF8E
:1022C00006FF09005022165680808080008015335A
:1022D00053A0A0A00257575050F850F85050025742
:1022E000572070A07028702013355580A040A02082
:1022F00002475740A0A040A0A050251353808080E3
:1023000012265640808080804012265680404040F1
:1023100040800245559060F060900255552020F8AD
:102320002020113353604080044151F01133534059
:10233000E04002465610102040808012365640A0E1
:10234000A0A0A04012365640C0404040E002465691
:102350006090106080F0024656F02060109060029D
:1023600046562060A0F02020024656F080E01090F3
:10237000600246566080E0909060024656F0102061
:102380002040400246566090609090600246566041
:102390009090701060122555C0C000C0C011365614
:1023A00060600060408012365620408080402003EC
:1023B0004353F000F0123656804020204080123601
:1023C0005640A020400040015858304898A8A89096
:1023D0004030024656609090F09090024656E09051
:1023E000E09090E0024656609080809060024656F1
:1023F000E090909090E0024656F080E08080F002FD
:102400004656F080E0808080024656609080B09012
:10241000600246569090F0909090123656E0404000
:102420004040E002465670202020A04002465690D0
:10243000A0C0A0A0900246568080808080F0024616
:102440005690F0F090909002465690D0F0B0B09038
:10245000024656609090909060024656E09090E060
:102460008080014757609090D0B06010024656E0DF
:102470009090E09090024656609040209060123616
:1024800056E0404040404002465690909090906008
:10249000024656909090906060024656909090F060
:1024A000F090024656909060609090025656888850
:1024B00050202020024656F010204080F012365660
:1024C000E080808080E0024656808040201010121C
:1024D0003656E020202020E016325240A001415123
:1024E000F01622528040024454709090700246567A
:1024F0008080E09090E01234546080806002465604
:1025000010107090907002445460B0C06002465643
:10251000205040E0404001455560907010600246F8
:10252000568080E09090901236564000C04040E0C7
:102530001137572000202020A0400246568080906E
:10254000E09090123656C040404040E0025454D0D3
:10255000A8A8A8024454E09090900244546090903F
:1025600060014555E090E080800145557090701005
:1025700010024454A0D0808012345460C020C002A5
:1025800046564040E04050200244549090907012D3
:102590003454A0A0A04002545488A8A85002445427
:1025A000906060900145559090709060024454F0A6
:1025B0002040F0024757304020C0204030221656BD
:1025C000808080808080024757C02040304020C0FB
:1025D00006425250A0FFFFFFFFFFFFFFFFFFFFFF7C
:1025E000FFFFFFFFFFFFFFFFFFFFFFFFFFFFFFFFFB
:1025F000FFFFFFFFFFFF090050221656800080807A
:1026000080800146562070A0A070200246562050BF
:10261000E04050A002555588705070880256568888
:1026200050F820F820221757808080008080800298
:1026300047577080E0907010E0173151A002565655
:1026400070A8C8C8A87014355560A06000E00343A6
:102650005350A050123353E02020143151E0025661
:102660005670E8D8E8D870173151E015335340A0C0
:102670004012355540E04000E014355540A0204060
:10268000E0143555C020C020C016225240800145BC
:1026900055909090E08002565678E8E86828282403
:1026A000115180112252408014355540C04040E005
:1026B00014355540A04000E0034353A050A002470A
:1026C00057808080A060F0200247578080A0D01003
:1026D000207002475780408060A0F020123656409C
:1026E000004080A04002475740206090F090900248
:1026F000475720406090F09090024757609060905C
:10270000F0909002475750A06090F0909002475789
:1027100090006090F0909002475760906090F09029
:102720009002465670A0A0F0A0B00147576090807C
:10273000809060400247574020F080E080F00247E0
:10274000572040F080E080F00247576090F080E032
:1027500080F00247579000F080E080F012375780F9
:1027600040E0404040E01237572040E0404040E029
:1027700012375740A0E0404040E0123757A000E039
:10278000404040E00256567048E8484870024757BB
:1027900050A090D0B0909002475740206090909009
:1027A00060024757204060909090600247576090C9
:1027B000609090906002475750A0609090906002A7
:1027C000475790006090909060123353A040A00251
:1027D000465670B0B0D0D0E002475740209090905D
:1027E0009060024757204090909090600247576059
:1027F00090909090906002475790009090909060D9
:102800000257571020885020202002465680E09022
:1028100090E0800246566090A0A090A002475740EA
:102820002000709090700247572040007090907088
:102830000247572050007090907002475750A000F8
:1028400070909070024656500070909070024757FA
:1028500060906070909070025454F068B0781135B8
:1028600055608080604002475740200060B0C060E3
:1028700002475720400060B0C06002475760900098
:1028800060B0C060024656500060B0C0601237575A
:10289000804000C04040E0123757204000C0404018
:1028A000E012375740A000C04040E0123656A0006A
:1028B000C04040E0024757A040A01070906002471F
:1028C0005750A000E0909090024757402000609041
:1028D0009060024757204000609090600247576028
:1028E00090006090906002475750A0006090906008
:1028F0000246569000609090601235554000E0000E
:102900004002445470B0D0E00247574020009090FD
:102910009070024757204000909090700247576097
:1029200090009090907002465690009090907001A8
:10293000485820400090907090600147578080E098
:1029400090E0808001475790009090709060FFFF6A
:10295000FFC005FFFFFFFFFFFC00003FFFFFFFFF81
:10296000E0000007FFFFFFFF80000001FFFFFFFE08
:10297000002FF8007FFFFFFC01FFFF803FFFFFF00B
:102980000FFFFFF00FFFFFE03FF7EFFC07FFFFC077
:10299000FFF7F7FE03FFFF81FF67F2FF81FFFF03F1
:1029A000FFA7E6FFC0FFFE07FF27E6FFF07FFC0F53
:1029B000FF33E47FF03FF81FDF63E67DFC1FF83F45
:1029C000BE31C67DFC1FF07FBE71873EFE0FE0FF6B
:1029D0003C71871C7F07E0FF38F0871E7F07C1FF2F
:1029E00038E1871C7F83C3FA1861870C6FC383FBB0
:1029F0001841C2085FC187FC0801C0085FC187F9A0
:102A00000803C0184FE107F9080180184FE00FF1E3
:102A10000C0000184FF00FE31C00001847F00FE304
:102A20000C000018E3F01FC30000000063F00FC7A4
:102A30000000000061F81FC30000000061F81FC023
:102A40000000000001F81FC00000000003F81FC0D4
:102A50000000000003F81FE00000000003F81FE082
:102A60000000000003F81FE00000000007F81FF05E
:102A70000000000007F00FF0A000000507F81FE0BD
:102A8000FF00007F83F00FE0FFC001FF83F00FE045
:102A90007FE007FF07F00FF03FF80FFE07F007F8A1
:102AA0001FFC1FF80FE087F807FC3FF01FE187FCD1
:102AB00001FE3F803FE183FF000000007FC1C1FFB6
:102AC00080008001FFC3C1FFF001C007FF83E1FF69
:102AD000F803C01FFF07E0FFFE03E03FFF07F07FA2
:102AE000FC03E03FFE0FF83FFC06201FFC1FF81F11
:102AF000FC00001FF81FFC0FF800000FF03FFE0F56
:102B0000F800001FE07FFF03F880010FC0FFFF8186
:102B1000FC84119F81FFFFC07EC410BE03FFFFE055
:102B20003FCC13FC07FFFFF007FEFFF00FFFFFFC99
:102B300001FFFF803FFFFFFE001FF4007FFFFFFF4C
:102B400080000001FFFFFFFFE0000007FFFF000023
:102B50000000000000000000000000000000000075
:102B60000000000000000000000000000000000065
:102B70000000000000000000000000000000000055
:102B80000000000000000000000000000000210024
:102B9000240027002A002D0030003300010100002E
:102BA000040107010A0100002200250028002B0073
:102BB0002E003100340002010000050108010B0164
:102BC000000020002300260029002C002F003200E6
:102BD00000010000030106010901050505050705BF
:102BE00008080808020202020A0A08080404040489
:102BF00001010101010101010303030303030303B5
:102C0000040707070C0C0C0C0C0C0C0C0202020243
:102C100006060606060606060B0B0B0B0B0B0B0B2C
:102C200001021020200808102040102040800201DE
:102C300002010804020101020408102040808040C3
:102C400020100804020180040201804020100804C2
:102C50000201080402010102040810204080010260
:102C600004081020408000000A0B02090C0D0E0819
:102C70000703040100000000000000000000000045
:102C80000000000000000000000000000000000044
:102C90000000121110000000000000000000000001
:102CA0000000000000000000000000000006090015
:102CB000FE070199032B20FFFE08FE07FE0000001F
:102CC00006000001070706020080808080800080E7
:102CD000030303060104A0A0A00507070600005097
:102CE00050F850F850500507070600002070A070FB
:102CF00028702005070706000048A8502050A8901B
:102D000005070706000040A0A040A8906801030343
:102D100006020480808003070706010020408080AF
:102D200080402003070706010080402020204080CB
:102D30000505050600018850F850880505050600C0
:102D4000012020F820200303030601FF60408005D6
:102D50000101060003F80303030601FF40E04005FC
:102D600007070600000808102040808005070706B6
:102D700000002050888888502005070706000020A2
:102D800060A0202020F805070706000070880830A2
:102D90004080F8050707060000F808103008887022
:102DA00005070706000010305090F81010050707BF
:102DB000060000F880B0C808887005070706000004
:102DC000304080B0C88870050707060000F808107A
:102DD000102040400507070600007088887088882A
:102DE00070050707060000708898680810600307E0
:102DF000070601FF40E0400040E0400307070601EE
:102E0000FF40E040006040800407070601001020FA
:102E10004080402010050303060002F800F8040774
:102E200007060100804020102040800507070600AB
:102E30000070881020200020050707060000708819
:102E400098A8B0807005070706000020508888F811
:102E50008888050707060000F04848704848F005D4
:102E600007070600007088808080887005070706C5
:102E70000000F04848484848F0050707060000F8F9
:102E80008080F08080F8050707060000F88080F059
:102E90008080800507070600007088808098887011
:102EA000050707060000888888F8888888030707D0
:102EB000060100E04040404040E0050707060000F2
:102EC000381010101090600507070600008890A0C9
:102ED000C0A0908805070706000080808080808061
:102EE000F80507070600008888D8A888888805079D
:102EF000070600008888C8A8988888050707060084
:102F00000070888888888870050707060000F088A8
:102F100088F08080800508080600FF70888888880F
:102F2000A87008050707060000F08888F0A09088C0
:102F3000050707060000708880700888700507077D
:102F4000060000F8202020202020050707060000AA
:102F50008888888888887005070706000088888820
:102F600050505020050707060000888888A8A8D878
:102F700088050707060000888850205088880507C4
:102F8000070600008888502020202005070706003B
:102F900000F80810204080F8030707060100E080D1
:102FA00080808080E00507070600008080402010B8
:102FB0000808030707060100E02020202020E00584
:102FC00003030600042050880501010600FFF802F3
:102FD000020206020680400505050600007008781A
:102FE00088780507070600008080B0C888C8B0054B
:102FF0000505060000708880887005070706000038
:10300000080868988898680505050600007088F823
:103010008070050707060000304840F0404040053A
:1030200007070600FE788888780888700507070675
:1030300000008080B0C88888880307070601004028
:1030400000C0404040E00409090601FE10003010B5
:10305000101090906005070706000080808890E0BF
:103060009088030707060100C04040404040E0054B
:103070000505060000D0A8A8A888050505060000DB
:10308000B0C88888880505050600007088888870A3
:103090000507070600FEB0C888C8B080800507078E
:1030A0000600FE689888986808080505050600006F
:1030B000B0C880808005050506000070807008F0AB
:1030C0000507070600004040F04040483005050570
:1030D000060000888888986805050506000088882D
:1030E0005050200505050600008888A8A850050551
:1030F0000506000088502050880507070600FE8856
:10310000889868088870050505060000F8102040BA
:10311000F8040707060100304020C02040300107B6
:1031200007060200808080808080800407070601F7
:1031300000C02040304020C005030306000448A81A
:1031400090000000010000000000010000000000ED
:10315000010000000000010000000000010000006C
:10316000000001000000000001000000000001005C
:10317000000000000100000000000100000000004D
:10318000010000000000010000000000010000003C
:10319000000001000000000001000000000001002C
:1031A000000000000100000000000100000000001D
:1031B000010000000000010000000000010000000C
:1031C00000000100000000000100000000000100FC
:1031D00000000000010000000000010000000000ED
:1031E00001000000000001000000000001000000DC
:1031F00000000100000000000100000000000100CC
:1032000000000000010000000000060000010707A8
:10321000060200800080808080800507070600FF8E
:103220002078A0A0A07820050707060000304840BD
:10323000E04048B00505050600008870507088051C
:1032400008080600FF88885020F820202001070782
:10325000060200808080008080800508080600FF4C
:103260007080E09048380870030101060107A0054E
:1032700007070600007088A8C8A88870040606061C
:1032800001017090B05000F00605050600002448CA
:10329000904824040202060102F010040101060114
:1032A00003F00507070600007088E8C8C8887005A5
:1032B0000101060007F803030306010440A04005CE
:1032C00006060600002020F82020F8040505060167
:1032D0000360902040F0040505060103E010601033
:1032E000E002020206020640800506060600FF888C
:1032F0008888C8B08005070706000078E8E86828D5
:103300002828010101060203800202020602FE4093
:103310008003050506010340C04040E004060606A0
:1033200001016090906000F00605050600009048DD
:103330002448900609090600FF40C04040E40C14F0
:103340003C040609090600FF40C04040E814040898
:103350001C0509090600FFC0204020C8182878086D
:103360000507070600002000202040887005080897
:103370000600004020708888F88888050808060044
:10338000001020708888F88888050808060000204A
:1033900050708888F8888805080806000048B070D2
:1033A0008888F8888805080806000050007088881A
:1033B000F888880508080600002050708888F8887A
:1033C000880607070600003C50909CF0909C050979
:1033D000090600FE708880808088702040050808FB
:1033E00006000040F88080F08080F805080806009C
:1033F0000010F88080F08080F805080806000020A2
:10340000F88080F08080F805080806000050F880F9
:1034100080F08080F80308080601008040E040400A
:103420004040E00308080601002040E040404040E2
:10343000E003080806010040A0E040404040E003EF
:103440000808060100A000E040404040E0050707F2
:10345000060000F04848E84848F005080806000063
:10346000285088C8A89888880508080600004020C9
:103470007088888888700508080600001020708809
:1034800088888870050808060000205070888888A1
:1034900088700508080600002850708888888870A1
:1034A00005080806000050007088888888700505A7
:1034B00005060000885020508805070706000070A8
:1034C0009898A8C8C8700508080600004020888899
:1034D0008888887005080806000010208888888879
:1034E00088700508080600002050008888888870C9
:1034F000050808060000500088888888887005083C
:1035000008060000102088885020202005070706A4
:10351000000080F088F080808005070706000070BA
:103520008890A09088B00508080600004020007030
:1035300008788878050808060000102000700878D0
:103540008878050808060000205000700878887800
:1035500005080806000028500070087888780507DC
:1035600007060000500070087888780508080600F3
:10357000002050207008788878060505060000783D
:10358000147C907C0507070600FE708880887020F8
:10359000400508080600004020007088F88070058B
:1035A00008080600001020007088F88070050808E0
:1035B0000600002050007088F8807005070706009C
:1035C0000050007088F880700308080601008040F1
:1035D00000C0404040E0030808060100408000C0F1
:1035E000404040E003080806010040A000C0404001
:1035F00040E0060A0A0600FEA4A800FC8480808041
:1036000084FC060A0A0600FE549400FC84040404A8
:1036100084FC050808060000285000B0C888888887
:103620000508080600004020007088888870040A99
:103630000A0602FE30408090909090909090040A8C
:103640000A0600FEC020109090909090909006077F
:1036500007060001448C8C8480403C060707060066
:103660000188C4C4840408F0050505060001200093
:10367000F8002005080806000040F0C888889878FF
:1036800010050808060000E0F88888888888F80592
:1036900005050600012030F8302005080806000066
:1036A0002070F820202020E00509090600FF207086
:1036B000A8A8B8888850200509090600FFE080C046
:1036C000B0A8A83028280509090600FFF8A88888AE
:1036D000888888A8F8050A0A0600FE205050505035
:1036E00088A8A88870536572766963650050617216
:1036F000616D657472690047756172646100088468
:1037000011241FBECFEFD1E2DEBFCDBF00E00CBF62
:1037100013E0A0E0B2E0E0EEF5E101E00BBF02C093
:1037200007900D92AC3FB107D9F729E0ACEFB3E0B9
:1037300001C01D92A530B207E1F71BE1C0E8DBE153
:1037400000E006C021970109802FFE010E94AA8790
:10375000CF37D10780E00807A9F70E94FD790C94C4
:10376000EE8A0C9400003F924F925F926F927F928C
:103770008F929F92AF92BF92CF92DF92EF92FF9281
:103780000F931F93CF93DF934091E1065091E20690
:103790006091E3067091E406413080E858076105C6
:1037A000710510F00C948F2BDB01CA01B695A7951B
:1037B00097958795C09100040C2F10E020E030E031
:1037C00080179107A207B30718F480930004C82F4D
:1037D000D0E0BAE0EB2EF12C14E6C12ED12C07E795
:1037E000402E03E0502E81EA682E83E0782E97E188
:1037F000892E912CA12CB12CC1118FC08091170260
:10380000882309F454C0423051056105710508F45C
:103810007FC281E08093B9061092D0068D2F90E090
:103820000196982F990F890F880F880F8093D106E2
:1038300060E285E996E00E94F742EAEDF3E06491E8
:10384000662311F40C949F2BA1E13A2E0AED13E0AC
:1038500001C0382E85E996E00E94F7420F5F1F4FA6
:103860008FEF830DF80164916111F3CF1EEF130DFB
:1038700007C060E285E996E00E94F742812F11506F
:103880008111F7CF6BEF85E996E00E94F74260E285
:1038900085E996E00E94F74281E08093B906409165
:1038A000E1065091E2066091E3067091E406809192
:1038B000E606811114C180910C041092E60682FF85
:1038C0000BC08091E506811107C0423051056105AA
:1038D000710510F40C94A22B483151056105710556
:1038E00008F005C1DB01CA01B695A79597958795A4
:1038F000E82F2091000430E02C5F3F4F2817390754
:103900000CF00DC1CCEFCE0FC093000481E080938A
:103910001702D0E0CC2309F471CFC13009F016C1F1
:1039200080911702882309F47AC076956795579598
:10393000479520910D0430910E04413051056105E9
:10394000710509F461C2243631050CF4F3C1C901D3
:10395000B6010E945987CB01B7010E945987805D4B
:1039600080931C05ECE1F5E0C901B7010E9459877D
:10397000CB01B7010E945987805D80931D05C90165
:10398000B7010E945987805D80931E0510921F0524
:1039900001900020E9F73197EC51F54081E1382E94
:1039A0003E1A1092D0068D2F90E00196982F990F15
:1039B000890F880F880F8093D10660E285E996E031
:1039C0000E94F742E0EDF3E06491662361F08F011D
:1039D00085E996E00E94F7420F5F1F4F3A94F80185
:1039E00064916111F5CF6AE385E996E00E94F742A0
:1039F00006C060E285E996E00E94F7423A943110F1
:103A0000F8CF6CE175E085E996E00E947D77409102
:103A1000E1065091E2066091E3067091E406809120
:103A2000E60681115CC080910C041092E60682FFCC
:103A300053CF8091E50681114FCFDB01CA01B695C6
:103A4000A795979587950197A105B10509F044CFF2
:103A50000E94E566809115029091160290932705C9
:103A6000809326058091E1069091E20690932505CA
:103A70008093240582E08093170280E898E7909372
:103A80001602809315028AEB93E090932B058093A6
:103A90002A058CEA93E090932D0580932C058DE008
:103AA00094E0909329058093280510923205109296
:103AB0003305109234051092350584E893E0A0E0B8
:103AC000B0E080932E0590932F05A0933005B0931E
:103AD000310580910D0490910E040C945E27109294
:103AE000E606483151056105710508F4FBCE809268
:103AF000E1069092E206A092E306B092E4068BE023
:103B000090E0EBE047E150E060E070E020910004DD
:103B100030E02C5F3F4F281739070CF4F3CEDF5FFE
:103B2000CF5FD53008F468CEDF91CF911F910F9110
:103B3000FF90EF90DF90CF90BF90AF909F908F90CD
:103B40007F906F905F904F903F900895C23009F042
:103B5000BBC180911702882309F47AC076956795D6
:103B60005795479520911B0430911C044230510514
:103B70006105710509F4E8C0243631050CF4D0C0A4
:103B8000C901B6010E945987CB01B7010E9459872C
:103B9000805D80931C05ECE1F5E0C901B7010E944E
:103BA0005987CB01B7010E945987805D80931D051D
:103BB000C901B7010E945987805D80931E0510924C
:103BC0001F0501900020E9F73197EC51F54081E1A4
:103BD000382E3E1A1092D0068D2F90E00196982F25
:103BE000990F890F880F880F8093D10660E285E9CD
:103BF00096E00E94F742F3016491662369F001EABE
:103C000013E085E996E00E94F7420F5F1F4F3A9458
:103C1000F80164916111F5CF6AE385E996E00E94AD
:103C2000F74206C060E285E996E00E94F7423A94C6
:103C30003110F8CF6CE175E085E996E00E947D7760
:103C40004091E1065091E2066091E3067091E4062E
:103C50008091E606811143CF80910C041092E60614
:103C600082FF3ACE8091E506811136CEDB01CA0192
:103C7000B695A795979587950297A105B10509F087
:103C80002BCE0E94E56680911502909116029093CA
:103C90002705809326058091E1069091E206909396
:103CA00025058093240582E08093170280E898E739
:103CB00090931602809315028FE893E090932B0562
:103CC00080932A0581E893E090932D0580932C053D
:103CD0008BE194E09093290580932805109232059A
:103CE00010923305109234051092350584E893E064
:103CF000A0E0B0E080932E0590932F05A0933005AF
:103D0000B093310580911B0490911C040C945E27A4
:103D10002BEF4BEF6AED73E08D2F0E947F5DBFCDDF
:103D2000ECE1F5E080E280931C052A3031050CF4CB
:103D30003DCF33CFECE1F5E080E280931C052A30E3
:103D400031050CF41ACE10CE2436310514F40C943F
:103D5000292BC901B6010E945987CB01B7010E94E6
:103D60005987805D80931C05ECE1F5E0C901B7013E
:103D70000E945987CB01B7010E945987805D8093CB
:103D80001D05C901B7010E945987805D80931E05FA
:103D900010921F0501900020E9F73197EC51F54092
:103DA00081E1382E3E1A1092D0068D2F90E00196B8
:103DB000982F990F890F880F880F8093D1066EE393
:103DC00085E996E00E94F742F3016491662369F069
:103DD00001EA13E085E996E00E94F7420F5F1F4F6A
:103DE0003A94F80164916111F5CF6AE385E996E0B0
:103DF0000E94F74206C060E285E996E00E94F74221
:103E00003A943110F8CF16CF2436310514F40C94BF
:103E10001D2BC901B6010E945987CB01B7010E9431
:103E20005987805D80931C05ECE1F5E0C901B7017D
:103E30000E945987CB01B7010E945987805D80930A
:103E40001D05C901B7010E945987805D80931E0539
:103E500010921F0501900020E9F73197EC51F540D1
:103E600081E1382E3E1A1092D0068D2F90E00196F7
:103E7000982F990F890F880F880F8093D1066EE3D2
:103E800085E996E00E94F742E0EDF3E06491662355
:103E900061F08F0185E996E00E94F7420F5F1F4FA6
:103EA0003A94F80164916111F5CF6AE385E996E0EF
:103EB0000E94F74206C060E285E996E00E94F74260
:103EC0003A943110F8CF9DCDC33009F0E0C0809115
:103ED0001702882309F47CC0769567955795479516
:103EE0002091190430911A04433051056105710580
:103EF00011F40C9483282436310514F40C947F2794
:103F0000C901B6010E945987CB01B7010E945987A8
:103F1000805D80931C05ECE1F5E0C901B7010E94CA
:103F20005987CB01B7010E945987805D80931D0599
:103F3000C901B7010E945987805D80931E051092C8
:103F40001F0501900020E9F73197EC51F54081E120
:103F5000382E3E1A1092D0068D2F90E00196982FA1
:103F6000990F890F880F880F8093D10660E285E949
:103F700096E00E94F742F2016491662369F007E738
:103F800013E085E996E00E94F7420F5F1F4F3A94D5
:103F9000F80164916111F5CF6AE385E996E00E942A
:103FA000F74206C060E285E996E00E94F7423A9443
:103FB0003110F8CF6CE175E085E996E00E947D77DD
:103FC0004091E1065091E2066091E3067091E406AB
:103FD0008091E606811183CD80910C041092E60653
:103FE00082FF7ACC8091E506811176CCDB01CA0193
:103FF000B695A795979587950397A105B10509F003
:104000006BCC0E94E5668091150290911602909308
:104010002705809326058091E1069091E206909312
:1040200025058093240582E08093170280E898E7B5
:10403000909316028093150285E693E090932B05EA
:1040400080932A0587E593E090932D0580932C05B6
:1040500089E194E090932905809328051092320518
:1040600010923305109234051092350584E893E0E0
:10407000A0E0B0E080932E0590932F05A09330052B
:10408000B09331058091190490911A0417C7C43078
:1040900009F0DEC080911702882309F47AC0769572
:1040A000679557954795209111043091120444303B
:1040B00051056105710509F4C7C7243631050CF4B3
:1040C00014C7C901B6010E945987CB01B7010E94EC
:1040D0005987805D80931C05ECE1F5E0C901B701CB
:1040E0000E945987CB01B7010E945987805D809358
:1040F0001D05C901B7010E945987805D80931E0587
:1041000010921F0501900020E9F73197EC51F5401E
:1041100081E1382E3E1A1092D0068D2F90E0019644
:10412000982F990F890F880F880F8093D10660E22E
:1041300085E996E00E94F742EDE4F3E0649166239E
:1041400061F08F0185E996E00E94F7420F5F1F4FF3
:104150003A94F80164916111F5CF6AE385E996E03C
:104160000E94F74206C060E285E996E00E94F742AD
:104170003A943110F8CF6CE175E085E996E00E9441
:104180007D774091E1065091E2066091E3067091DF
:10419000E4068091E6068111A2CC80910C04109275
:1041A000E60682FF99CB8091E506811195CBDB0174
:1041B000CA01B695A795979587950497A105B1056E
:1041C00009F08ACB0E94E566809115029091160253
:1041D00090932705809326058091E1069091E20651
:1041E000909325058093240582E08093170280E850
:1041F00098E790931602809315028DE393E09093D5
:104200002B0580932A058FE293E090932D058093F0
:104210002C0581E194E09093290580932805109264
:10422000320510923305109234051092350584E85A
:1042300093E0A0E0B0E080932E0590932F05A0932B
:104240003005B0933105809111049091120436C667
:10425000C53009F0DEC080911702882309F47AC0C6
:10426000769567955795479520910F0430911004E6
:10427000453051056105710509F487C624363105BD
:104280000CF429C6C901B6010E945987CB01B701B8
:104290000E945987805D80931C05ECE1F5E0C9011F
:1042A000B7010E945987CB01B7010E945987805DF1
:1042B00080931D05C901B7010E945987805D8093D5
:1042C0001E0510921F0501900020E9F73197EC516F
:1042D000F54081E1382E3E1A1092D0068D2F90E0E5
:1042E0000196982F990F890F880F880F8093D10618
:1042F00060E285E996E00E94F742E1E2F3E0649132
:10430000662361F08F0185E996E00E94F7420F5F16
:104310001F4F3A94F80164916111F5CF6AE385E982
:1043200096E00E94F74206C060E285E996E00E94AE
:10433000F7423A943110F8CF6CE175E085E996E0E8
:104340000E947D774091E1065091E2066091E3067C
:104350007091E4068091E6068111C1CB80910C0436
:104360001092E60682FFB8CA8091E5068111B4CAB0
:10437000DB01CA01B695A795979587950597A10585
:10438000B10509F0A9CA0E94E566809115029091D5
:10439000160290932705809326058091E10690915F
:1043A000E206909325058093240582E0809317020E
:1043B00080E898E790931602809315028FEF92E0C1
:1043C00090932B0580932A0581EF92E090932D0521
:1043D00080932C058FE094E0909329058093280525
:1043E0001092320510923305109234051092350563
:1043F00084E893E0A0E0B0E080932E0590932F0531
:10440000A0933005B093310580910F049091100472
:1044100055C5C63009F0DEC080911702882309F423
:104420007AC0769567955795479520911F043091EE
:104430002004463051056105710509F4C4C62436CF
:1044400031050CF47AC5C901B6010E945987CB0128
:10445000B7010E945987805D80931C05ECE1F5E06F
:10446000C901B7010E945987CB01B7010E94598742
:10447000805D80931D05C901B7010E945987805D49
:1044800080931E0510921F0501900020E9F73197D7
:10449000EC51F54081E1382E3E1A1092D0068D2F56
:1044A00090E00196982F990F890F880F880F8093BD
:1044B000D10660E285E996E00E94F742E7EEF2E07D
:1044C0006491662361F08F0185E996E00E94F742CE
:1044D0000F5F1F4F3A94F80164916111F5CF6AE3C1
:1044E00085E996E00E94F74206C060E285E996E021
:1044F0000E94F7423A943110F8CF6CE175E085E9FB
:1045000096E00E947D774091E1065091E20660912D
:10451000E3067091E4068091E6068111E0CA80917D
:104520000C041092E60682FFD7C98091E50681113E
:10453000D3C9DB01CA01B695A795979587950697CC
:10454000A105B10509F0C8C90E94E5668091150270
:104550009091160290932705809326058091E1069D
:104560009091E206909325058093240582E0809344
:10457000170280E898E7909316028093150287ED62
:1045800092E090932B0580932A0589EC92E090931A
:104590002D0580932C058FE194E09093290580935D
:1045A00028051092320510923305109234051092AE
:1045B000350584E893E0A0E0B0E080932E05909369
:1045C0002F05A0933005B093310580911F04909181
:1045D000200474C4C73009F0DEC08091170288231C
:1045E00009F47AC076956795579547952091FC0315
:1045F0003091FD03473051056105710509F400C78D
:10460000243631050CF48FC4C901B6010E945987C4
:10461000CB01B7010E945987805D80931C05ECE1B6
:10462000F5E0C901B7010E945987CB01B7010E948B
:104630005987805D80931D05C901B7010E94598784
:10464000805D80931E0510921F0501900020E9F700
:104650003197EC51F54081E1382E3E1A1092D00688
:104660008D2F90E00196982F990F890F880F880F52
:104670008093D10660E285E996E00E94F742EBEB79
:10468000F2E06491662361F08F0185E996E00E9473
:10469000F7420F5F1F4F3A94F80164916111F5CF13
:1046A0006AE385E996E00E94F74206C060E285E988
:1046B00096E00E94F7423A943110F8CF6CE175E031
:1046C00085E996E00E947D774091E1065091E206EF
:1046D0006091E3067091E4068091E6068111FFC9BE
:1046E00080910C041092E60682FFF6C88091E506E0
:1046F0008111F2C8DB01CA01B695A79597958795F8
:104700000797A105B10509F0E7C80E94E566809109
:1047100015029091160290932705809326058091AB
:10472000E1069091E206909325058093240582E0AE
:104730008093170280E898E7909316028093150201
:104740008BEA92E090932B0580932A058DE992E005
:1047500090932D0580932C058CEF93E09093290581
:10476000809328051092320510923305109234057B
:104770001092350584E893E0A0E0B0E080932E0528
:1047800090932F05A0933005B09331058091FC03E1
:104790009091FD0393C3C83009F0DFC080911702E8
:1047A000882309F47AC076956795579547952091A7
:1047B0008F0430919004483051056105710509F46A
:1047C000C0C5243631050CF4A4C3C901B6010E944A
:1047D0005987CB01B7010E945987805D80931C05E2
:1047E000ECE1F5E0C901B7010E945987CB01B7019F
:1047F0000E945987805D80931D05C901B7010E9401
:104800005987805D80931E0510921F05019000203E
:10481000E9F73197EC51F54081E1382E3E1A1092BC
:10482000D0068D2F90E00196982F990F890F880F51
:10483000880F8093D10660E285E996E00E94F742F6
:10484000E1E9F2E06491662361F08F0185E996E089
:104850000E94F7420F5F1F4F3A94F8016491611173
:10486000F5CF6AE385E996E00E94F74206C060E270
:1048700085E996E00E94F7423A943110F8CF6CE156
:1048800075E085E996E00E947D774091E1065091C0
:10489000E2066091E3067091E4068091E6068111DC
:1048A0001EC980910C041092E60682FD01C014C856
:1048B0008091E506811110C8DB01CA01B695A79564
:1048C000979587950897A105B10509F005C80E943D
:1048D000E5668091150290911602909327058093CA
:1048E00026058091E1069091E2069093250580933C
:1048F000240582E08093170280E898E790931602DF
:104900008093150282E792E090932B0580932A050D
:1049100084E692E090932D0580932C058FE894E037
:104920009093290580932805109232051092330543
:10493000109234051092350584E893E0A0E0B0E0D1
:1049400080932E0590932F05A0933005B0933105E9
:1049500080918F0490919004B1C2C93009F0E2C0F7
:1049600080911702882309F47AC076956795579548
:10497000479520914B0430914C0449305105610515
:10498000710509F47FC4243631050CF4E0C2C90175
:10499000B6010E945987CB01B7010E945987805DFB
:1049A00080931C05ECE1F5E0C901B7010E9459872D
:1049B000CB01B7010E945987805D80931D05C90115
:1049C000B7010E945987805D80931E0510921F05D4
:1049D00001900020E9F73197EC51F54081E1382E44
:1049E0003E1A1092D0068D2F90E00196982F990FC5
:1049F000890F880F880F8093D10660E285E996E0E1
:104A00000E94F742E6E5F2E06491662361F08F01CF
:104A100085E996E00E94F7420F5F1F4F3A94F80134
:104A200064916111F5CF6AE385E996E00E94F7424F
:104A300006C060E285E996E00E94F7423A943110A0
:104A4000F8CF6CE175E085E996E00E947D774091B2
:104A5000E1065091E2066091E3067091E4068091D0
:104A6000E60681113CC880910C041092E60682FD96
:104A700002C00C946C1C8091E50681110C946C1C96
:104A8000DB01CA01B695A795979587950997A1056A
:104A9000B10511F00C946C1C0E94E5668091150222
:104AA0009091160290932705809326058091E10648
:104AB0009091E206909325058093240582E08093EF
:104AC000170280E898E7909316028093150286E318
:104AD00092E090932B0580932A0588E292E09093D0
:104AE0002D0580932C058BE494E090932905809309
:104AF0002805109232051092330510923405109259
:104B0000350584E893E0A0E0B0E080932E05909313
:104B10002F05A0933005B093310580914B049091FF
:104B20004C04CCC1CA3009F0E3C08091170288233D
:104B300009F47AC0769567955795479520912B048F
:104B400030912C044A3051056105710509F416C5F0
:104B5000243631050CF40FC2C901B6010E945987F1
:104B6000CB01B7010E945987805D80931C05ECE161
:104B7000F5E0C901B7010E945987CB01B7010E9436
:104B80005987805D80931D05C901B7010E9459872F
:104B9000805D80931E0510921F0501900020E9F7AB
:104BA0003197EC51F54081E1382E3E1A1092D00633
:104BB0008D2F90E00196982F990F890F880F880FFD
:104BC0008093D10660E285E996E00E94F742E9E130
:104BD000F2E06491662361F08F0185E996E00E941E
:104BE000F7420F5F1F4F3A94F80164916111F5CFBE
:104BF0006AE385E996E00E94F74206C060E285E933
:104C000096E00E94F7423A943110F8CF6CE175E0DB
:104C100085E996E00E947D774091E1065091E20699
:104C20006091E3067091E4068091E60681110C9490
:104C30006F1D80910C041092E60682FD02C00C9458
:104C40006C1C8091E50681110C946C1CDB01CA017F
:104C5000B695A795979587950A97A105B10511F087
:104C60000C946C1C0E94E5668091150290911602CE
:104C700090932705809326058091E1069091E206A6
:104C8000909325058093240582E08093170280E8A5
:104C900098E790931602809315028AE092E0909331
:104CA0002B0580932A058CEF91E090932D0580933E
:104CB0002C058BE294E090932905809328051092AF
:104CC000320510923305109234051092350584E8B0
:104CD00093E0A0E0B0E080932E0590932F05A09381
:104CE0003005B093310580912B0490912C04E6C0DF
:104CF000CB3011F00C946C1C80911702882309F4BE
:104D00007AC07695679557954795209147043091DD
:104D100048044B3051056105710509F4D0C32436B0
:104D200031050CF41EC1C901B6010E945987CB019F
:104D3000B7010E945987805D80931C05ECE1F5E086
:104D4000C901B7010E945987CB01B7010E94598759
:104D5000805D80931D05C901B7010E945987805D60
:104D600080931E0510921F0501900020E9F73197EE
:104D7000EC51F54081E1382E3E1A1092D0068D2F6D
:104D800090E00196982F990F890F880F880F8093D4
:104D9000D10660E285E996E00E94F742EDEEF1E08F
:104DA0006491662361F08F0185E996E00E94F742E5
:104DB0000F5F1F4F3A94F80164916111F5CF6AE3D8
:104DC00085E996E00E94F74206C060E285E996E038
:104DD0000E94F7423A943110F8CF6CE175E085E912
:104DE00096E00E947D774091E1065091E206609145
:104DF000E3067091E4068091E60681110C946F1D24
:104E000080910C041092E60682FD02C00C946C1C8A
:104E10008091E50681110C946C1CDB01CA01B695EA
:104E2000A795979587950B97A105B10511F00C945F
:104E30006C1C0E94E5668091150290911602909379
:104E40002705809326058091E1069091E2069093D4
:104E500025058093240582E08093170280E898E777
:104E6000909316028093150288ED91E090932B05A4
:104E700080932A058AEC91E090932D0580932C0570
:104E800087E494E0909329058093280510923205D9
:104E900010923305109234051092350584E893E0A2
:104EA000A0E0B0E080932E0590932F05A0933005ED
:104EB000B09331058091470490914804092E000C6D
:104EC000AA0BBB0B8093E1069093E206A093E30646
:104ED000B093E40647C4ECE1F5E080E280931C0562
:104EE0002A3031050CF4E4C9DAC9ECE1F5E080E2DE
:104EF00080931C052A3031050CF4F9C8EFC8ECE1A9
:104F0000F5E080E280931C052A3031050CF40EC8D0
:104F100004C8ECE1F5E080E280931C052A303105FD
:104F20000CF469CC5FCCECE1F5E080E280931C05E9
:104F30002A3031050CF47ECB74CBECE1F5E080E255
:104F400080931C052A3031050CF493CA89CAECE120
:104F5000F5E080E280931C052A3031050CF42DCD5C
:104F600023CDECE1F5E080E280931C052A30310589
:104F70000CF4EFCEE5CEECE1F5E080E280931C0589
:104F80002A3031050CF4FECDF4CD243631050CF475
:104F9000A8C3C901B6010E945987CB01B7010E947D
:104FA0005987805D80931C05ECE1F5E0C901B701EC
:104FB0000E945987CB01B7010E945987805D809379
:104FC0001D05C901B7010E945987805D80931E05A8
:104FD00010921F0501900020E9F73197EC51F54040
:104FE00081E1382E3E1A1092D0068D2F90E0019666
:104FF000982F990F890F880F880F8093D1066EE341
:1050000085E996E00E94F742E1E2F3E064916623CD
:1050100061F08F0185E996E00E94F7420F5F1F4F14
:105020003A94F80164916111F5CF6AE385E996E05D
:105030000E94F74206C060E285E996E00E94F742CE
:105040003A943110F8CF78C9243631050CF417C3DF
:10505000C901B6010E945987CB01B7010E94598747
:10506000805D80931C05ECE1F5E0C901B7010E9469
:105070005987CB01B7010E945987805D80931D0538
:10508000C901B7010E945987805D80931E05109267
:105090001F0501900020E9F73197EC51F54081E1BF
:1050A000382E3E1A1092D0068D2F90E00196982F40
:1050B000990F890F880F880F8093D1066EE385E9D9
:1050C00096E00E94F742EDE4F3E06491662361F01C
:1050D0008F0185E996E00E94F7420F5F1F4F3A94D7
:1050E000F80164916111F5CF6AE385E996E00E94C9
:1050F000F74206C060E285E996E00E94F7423A94E2
:105100003110F8CF38C8243631050CF4AEC2C901CD
:10511000B6010E945987CB01B7010E945987805D73
:1051200080931C05ECE1F5E0C901B7010E945987A5
:10513000CB01B7010E945987805D80931D05C9018D
:10514000B7010E945987805D80931E0510921F054C
:1051500001900020E9F73197EC51F54081E1382EBC
:105160003E1A1092D0068D2F90E00196982F990F3D
:10517000890F880F880F8093D1066EE385E996E04A
:105180000E94F742F2016491662369F007E713E099
:1051900085E996E00E94F7420F5F1F4F3A94F801AD
:1051A00064916111F5CF6AE385E996E00E94F742C8
:1051B00006C060E285E996E00E94F7423A94311019
:1051C000F8CF0C94DA1F243631050CF480C2C901E3
:1051D000B6010E945987CB01B7010E945987805DB3
:1051E00080931C05ECE1F5E0C901B7010E945987E5
:1051F000CB01B7010E945987805D80931D05C901CD
:10520000B7010E945987805D80931E0510921F058B
:1052100001900020E9F73197EC51F54081E1382EFB
:105220003E1A1092D0068D2F90E00196982F990F7C
:10523000890F880F880F8093D1066EE385E996E089
:105240000E94F742E7EEF2E06491662361F08F017D
:1052500085E996E00E94F7420F5F1F4F3A94F801EC
:1052600064916111F5CF6AE385E996E00E94F74207
:1052700006C060E285E996E00E94F7423A94311058
:10528000F8CF3BC9243631050CF417C2C901B60169
:105290000E945987CB01B7010E945987805D809396
:1052A0001C05ECE1F5E0C901B7010E945987CB016B
:1052B000B7010E945987805D80931D05C901B70120
:1052C0000E945987805D80931E0510921F050190F2
:1052D0000020E9F73197EC51F54081E1382E3E1A74
:1052E0001092D0068D2F90E00196982F990F890F7C
:1052F000880F880F8093D1066EE385E996E00E94BF
:10530000F742E6E5F2E06491662361F08F0185E9FA
:1053100096E00E94F7420F5F1F4F3A94F8016491A4
:105320006111F5CF6AE385E996E00E94F74206C075
:1053300060E285E996E00E94F7423A943110F8CF96
:1053400080CB243631050CF4AEC1C901B6010E94F0
:105350005987CB01B7010E945987805D80931C0556
:10536000ECE1F5E0C901B7010E945987CB01B70113
:105370000E945987805D80931D05C901B7010E9475
:105380005987805D80931E0510921F0501900020B3
:10539000E9F73197EC51F54081E1382E3E1A109231
:1053A000D0068D2F90E00196982F990F890F880FC6
:1053B000880F8093D1066EE385E996E00E94F7425C
:1053C000E1E9F2E06491662361F08F0185E996E0FE
:1053D0000E94F7420F5F1F4F3A94F80164916111E8
:1053E000F5CF6AE385E996E00E94F74206C060E2E5
:1053F00085E996E00E94F7423A943110F8CF3FCA0F
:10540000243631050CF445C1C901B6010E94598703
:10541000CB01B7010E945987805D80931C05ECE1A8
:10542000F5E0C901B7010E945987CB01B7010E947D
:105430005987805D80931D05C901B7010E94598776
:10544000805D80931E0510921F0501900020E9F7F2
:105450003197EC51F54081E1382E3E1A1092D0067A
:105460008D2F90E00196982F990F890F880F880F44
:105470008093D1066EE385E996E00E94F742EBEB5C
:10548000F2E06491662361F08F0185E996E00E9465
:10549000F7420F5F1F4F3A94F80164916111F5CF05
:1054A0006AE385E996E00E94F74206C060E285E97A
:1054B00096E00E94F7423A943110F8CFFFC82436A4
:1054C00031050CF422C1C901B6010E945987CB01F4
:1054D000B7010E945987805D80931C05ECE1F5E0DF
:1054E000C901B7010E945987CB01B7010E945987B2
:1054F000805D80931D05C901B7010E945987805DB9
:1055000080931E0510921F0501900020E9F7319746
:10551000EC51F54081E1382E3E1A1092D0068D2FC5
:1055200090E00196982F990F890F880F880F80932C
:10553000D1066EE385E996E00E94F742EDEEF1E0D8
:105540006491662361F08F0185E996E00E94F7423D
:105550000F5F1F4F3A94F80164916111F5CF6AE330
:1055600085E996E00E94F74206C060E285E996E090
:105570000E94F7423A943110F8CF2FCC24363105EF
:105580000CF4B9C0C901B6010E945987CB01B7011B
:105590000E945987805D80931C05ECE1F5E0C9010C
:1055A000B7010E945987CB01B7010E945987805DDE
:1055B00080931D05C901B7010E945987805D8093C2
:1055C0001E0510921F0501900020E9F73197EC515C
:1055D000F54081E1382E3E1A1092D0068D2F90E0D2
:1055E0000196982F990F890F880F880F8093D10605
:1055F0006EE385E996E00E94F742E9E1F2E064910A
:10560000662361F08F0185E996E00E94F7420F5F03
:105610001F4F3A94F80164916111F5CF6AE385E96F
:1056200096E00E94F74206C060E285E996E00E949B
:10563000F7423A943110F8CFE9CAECE1F5E080E2A4
:1056400080931C052A30310514F40C941F1F0C9410
:10565000161FECE1F5E080E280931C052A3031054D
:1056600014F40C94BF1E0C94B61EECE1F5E080E23D
:1056700080931C052A3031050CF45FCD55CDECE14B
:10568000F5E080E280931C052A3031050CF4F6CC5D
:10569000ECCCECE1F5E080E280931C052A3031058A
:1056A0000CF4C8CEBECEECE1F5E080E280931C05A0
:1056B0002A3031050CF45FCE55CEECE1F5E080E206
:1056C00080931C052A3031050CF4F6CDECCDECE1CD
:1056D000F5E080E280931C052A3031050CF48DCD75
:1056E00083CDECE1F5E080E280931C052A303105A2
:1056F0000CF465CC5BCCECE1F5E080E280931C051A
:105700002A3031050CF454CF4ACFECE1F5E080E2C9
:1057100080931C052A3031050CF4EBCEE1CE1092BB
:10572000E1061092E2061092E3061092E40680E091
:1057300090E0DC0140E050E0BA010C94DA1B10E18B
:105740000C94391C0E94E56686EF93E5909316024F
:10575000809315021092E1061092E2061092E30681
:105760001092E40681E08093E6060C94941D3F922B
:105770004F925F926F927F928F929F92AF92BF9261
:10578000CF92DF92EF92FF920F931F93CF93DF930D
:105790004091E1065091E2066091E3067091E406C3
:1057A000413080E858076105710510F00C9471379D
:1057B000DB01CA01B695A7959795879510910004CE
:1057C000C12ED12CE12CF12C8C159D05AE05BF0509
:1057D00018F480930004182F00E0BAE0EB2EF12CAF
:1057E000C4E6CC2ED12CDEE44D2ED5E05D2E8BE52B
:1057F000682E85E0782E91E1892E912CA12CB12C78
:1058000011118DC080911702882309F452C04230D3
:1058100051056105710508F479C281E08093B906EC
:105820001092D006802F90E00196982F990F890F43
:10583000880F880F8093D10660E285E996E00E9488
:10584000F742F3016491662311F40C948137A1E1CE
:105850003A2ECBE5D5E001C0382E85E996E00E94CE
:10586000F74221968FEF830DFE0164916111F4CF11
:10587000CEEFC30D07C060E285E996E00E94F742D3
:105880008C2FC1508111F7CF6BEF85E996E00E9414
:10589000F74260E285E996E00E94F74281E080935A
:1058A000B9064091E1065091E2066091E3067091DD
:1058B000E4068091E606811112C180910C041092D9
:1058C000E60682FF0BC08091E506811107C04230D9
:1058D00051056105710510F40C948437423151056E
:1058E0006105710508F003C1DB01CA01B695A795F2
:1058F00097958795E82F2091000430E02C5F3F4F6B
:10590000281739070CF00BC11CEF1E0F1093000471
:1059100081E08093170200E0112309F473CF113066
:1059200009F014C180911702882309F479C0769593
:105930006795579547952091910430919204413095
:1059400051056105710509F45CC2243631050CF47A
:10595000EFC1C901B6010E945987CB01B7010E946E
:105960005987805D80931C05ECE1F5E0C901B70122
:105970000E945987CB01B7010E945987805D8093AF
:105980001D05C901B7010E945987805D80931E05DE
:1059900010921F0501900020E9F73197EC51F54076
:1059A00081E1382E3E1A1092D006802F90E00196A9
:1059B000982F990F890F880F880F8093D10660E286
:1059C00085E996E00E94F742F2016491662361F056
:1059D000CEE4D5E085E996E00E94F74221963A941C
:1059E000FE0164916111F6CF6AE385E996E00E94B9
:1059F000F74206C060E285E996E00E94F7423A94D9
:105A00003110F8CF6CE175E085E996E00E947D7772
:105A10004091E1065091E2066091E3067091E40640
:105A20008091E60681115BC080910C041092E6061D
:105A300082FF54CF8091E506811150CFDB01CA016E
:105A4000B695A795979587950197A105B10509F09A
:105A500045CF0E94E56680911502909116029093C1
:105A60002705809326058091E1069091E2069093A8
:105A700025058093240582E08093170280E898E74B
:105A8000909316028093150281E495E090932B0584
:105A900080932A0585E395E090932D0580932C054E
:105AA00081E994E0909329058093280510923205AE
:105AB0001092330510923405109235058AEF90E06C
:105AC000A0E0B0E080932E0590932F05A0933005C1
:105AD000B0933105809191049091920431C7109256
