:100000000C946C1E0C94D05F0C94A55F0C947A5FDA
:100010000C944F5F0C94245F0C94F95E0C94CE5EAC
:100020000C94A35E0C949D1E0C949D1E0C949D1E1E
:100030000C949D1E0C949D1E0C949D1E0C949D1E54
:100040000C949D1E0C949D1E0C949D1E0C949D1E44
:100050000C949D1E0C949D1E0C949D1E0C94595E38
:100060000C949D1E0C94475D0C941E5D0C949D1E7B
:100070000C949D1E0C949D1E0C949D1E0C949D1E14
:100080000C94623E0C949D1E0C949D1E0C949D1E1F
:100090000C949D1E0C949D1E0C949D1E0C94FB5F55
:1000A0000C949D1E0C949D1E0C94CD3D0C949D1E95
:1000B0000C949D1E0C949D1E0C949D1E0C949D1ED4
:1000C0000C949D1E0C949D1E0C949D1E0C949D1EC4
:1000D0000C949D1E0C949D1E0C949D1E0C949D1EB4
:1000E0000C949D1EEA39D8313B39DF393B393B3915
:1000F0003B393B393B393B393B393B393B393B3960
:100100003B393B393B393B393B393B393B393B394F
:100110003B393B393B393B393B393B393B393B393F
:10012000D9393B393B393B393B393B393B393B3991
:100130003B396B393B393B393B393B393B393B39EF
:100140003B393B393B393B39FF39FA39574E444E3D
:10015000314E1E4E0B4EF84DE54DD24DBF4DAC4DC0
:10016000994DAA4CEE5BF15BE05BE45BEA5B285CDB
:10017000F55BF95BFF5B035C075C0D5C115C155C78
:10018000285C1B5C1F5C235C08000000BE922449B5
:10019000123EABAAAA2ABECDCCCC4C3E00000080B9
:1001A000BEABAAAAAA3E00000000BF000000803F2C
:1001B0000000000000084178D3BB4387D1133D19EC
:1001C0000E3CC3BD4282AD2B3E68EC8276BED98F19
:1001D000E1A93E4C80EFFFBE01C4FF7F3F0000005D
:1001E00000005B302E2E393030207365632E5D00A9
:1001F00050756C697A696120737065676E696D65A9
:100200006E746F0050756C697A69612073706567F0
:100210006E2E005B302E2E393030207365632E5DDC
:1002200000507265737065676E696D656E746F00FE
:10023000507265737065676E696D656E746F005B93
:10024000302E2E393030207365632E5D0044757278
:1002500061746120737065672E207374616E6462CF
:100260007900537065672E207374616E6462790043
:100270005B302E2E393030207365632E5D0044755F
:10028000726174612070756C2E20706572696F6484
:10029000696361004475726174612070756C2E0031
:1002A0005B302E2E393030207365632E5D00506533
:1002B00072696F646F2070756C697A69610050654E
:1002C00072692E2070756C697A6961005B302E2E20
:1002D000393030207365632E5D0053746162696C40
:1002E000697A7A617A696F6E650053746162696CCC
:1002F000697A2E005B302E2E393030207365632EE4
:100300005D004D61782074656D706F206163636579
:100310006E73696F6E65004D61782074656D706FE6
:1003200020616363005B302E2E39303020736563AB
:100330002E5D004163656E73696F6E65206669733B
:10034000736100416363206669737361005B302EE3
:100350002E393030207365632E5D00507265636105
:100360007269636F2070656C6C65747300507265A0
:1003700063617269636F005B302E2E3930302073F9
:1003800065632E5D0050726572697363616C646FA2
:100390002063616E642E005072652E2063616E646E
:1003A0002E005B302E2E393030207365632E5D00B9
:1003B00050756C697A2E20696E2020616363656ECA
:1003C00073696F6E650050756C2E206163632E003B
:1003D000506172616D6574726900496D706F7374FC
:1003E000617A2E2064656661756C74004361726980
:1003F000636120646120454550524F4D0053616C4C
:10040000766120696E20454550524F4D004F66661B
:10041000004F6E20004F6666004F6E2000436F63F2
:100420006C6561004F6666004F6E20004F66660087
:100430004F6E200043616E64656C65747461005B8F
:10044000302E2E32333020566F6C745D0056656E40
:10045000746F6C612072697363616C64616D656E49
:10046000746F0056656E2E2072697363005B302EC8
:100470002E323830302047697269275D0056656C2E
:100480006F636974612076656E746F6C6120667548
:100490006D690056656E2E2066756D69004D656E3E
:1004A00075207072696E636970616C65004C697665
:1004B000656C6C6F2036004C6976656C6C6F20350E
:1004C000004C6976656C6C6F2034004C6976656C05
:1004D0006C6F2033004C6976656C6C6F2032004C79
:1004E0006976656C6C6F203100506172616D657466
:1004F00072690000091200FC0A01E803D720FFFD21
:100500000EFD0BFD00000009000E010B0B0904009D
:100510008080808080808000008080040404090343
:100520000790909090080A0A090000242424FF24D0
:1005300024FF242424070B0B0901FF107C92905008
:10054000381412927C10070A0A09010042A4A44838
:100550001010244A4A84070A0A090100609090900A
:10056000606294889462010404090407808080809A
:10057000030C0C0903FF2040408080808080804075
:100580004020030C0C0903FF804040202020202045
:100590002040408007070709010310925438549205
:1005A00010070707090101101010FE1010100204B7
:1005B000040904FEC0C04080070101090104FE02D5
:1005C0000202090400C0C0070A0A0901000204046B
:1005D00008101020404080070A0A090100384482B0
:1005E00082828282824438070A0A09010010305050
:1005F000901010101010FE070A0A090100384482FA
:10060000020408102040FE070A0A090100FE020445
:1006100008180402028478070A0A090100040C146D
:10062000244484FE040404070A0A090100FE8080B1
:1006300080F80402028478070A0A0901003C40801D
:1006400080B8C482824438070A0A090100FE020405
:1006500004080810101010070A0A09010038448223
:1006600044384482824438070A0A09010038448227
:1006700082463A02020478020707090400C0C0005B
:100680000000C0C00209090904FEC0C0000000C08B
:10069000C040800509090902000810204080402060
:1006A0001008070404090102FE0000FE05090909FB
:1006B0000200804020100810204080070A0A09012B
:1006C0000038448202040810100010070A0A0901C9
:1006D0000038449AAAAAAAAA9C403C070A0A09011F
:1006E0000010282828447C44828282070A0A0901D3
:1006F00000F8848284F884828284F8070A0A090157
:10070000003C42808080808080423C070A0A0901C8
:1007100000F88482828282828284F8070A0A0901B0
:1007200000FE808080F880808080FE070A0A090130
:1007300000FE808080F88080808080070A0A09019E
:100740000038448280808E82824438070A0A090178
:100750000082828282FE8282828282050A0A0902E5
:1007600000F82020202020202020F8070A0A090174
:10077000003E080808080808888870070A0A090166
:100780000082848890A0D088848282070A0A0901A6
:1007900000808080808080808080FE070A0A0901B6
:1007A000008282C6AA928282828282070A0A090194
:1007B000008282C2A2928A86828282070A0A090184
:1007C000007C82828282828282827C070A0A0901FC
:1007D00000F884828284F880808080080B0B0901F5
:1007E000FF384482828282828A443A01070A0A09D7
:1007F0000100F884828284F890888482070A0A09BA
:1008000001007C8280807C020202827C070A0A0945
:100810000100FE101010101010101010070A0A0925
:10082000010082828282828282824438070A0A0917
:10083000010082828244444428282810070A0A09B9
:1008400001008282828292929292AA44070A0A0945
:10085000010082824428101028448282070A0A0973
:10086000010082824428101010101010070A0A0993
:100870000100FE0204081020408080FE040C0C09D8
:1008800003FFF080808080808080808080F0070A75
:100890000A09010080404020101008040402040CE2
:1008A0000C0902FFF010101010101010101010F0B2
:1008B000070404090106102844820801010900FF09
:1008C000FF03030309030A8040200707070901000B
:1008D0007C02027E82867A070A0A090100808080F3
:1008E000BCC2828282C2BC0707070901007C8280E9
:1008F0008080827C070A0A0901000202027A86824D
:100900008282867A0707070901007C8282FE808244
:100910007C070A0A0901001C22222020F82020203E
:1009200020070A0A0901FD7A84848478807C828207
:100930007C070A0A090100808080BCC28282828210
:1009400082050A0A090200600000E0202020202021
:10095000F8050D0D0902FD18000038080808080800
:1009600008888870070A0A090100808080848890BE
:10097000B0C88482050A0A090200E0202020202055
:10098000202020F8070707090100EC92929292922A
:1009900082070707090100BCC282828282820707A0
:1009A000070901007C82828282827C070A0A09018F
:1009B000FDB8C4828282C4B8808080070A0A090117
:1009C000FD3A46828282463A02020207070709017F
:1009D000009C6242404040400707070901007C82BA
:1009E000807C02827C0709090901002020FC20206C
:1009F0002020221C0707070901008282828282864A
:100A00007A07070709010082824444282810070753
:100A1000070901008282929292AA440707070901FE
:100A20000082442810284482070A0A0901FD424234
:100A30002424241818109060070707090100FE04F9
:100A400008102040FE060B0B0902001C202020206D
:100A5000C0202020201C010C0C0904FF8080808015
:100A60008080808080808080060B0B090100E01070
:100A70001010100C10101010E0070303090107629A
:100A8000928CFFFFFFFFFFFFFFFFFFFFFFFFFFFF56
:100A9000FFFFFFFFFFFFFFFFFFFFFFFFFFFFFFFF66
:100AA000FFFFFF00000009000E010B0B090400808E
:100AB0008000008080808080808006080809010016
:100AC00008789490A0A47840070A0A0901001C2223
:100AD0002020F8202060A25C070606090103827C22
:100AE00044447C82070A0A090100828244287C105F
:100AF0007C101010010B0B0904FF808080808000A7
:100B00008080808080040B0B0902FF6090806090E1
:100B100090906010906003020209030BA0A00809E6
:100B2000090900013C4299A5A1A599423C05070786
:100B3000090103609070907800F807080809010126
:100B40001224489090482412060404090102FC046F
:100B50000404050101090204F80809090900013C1F
:100B600042B9A5BDA9A5423C060101090109FC0441
:100B70000404090306609090600709090901011047
:100B80001010FE10101000FE04060609010460900B
:100B9000106080F004060609010460902010906047
:100BA00003030309030A2040800709090901FE82A3
:100BB00082828282C6BA8080070A0A0901007E8A80
:100BC0008A8A7A0A0A0A0A0A020202090404C0C0CE
:100BD0000403030902FD2090600306060901044096
:100BE000C0404040E0050606090104708888700096
:100BF000F8070808090101904824121224489007B8
:100C00000A0A09010040C0404042E60A121A0607DB
:100C10000A0A09010040C040404CF2020C101E07B5
:100C20000A0A0901006090201092660A121A06074B
:100C30000A0A0901001000101020408082827C07FF
:100C40000E0E0901002010080010282828447C44BA
:100C5000828282070E0E0901000810200010282849
:100C600028447C44828282070E0E09010010284429
:100C70000010282828447C44828282070D0D090137
:100C80000034580010282828447C44828282070DB2
:100C90000D09010028280010282828447C4482825D
:100CA00082070E0E09010010282810102828284459
:100CB0007C44828282070A0A0901001E2828284EE5
:100CC000784888888E070D0D0901FD3C42808080A0
:100CD000808080423C082418070E0E090100201075
:100CE0000800FE808080F880808080FE070E0E095C
:100CF000010008102000FE808080F880808080FE47
:100D0000070E0E09010010284400FE808080F88044
:100D1000808080FE070D0D090100282800FE8080DC
:100D200080F880808080FE050E0E090200402010B1
:100D300000F82020202020202020F8050E0E090297
:100D40000010204000F82020202020202020F8053E
:100D50000E0E09020020508800F8202020202020BC
:100D60002020F8050D0D090200505000F820202029
:100D70002020202020F8070A0A0901007844424276
:100D8000F24242424478070D0D09010034580082B6
:100D900082C2A2928A86828282070E0E09010020F8
:100DA0001008007C82828282828282827C070E0E00
:100DB000090100081020007C828282828282828265
:100DC0007C070E0E090100102844007C828282827A
:100DD000828282827C070D0D0901003458007C82DA
:100DE000828282828282827C070D0D09010028287E
:100DF000007C82828282828282827C0707070901CC
:100E00000182442810284482070C0C0901FF027C4F
:100E1000868A8A9292A2A2C27C80070E0E090100E5
:100E20002010080082828282828282824438070EE9
:100E30000E09010008102000828282828282828252
:100E40004438070E0E090100102844008282828275
:100E5000828282824438070D0D0901002828008211
:100E6000828282828282824438070E0E0901000843
:100E700010200082824428101010101010070A0A57
:100E80000901008080FC828282FC808080060A0A40
:100E900009010038444448D04844444458070B0BE7
:100EA000090100201008007C02027E82867A070B6E
:100EB0000B090100081020007C02027E82867A075E
:100EC0000B0B090100102844007C02027E82867A06
:100ED000070A0A0901003458007C02027E82867AE1
:100EE000070A0A0901002828007C02027E82867A0D
:100EF000070C0C09010010282810007C02027E82D9
:100F0000867A0707070901006C12127E90926C071F
:100F10000A0A0901FD7C82808080827C10483007AB
:100F20000B0B090100201008007C8282FE80827C6D
:100F3000070B0B090100081020007C8282FE8082D2
:100F40007C070B0B090100102844007C8282FE8084
:100F5000827C070A0A0901002828007C8282FE8020
:100F6000827C050C0C0902008040200000E020205B
:100F7000202020F8050C0C0902001020400000E0A1
:100F80002020202020F8050C0C09020020508800A9
:100F900000E02020202020F8050B0B090200505013
:100FA0000000E02020202020F8070B0B090100485A
:100FB0003050083C448282824438070A0A09010002
:100FC000345800BCC28282828282070B0B09010066
:100FD000201008007C82828282827C070B0B090130
:100FE00000081020007C82828282827C070B0B0921
:100FF0000100102844007C82828282827C070A0AD7
:101000000901003458007C82828282827C070A0AAD
:101010000901002828007C82828282827C070909DB
:1010200009010010381000FE0010381007090909E6
:1010300001FF027C8A8A92A2A27C80070B0B090125
:1010400000402010008282828282867A070B0B0980
:101050000100081020008282828282867A070B0BB0
:10106000090100102844008282828282867A070A5F
:101070000A0901002828008282828282867A070E6D
:101080000E0901FD040810004242242424181810FF
:101090009060070B0B0901FE8080B8C4828282C475
:1010A000B88080070D0D0901FD242400424224244C
:1010B00024181810906000060900FE06018902FE3F
:1010C00020FFFE07FE06FE000000060007010606E0
:1010D000060200808080800080030303060103A0D5
:1010E000A0A00507070600FF5050F850F850500523
:1010F00009090600FE2070A8A07028A87020060824
:10110000080600FF40A848102048540805070706B5
:1011100000FF6090906098906801030306020380CE
:1011200080800207070602FF4080808080804002A6
:1011300007070602FF804040404040800505050645
:1011400000008850F850880505050600002020F8AA
:1011500020200204040602FEC04040800501010672
:101160000002F8020202060200C0C00406060601E0
:101170000010102040808004060606010060909058
:1011800090906003060606010040C0404040E00425
:1011900006060601006090102040F00406060601D5
:1011A00000F020601010E005060606000010305028
:1011B00090F810040606060100F080E01010E0042C
:1011C00006060601006080E09090600406060601B5
:1011D00000F01010204040040606060100609060F8
:1011E0009090600406060601006090907010600206
:1011F0000505060200C0C000C0C00207070602FEC7
:10120000C0C000C040408005050506000018608091
:101210006018050303060001F800F805050506003F
:1012200000C0300830C0040707060100609010605D
:101230004000400506060600007090A8B0807005CA
:101240000606060000205088F88888050606060075
:1012500000F088F08888F00406060601006090809F
:10126000809060040606060100E090909090E004F3
:101270000606060100F080E08080F0040606060104
:1012800000F080E080808004060606010060908007
:10129000B090600406060601009090F090909003D4
:1012A0000606060100E040404040E0050606060054
:1012B0000038101010906004060606010090A0C0CF
:1012C000A090900406060601008080808080F005D2
:1012D000060606000088D8A8A88888040606060125
:1012E0000090D0B0909090050606060000708888A7
:1012F000888870040606060100E09090E080800473
:1013000007070601FF609090D0B060100406060643
:101310000100E09090E090900406060601006090C5
:1013200040209060050606060000F82020202020BE
:101330000406060601009090909090600406060650
:101340000100909090F06060050606060000888815
:10135000A8A8D888050606060000885020205088D6
:101360000506060600008888502020200406060690
:101370000100F010204080F0030606060100E08026
:10138000808080E004060606010080804020101066
:10139000030606060100E020202020E005030306E6
:1013A00000032050880501010600FEF80202020633
:1013B000020480400404040601007090907004064A
:1013C000060601008080E09090E00404040601001D
:1013D00070808070040606060100101070909070F6
:1013E00004040406010060B0C07004060606010093
:1013F000205040E040400406060601FE60909070D8
:1014000010600406060601008080E09090900306BC
:10141000060601004000C04040E00308080601FE47
:10142000200060202020A0400406060601008080E5
:10143000A0C0A090030606060100C040404040E066
:10144000050404060000D0A8A888040404060100CE
:10145000E0909090040404060100609090600406FF
:10146000060601FEE09090E080800406060601FE7C
:10147000709090701010040404060100A0D08080C9
:1014800004040406010070C030E0040606060100F2
:101490004040E04050200404040601009090907009
:1014A0000404040601009090606005040406000036
:1014B00088A8A85004040406010090606090040607
:1014C000060601FE909090709060040404060100EE
:1014D000F02040F003070706010020404080404014
:1014E000200107070602FF8080808080808003073C
:1014F00007060100804040204040800402020601AF
:101500000350A0FFFFFFFFFFFFFFFFFFFFFFFFFFF5
:10151000FFFFFFFFFFFFFFFFFFFFFFFFFFFFFFFFDB
:10152000FFFFFFFF0000000600070106060602009D
:101530008000808080800406060601FF2070A0A045
:1015400070200507070600FF304840F04040F805CE
:101550000505060000A8508850A8050606060000EC
:101560008850F820F8200107070602FF80808000DD
:101570008080800407070601FF708060906010E0A3
:10158000030101060105A006070706000078849400
:10159000A494847803050506010160A06000E005BD
:1015A00005050600002850A050280403030601008A
:1015B000F01010040101060102F006070706000002
:1015C0007884B4A4A48478040101060105F004031E
:1015D000030601026090600507070600FF2020F85F
:1015E000202000F803050506010140A02040E0038B
:1015F0000505060101C0204020C0020202060204C7
:1016000040800405050601FF9090B0D080050606D5
:1016100006000078E8E86828280101010602028037
:101620000202020602FE408003050506010140C0D9
:101630004040E003050506010140A04000E005052B
:1016400005060000A0502850A00508080600FF402D
:10165000C04050703078100508080600FF40C040B8
:1016600050680810380508080600FFC0204030F018
:101670003078100407070601002000206080906089
:1016800005070706000040202050708888050707DE
:10169000060000102020507088880507070600000B
:1016A0002050205070888805070706000028502029
:1016B0005070888805070706000050002050708889
:1016C000880507070600002050205070888805060E
:1016D0000606000078A0F0A0A0B80408080601FEE5
:1016E0006090808090602040040707060100402041
:1016F000F080E080F00407070601002040F080E061
:1017000080F00407070601002050F080E080F0041C
:1017100007070601005000F080E080F0030707068D
:1017200001008040E0404040E00307070601002040
:1017300040E0404040E003070706010040A0E040D1
:101740004040E0030707060100A000E0404040E001
:101750000506060600007048E848487004070706BA
:10176000010050A090D0B0909004070706010040FF
:101770002060909090600407070601002040609070
:1017800090906004070706010020506090909060E0
:1017900004070706010050A06090909060040707BE
:1017A000060100500060909090600505050600005D
:1017B00088502050880408080601FF1070B0B0D08F
:1017C000D0E08004070706010040209090909060D0
:1017D00004070706010020409090909060040707DE
:1017E00006010020509090909060040707060100C9
:1017F0005000909090906005070706000010208828
:101800005020202004060606010080E09090E08031
:101810000406060601006090A0A090A00407070639
:10182000010040200070909070040707060100201E
:10183000400070909070040707060100205000706F
:1018400090907004070706010050A00070909070FF
:101850000406060601005000709090700407070609
:101860000100205020709090700504040600007064
:10187000A8B0780406060601FE708080702040043F
:10188000070706010040200060B0C070040707068B
:10189000010020400060B0C070040707060100206E
:1018A000500060B0C070040606060100500060B031
:1018B000C070030707060100804000C04040E003FD
:1018C0000707060100204000C04040E0030707066C
:1018D000010040A000C04040E0030606060100A051
:1018E00000C04040E004070706010030601070901F
:1018F000906004070706010050A000E0909090045B
:10190000070706010040200060909060040707066A
:10191000010020400060909060040707060100204D
:1019200050006090906004070706010050A000601E
:1019300090906004060606010050006090906005DB
:1019400005050600002000F800200404040601003C
:1019500070B0D0E00407070601004020009090908E
:101960007004070706010020400090909070040763
:1019700007060100205000909090700406060601B2
:10198000005000909090700409090601FE2040006C
:101990009090907090600408080601FE8080E090AE
:1019A00090E080800408080601FE5000909090703E
:1019B0009060B02000416D6269656E2E00B020001D
:1019C00046756D690050756C697A7A696100426C80
:1019D0006F63636F00537065676E696D656E746FDA
:1019E000005369637572657A7A61005374616E643D
:1019F0002D6279005269737061726D696F004E6F6C
:101A0000726D616C6500322720616363656E736976
:101A10006F6E650053746162696C697A7A617A6984
:101A20006F6E6500416363656E73696F6E65004339
:101A30006865636B2D7570005370656E746F000080
:101A40000A1400FC0D024A049920FFFC10FC0DFC56
:101A50000000000A0010020D0D0A0400C0C0C0C042
:101A6000C0C0C0C0C0C000C0C00604040A0209CC87
:101A7000CCCC48090B160A01011B001B001B007F80
:101A800080360036003600FF006C006C006C0008E9
:101A90000D0D0A0100187EDBD8D8D87E1B1B1BDB7E
:101AA0007E18090C180A01007300DB00DE007600C6
:101AB0000C000C001800180037003D806D80670096
:101AC000090D1A0A010038006C006C006C007800E7
:101AD00030007000D800CD80C700C600EF007980CC
:101AE0000205050A0408C0C0C0C080050D0D0A0328
:101AF0000018306060C0C0C0C0C060603018050D04
:101B00000D0A0200C0603030181818181830306004
:101B1000C00807070A010366663CFF3C66660807C3
:101B2000070A0103181818FF1818180403030A03FA
:101B3000FF7070E00801010A0106FF0303030A04B5
:101B400000E0E0E0070C0C0A020006060C0C181876
:101B500030306060C0C0080D0D0A0100183C666698
:101B6000C3C3C3C3C366663C18080D0D0A01001841
:101B70003878D81818181818181818FF080D0D0AF2
:101B800001003C66C3C30303061C3060C0C0FF08ED
:101B90000D0D0A01003C66C3C303061C0603C3C344
:101BA000663C080D0D0A010002060E1E3666C6C60A
:101BB000FF06060606080D0D0A0100FFC0C0C0C0E2
:101BC000DCE6030303C3663C080D0D0A01003C6616
:101BD000C2C0C0DCE6C3C3C3C3663C080D0D0A0126
:101BE00000FF030306060C0C181830306060080D67
:101BF0000D0A01003C66C3C3C3663C66C3C3C3662B
:101C00003C080D0D0A01003C66C3C3C3C3673B0318
:101C10000343663C0308080A0400E0E000000000FB
:101C2000E0E00409090A03FF707000000000707012
:101C3000E0070D0D0A010002060C183060C060308C
:101C4000180C06020806060A0103FF00000000FF48
:101C5000070D0D0A020080C06030180C060C183009
:101C600060C080080D0D0A01003C66C3C3C3060CAA
:101C7000181818001818080D0D0A01003C66C3CF8B
:101C8000DFDBDBDBDECCC0633E080D0D0A01001894
:101C90003C6666C3C3C3FFC3C3C3C3C3080D0D0AF9
:101CA0000100F8CCC6C6C6CCFCC6C3C3C3C6FC087C
:101CB0000D0D0A01003C66C3C0C0C0C0C0C0C0C397
:101CC000663C080D0D0A0100FCC6C3C3C3C3C3C3F1
:101CD000C3C3C3C6FC080D0D0A0100FFC0C0C0C0CD
:101CE000C0FCC0C0C0C0C0FF080D0D0A0100FFC08D
:101CF000C0C0C0C0FCC0C0C0C0C0C0080D0D0A013B
:101D0000003C66C3C0C0C0CFC3C3C3C3673D080D9A
:101D10000D0A0100C3C3C3C3C3C3FFC3C3C3C3C34B
:101D2000C3080D0D0A0100FF181818181818181804
:101D3000181818FF090D1A0A01001F800600060076
:101D4000060006000600060006000600C600C600E3
:101D50006C003800080D0D0A0100C3C3C6C6CCCC08
:101D6000F8CCCCC6C6C3C3080D0D0A0100C0C0C064
:101D7000C0C0C0C0C0C0C0C0C0FF080D0D0A010077
:101D8000C3C3E7E7FFDBDBDBDBC3C3C3C3080D0D66
:101D90000A0100C3E3E3F3F3DBDBCFCFC7C7C3C361
:101DA000080D0D0A01003C66C3C3C3C3C3C3C3C34C
:101DB000C3663C080D0D0A0100FCC6C3C3C3C3C6FD
:101DC000FCC0C0C0C0C0080E0E0A01FF3C66C3C301
:101DD000C3C3C3C3C3DBCF663E03080D0D0A0100B6
:101DE000FCC6C3C3C3C3C6FCCCC6C6C3C3080D0D63
:101DF0000A01003C66C3C0C0603C060303C3663CE6
:101E0000080D0D0A0100FF181818181818181818CE
:101E1000181818080D0D0A0100C3C3C3C3C3C3C3F8
:101E2000C3C3C3C3663C080D0D0A0100C3C3C3C3CB
:101E30006666663C3C3C181818080D0D0A0100C384
:101E4000C3C3C3C3DBDBDBDBE7E7C3C3080D0D0A9A
:101E50000100C3C366663C3C183C3C6666C3C308CD
:101E60000D0D0A0100C3C366663C3C18181818180B
:101E70001818080D0D0A0100FF0303060C0C18309A
:101E80003060C0C0FF060D0D0A0200FCC0C0C0C01B
:101E9000C0C0C0C0C0C0C0FC070C0C0A0200C0C05B
:101EA0006060303018180C0C0606060D0D0A020092
:101EB000FC0C0C0C0C0C0C0C0C0C0C0CFC08040496
:101EC0000A0109183C66C30901020A01FFFF8004E8
:101ED00003030A030AC060300808080A01003E63D1
:101EE000037FC3C3C37D080D0D0A0100C0C0C0C07D
:101EF000C0DCE6C3C3C3C3E6DC0808080A01003E31
:101F000063C0C0C0C0633E080D0D0A010003030397
:101F100003033B67C3C3C3C3673B0808080A010048
:101F20003C66C3FFC0C0633E080D0D0A01001E33AE
:101F3000333030FC30303030303030080C0C0A0197
:101F4000FC7DC7C6C6C67CC07EC3C3C37E080D0D5C
:101F50000A0100C0C0C0C0C0DCE6C3C3C3C3C3C362
:101F6000080B0B0A01001818007818181818181810
:101F7000FF070F0F0A02FC0606001E0606060606ED
:101F80000606C6C6C67C080D0D0A0100C0C0C0C04A
:101F9000C0C6CCD8F0F8CCC6C3080D0D0A01007835
:101FA0001818181818181818181818FF0808080A08
:101FB0000100B6FFDBDBDBDBDBDB0808080A010026
:101FC000DCE6C3C3C3C3C3C30808080A01003C66F8
:101FD000C3C3C3C3663C080C0C0A01FCDCE6C3C3E4
:101FE000C3C3E6DCC0C0C0C0080C0C0A01FC3B67E0
:101FF000C3C3C3C3673B030303030808080A010004
:10200000DE736060606060600808080A01007EC3DB
:10201000C07E0303C37E080B0B0A0100303030FC86
:102020003030303030331E0808080A0100C3C3C303
:10203000C3C3C3673B0808080A0100C3C366663C04
:102040003C18180808080A0100C3C3C3DBDBDBFF28
:10205000660808080A0100C3663C18183C66C308F5
:102060000C0C0A01FCC3C3C3C3C3C3673B03C366F1
:102070003C0708080A0200FE060C183060C0FE0883
:102080000D0D0A01000F1818181818F01818181854
:10209000180F020D0D0A0400C0C0C0C0C0C0C0C0EF
:1020A000C0C0C0C0C0080D0D0A0100F018181818F3
:1020B000180F1818181818F00803030A010A73DB20
:1020C000CEFFFFFFFFFFFFFFFFFFFFFFFFFFFFFF51
:1020D000FFFFFFFFFFFFFFFFFFFFFFFFFFFFFFFF10
:1020E000FFFF0000000A0010020D0D0A0400C0C02E
:1020F00000C0C0C0C0C0C0C0C0C0C0070C0C0A0136
:102100000018183C66C2C0C0C2663C1818090C18FA
:102110000A01001E003300330030003000FC0030A4
:102120000030003000F800AD80E7000909120A0015
:10213000018080DD807F006300630063007F00DD3D
:10214000808080080B0B0A010081C3663C7E187EEC
:1021500018181818020D0D0A0400C0C0C0C0C00035
:102160000000C0C0C0C0C0080D0D0A01003C66C61A
:102170006078CC66331E0663663C0602020A020BD8
:10218000CCCC080B0B0A01003C66C3BDA5A1A5BDC4
:10219000C3663C0809090A01043E43037FC3C37DAB
:1021A00000FF090B160A000004800D801B0036009A
:1021B0006C00D8006C0036001B000D800480080401
:1021C000040A0104FFFF03030601010A0206FC08DA
:1021D0000B0B0A01003C66C3BDA5BDA9ADC3663C9F
:1021E0000801010A010DFF0606060A02073078CC35
:1021F000CC78300807070A01021818FF181800FFEA
:102200000507070A020670D8183060C0F8050707EE
:102210000A020670D8183018D8700403030A030A9B
:102220003060C0070A0A0A01FDC6C6C6C6C6EEFA75
:10223000C0C0C0080D0D0A01007FFFFBFBFB7B1B2C
:102240001B1B1B1B1B1B0303030A0405E0E0E0052B
:1022500004040A02FC3018D8700407070A0206605A
:10226000E060606060F00709090A0104386CC6C6C6
:10227000C66C3800FE090B160A01009000D8006CED
:102280000036001B000D801B0036006C00D800904B
:1022900000080C0C0A010140C04142E40812264A21
:1022A0009E0202080C0C0A010140C04142E40816DB
:1022B000294182040F080C0C0A0101E0106112E4AC
:1022C0000812264A9F0202080D0D0A010018180084
:1022D0001818183060C3C3C3663C080F0F0A01000A
:1022E00060301800183C66C3C3C3FFC3C3C3C30830
:1022F0000F0F0A0100060C1800183C66C3C3C3FF89
:10230000C3C3C3C3080F0F0A0100183C6600183C82
:1023100066C3C3C3FFC3C3C3C3080F0F0A010032A0
:102320007E4C00183C66C3C3C3FFC3C3C3C3080FBE
:102330000F0A0100666600183C6666C3C3C3FFC38C
:10234000C3C3C30810100A01003C66663C00183C79
:1023500066C3C3C3FFC3C3C3C3080D0D0A01001F77
:102360003C6C6CCCCCFFCCCCCCCCCCCF0811110AC3
:1023700001FC3C66C3C0C0C0C0C0C0C0C3663C183E
:102380000C6C38080F0F0A010060301800FFC0C045
:10239000C0C0FCC0C0C0C0FF080F0F0A01000C186D
:1023A0003000FFC0C0C0C0FCC0C0C0C0FF080F0FDD
:1023B0000A0100183C6600FFC0C0C0C0FCC0C0C01D
:1023C000C0FF080F0F0A010066660000FFC0C0C012
:1023D000C0FCC0C0C0C0FF060F0F0A02006030186A
:1023E00000FC303030303030303030FC060F0F0A17
:1023F000020018306000FC30303030303030303087
:10240000FC060F0F0A02003078CC00FC3030303070
:102410003030303030FC060F0F0A0200CCCC00FC0C
:1024200030303030303030303030FC090D1A0A0096
:10243000007E0063006180618061806180F980615D
:102440008061806180618063007E00080F0F0A0157
:1024500000327E4C00C3E3F3F3DBDBCFCFC7C3C353
:10246000080F0F0A010030180C003C66C3C3C3C339
:10247000C3C3C3663C080F0F0A01000C1830003CB0
:1024800066C3C3C3C3C3C3C3663C080F0F0A0100BE
:10249000183C66003C66C3C3C3C3C3C3C3663C08E1
:1024A0000F0F0A0100327E4C003C66C3C3C3C3C396
:1024B000C3C3663C080F0F0A01006666003C66C392
:1024C000C3C3C3C3C3C3C3663C0708080A01008271
:1024D000C66C38386CC682080F0F0A01FF013E66D1
:1024E000C7C7CBCBCBD3D3D3E3667C80080F0F0A0F
:1024F000010030180C00C3C3C3C3C3C3C3C3C36646
:102500003C080F0F0A01000C183000C3C3C3C3C33B
:10251000C3C3C3C3663C080F0F0A0100183C660022
:10252000C3C3C3C3C3C3C3C3C3663C080F0F0A01FD
:1025300000666600C3C3C3C3C3C3C3C3C3C3663C8F
:10254000080F0F0A01000C183000C3C366663C3C3C
:102550001818181818070D0D0A0200C0C0C0FCC6D4
:10256000C6C6C6C6FCC0C0C0080D0D0A01001C3698
:10257000636366EC6C66636363666C080C0C0A014B
:102580000030180C007EC3037FC3C3C37D080C0C4E
:102590000A01000C1830007EC3037FC3C3C37D084B
:1025A0000C0C0A0100183C66007EC3037FC3C3C342
:1025B0007D080C0C0A0100327E4C007EC3037FC3F1
:1025C000C3C37D080B0B0A01006666007EC3037F50
:1025D000C3C3C37D080D0D0A01003C66663C007E46
:1025E000C3037FC3C3C37D0808080A0100769B1B91
:1025F0001E78D8D96E080C0C0A01FC3E63C0C0C01E
:10260000C0633E180C6C38080C0C0A0100603018CE
:10261000003C66C3FFC0C0633E080C0C0A01000604
:102620000C18003C66C3FFC0C0633E080C0C0A01D6
:1026300000183C66003C66C3FFC0C0633E080B0B3D
:102640000A01006666003C66C3FFC0C0633E080C1A
:102650000C0A01006030180078181818181818FFB4
:10266000080C0C0A01000C183000781818181818FB
:1026700018FF080C0C0A0100183C6600781818189E
:10268000181818FF080B0B0A010066660078181866
:1026900018181818FF080D0D0A010088D87070D896
:1026A0008C3E67C3C3C3663C080C0C0A0100327E33
:1026B0004C00DCE6C3C3C3C3C3C3080C0C0A01004F
:1026C000603018003C66C3C3C3C3663C080C0C0AE8
:1026D0000100060C18003C66C3C3C3C3663C080C6B
:1026E0000C0A0100183C66003C66C3C3C3C3663CC9
:1026F000080C0C0A0100327E4C003C66C3C3C3C305
:10270000663C080B0B0A01006666003C66C3C3C347
:10271000C3663C080A0A0A010118180000FFFF00FE
:10272000001818080A0A0A01FF013E66CBCBD3D372
:10273000667C80080C0C0A010030180C00C3C3C36F
:10274000C3C3C3673B080C0C0A0100060C1800C386
:10275000C3C3C3C3C3673B080C0C0A0100183C6623
:1027600000C3C3C3C3C3C3673B080B0B0A010066A6
:102770006600C3C3C3C3C3C3673B0810100A01FC90
:102780000C183000C3C3C3C3C3C3673B03C3663C59
:102790000711110A02FCC0C0C0C0C0C0F8CCC6C638
:1027A000C6CCF8C0C0C0C0080F0F0A01FC666600A6
:1027B000C3C3C3C3C3C3673B03C3663C010508006F
:1027C000FF060121023520FFFF07FF06FF09005029
:1027D000221656808080800080153353A0A0A0026E
:1027E00057575050F850F850500257572070A0706B
:1027F00028702013355580A040A02002475740A0E4
:10280000A040A0A0502513538080801226564080FF
:1028100080808040122656804040404080024555CE
:102820009060F060900255552020F820201133531D
:10283000604080044151F011335340E0400246565D
:1028400010102040808012365640A0A0A0A0401258
:10285000365640C0404040E00246566090106080CE
:10286000F0024656F020601090600246562060A0AC
:10287000F02020024656F080E0109060024656603C
:1028800080E0909060024656F010202040400246C2
:102890005660906090906002465660909070106014
:1028A000122555C0C000C0C011365660600060409F
:1028B00080123656204080804020034353F000F0C1
:1028C00012365680402020408012365640A02040CC
:1028D0000040015858304898A8A890403002465609
:1028E000609090F09090024656E090E09090E00268
:1028F0004656609080809060024656E0909090909E
:10290000E0024656F080E08080F0024656F080E01B
:10291000808080024656609080B09060024656905B
:1029200090F0909090123656E040404040E00246D1
:102930005670202020A04002465690A0C0A0A09033
:102940000246568080808080F002465690F0F090DB
:10295000909002465690D0F0B0B0900246566090EB
:1029600090909060024656E09090E080800147573A
:10297000609090D0B06010024656E09090E0909049
:10298000024656609040209060123656E04040402B
:10299000404002465690909090906002465690902B
:1029A00090906060024656909090F0F090024656EB
:1029B00090906060909002565688885020202002A7
:1029C0004656F010204080F0123656E0808080801D
:1029D000E0024656808040201010123656E020203B
:1029E0002020E016325240A0014151F016225280C0
:1029F00040024454709090700246568080E090905F
:102A0000E01234546080806002465610107090903E
:102A10007002445460B0C060024656205040E0400E
:102A20004001455560907010600246568080E090ED
:102A300090901236564000C04040E01137572000B9
:102A4000202020A040024656808090E090901236D0
:102A500056C040404040E0025454D0A8A8A80244C8
:102A600054E090909002445460909060014555E08D
:102A700090E080800145557090701010024454A081
:102A8000D0808012345460C020C00246564040E0DE
:102A900040502002445490909070123454A0A0A052
:102AA0004002545488A8A850024454906060900199
:102AB00045559090709060024454F02040F00247D9
:102AC00057304020C02040302216568080808080C1
:102AD00080024757C02040304020C006425250A0DC
:102AE000FFFFFFFFFFFFFFFFFFFFFFFFFFFFFFFFF6
:102AF000FFFFFFFFFFFFFFFFFFFFFFFFFFFFFFFFE6
:102B0000FF090050221656800080808080014656C2
:102B10002070A0A070200246562050E04050A00235
:102B2000555588705070880256568850F820F82005
:102B3000221757808080008080800247577080E095
:102B4000907010E0173151A002565670A8C8C8A85E
:102B50007014355560A06000E003435350A050123C
:102B60003353E02020143151E002565670E8D8E883
:102B7000D870173151E015335340A04012355540FD
:102B8000E04000E014355540A02040E0143555C029
:102B900020C020C01622524080014555909090E000
:102BA0008002565678E8E8682828241151801122BE
:102BB00052408014355540C04040E014355540A087
:102BC0004000E0034353A050A0024757808080A0FC
:102BD00060F0200247578080A0D010207002475735
:102BE00080408060A0F02012365640004080A04017
:102BF00002475740206090F0909002475720406075
:102C000090F0909002475760906090F0909002474B
:102C10005750A06090F0909002475790006090F05D
:102C2000909002475760906090F0909002465670E6
:102C3000A0A0F0A0B0014757609080809060400253
:102C400047574020F080E080F00247572040F08056
:102C5000E080F00247576090F080E080F002475734
:102C60009000F080E080F01237578040E040404014
:102C7000E01237572040E0404040E012375740A074
:102C8000E0404040E0123757A000E0404040E00202
:102C900056567048E848487002475750A090D0B048
:102CA00090900247574020609090906002475720D4
:102CB0004060909090600247576090609090906064
:102CC00002475750A0609090906002475790006074
:102CD00090909060123353A040A002465670B0B05E
:102CE000D0D0E00247574020909090906002475724
:102CF0002040909090906002475760909090909004
:102D000060024757900090909090600257571020B3
:102D1000885020202002465680E09090E0800246B5
:102D2000566090A0A090A00247574020007090905D
:102D30007002475720400070909070024757205013
:102D4000007090907002475750A0007090907002F1
:102D50004656500070909070024757609060709097
:102D60009070025454F068B07811355560808060DE
:102D70004002475740200060B0C0600247572040E3
:102D80000060B0C06002475760900060B0C0600251
:102D90004656500060B0C060123757804000C040B7
:102DA00040E0123757204000C04040E01237574003
:102DB000A000C04040E0123656A000C04040E002F3
:102DC0004757A040A01070906002475750A000E005
:102DD00090909002475740200060909060024757C3
:102DE0002040006090906002475760900060909093
:102DF0006002475750A000609090600246569000D5
:102E0000609090601235554000E0004002445470DC
:102E1000B0D0E00247574020009090907002475792
:102E200020400090909070024757609000909090E2
:102E300070024656900090909070014858204000D3
:102E400090907090600147578080E090E080800112
:102E5000475790009090709060FFFFFFC005FFFF04
:102E6000FFFFFFFC00003FFFFFFFFFE0000007FF48
:102E7000FFFFFF80000001FFFFFFFE002FF8007F33
:102E8000FFFFFC01FFFF803FFFFFF00FFFFFF00F90
:102E9000FFFFE03FF7EFFC07FFFFC0FFF7F7FE0380
:102EA000FFFF81FF67F2FF81FFFF03FFA7E6FFC07F
:102EB000FFFE07FF27E6FFF07FFC0FFF33E47FF004
:102EC0003FF81FDF63E67DFC1FF83FBE31C67DFC87
:102ED0001FF07FBE71873EFE0FE0FF3C71871C7FB5
:102EE00007E0FF38F0871E7F07C1FF38E1871C7FAE
:102EF00083C3FA1861870C6FC383FB1841C2085F54
:102F0000C187FC0801C0085FC187F90803C0184FDA
:102F1000E107F9080180184FE00FF10C0000184F8D
:102F2000F00FE31C00001847F00FE30C000018E35B
:102F3000F01FC30000000063F00FC7000000006135
:102F4000F81FC30000000061F81FC000000000016E
:102F5000F81FC00000000003F81FC00000000003BD
:102F6000F81FE00000000003F81FE000000000036D
:102F7000F81FE00000000007F81FF0000000000745
:102F8000F00FF0A000000507F81FE0FF00007F83AE
:102F9000F00FE0FFC001FF83F00FE07FE007FF07C5
:102FA000F00FF03FF80FFE07F007F81FFC1FF80FB7
:102FB000E087F807FC3FF01FE187FC01FE3F803F00
:102FC000E183FF000000007FC1C1FF80008001FF9E
:102FD000C3C1FFF001C007FF83E1FFF803C01FFF7B
:102FE00007E0FFFE03E03FFF07F07FFC03E03FFE4A
:102FF0000FF83FFC06201FFC1FF81FFC00001FF805
:103000001FFC0FF800000FF03FFE0FF800001FE05C
:103010007FFF03F880010FC0FFFF81FC84119F81B7
:10302000FFFFC07EC410BE03FFFFE03FCC13FC07D0
:10303000FFFFF007FEFFF00FFFFFFC01FFFF803FE7
:10304000FFFFFE001FF4007FFFFFFF80000001FF75
:10305000FFFFFFE0000007FFFF000000000000008E
:103060000000000000000000000000000000000060
:103070000000000000000000000000000000000050
:103080000000000000000000000000000000000040
:10309000000000000000005B302E2E3630207365EB
:1030A000632E5D0054656D706F20636F636C6561A6
:1030B0000054656D706F20636F636C6561005B30F9
:1030C0002E2E32333020566F6C745D0056656E7450
:1030D0006F6C612072697363616C64616D656E749D
:1030E0006F0056656E2E2072697363005B3330305B
:1030F0002E2E323830302047697269275D005665C0
:103100006C6F636974612076656E746F6C612066A4
:10311000756D690056656E2E2066756D69004C6987
:1031200076656C6C6920706F742E0000002100249D
:103130000027002A002D00300033000101000004A8
:103140000107010A0100002200250028002B002EA3
:10315000003100340002010000050108010B0100EC
:103160000020002300260029002C002F0032000040
:103170000100000301060109010505050507050811
:10318000080808020202020A0A08080404040401EA
:10319000010101010101010303030303030303040C
:1031A0000707070C0C0C0C0C0C0C0C02020202069C
:1031B000060606060606060B0B0B0B0B0B0B0B018C
:1031C0000210202008081020401020408002010238
:1031D0000108040201010204081020408080402000
:1031E000100804020180040201804020100804023B
:1031F00001080402010102040810204080010204B9
:10320000081020408000000A0B02090C0D0E080770
:1032100003040100000000000000000000000000A6
:10322000000000000000000000000000000000009E
:10323000001211100000000000000000000000005B
:1032400000000000000000000000005465726D6F77
:1032500073746174690054696D657273004C6976AA
:10326000656C6C6920706F742E004D656E752070F2
:1032700072696E636970616C650000060900FE0783
:103280000199032B20FFFE08FE07FE000000060048
:103290000001070706020080808080800080030311
:1032A00003060104A0A0A00507070600005050F87F
:1032B00050F850500507070600002070A0702870D5
:1032C0002005070706000048A8502050A8900507D1
:1032D0000706000040A0A040A89068010303060272
:1032E0000480808003070706010020408080804022
:1032F00020030707060100804020202040800505AC
:10330000050600018850F8508805050506000120D3
:1033100020F820200303030601FF6040800501011F
:10332000060003F80303030601FF40E0400507071A
:1033300006000008081020408080050707060000EE
:10334000205088888850200507070600002060A0CC
:10335000202020F80507070600007088083040800C
:10336000F8050707060000F8081030088870050700
:103370000706000010305090F810100507070600EF
:1033800000F880B0C80888700507070600003040C4
:1033900080B0C88870050707060000F808101020E4
:1033A000404005070706000070888870888870050F
:1033B0000707060000708898680810600307070672
:1033C00001FF40E0400040E0400307070601FF40E6
:1033D000E0400060408004070706010010204080A4
:1033E000402010050303060002F800F80407070652
:1033F0000100804020102040800507070600007073
:10340000881020200020050707060000708898A873
:10341000B0807005070706000020508888F888886B
:10342000050707060000F04848704848F005070700
:1034300006000070888080808870050707060000FD
:10344000F04848484848F0050707060000F8808023
:10345000F08080F8050707060000F88080F0808083
:10346000800507070600007088808098887005072F
:1034700007060000888888F88888880307070601FF
:1034800000E04040404040E00507070600003810DB
:1034900010101090600507070600008890A0C0A0DB
:1034A0009088050707060000808080808080F805EE
:1034B00007070600008888D8A888888805070706B7
:1034C00000008888C8A8988888050707060000704B
:1034D000888888888870050707060000F08888F0CB
:1034E0008080800508080600FF7088888888A8709A
:1034F00008050707060000F08888F0A090880507F7
:1035000007060000708880700888700507070600AD
:1035100000F82020202020200507070600008888CA
:1035200088888888700507070600008888885050BA
:103530005020050707060000888888A8A8D88805B5
:10354000070706000088885020508888050707066E
:10355000000088885020202020050707060000F87A
:103560000810204080F8030707060100E0808080F3
:103570008080E005070706000080804020100808D2
:10358000030707060100E02020202020E0050303B8
:103590000600042050880501010600FFF80202021F
:1035A0000602068040050505060000700878887848
:1035B0000507070600008080B0C888C8B00505056B
:1035C000060000708880887005070706000008085C
:1035D00068988898680505050600007088F880706E
:1035E000050707060000304840F040404005070747
:1035F0000600FE78888878088870050707060000AE
:103600008080B0C88888880307070601004000C092
:10361000404040E00409090601FE1000301010107F
:1036200090906005070706000080808890E09088F1
:10363000030707060100C04040404040E005050583
:10364000060000D0A8A8A888050505060000B0C897
:103650008888880505050600007088888870050739
:10366000070600FEB0C888C8B080800507070600BE
:10367000FE68988898680808050505060000B0C827
:1036800080808005050506000070807008F0050741
:10369000070600004040F0404048300505050600A0
:1036A00000888888986805050506000088885050BD
:1036B000200505050600008888A8A8500505050610
:1036C000000088502050880507070600FE8888986B
:1036D00068088870050505060000F8102040F80409
:1036E0000707060100304020C020403001070706D0
:1036F000020080808080808080040707060100C06F
:103700002040304020C005030306000448A8900074
:1037100000000100000000000100000000000100A6
:103720000000000001000000000001000000000097
:103730000100000000000100000000000100000086
:103740000000010000000000010000000000010076
:103750000000000001000000000001000000000067
:103760000100000000000100000000000100000056
:103770000000010000000000010000000000010046
:103780000000000001000000000001000000000037
:103790000100000000000100000000000100000026
:1037A0000000010000000000010000000000010016
:1037B0000000000001000000000001000000000007
:1037C00001000000000001000000000001000000F6
:1037D00000000100000000000600000107070602CB
:1037E00000800080808080800507070600FF207829
:1037F000A0A0A07820050707060000304840E04060
:1038000048B0050505060000887050708805080856
:103810000600FF88885020F82020200107070602B4
:1038200000808080008080800508080600FF70808E
:10383000E09048380870030101060107A00507075A
:103840000600007088A8C8A8887004060606010152
:103850007090B05000F0060505060000244890481E
:1038600024040202060102F010040101060103F023
:103870000507070600007088E8C8C88870050101C0
:10388000060007F803030306010440A040050606EE
:103890000600002020F82020F8040505060103603A
:1038A000902040F0040505060103E0106010E002DE
:1038B000020206020640800506060600FF88888888
:1038C000C8B08005070706000078E8E868282828BF
:1038D000010101060203800202020602FE4080038B
:1038E000050506010340C04040E00406060601014C
:1038F0006090906000F0060505060000904824489E
:10390000900609090600FF40C04040E40C143C0446
:103910000609090600FF40C04040E81404081C05E1
:1039200009090600FFC0204020C8182878080507AC
:1039300007060000200020204088700508080600C7
:10394000004020708888F888880508080600001064
:1039500020708888F88888050808060000205070C4
:103960008888F8888805080806000048B0708888AC
:10397000F888880508080600005000708888F888D4
:10398000880508080600002050708888F888880696
:1039900007070600003C50909CF0909C0509090622
:1039A00000FE70888080808870204005080806002E
:1039B0000040F88080F08080F805080806000010BC
:1039C000F88080F08080F805080806000020F88064
:1039D00080F08080F805080806000050F88080F02C
:1039E0008080F80308080601008040E04040404025
:1039F000E00308080601002040E040404040E003AA
:103A0000080806010040A0E040404040E0030808EC
:103A1000060100A000E040404040E0050707060026
:103A200000F04848E84848F005080806000028501B
:103A300088C8A89888880508080600004020708873
:103A4000888888700508080600001020708888881B
:103A500088700508080600002050708888888870E3
:103A600005080806000028507088888888700508B6
:103A700008060000500070888888887005050506D3
:103A800000008850205088050707060000709898AD
:103A9000A8C8C870050808060000402088888888E3
:103AA00088700508080600001020888888888870BB
:103AB00005080806000020500088888888700508DE
:103AC0000806000050008888888888700508080665
:103AD00000001020888850202020050707060000DD
:103AE00080F088F0808080050707060000708890CD
:103AF000A09088B0050808060000402000700878F3
:103B0000887805080806000010200070087888787A
:103B1000050808060000205000700878887805081D
:103B20000806000028500070087888780507070606
:103B3000000050007008788878050808060000200A
:103B40005020700878887806050506000078147CF7
:103B5000907C0507070600FE70888088702040056D
:103B600008080600004020007088F88070050808EA
:103B70000600001020007088F88070050808060014
:103B8000002050007088F88070050707060000507C
:103B9000007088F88070030808060100804000C0AB
:103BA000404040E0030808060100408000C040405B
:103BB00040E003080806010040A000C0404040E08B
:103BC000060A0A0600FEA4A800FC8480808084FC0B
:103BD000060A0A0600FE549400FC8404040484FCD3
:103BE000050808060000285000B0C8888888050825
:103BF000080600004020007088888870040A0A06C1
:103C000002FE30408090909090909090040A0A06B6
:103C100000FEC020109090909090909006070706AC
:103C20000001448C8C8480403C0607070600018814
:103C3000C4C4840408F00505050600012000F8004E
:103C40002005080806000040F0C88888987810050C
:103C50000808060000E0F88888888888F8050505C7
:103C60000600012030F8302005080806000020700A
:103C7000F820202020E00509090600FF2070A8A8F0
:103C8000B8888850200509090600FFE080C0B0A868
:103C9000A83028280509090600FFF8A88888888820
:103CA00088A8F8050A0A0600FE205050505088A83F
:103CB000A888705365727669636500506172616DA2
:103CC0006574726900477561726461005061726168
:103CD0006D6574726900A07911241FBECFEFD1E227
:103CE000DEBFCDBF00E00CBF13E0A0E0B2E0E2EF2A
:103CF000F0E001E00BBF02C007900D92A035B107C4
:103D0000D9F728E0A0E5B3E001C01D92A334B207C3
:103D1000E1F71EE1CCE6DEE100E006C021970109F3
:103D2000802FFE010E94427DCB36D10780E008073C
:103D3000A9F70E94C36F0C9477800C9400003F9207
:103D40004F925F926F927F928F929F92AF92BF92AB
:103D5000CF92DF92EF92FF920F931F93CF93DF9357
:103D600040913406509135066091360670913706C1
:103D7000413080E858076105710510F00C947B2EE6
:103D8000DB01CA01B695A79597958795C091420624
:103D90000C2F10E020E030E080179107A207B30756
:103DA00018F480934206C82FD0E0BAE0EB2EF12C35
:103DB00014E6C12ED12C0DE6402E03E0502E87E9EB
:103DC000682E83E0782E97E1892E912CA12CB12CBE
:103DD000C1118FC080911502882309F454C042306C
:103DE00051056105710508F47FC281E080930B06DF
:103DF000109222068D2F90E00196982F990F890F2F
:103E0000880F880F8093230660E287EE95E00E947A
:103E1000013AE0EDF3E06491662311F40C948B2EEB
:103E2000A1E13A2E00ED13E001C0382E87EE95E0B7
:103E30000E94013A0F5F1F4F8FEF830DF8016491CD
:103E40006111F3CF1EEF130D07C060E287EE95E01E
:103E50000E94013A812F11508111F7CF6BEF87EE4D
:103E600095E00E94013A60E287EE95E00E94013AF7
:103E700081E080930B0640913406509135066091A5
:103E800036067091370680913906811114C18091F0
:103E90005B031092390682FF0BC0809138068111B6
:103EA00007C0423051056105710510F40C948E2E47
:103EB000483151056105710508F005C1DB01CA01F2
:103EC000B695A79597958795E82F2091420630E003
:103ED0002C5F3F4F281739070CF00DC1CCEFCE0FE8
:103EE000C093420681E080931502D0E0CC2309F410
:103EF00071CFC13009F016C180911502882309F4F1
:103F00007AC0769567955795479520915C033091D7
:103F10005D03413051056105710509F461C2243624
:103F200031050CF4F3C1C901B6010E94F17CCB014B
:103F3000B7010E94F17C805D80936904E9E6F4E0BA
:103F4000C901B7010E94F17CCB01B7010E94F17C4D
:103F5000805D80936A04C901B7010E94F17C805D95
:103F600080936B0410926C0401900020E9F7319764
:103F7000E956F44081E1382E3E1A109222068D2F28
:103F800090E00196982F990F890F880F880F8093E2
:103F9000230660E287EE95E00E94013AE6ECF3E04A
:103FA0006491662361F08F0187EE95E00E94013AEB
:103FB0000F5F1F4F3A94F80164916111F5CF6AE3E6
:103FC00087EE95E00E94013A06C060E287EE95E038
:103FD0000E94013A3A943110F8CF69E674E087EE16
:103FE00095E00E94BC6E4091340650913506609178
:103FF0003606709137068091390681115CC0809138
:104000005B031092390682FF53CF809138068111ED
:104010004FCFDB01CA01B695A79597958795019774
:10402000A105B10509F044CF0E94265480911302E6
:1040300090911402909374048093730480913406D9
:1040400090913506909372048093710482E080937E
:10405000150281E29CE6909314028093130280EB98
:1040600093E0909378048093770482EA93E09093AE
:104070007A04809379048CE593E09093760480939E
:10408000750410927F0410928004109281041092A3
:10409000820484E893E0A0E0B0E080937B049093F6
:1040A0007C04A0937D04B0937E0480915C03909186
:1040B0005D030C944A2A1092390648315105610576
:1040C000710508F4FBCE8092340690923506A092DA
:1040D0003606B09237068BE090E0EBE047E150E027
:1040E00060E070E02091420630E02C5F3F4F2817DF
:1040F00039070CF4F3CEDF5FCF5FD53008F468CE1C
:10410000DF91CF911F910F91FF90EF90DF90CF90B3
:10411000BF90AF909F908F907F906F905F904F90E7
:104120003F900895C23009F0BBC1809115028823E9
:1041300009F47AC0769567955795479520916A035B
:1041400030916B03423051056105710509F4E8C0F7
:10415000243631050CF4D0C0C901B6010E94F17CAF
:10416000CB01B7010E94F17C805D80936904E9E690
:10417000F4E0C901B7010E94F17CCB01B7010E94B4
:10418000F17C805D80936A04C901B7010E94F17CD3
:10419000805D80936B0410926C0401900020E9F71D
:1041A0003197E956F44081E1382E3E1A10922206EA
:1041B0008D2F90E00196982F990F890F880F880F07
:1041C0008093230660E287EE95E00E94013AF301B6
:1041D0006491662369F007E913E087EE95E00E9499
:1041E000013A0F5F1F4F3A94F80164916111F5CFC6
:1041F0006AE387EE95E00E94013A06C060E287EE2E
:1042000095E00E94013A3A943110F8CF69E674E0E3
:1042100087EE95E00E94BC6E4091340650913506C1
:10422000609136067091370680913906811143CF2F
:1042300080915B031092390682FF3ACE8091380656
:10424000811136CEDB01CA01B695A7959795879562
:104250000297A105B10509F02BCE0E94265480914A
:1042600013029091140290937404809373048091CC
:10427000340690913506909372048093710482E025
:104280008093150281E29CE69093140280931302BE
:1042900085E893E0909378048093770487E793E030
:1042A00090937A04809379048AE693E0909376045D
:1042B0008093750410927F04109280041092810400
:1042C0001092820484E893E0A0E0B0E080937B0445
:1042D00090937C04A0937D04B0937E0480916A0344
:1042E00090916B030C944A2A2BEF4BEF60ED73E037
:1042F0008D2F0E94D74FBFCDE9E6F4E080E2809396
:1043000069042A3031050CF43DCF33CFE9E6F4E0FF
:1043100080E2809369042A3031050CF41ACE10CE65
:104320002436310514F40C94152EC901B6010E94EF
:10433000F17CCB01B7010E94F17C805D8093690420
:10434000E9E6F4E0C901B7010E94F17CCB01B701B5
:104350000E94F17C805D80936A04C901B7010E94CC
:10436000F17C805D80936B0410926C0401900020BE
:10437000E9F73197E956F44081E1382E3E1A109260
:1043800022068D2F90E00196982F990F890F880FA4
:10439000880F809323066EE387EE95E00E94013A32
:1043A000F3016491662369F007E913E087EE95E075
:1043B0000E94013A0F5F1F4F3A94F8016491611116
:1043C000F5CF6AE387EE95E00E94013A06C060E20D
:1043D00087EE95E00E94013A3A943110F8CF16CF5B
:1043E0002436310514F40C94092EC901B6010E943B
:1043F000F17CCB01B7010E94F17C805D8093690460
:10440000E9E6F4E0C901B7010E94F17CCB01B701F4
:104410000E94F17C805D80936A04C901B7010E940B
:10442000F17C805D80936B0410926C0401900020FD
:10443000E9F73197E956F44081E1382E3E1A10929F
:1044400022068D2F90E00196982F990F890F880FE3
:10445000880F809323066EE387EE95E00E94013A71
:10446000E6ECF3E06491662361F08F0187EE95E05E
:104470000E94013A0F5F1F4F3A94F8016491611155
:10448000F5CF6AE387EE95E00E94013A06C060E24C
:1044900087EE95E00E94013A3A943110F8CF9DCD15
:1044A000C33009F0E0C080911502882309F47CC074
:1044B00076956795579547952091680330916903E4
:1044C000433051056105710511F40C946F2B2436AE
:1044D000310514F40C946B2AC901B6010E94F17CD9
:1044E000CB01B7010E94F17C805D80936904E9E60D
:1044F000F4E0C901B7010E94F17CCB01B7010E9431
:10450000F17C805D80936A04C901B7010E94F17C4F
:10451000805D80936B0410926C0401900020E9F799
:104520003197E956F44081E1382E3E1A1092220666
:104530008D2F90E00196982F990F890F880F880F83
:104540008093230660E287EE95E00E94013AF20133
:104550006491662369F00DE613E087EE95E00E9412
:10456000013A0F5F1F4F3A94F80164916111F5CF42
:104570006AE387EE95E00E94013A06C060E287EEAA
:1045800095E00E94013A3A943110F8CF69E674E060
:1045900087EE95E00E94BC6E40913406509135063E
:1045A000609136067091370680913906811183CD6E
:1045B00080915B031092390682FF7ACC8091380695
:1045C000811176CCDB01CA01B695A79597958795A1
:1045D0000397A105B10509F06BCC0E942654809188
:1045E0001302909114029093740480937304809149
:1045F000340690913506909372048093710482E0A2
:104600008093150281E29CE690931402809313023A
:104610008BE593E090937804809377048DE493E0A6
:1046200090937A048093790488E693E090937604DB
:104630008093750410927F0410928004109281047C
:104640001092820484E893E0A0E0B0E080937B04C1
:1046500090937C04A0937D04B0937E0480916803C2
:104660009091690317C7C43009F0DEC0809115022C
:10467000882309F47AC076956795579547952091D8
:10468000600330916103443051056105710509F4FF
:10469000C7C7243631050CF414C7C901B6010E94FE
:1046A000F17CCB01B7010E94F17C805D80936904AD
:1046B000E9E6F4E0C901B7010E94F17CCB01B70142
:1046C0000E94F17C805D80936A04C901B7010E9459
:1046D000F17C805D80936B0410926C04019000204B
:1046E000E9F73197E956F44081E1382E3E1A1092ED
:1046F00022068D2F90E00196982F990F890F880F31
:10470000880F8093230660E287EE95E00E94013ACD
:10471000E3E4F3E06491662361F08F0187EE95E0B6
:104720000E94013A0F5F1F4F3A94F80164916111A2
:10473000F5CF6AE387EE95E00E94013A06C060E299
:1047400087EE95E00E94013A3A943110F8CF69E67D
:1047500074E087EE95E00E94BC6E40913406509163
:1047600035066091360670913706809139068111C1
:10477000A2CC80915B031092390682FF99CB809185
:104780003806811195CBDB01CA01B695A79597959F
:1047900087950497A105B10509F08ACB0E9426549C
:1047A0008091130290911402909374048093730487
:1047B0008091340690913506909372048093710431
:1047C00082E08093150281E29CE69093140280932C
:1047D000130283E393E0909378048093770485E257
:1047E00093E090937A048093790480E693E0909329
:1047F00076048093750410927F04109280041092C6
:1048000081041092820484E893E0A0E0B0E08093F9
:104810007B0490937C04A0937D04B0937E048091EC
:1048200060039091610336C6C53009F0DEC0809107
:104830001502882309F47AC07695679557954795B0
:1048400020915E0330915F0345305105610571058C
:1048500009F487C6243631050CF429C6C901B6010E
:104860000E94F17CCB01B7010E94F17C805D8093B6
:104870006904E9E6F4E0C901B7010E94F17CCB01CB
:10488000B7010E94F17C805D80936A04C901B70181
:104890000E94F17C805D80936B0410926C04019007
:1048A0000020E9F73197E956F44081E1382E3E1AAD
:1048B000109222068D2F90E00196982F990F890F64
:1048C000880F880F8093230660E287EE95E00E94B0
:1048D000013AE7E1F3E06491662361F08F0187EE2E
:1048E00095E00E94013A0F5F1F4F3A94F8016491DE
:1048F0006111F5CF6AE387EE95E00E94013A06C0A8
:1049000060E287EE95E00E94013A3A943110F8CFC8
:1049100069E674E087EE95E00E94BC6E4091340633
:1049200050913506609136067091370680913906B0
:104930008111C1CB80915B031092390682FFB8CA06
:10494000809138068111B4CADB01CA01B695A795DA
:10495000979587950597A105B10509F0A9CA0E9409
:1049600026548091130290911402909374048093C2
:10497000730480913406909135069093720480936D
:10498000710482E08093150281E29CE69093140208
:104990008093130282E093E09093780480937704ED
:1049A00084EF92E090937A04809379048EE593E00B
:1049B000909376048093750410927F041092800483
:1049C000109281041092820484E893E0A0E0B0E0A9
:1049D00080937B0490937C04A0937D04B0937E0429
:1049E00080915E0390915F0355C5C63009F0DEC02B
:1049F00080911502882309F47AC0769567955795BA
:104A0000479520916E0330916F0346305105610543
:104A1000710509F4C4C6243631050CF47AC5C90100
:104A2000B6010E94F17CCB01B7010E94F17C805D50
:104A300080936904E9E6F4E0C901B7010E94F17CC2
:104A4000CB01B7010E94F17C805D80936A04C901AB
:104A5000B7010E94F17C805D80936B0410926C041E
:104A600001900020E9F73197E956F44081E1382EB2
:104A70003E1A109222068D2F90E00196982F990FE2
:104A8000890F880F880F8093230660E287EE95E0F8
:104A90000E94013AEAEEF2E06491662361F08F0130
:104AA00087EE95E00E94013A0F5F1F4F3A94F8019C
:104AB00064916111F5CF6AE387EE95E00E94013AB7
:104AC00006C060E287EE95E00E94013A3A94311008
:104AD000F8CF69E674E087EE95E00E94BC6E4091E5
:104AE00034065091350660913606709137068091F4
:104AF00039068111E0CA80915B031092390682FF6A
:104B0000D7C9809138068111D3C9DB01CA01B69596
:104B1000A795979587950697A105B10509F0C8C98E
:104B20000E94265480911302909114029093740471
:104B300080937304809134069091350690937204AB
:104B40008093710482E08093150281E29CE6909349
:104B50001402809313028AED92E09093780480937C
:104B600077048CEC92E090937A04809379048EE63B
:104B700093E0909376048093750410927F041092D2
:104B80008004109281041092820484E893E0A0E0F3
:104B9000B0E080937B0490937C04A0937D04B09359
:104BA0007E0480916E0390916F0374C4C73009F046
:104BB000DEC080911502882309F47AC07695679546
:104BC0005795479520915003309151034730510537
:104BD0006105710509F400C7243631050CF48FC452
:104BE000C901B6010E94F17CCB01B7010E94F17CA2
:104BF000805D80936904E9E6F4E0C901B7010E9491
:104C0000F17CCB01B7010E94F17C805D80936A0446
:104C1000C901B7010E94F17C805D80936B04109202
:104C20006C0401900020E9F73197E956F44081E1E6
:104C3000382E3E1A109222068D2F90E00196982F62
:104C4000990F890F880F880F8093230660E287EE03
:104C500095E00E94013AEEEBF2E06491662361F088
:104C60008F0187EE95E00E94013A0F5F1F4F3A9443
:104C7000F80164916111F5CF6AE387EE95E00E9437
:104C8000013A06C060E287EE95E00E94013A3A944C
:104C90003110F8CF69E674E087EE95E00E94BC6EB3
:104CA0004091340650913506609136067091370672
:104CB000809139068111FFC980915B0310923906FA
:104CC00082FFF6C8809138068111F2C8DB01CA0163
:104CD000B695A795979587950797A105B10509F012
:104CE000E7C80E9426548091130290911402909379
:104CF00074048093730480913406909135069093E8
:104D000072048093710482E08093150281E29CE634
:104D100090931402809313028EEA92E090937804A9
:104D20008093770480EA92E090937A0480937904E8
:104D300080E593E0909376048093750410927F044D
:104D400010928004109281041092820484E893E00F
:104D5000A0E0B0E080937B0490937C04A0937D045A
:104D6000B0937E04809150039091510393C3C83057
:104D700009F0DFC080911502882309F47AC0769586
:104D80006795579547952091DE033091DF034830B2
:104D900051056105710509F4C0C5243631050CF4CF
:104DA000A4C3C901B6010E94F17CCB01B7010E94E6
:104DB000F17C805D80936904E9E6F4E0C901B70104
:104DC0000E94F17CCB01B7010E94F17C805D809351
:104DD0006A04C901B7010E94F17C805D80936B0475
:104DE00010926C0401900020E9F73197E956F440E5
:104DF00081E1382E3E1A109222068D2F90E0019606
:104E0000982F990F890F880F880F8093230660E2EF
:104E100087EE95E00E94013AE4E9F2E064916623AE
:104E200061F08F0187EE95E00E94013A0F5F1F4FFE
:104E30003A94F80164916111F5CF6AE387EE95E049
:104E40000E94013A06C060E287EE95E00E94013AB6
:104E50003A943110F8CF69E674E087EE95E00E944D
:104E6000BC6E4091340650913506609136067091C3
:104E700037068091390681111EC980915B0310921B
:104E8000390682FD01C014C880913806811110C80E
:104E9000DB01CA01B695A795979587950897A10557
:104EA000B10509F005C80E94265480911302909123
:104EB000140290937404809373048091340690914B
:104EC0003506909372048093710482E080931502FA
:104ED00081E29CE690931402809313028EE792E0A5
:104EE000909378048093770480E792E090937A041B
:104EF000809379048EED93E090937604809375040B
:104F000010927F0410928004109281041092820407
:104F100084E893E0A0E0B0E080937B0490937C046D
:104F2000A0937D04B0937E048091DE039091DF0313
:104F3000B1C2C93009F0E2C080911502882309F49A
:104F40007AC0769567955795479520919A03309149
:104F50009B03493051056105710509F47FC424366E
:104F600031050CF4E0C2C901B6010E94F17CCB010D
:104F7000B7010E94F17C805D80936904E9E6F4E06A
:104F8000C901B7010E94F17CCB01B7010E94F17CFD
:104F9000805D80936A04C901B7010E94F17C805D45
:104FA00080936B0410926C0401900020E9F7319714
:104FB000E956F44081E1382E3E1A109222068D2FD8
:104FC00090E00196982F990F890F880F880F809392
:104FD000230660E287EE95E00E94013AE2E6F2E005
:104FE0006491662361F08F0187EE95E00E94013A9B
:104FF0000F5F1F4F3A94F80164916111F5CF6AE396
:1050000087EE95E00E94013A06C060E287EE95E0E7
:105010000E94013A3A943110F8CF69E674E087EEC5
:1050200095E00E94BC6E4091340650913506609127
:105030003606709137068091390681113CC88091FF
:105040005B031092390682FD02C00C94581F8091B8
:10505000380681110C94581FDB01CA01B695A7953B
:10506000979587950997A105B10511F00C94581FE4
:105070000E9426548091130290911402909374041C
:105080008093730480913406909135069093720456
:105090008093710482E08093150281E29CE69093F4
:1050A0001402809313028DE492E09093780480932D
:1050B00077048FE392E090937A04809379048AE9ED
:1050C00093E0909376048093750410927F0410927D
:1050D0008004109281041092820484E893E0A0E09E
:1050E000B0E080937B0490937C04A0937D04B09304
:1050F0007E0480919A0390919B03CCC1CA3009F041
:10510000E3C080911502882309F47AC076956795EB
:105110005795479520917A0330917B034A3051058A
:105120006105710509F416C5243631050CF40FC26A
:10513000C901B6010E94F17CCB01B7010E94F17C4C
:10514000805D80936904E9E6F4E0C901B7010E943B
:10515000F17CCB01B7010E94F17C805D80936A04F1
:10516000C901B7010E94F17C805D80936B041092AD
:105170006C0401900020E9F73197E956F44081E191
:10518000382E3E1A109222068D2F90E00196982F0D
:10519000990F890F880F880F8093230660E287EEAE
:1051A00095E00E94013AE0E3F2E06491662361F049
:1051B0008F0187EE95E00E94013A0F5F1F4F3A94EE
:1051C000F80164916111F5CF6AE387EE95E00E94E2
:1051D000013A06C060E287EE95E00E94013A3A94F7
:1051E0003110F8CF69E674E087EE95E00E94BC6E5E
:1051F000409134065091350660913606709137061D
:105200008091390681110C945B2080915B03109290
:10521000390682FD02C00C94581F80913806811116
:105220000C94581FDB01CA01B695A79597958795F1
:105230000A97A105B10511F00C94581F0E9426543D
:1052400080911302909114029093740480937304DC
:105250008091340690913506909372048093710486
:1052600082E08093150281E29CE690931402809381
:10527000130281E292E0909378048093770483E1B3
:1052800092E090937A04809379048AE793E0909374
:1052900076048093750410927F041092800410921B
:1052A00081041092820484E893E0A0E0B0E080934F
:1052B0007B0490937C04A0937D04B0937E04809142
:1052C0007A0390917B03E6C0CB3011F00C94581F09
:1052D00080911502882309F47AC0769567955795D1
:1052E000479520919603309197034B305105610506
:1052F000710509F4D0C3243631050CF41EC1C9016F
:10530000B6010E94F17CCB01B7010E94F17C805D67
:1053100080936904E9E6F4E0C901B7010E94F17CD9
:10532000CB01B7010E94F17C805D80936A04C901C2
:10533000B7010E94F17C805D80936B0410926C0435
:1053400001900020E9F73197E956F44081E1382EC9
:105350003E1A109222068D2F90E00196982F990FF9
:10536000890F880F880F8093230660E287EE95E00F
:105370000E94013AE4E0F2E06491662361F08F015B
:1053800087EE95E00E94013A0F5F1F4F3A94F801B3
:1053900064916111F5CF6AE387EE95E00E94013ACE
:1053A00006C060E287EE95E00E94013A3A9431101F
:1053B000F8CF69E674E087EE95E00E94BC6E4091FC
:1053C000340650913506609136067091370680910B
:1053D000390681110C945B2080915B031092390691
:1053E00082FD02C00C94581F8091380681110C94E4
:1053F000581FDB01CA01B695A795979587950B971E
:10540000A105B10511F00C94581F0E9426548091FB
:10541000130290911402909374048093730480910A
:10542000340690913506909372048093710482E063
:105430008093150281E29CE69093140280931302FC
:1054400080EF91E0909378048093770482EE91E06E
:1054500090937A048093790486E993E0909376049C
:105460008093750410927F0410928004109281043E
:105470001092820484E893E0A0E0B0E080937B0483
:1054800090937C04A0937D04B0937E048091960356
:1054900090919703092E000CAA0BBB0B8093340646
:1054A00090933506A0933606B093370647C4E9E6D5
:1054B000F4E080E2809369042A3031050CF4E4C9F9
:1054C000DAC9E9E6F4E080E2809369042A30310524
:1054D0000CF4F9C8EFC8E9E6F4E080E280936904CF
:1054E0002A3031050CF40EC804C8E9E6F4E080E285
:1054F000809369042A3031050CF469CC5FCCE9E66D
:10550000F4E080E2809369042A3031050CF47ECB0C
:1055100074CBE9E6F4E080E2809369042A30310537
:105520000CF493CA89CAE9E6F4E080E28093690446
:105530002A3031050CF42DCD23CDE9E6F4E080E2EC
:10554000809369042A3031050CF4EFCEE5CEE9E60C
:10555000F4E080E2809369042A3031050CF4FECD3A
:10556000F4CD243631050CF4A8C3C901B6010E945C
:10557000F17CCB01B7010E94F17C805D80936904CE
:10558000E9E6F4E0C901B7010E94F17CCB01B70163
:105590000E94F17C805D80936A04C901B7010E947A
:1055A000F17C805D80936B0410926C04019000206C
:1055B000E9F73197E956F44081E1382E3E1A10920E
:1055C00022068D2F90E00196982F990F890F880F52
:1055D000880F809323066EE387EE95E00E94013AE0
:1055E000E7E1F3E06491662361F08F0187EE95E0D7
:1055F0000E94013A0F5F1F4F3A94F80164916111C4
:10560000F5CF6AE387EE95E00E94013A06C060E2BA
:1056100087EE95E00E94013A3A943110F8CF78C9AC
:10562000243631050CF417C3C901B6010E94F17C80
:10563000CB01B7010E94F17C805D80936904E9E6AB
:10564000F4E0C901B7010E94F17CCB01B7010E94CF
:10565000F17C805D80936A04C901B7010E94F17CEE
:10566000805D80936B0410926C0401900020E9F738
:105670003197E956F44081E1382E3E1A1092220605
:105680008D2F90E00196982F990F890F880F880F22
:10569000809323066EE387EE95E00E94013AE3E4EF
:1056A000F3E06491662361F08F0187EE95E00E943C
:1056B000013A0F5F1F4F3A94F80164916111F5CFE1
:1056C0006AE387EE95E00E94013A06C060E287EE49
:1056D00095E00E94013A3A943110F8CF38C8243648
:1056E00031050CF4AEC2C901B6010E94F17CCB01B8
:1056F000B7010E94F17C805D80936904E9E6F4E0E3
:10570000C901B7010E94F17CCB01B7010E94F17C75
:10571000805D80936A04C901B7010E94F17C805DBD
:1057200080936B0410926C0401900020E9F731978C
:10573000E956F44081E1382E3E1A109222068D2F50
:1057400090E00196982F990F890F880F880F80930A
:1057500023066EE387EE95E00E94013AF201649120
:10576000662369F00DE613E087EE95E00E94013AAA
:105770000F5F1F4F3A94F80164916111F5CF6AE30E
:1057800087EE95E00E94013A06C060E287EE95E060
:105790000E94013A3A943110F8CF0C94C622243674
:1057A00031050CF480C2C901B6010E94F17CCB0125
:1057B000B7010E94F17C805D80936904E9E6F4E022
:1057C000C901B7010E94F17CCB01B7010E94F17CB5
:1057D000805D80936A04C901B7010E94F17C805DFD
:1057E00080936B0410926C0401900020E9F73197CC
:1057F000E956F44081E1382E3E1A109222068D2F90
:1058000090E00196982F990F890F880F880F809349
:1058100023066EE387EE95E00E94013AEAEEF2E09D
:105820006491662361F08F0187EE95E00E94013A52
:105830000F5F1F4F3A94F80164916111F5CF6AE34D
:1058400087EE95E00E94013A06C060E287EE95E09F
:105850000E94013A3A943110F8CF3BC92436310501
:105860000CF417C2C901B6010E94F17CCB01B7014B
:105870000E94F17C805D80936904E9E6F4E0C9014F
:10588000B7010E94F17CCB01B7010E94F17C805DE1
:1058900080936A04C901B7010E94F17C805D809306
:1058A0006B0410926C0401900020E9F73197E956DF
:1058B000F44081E1382E3E1A109222068D2F90E09E
:1058C0000196982F990F890F880F880F80932306D0
:1058D0006EE387EE95E00E94013AE2E6F2E0649121
:1058E000662361F08F0187EE95E00E94013A0F5F19
:1058F0001F4F3A94F80164916111F5CF6AE387EE86
:1059000095E00E94013A06C060E287EE95E00E94B1
:10591000013A3A943110F8CF80CB243631050CF49B
:10592000AEC1C901B6010E94F17CCB01B7010E9452
:10593000F17C805D80936904E9E6F4E0C901B70178
:105940000E94F17CCB01B7010E94F17C805D8093C5
:105950006A04C901B7010E94F17C805D80936B04E9
:1059600010926C0401900020E9F73197E956F44059
:1059700081E1382E3E1A109222068D2F90E001967A
:10598000982F990F890F880F880F809323066EE355
:1059900087EE95E00E94013AE4E9F2E06491662323
:1059A00061F08F0187EE95E00E94013A0F5F1F4F73
:1059B0003A94F80164916111F5CF6AE387EE95E0BE
:1059C0000E94013A06C060E287EE95E00E94013A2B
:1059D0003A943110F8CF3FCA243631050CF445C152
:1059E000C901B6010E94F17CCB01B7010E94F17C94
:1059F000805D80936904E9E6F4E0C901B7010E9483
:105A0000F17CCB01B7010E94F17C805D80936A0438
:105A1000C901B7010E94F17C805D80936B041092F4
:105A20006C0401900020E9F73197E956F44081E1D8
:105A3000382E3E1A109222068D2F90E00196982F54
:105A4000990F890F880F880F809323066EE387EEE6
:105A500095E00E94013AEEEBF2E06491662361F07A
:105A60008F0187EE95E00E94013A0F5F1F4F3A9435
:105A7000F80164916111F5CF6AE387EE95E00E9429
:105A8000013A06C060E287EE95E00E94013A3A943E
:105A90003110F8CFFFC8243631050CF422C1C901FA
:105AA000B6010E94F17CCB01B7010E94F17C805DC0
:105AB00080936904E9E6F4E0C901B7010E94F17C32
:105AC000CB01B7010E94F17C805D80936A04C9011B
:105AD000B7010E94F17C805D80936B0410926C048E
