:100000000C943A1E0C9468550C943D550C94125562
:100010000C94E7540C94BC540C9491540C94665476
:100020000C943B540C946B1E0C946B1E0C946B1E26
:100030000C946B1E0C946B1E0C946B1E0C946B1E1C
:100040000C946B1E0C946B1E0C946B1E0C946B1E0C
:100050000C946B1E0C946B1E0C946B1E0C94F15341
:100060000C946B1E0C94DF520C94B6520C946B1EC5
:100070000C946B1E0C946B1E0C946B1E0C946B1EDC
:100080000C94E03B0C946B1E0C946B1E0C946B1E3A
:100090000C946B1E0C946B1E0C946B1E0C9493555D
:1000A0000C946B1E0C946B1E0C944B3B0C946B1EAF
:1000B0000C946B1E0C946B1E0C946B1E0C946B1E9C
:1000C0000C946B1E0C946B1E0C946B1E0C946B1E8C
:1000D0000C946B1E0C946B1E0C946B1E0C946B1E7C
:1000E0000C946B1EB839A6310939AD390939093973
:1000F00009390939093909390939093909390939F0
:1001000009390939093909390939093909390939DF
:1001100009390939093909390939093909390939CF
:10012000A739093909390939093909390939093921
:10013000093939390939093909390939093909397F
:100140000939093909390939CD39C839F33FE13F4E
:10015000CF3FBD3FAB3F993F873F753F633F513F27
:100160003F3F553E8651895178517C518251C05153
:100170008D51915197519B519F51A551A951AD510D
:10018000C051B351B751BB5108000000BE92244981
:10019000123EABAAAA2ABECDCCCC4C3E00000080B9
:1001A000BEABAAAAAA3E00000000BF000000803F2C
:1001B0000000000000084178D3BB4387D1133D19EC
:1001C0000E3CC3BD4282AD2B3E68EC8276BED98F19
:1001D000E1A93E4C80EFFFBE01C4FF7F3F0000005D
:1001E00000005B302E2E393030207365632E5D00A9
:1001F00050756C697A696120737065676E696D65A9
:100200006E746F0050756C697A69612073706567F0
:100210006E2E005B302E2E393030207365632E5DDC
:1002200000507265737065676E696D656E746F00FE
:10023000507265737065676E696D656E746F005B93
:10024000302E2E393030207365632E5D0044757278
:1002500061746120737065672E207374616E6462CF
:100260007900537065672E207374616E6462790043
:100270005B302E2E393030207365632E5D0044755F
:10028000726174612070756C2E20706572696F6484
:10029000696361004475726174612070756C2E0031
:1002A0005B302E2E393030207365632E5D00506533
:1002B00072696F646F2070756C697A69610050654E
:1002C00072692E2070756C697A6961005B302E2E20
:1002D000393030207365632E5D0053746162696C40
:1002E000697A7A617A696F6E650053746162696CCC
:1002F000697A2E005B302E2E393030207365632EE4
:100300005D004D61782074656D706F206163636579
:100310006E73696F6E65004D61782074656D706FE6
:1003200020616363005B302E2E39303020736563AB
:100330002E5D004163656E73696F6E65206669733B
:10034000736100416363206669737361005B302EE3
:100350002E393030207365632E5D00507265636105
:100360007269636F2070656C6C65747300507265A0
:1003700063617269636F005B302E2E3930302073F9
:1003800065632E5D0050726572697363616C646FA2
:100390002063616E642E005072652E2063616E646E
:1003A0002E005B302E2E393030207365632E5D00B9
:1003B00050756C697A2E20696E2020616363656ECA
:1003C00073696F6E650050756C2E206163632E003B
:1003D000506172616D657472690000091200FC0A57
:1003E00001E803D720FFFD0EFD0BFD000000090012
:1003F0000E010B0B0904008080808080808000004B
:10040000808004040409030790909090080A0A0968
:100410000000242424FF2424FF242424070B0B0998
:1004200001FF107C929050381412927C10070A0A37
:1004300009010042A4A4481010244A4A84070A0A69
:1004400009010060909090606294889462010404B5
:1004500009040780808080030C0C0903FF204040C2
:10046000808080808080404020030C0C0903FF8046
:10047000404020202020202040408007070709011D
:100480000310925438549210070707090101101005
:1004900010FE1010100204040904FEC0C0408007C2
:1004A0000101090104FE020202090400C0C0070A9A
:1004B0000A09010002040408101020404080070AC5
:1004C0000A09010038448282828282824438070A03
:1004D0000A090100103050901010101010FE070A89
:1004E0000A090100384482020408102040FE070A6D
:1004F0000A090100FE020408180402028478070AAF
:100500000A090100040C14244484FE040404070AAC
:100510000A090100FE808080F80402028478070A3C
:100520000A0901003C408080B8C482824438070A2E
:100530000A090100FE020404080810101010070A3E
:100540000A09010038448244384482824438070A48
:100550000A09010038448282463A020204780207FE
:1005600007090400C0C0000000C0C0020909090456
:10057000FEC0C0000000C0C040800509090902009B
:10058000081020408040201008070404090102FEE2
:100590000000FE0509090902008040201008102013
:1005A0004080070A0A09010038448202040810103A
:1005B0000010070A0A09010038449AAAAAAAAA9CAC
:1005C000403C070A0A09010010282828447C44827C
:1005D0008282070A0A090100F8848284F8848282F0
:1005E00084F8070A0A0901003C42808080808080EC
:1005F000423C070A0A090100F884828282828282D0
:1006000084F8070A0A090100FE808080F880808053
:1006100080FE070A0A090100FE808080F880808041
:100620008080070A0A09010038448280808E828215
:100630004438070A0A09010082828282FE8282828D
:100640008282050A0A090200F820202020202020AA
:1006500020F8070A0A0901003E0808080808088867
:100660008870070A0A09010082848890A0D08884D3
:100670008282070A0A090100808080808080808051
:1006800080FE070A0A0901008282C6AA928282823B
:100690008282070A0A0901008282C2A2928A8682A5
:1006A0008282070A0A0901007C8282828282828217
:1006B000827C070A0A090100F884828284F880801B
:1006C0008080080B0B0901FF384482828282828A73
:1006D000443A01070A0A090100F884828284F890EA
:1006E000888482070A0A0901007C8280807C0202D9
:1006F00002827C070A0A090100FE10101010101077
:10070000101010070A0A0901008282828282828206
:10071000824438070A0A090100828282444444283C
:10072000282810070A0A0901008282828292929286
:1007300092AA44070A0A090100828244281010285C
:10074000448282070A0A090100828244281010109C
:10075000101010070A0A090100FE020408102040C8
:100760008080FE040C0C0903FFF080808080808074
:1007700080808080F0070A0A090100804040201034
:100780001008040402040C0C0902FFF010101010F1
:10079000101010101010F00704040901061028446E
:1007A000820801010900FFFF03030309030A8040D7
:1007B000200707070901007C02027E82867A070A69
:1007C0000A090100808080BCC2828282C2BC070705
:1007D000070901007C82808080827C070A0A090167
:1007E000000202027A86828282867A07070709015E
:1007F000007C8282FE80827C070A0A0901001C229A
:10080000222020F820202020070A0A0901FD7A84EE
:10081000848478807C82827C070A0A0901008080B7
:1008200080BCC28282828282050A0A0902006000BC
:1008300000E02020202020F8050D0D0902FD180001
:100840000038080808080808888870070A0A09019B
:1008500000808080848890B0C88482050A0A0902DA
:1008600000E02020202020202020F8070707090191
:1008700000EC929292929282070707090100BCC293
:1008800082828282820707070901007C828282823B
:10089000827C070A0A0901FDB8C4828282C4B8803A
:1008A0008080070A0A0901FD3A46828282463A029E
:1008B00002020707070901009C62424040404007CE
:1008C00007070901007C82807C02827C07090909F4
:1008D00001002020FC20202020221C0707070901FE
:1008E000008282828282867A07070709010082825B
:1008F0004444282810070707090100828292929237
:10090000AA440707070901008244281028448207E7
:100910000A0A0901FD424224242418181090600795
:100920000707090100FE0408102040FE060B0B0912
:1009300002001C20202020C0202020201C010C0CA4
:100940000904FF8080808080808080808080800695
:100950000B0B090100E0101010100C10101010E02B
:1009600007030309010762928CFFFFFFFFFFFFFFF0
:10097000FFFFFFFFFFFFFFFFFFFFFFFFFFFFFFFF87
:10098000FFFFFFFFFFFFFFFFFFFF00000009000E5A
:10099000010B0B0904008080000080808080808033
:1009A0008006080809010008789490A0A478400700
:1009B0000A0A0901001C222020F8202060A25C07FE
:1009C0000606090103827C44447C82070A0A090165
:1009D00000828244287C107C101010010B0B09044B
:1009E000FF8080808080008080808080040B0B09E5
:1009F00002FF60908060909090601090600302020F
:100A000009030BA0A00809090900013C4299A5A10E
:100A1000A599423C05070709010360907090780092
:100A2000F80708080901011224489090482412068A
:100A30000404090102FC040404050101090204F88C
:100A40000809090900013C42B9A5BDA9A5423C0617
:100A50000101090109FC0404040903066090906087
:100A6000070909090101101010FE10101000FE0402
:100A700006060901046090106080F0040606090172
:100A80000460902010906003030309030A20408053
:100A90000709090901FE8282828282C6BA80800724
:100AA0000A0A0901007E8A8A8A7A0A0A0A0A0A025E
:100AB0000202090404C0C00403030902FD2090607F
:100AC00003060609010440C0404040E0050606094F
:100AD00001047088887000F807080809010190482F
:100AE000241212244890070A0A09010040C040401D
:100AF00042E60A121A06070A0A09010040C04040ED
:100B00004CF2020C101E070A0A0901006090201026
:100B100092660A121A06070A0A090100100010104C
:100B200020408082827C070E0E0901002010080000
:100B300010282828447C44828282070E0E09010076
:100B40000810200010282828447C44828282070E46
:100B50000E0901001028440010282828447C4482F3
:100B60008282070D0D0901003458001028282844FE
:100B70007C44828282070D0D09010028280010287C
:100B80002828447C44828282070E0E090100102826
:100B9000281010282828447C44828282070A0A09E7
:100BA00001001E2828284E784888888E070D0D09D8
:100BB00001FD3C42808080808080423C08241807F0
:100BC0000E0E09010020100800FE808080F8808051
:100BD0008080FE070E0E09010008102000FE8080B4
:100BE00080F880808080FE070E0E090100102844E6
:100BF00000FE808080F880808080FE070D0D090156
:100C000000282800FE808080F880808080FE050E0D
:100C10000E09020040201000F82020202020202073
:100C200020F8050E0E09020010204000F8202020B8
:100C30002020202020F8050E0E09020020508800F8
:100C4000F82020202020202020F8050D0D0902008A
:100C5000505000F82020202020202020F8070A0AE9
:100C600009010078444242F24242424478070D0DA5
:100C70000901003458008282C2A2928A868282824E
:100C8000070E0E090100201008007C8282828282F9
:100C90008282827C070E0E090100081020007C82EF
:100CA000828282828282827C070E0E0901001028D5
:100CB00044007C82828282828282827C070D0D09BE
:100CC00001003458007C82828282828282827C0788
:100CD0000D0D0901002828007C8282828282828296
:100CE000827C0707070901018244281028448207F3
:100CF0000C0C0901FF027C868A8A9292A2A2C27C15
:100D000080070E0E09010020100800828282828274
:100D10008282824438070E0E0901000810200082EA
:100D2000828282828282824438070E0E090100107C
:100D300028440082828282828282824438070D0D9A
:100D400009010028280082828282828282824438BD
:100D5000070E0E090100081020008282442810109E
:100D600010101010070A0A0901008080FC8282829C
:100D7000FC808080060A0A09010038444448D048B3
:100D800044444458070B0B090100201008007C0262
:100D9000027E82867A070B0B090100081020007C76
:100DA00002027E82867A070B0B090100102844009C
:100DB0007C02027E82867A070A0A09010034580002
:100DC0007C02027E82867A070A0A0901002828002E
:100DD0007C02027E82867A070C0C0901001028280A
:100DE00010007C02027E82867A0707070901006CE8
:100DF00012127E90926C070A0A0901FD7C828080A3
:100E000080827C104830070B0B090100201008007D
:100E10007C8282FE80827C070B0B09010008102077
:100E2000007C8282FE80827C070B0B090100102867
:100E300044007C8282FE80827C070A0A0901002825
:100E400028007C8282FE80827C050C0C09020080D6
:100E500040200000E02020202020F8050C0C090292
:100E6000001020400000E02020202020F8050C0C7D
:100E70000902002050880000E02020202020F805F2
:100E80000B0B09020050500000E02020202020F829
:100E9000070B0B090100483050083C448282824411
:100EA00038070A0A090100345800BCC282828282D3
:100EB00082070B0B090100201008007C82828282CD
:100EC000827C070B0B090100081020007C828282C3
:100ED00082827C070B0B090100102844007C82826F
:100EE0008282827C070A0A0901003458007C8282CF
:100EF0008282827C070A0A0901002828007C8282FB
:100F00008282827C07090909010010381000FE0066
:100F10001038100709090901FF027C8A8A92A2A2EF
:100F20007C80070B0B090100402010008282828226
:100F300082867A070B0B090100081020008282824A
:100F40008282867A070B0B090100102844008282F6
:100F5000828282867A070A0A090100282800828292
:100F6000828282867A070E0E0901FD040810004273
:100F7000422424241818109060070B0B0901FE80EE
:100F800080B8C4828282C4B88080070D0D0901FD3B
:100F900024240042422424241818109060000609DA
:100FA00000FE06018902FE20FFFE07FE06FE00008D
:100FB000000600070106060602008080808000808F
:100FC000030303060103A0A0A00507070600FF50C6
:100FD00050F850F850500509090600FE2070A8A0EE
:100FE0007028A870200608080600FF40A8481020B6
:100FF0004854080507070600FF60909060989068C5
:101000000103030602038080800207070602FF40F7
:101010008080808080400207070602FF80404040B9
:101020004040800505050600008850F850880505F9
:10103000050600002020F820200204040602FEC05D
:10104000404080050101060002F80202020602008B
:10105000C0C004060606010010102040808004066F
:10106000060601006090909090600306060601005D
:1010700040C0404040E00406060601006090102099
:1010800040F0040606060100F020601010E005069E
:101090000606000010305090F81004060606010005
:1010A000F080E01010E00406060601006080E09089
:1010B0009060040606060100F0101020404004066F
:1010C000060601006090609090600406060601002C
:1010D000609090701060020505060200C0C000C05C
:1010E000C00207070602FEC0C000C04040800505E0
:1010F000050600001860806018050303060001F86B
:1011000000F8050505060000C0300830C0040707D8
:1011100006010060901060400040050606060000D1
:101120007090A8B08070050606060000205088F870
:101130008888050606060000F088F08888F0040616
:10114000060601006090808090600406060601009B
:10115000E090909090E0040606060100F080E080A8
:1011600080F0040606060100F080E080808004061E
:1011700006060100609080B090600406060601003B
:101180009090F0909090030606060100E0404040E9
:1011900040E00506060600003810101090600406B6
:1011A0000606010090A0C0A090900406060601006B
:1011B0008080808080F005060606000088D8A8A8F8
:1011C000888804060606010090D0B090909005062D
:1011D00006060000708888888870040606060100EC
:1011E000E09090E080800407070601FF609090D0B7
:1011F000B06010040606060100E09090E0909004B4
:101200000606060100609040209060050606060074
:1012100000F820202020200406060601009090906F
:10122000909060040606060100909090F0606005C2
:1012300006060600008888A8A8D8880506060600C5
:101240000088502020508805060606000088885037
:10125000202020040606060100F010204080F00344
:101260000606060100E080808080E0040606060194
:1012700000808040201010030606060100E02020B8
:101280002020E00503030600032050880501010625
:1012900000FEF80202020602048040040404060173
:1012A00000709090700406060601008080E0909027
:1012B000E004040406010070808070040606060144
:1012C0000010107090907004040406010060B0C01B
:1012D00070040606060100205040E0404004060667
:1012E0000601FE6090907010600406060601008002
:1012F00080E09090900306060601004000C0404048
:10130000E00308080601FE200060202020A0400421
:1013100006060601008080A0C0A090030606060114
:1013200000C040404040E0050404060000D0A8A8EA
:1013300088040404060100E090909004040406016F
:1013400000609090600406060601FEE09090E08048
:10135000800406060601FE709090701010040404CC
:10136000060100A0D0808004040406010070C03093
:10137000E00406060601004040E04050200404045A
:1013800006010090909070040404060100909060A3
:101390006005040406000088A8A85004040406019F
:1013A00000906060900406060601FE909090709098
:1013B00060040404060100F02040F0030707060162
:1013C00000204040804040200107070602FF808047
:1013D0008080808080030707060100804040204015
:1013E000408004020206010350A0FFFFFFFFFFFF41
:1013F000FFFFFFFFFFFFFFFFFFFFFFFFFFFFFFFFFD
:10140000FFFFFFFFFFFFFFFFFFFFFF0000000600E1
:101410000701060606020080008080808004060620
:101420000601FF2070A0A070200507070600FF300E
:101430004840F04040F8050505060000A8508850D7
:10144000A80506060600008850F820F820010707C6
:101450000602FF808080008080800407070601FF6D
:10146000708060906010E0030101060105A006078E
:1014700007060000788494A4948478030505060187
:101480000160A06000E00505050600002850A0509E
:1014900028040303060100F01010040101060102F4
:1014A000F00607070600007884B4A4A48478040139
:1014B00001060105F00403030601026090600507C0
:1014C000070600FF2020F8202000F803050506018C
:1014D0000140A02040E0030505060101C020402096
:1014E000C002020206020440800405050601FF90C6
:1014F00090B0D08005060606000078E8E868282845
:10150000010101060202800202020602FE4080037F
:10151000050506010140C04040E003050506010144
:1015200040A04000E0050505060000A0502850A09E
:101530000508080600FF40C04050703078100508CC
:10154000080600FF40C0405068081038050808062B
:1015500000FFC0204030F03078100407070601007B
:1015600020002060809060050707060000402020D2
:1015700050708888050707060000102020507088EA
:10158000880507070600002050205070888805074E
:1015900007060000285020507088880507070600BD
:1015A0000050002050708888050707060000205072
:1015B000205070888805060606000078A0F0A0A0DC
:1015C000B80408080601FE60908080906020400406
:1015D00007070601004020F080E080F004070706BE
:1015E00001002040F080E080F004070706010020A1
:1015F00050F080E080F00407070601005000F08002
:10160000E080F00307070601008040E0404040E032
:101610000307070601002040E0404040E0030707C1
:1016200006010040A0E0404040E00307070601003B
:10163000A000E0404040E00506060600007048E8D3
:1016400048487004070706010050A090D0B0909061
:10165000040707060100402060909090600407078F
:10166000060100204060909090600407070601008A
:101670002050609090906004070706010050A06021
:1016800090909060040707060100500060909090D1
:1016900060050505060000885020508804080806EB
:1016A00001FF1070B0B0D0D0E08004070706010041
:1016B0004020909090906004070706010020409021
:1016C0009090906004070706010020509090909041
:1016D0006004070706010050009090909060050795
:1016E000070600001020885020202004060606016E
:1016F0000080E09090E0800406060601006090A063
:10170000A090A00407070601004020007090907090
:10171000040707060100204000709090700407073E
:101720000601002050007090907004070706010029
:1017300050A00070909070040606060100500070E2
:101740009090700407070601002050207090907060
:1017500005040406000070A8B0780406060601FE21
:101760007080807020400407070601004020006060
:10177000B0C07004070706010020400060B0C070D0
:1017800004070706010020500060B0C07004060680
:10179000060100500060B0C070030707060100801A
:1017A0004000C04040E0030707060100204000C0A1
:1017B0004040E003070706010040A000C04040E0B1
:1017C000030606060100A000C04040E0040707062B
:1017D000010030601070909060040707060100500F
:1017E000A000E090909004070706010040200060F0
:1017F0009090600407070601002040006090906010
:10180000040707060100205000609090600407075D
:1018100006010050A00060909060040606060100DA
:101820005000609090600505050600002000F8005B
:101830002004040406010070B0D0E004070706018C
:10184000004020009090907004070706010020409F
:1018500000909090700407070601002050009090BF
:1018600090700406060601005000909090700409E4
:10187000090601FE204000909090709060040808D6
:101880000601FE8080E09090E08080040808060158
:10189000FE5000909090709060B02000416D6269A1
:1018A000656E2E00B0200046756D690050756C693C
:1018B0007A7A696100426C6F63636F005370656789
:1018C0006E696D656E746F005369637572657A7ABF
:1018D00061005374616E642D6279005269737061A6
:1018E000726D696F004E6F726D616C6500322720FA
:1018F000616363656E73696F6E65005374616269DD
:101900006C697A7A617A696F6E6500416363656EAE
:1019100073696F6E6500436865636B2D7570005366
:1019200070656E746F00000A1400FC0D024A049981
:1019300020FFFC10FC0DFC0000000A0010020D0D41
:101940000A0400C0C0C0C0C0C0C0C0C0C000C0C089
:101950000604040A0209CCCCCC48090B160A010182
:101960001B001B001B007F80360036003600FF0086
:101970006C006C006C00080D0D0A0100187EDBD8AD
:10198000D8D87E1B1B1BDB7E18090C180A010073BC
:1019900000DB00DE0076000C000C00180018003799
:1019A000003D806D806700090D1A0A010038006C47
:1019B000006C006C00780030007000D800CD80C74B
:1019C00000C600EF0079800205050A0408C0C0C007
:1019D000C080050D0D0A030018306060C0C0C0C093
:1019E000C060603018050D0D0A0200C0603030186C
:1019F00018181818303060C00807070A0103666617
:101A00003CFF3C66660807070A0103181818FF1810
:101A100018180403030A03FF7070E00801010A01AB
:101A200006FF0303030A0400E0E0E0070C0C0A02CF
:101A30000006060C0C181830306060C0C0080D0D90
:101A40000A0100183C6666C3C3C3C3C366663C187C
:101A5000080D0D0A0100183878D818181818181829
:101A60001818FF080D0D0A01003C66C3C3030306E6
:101A70001C3060C0C0FF080D0D0A01003C66C3C3E6
:101A800003061C0603C3C3663C080D0D0A010002D1
:101A9000060E1E3666C6C6FF06060606080D0D0AA9
:101AA0000100FFC0C0C0C0DCE6030303C3663C08FE
:101AB0000D0D0A01003C66C2C0C0DCE6C3C3C3C34F
:101AC000663C080D0D0A0100FF030306060C0C1806
:101AD0001830306060080D0D0A01003C66C3C3C3B6
:101AE000663C66C3C3C3663C080D0D0A01003C6634
:101AF000C3C3C3C3673B030343663C0308080A042C
:101B000000E0E000000000E0E00409090A03FF70C3
:101B100070000000007070E0070D0D0A0100020661
:101B20000C183060C06030180C06020806060A0166
:101B300003FF00000000FF070D0D0A020080C060D7
:101B400030180C060C183060C080080D0D0A01001A
:101B50003C66C3C3C3060C181818001818080D0DEE
:101B60000A01003C66C3CFDFDBDBDBDECCC0633EBB
:101B7000080D0D0A0100183C6666C3C3C3FFC3C34A
:101B8000C3C3C3080D0D0A0100F8CCC6C6C6CCFC01
:101B9000C6C3C3C3C6FC080D0D0A01003C66C3C022
:101BA000C0C0C0C0C0C0C3663C080D0D0A0100FC27
:101BB000C6C3C3C3C3C3C3C3C3C3C6FC080D0D0A96
:101BC0000100FFC0C0C0C0C0FCC0C0C0C0C0FF0892
:101BD0000D0D0A0100FFC0C0C0C0C0FCC0C0C0C025
:101BE000C0C0080D0D0A01003C66C3C0C0C0CFC311
:101BF000C3C3C3673D080D0D0A0100C3C3C3C3C3FC
:101C0000C3FFC3C3C3C3C3C3080D0D0A0100FF183C
:101C100018181818181818181818FF090D1A0A019A
:101C2000001F8006000600060006000600060006EB
:101C3000000600C600C6006C003800080D0D0A0141
:101C400000C3C3C6C6CCCCF8CCCCC6C6C3C3080D33
:101C50000D0A0100C0C0C0C0C0C0C0C0C0C0C0C06C
:101C6000FF080D0D0A0100C3C3E7E7FFDBDBDBDB89
:101C7000C3C3C3C3080D0D0A0100C3E3E3F3F3DBE1
:101C8000DBCFCFC7C7C3C3080D0D0A01003C66C335
:101C9000C3C3C3C3C3C3C3C3663C080D0D0A01005D
:101CA000FCC6C3C3C3C3C6FCC0C0C0C0C0080E0EC0
:101CB0000A01FF3C66C3C3C3C3C3C3C3DBCF663ED5
:101CC00003080D0D0A0100FCC6C3C3C3C3C6FCCC88
:101CD000C6C6C3C3080D0D0A01003C66C3C0C06080
:101CE0003C060303C3663C080D0D0A0100FF1818EB
:101CF00018181818181818181818080D0D0A0100C7
:101D0000C3C3C3C3C3C3C3C3C3C3C3663C080D0DAE
:101D10000A0100C3C3C3C36666663C3C3C1818187E
:101D2000080D0D0A0100C3C3C3C3C3DBDBDBDBE764
:101D3000E7C3C3080D0D0A0100C3C366663C3C1827
:101D40003C3C6666C3C3080D0D0A0100C3C366664A
:101D50003C3C18181818181818080D0D0A0100FF37
:101D60000303060C0C18303060C0C0FF060D0D0ACE
:101D70000200FCC0C0C0C0C0C0C0C0C0C0C0FC0722
:101D80000C0C0A0200C0C06060303018180C0C0641
:101D900006060D0D0A0200FC0C0C0C0C0C0C0C0CB5
:101DA0000C0C0CFC0804040A0109183C66C3090168
:101DB000020A01FFFF800403030A030AC06030081F
:101DC00008080A01003E63037FC3C3C37D080D0DED
:101DD0000A0100C0C0C0C0C0DCE6C3C3C3C3E6DCA8
:101DE0000808080A01003E63C0C0C0C0633E080D79
:101DF0000D0A010003030303033B67C3C3C3C367A7
:101E00003B0808080A01003C66C3FFC0C0633E08E7
:101E10000D0D0A01001E33333030FC3030303030CD
:101E20003030080C0C0A01FC7DC7C6C6C67CC07EDB
:101E3000C3C3C37E080D0D0A0100C0C0C0C0C0DC12
:101E4000E6C3C3C3C3C3C3080B0B0A0100181800C1
:101E500078181818181818FF070F0F0A02FC060642
:101E6000001E06060606060606C6C6C67C080D0D3A
:101E70000A0100C0C0C0C0C0C6CCD8F0F8CCC6C3F0
:101E8000080D0D0A010078181818181818181818D5
:101E90001818FF0808080A0100B6FFDBDBDBDBDBF4
:101EA000DB0808080A0100DCE6C3C3C3C3C3C308D8
:101EB00008080A01003C66C3C3C3C3663C080C0C97
:101EC0000A01FCDCE6C3C3C3C3E6DCC0C0C0C00873
:101ED0000C0C0A01FC3B67C3C3C3C3673B0303038A
:101EE000030808080A0100DE736060606060600833
:101EF00008080A01007EC3C07E0303C37E080B0BE3
:101F00000A0100303030FC3030303030331E0808E9
:101F1000080A0100C3C3C3C3C3C3673B0808080A58
:101F20000100C3C366663C3C18180808080A010093
:101F3000C3C3C3DBDBDBFF660808080A0100C36616
:101F40003C18183C66C3080C0C0A01FCC3C3C3C38D
:101F5000C3C3673B03C3663C0708080A0200FE06CA
:101F60000C183060C0FE080D0D0A01000F1818187B
:101F70001818F018181818180F020D0D0A0400C0D0
:101F8000C0C0C0C0C0C0C0C0C0C0C0C0080D0D0A25
:101F90000100F018181818180F1818181818F00859
:101FA00003030A010A73DBCEFFFFFFFFFFFFFFFF02
:101FB000FFFFFFFFFFFFFFFFFFFFFFFFFFFFFFFF31
:101FC000FFFFFFFFFFFFFFFFFF0000000A001002FE
:101FD0000D0D0A0400C0C000C0C0C0C0C0C0C0C059
:101FE000C0C0070C0C0A010018183C66C2C0C0C271
:101FF000663C1818090C180A01001E003300330053
:1020000030003000FC00300030003000F800AD80BF
:10201000E7000909120A00018080DD807F0063006B
:10202000630063007F00DD808080080B0B0A0100E5
:1020300081C3663C7E187E18181818020D0D0A041C
:1020400000C0C0C0C0C0000000C0C0C0C0C0080DFB
:102050000D0A01003C66C66078CC66331E066366D6
:102060003C0602020A020BCCCC080B0B0A01003C16
:1020700066C3BDA5A1A5BDC3663C0809090A010444
:102080003E43037FC3C37D00FF090B160A00000413
:10209000800D801B0036006C00D8006C0036001BE1
:1020A000000D8004800804040A0104FFFF030306F6
:1020B00001010A0206FC080B0B0A01003C66C3BDC5
:1020C000A5BDA9ADC3663C0801010A010DFF0606C6
:1020D000060A02073078CCCC78300807070A0102DC
:1020E0001818FF181800FF0507070A020670D8180D
:1020F0003060C0F80507070A020670D8183018D8F3
:10210000700403030A030A3060C0070A0A0A01FDCB
:10211000C6C6C6C6C6EEFAC0C0C0080D0D0A01008C
:102120007FFFFBFBFB7B1B1B1B1B1B1B1B030303FF
:102130000A0405E0E0E00504040A02FC3018D87047
:102140000407070A020660E060606060F0070909A2
:102150000A0104386CC6C6C66C3800FE090B160AA4
:1021600001009000D8006C0036001B000D801B00A1
:1021700036006C00D8009000080C0C0A010140C029
:102180004142E40812264A9E0202080C0C0A010190
:1021900040C04142E40816294182040F080C0C0A91
:1021A0000101E0106112E40812264A9F0202080DA4
:1021B0000D0A01001818001818183060C3C3C36650
:1021C0003C080F0F0A010060301800183C66C3C3BA
:1021D000C3FFC3C3C3C3080F0F0A0100060C1800D6
:1021E000183C66C3C3C3FFC3C3C3C3080F0F0A01B0
:1021F00000183C6600183C66C3C3C3FFC3C3C3C317
:10220000080F0F0A0100327E4C00183C66C3C3C39E
:10221000FFC3C3C3C3080F0F0A0100666600183C62
:102220006666C3C3C3FFC3C3C3C30810100A01005B
:102230003C66663C00183C66C3C3C3FFC3C3C3C34C
:10224000080D0D0A01001F3C6C6CCCCCFFCCCCCC33
:10225000CCCCCF0811110A01FC3C66C3C0C0C0C081
:10226000C0C0C0C3663C180C6C38080F0F0A0100D0
:1022700060301800FFC0C0C0C0FCC0C0C0C0FF08B4
:102280000F0F0A01000C183000FFC0C0C0C0FCC016
:10229000C0C0C0FF080F0F0A0100183C6600FFC055
:1022A000C0C0C0FCC0C0C0C0FF080F0F0A0100665C
:1022B000660000FFC0C0C0C0FCC0C0C0C0FF060FA9
:1022C0000F0A020060301800FC30303030303030FF
:1022D0003030FC060F0F0A020018306000FC30306E
:1022E00030303030303030FC060F0F0A02003078CA
:1022F000CC00FC303030303030303030FC060F0F46
:102300000A0200CCCC00FC3030303030303030307D
:1023100030FC090D1A0A00007E00630061806180B4
:1023200061806180F980618061806180618063008B
:102330007E00080F0F0A0100327E4C00C3E3F3F366
:10234000DBDBCFCFC7C3C3080F0F0A010030180C67
:10235000003C66C3C3C3C3C3C3C3663C080F0F0AB4
:1023600001000C1830003C66C3C3C3C3C3C3C366BB
:102370003C080F0F0A0100183C66003C66C3C3C34B
:10238000C3C3C3C3663C080F0F0A0100327E4C0072
:102390003C66C3C3C3C3C3C3C3663C080F0F0A0173
:1023A000006666003C66C3C3C3C3C3C3C3C3663C05
:1023B0000708080A010082C66C38386CC682080F0C
:1023C0000F0A01FF013E66C7C7CBCBCBD3D3D3E304
:1023D000667C80080F0F0A010030180C00C3C3C3CD
:1023E000C3C3C3C3C3C3663C080F0F0A01000C1864
:1023F0003000C3C3C3C3C3C3C3C3C3663C080F0F0A
:102400000A0100183C6600C3C3C3C3C3C3C3C3C32C
:10241000663C080F0F0A0100666600C3C3C3C3C34E
:10242000C3C3C3C3C3663C080F0F0A01000C1830B6
:1024300000C3C366663C3C1818181818070D0D0A2F
:102440000200C0C0C0FCC6C6C6C6C6FCC0C0C0082C
:102450000D0D0A01001C36636366EC6C66636363F2
:10246000666C080C0C0A010030180C007EC3037F58
:10247000C3C3C37D080C0C0A01000C1830007EC3D6
:10248000037FC3C3C37D080C0C0A0100183C66001F
:102490007EC3037FC3C3C37D080C0C0A0100327ED8
:1024A0004C007EC3037FC3C3C37D080B0B0A01002E
:1024B0006666007EC3037FC3C3C37D080D0D0A019A
:1024C000003C66663C007EC3037FC3C3C37D08082F
:1024D000080A0100769B1B1E78D8D96E080C0C0ADE
:1024E00001FC3E63C0C0C0C0633E180C6C38080CD1
:1024F0000C0A0100603018003C66C3FFC0C0633E98
:10250000080C0C0A0100060C18003C66C3FFC0C092
:10251000633E080C0C0A0100183C66003C66C3FFD1
:10252000C0C0633E080B0B0A01006666003C66C330
:10253000FFC0C0633E080C0C0A0100603018007830
:10254000181818181818FF080C0C0A01000C18307D
:102550000078181818181818FF080C0C0A01001831
:102560003C660078181818181818FF080B0B0A0199
:102570000066660078181818181818FF080D0D0A5C
:10258000010088D87070D88C3E67C3C3C3663C080E
:102590000C0C0A0100327E4C00DCE6C3C3C3C3C38B
:1025A000C3080C0C0A0100603018003C66C3C3C3AA
:1025B000C3663C080C0C0A0100060C18003C66C3FC
:1025C000C3C3C3663C080C0C0A0100183C66003CFF
:1025D00066C3C3C3C3663C080C0C0A0100327E4CC0
:1025E000003C66C3C3C3C3663C080B0B0A0100660C
:1025F00066003C66C3C3C3C3663C080A0A0A0101FD
:1026000018180000FFFF00001818080A0A0A01FF46
:10261000013E66CBCBD3D3667C80080C0C0A01004C
:1026200030180C00C3C3C3C3C3C3673B080C0C0AF8
:102630000100060C1800C3C3C3C3C3C3673B080C27
:102640000C0A0100183C6600C3C3C3C3C3C3673B85
:10265000080B0B0A0100666600C3C3C3C3C3C3678C
:102660003B0810100A01FC0C183000C3C3C3C3C3DD
:10267000C3673B03C3663C0711110A02FCC0C0C01C
:10268000C0C0C0F8CCC6C6C6CCF8C0C0C0C0080F19
:102690000F0A01FC666600C3C3C3C3C3C3673B0321
:1026A000C3663C5465726D6F7374617469005469DC
:1026B0006D657273004C6976656C6C6920706F741F
:1026C0002E004D656E75207072696E636970616C65
:1026D00065004C6976656C6C6F20310050617261E9
:1026E0006D657472690001050800FF06012102355D
:1026F00020FFFF07FF06FF0900502216568080804A
:10270000800080153353A0A0A00257575050F850B6
:10271000F850500257572070A0702870201335557C
:1027200080A040A02002475740A0A040A0A0502574
:10273000135380808012265640808080804012266D
:10274000568040404040800245559060F0609002C5
:1027500055552020F820201133536040800441510A
:10276000F011335340E04002465610102040808064
:1027700012365640A0A0A0A04012365640C040409D
:1027800040E00246566090106080F0024656F0200D
:10279000601090600246562060A0F020200246564D
:1027A000F080E01090600246566080E090906002F9
:1027B0004656F010202040400246566090609090AF
:1027C00060024656609090701060122555C0C0009F
:1027D000C0C01136566060006040801236562040FE
:1027E00080804020034353F000F012365680402092
:1027F00020408012365640A02040004001585830FA
:102800004898A8A8904030024656609090F090906A
:10281000024656E090E09090E0024656609080803C
:102820009060024656E090909090E0024656F0800C
:10283000E08080F0024656F080E0808080024656BC
:10284000609080B090600246569090F09090901208
:102850003656E040404040E002465670202020A01E
:102860004002465690A0C0A0A090024656808080AC
:102870008080F002465690F0F0909090024656907C
:10288000D0F0B0B0900246566090909090600246B2
:1028900056E09090E08080014757609090D0B06003
:1028A00010024656E09090E09090024656609040AC
:1028B000209060123656E04040404040024656901C
:1028C0009090909060024656909090906060024682
:1028D00056909090F0F090024656909060609090E4
:1028E000025656888850202020024656F01020407C
:1028F00080F0123656E080808080E002465680806C
:1029000040201010123656E020202020E0163252CF
:1029100040A0014151F01622528040024454709070
:1029200090700246568080E09090E01234546080AF
:10293000806002465610107090907002445460B04F
:10294000C060024656205040E0404001455560902E
:102950007010600246568080E0909090123656408B
:1029600000C04040E01137572000202020A0400246
:102970004656808090E09090123656C040404040CD
:10298000E0025454D0A8A8A8024454E090909002C9
:10299000445460909060014555E090E0808001458E
:1029A000557090701010024454A0D080801234549E
:1029B00060C020C00246564040E0405020024454CF
:1029C00090909070123454A0A0A04002545488A853
:1029D000A8500244549060609001455590907090CA
:1029E00060024454F02040F0024757304020C0209D
:1029F0004030221656808080808080024757C02059
:102A000040304020C006425250A0FFFFFFFFFFFFB2
:102A1000FFFFFFFFFFFFFFFFFFFFFFFFFFFFFFFFC6
:102A2000FFFFFFFFFFFFFFFFFFFFFF090050221620
:102A3000568000808080800146562070A0A07020C3
:102A40000246562050E04050A00255558870507004
:102A5000880256568850F820F82022175780808028
:102A6000008080800247577080E0907010E017313E
:102A700051A002565670A8C8C8A87014355560A059
:102A80006000E003435350A050123353E020201461
:102A90003151E002565670E8D8E8D870173151E04D
:102AA00015335340A04012355540E04000E0143546
:102AB0005540A02040E0143555C020C020C016224B
:102AC000524080014555909090E08002565678E83B
:102AD000E86828282411518011225240801435556D
:102AE00040C04040E014355540A04000E00343534F
:102AF000A050A0024757808080A060F02002475776
:102B00008080A0D010207002475780408060A0F0E5
:102B10002012365640004080A040024757402060B7
:102B200090F0909002475720406090F090900247BC
:102B30005760906090F0909002475750A06090F0DE
:102B4000909002475790006090F090900247576035
:102B5000906090F0909002465670A0A0F0A0B00156
:102B60004757609080809060400247574020F08037
:102B7000E080F00247572040F080E080F0024757A5
:102B80006090F080E080F00247579000F080E08095
:102B9000F01237578040E0404040E0123757204065
:102BA000E0404040E012375740A0E0404040E01293
:102BB0003757A000E0404040E00256567048E848D1
:102BC000487002475750A090D0B0909002475740AD
:102BD00020609090906002475720406090909060F5
:102BE0000247576090609090906002475750A060F5
:102BF00090909060024757900060909090601233E0
:102C000053A040A002465670B0B0D0D0E002475763
:102C10004020909090906002475720409090909074
:102C200060024757609090909090600247579000E4
:102C300090909090600257571020885020202002DA
:102C4000465680E09090E0800246566090A0A090AA
:102C5000A0024757402000709090700247572040D4
:102C60000070909070024757205000709090700252
:102C7000475750A0007090907002465650007090D8
:102C8000907002475760906070909070025454F0BA
:102C900068B0781135556080806040024757402009
:102CA0000060B0C06002475720400060B0C06002C2
:102CB000475760900060B0C060024656500060B058
:102CC000C060123757804000C04040E012375720A4
:102CD0004000C04040E012375740A000C04040E0F4
:102CE000123656A000C04040E0024757A040A01056
:102CF00070906002475750A000E0909090024757B4
:102D00004020006090906002475720400060909003
:102D1000600247576090006090906002475750A053
:102D2000006090906002465690006090906012356E
:102D3000554000E0004002445470B0D0E0024757D4
:102D40004020009090907002475720400090909053
:102D50007002475760900090909070024656900025
:102D600090909070014858204000909070906001C1
:102D700047578080E090E080800147579000909016
:102D8000709060FFFFFFC005FFFFFFFFFFFC00002A
:102D90003FFFFFFFFFE0000007FFFFFFFF80000095
:102DA00001FFFFFFFE002FF8007FFFFFFC01FFFF88
:102DB000803FFFFFF00FFFFFF00FFFFFE03FF7EF57
:102DC000FC07FFFFC0FFF7F7FE03FFFF81FF67F27D
:102DD000FF81FFFF03FFA7E6FFC0FFFE07FF27E617
:102DE000FFF07FFC0FFF33E47FF03FF81FDF63E667
:102DF0007DFC1FF83FBE31C67DFC1FF07FBE718792
:102E00003EFE0FE0FF3C71871C7F07E0FF38F08734
:102E10001E7F07C1FF38E1871C7F83C3FA186187D3
:102E20000C6FC383FB1841C2085FC187FC0801C057
:102E3000085FC187F90803C0184FE107F90801804E
:102E4000184FE00FF10C0000184FF00FE31C0000CA
:102E50001847F00FE30C000018E3F01FC300000058
:102E60000063F00FC70000000061F81FC3000000FE
:102E70000061F81FC00000000001F81FC000000042
:102E80000003F81FC00000000003F81FE00000006E
:102E90000003F81FE00000000003F81FE00000003E
:102EA0000007F81FF00000000007F00FF0A000007E
:102EB0000507F81FE0FF00007F83F00FE0FFC0016F
:102EC000FF83F00FE07FE007FF07F00FF03FF80F00
:102ED000FE07F007F81FFC1FF80FE087F807FC3F1C
:102EE000F01FE187FC01FE3F803FE183FF0000000F
:102EF000007FC1C1FF80008001FFC3C1FFF001C09E
:102F000007FF83E1FFF803C01FFF07E0FFFE03E0B8
:102F10003FFF07F07FFC03E03FFE0FF83FFC062079
:102F20001FFC1FF81FFC00001FF81FFC0FF800001B
:102F30000FF03FFE0FF800001FE07FFF03F8800155
:102F40000FC0FFFF81FC84119F81FFFFC07EC41072
:102F5000BE03FFFFE03FCC13FC07FFFFF007FEFFBF
:102F6000F00FFFFFFC01FFFF803FFFFFFE001FF49B
:102F7000007FFFFFFF80000001FFFFFFFFE0000078
:102F800007FFFF000000000000000000000000003C
:102F90000000000000000000000000000000000031
:102FA0000000000000000000000000000000000021
:102FB0000000000000000000000000000000000011
:102FC000005B302E2E3630207365632E5D00546515
:102FD0006D706F20636F636C65610054656D706F19
:102FE00020636F636C6561005B302E2E32333020BE
:102FF000566F6C745D0056656E746F6C61207269FB
:103000007363616C64616D656E746F0056656E2EDE
:103010002072697363005B3330302E2E32383030CB
:103020002047697269275D0056656C6F636974613A
:103030002076656E746F6C612066756D69005665EB
:103040006E2E2066756D69004C6976656C6C692022
:10305000706F742E0000002100240027002A002D2C
:10306000003000330001010000040107010A0100E3
:10307000002200250028002B002E00310034000221
:10308000010000050108010B0100002000230026BB
:103090000029002C002F003200000100000301066F
:1030A00001090105050505070508080808020202CF
:1030B000020A0A08080404040401010101010101D3
:1030C000010303030303030303040707070C0C0CAA
:1030D0000C0C0C0C0C020202020606060606060682
:1030E000060B0B0B0B0B0B0B0B010210202008081F
:1030F000102040102040800201020108040201015A
:103100000204081020408080402010080402018042
:103110000402018040201008040201080402010199
:1031200002040810204080010204081020408000A2
:10313000000A0B02090C0D0E080703040100000031
:10314000000000000000000000000000000000007F
:10315000000000000000000000000012111000003C
:10316000000000000000000000000000000000005F
:1031700000000000004F6666004F6E20004F66663C
:10318000004F6E2000436F636C6561004F66660000
:103190004F6E20004F6666004F6E200043616E64E4
:1031A000656C65747461005B302E2E3233302056AE
:1031B0006F6C745D0056656E746F6C61207269731C
:1031C00063616C64616D656E746F0056656E2E2070
:1031D00072697363005B302E2E32383030204769BD
:1031E0007269275D0056656C6F636974612076654E
:1031F0006E746F6C612066756D690056656E2E2069
:1032000066756D69004D656E75207072696E6369D3
:1032100070616C650000060900FE070199032B2010
:10322000FFFE08FE07FE000000060000010707067B
:10323000020080808080800080030303060104A0D8
:10324000A0A00507070600005050F850F8505005A0
:1032500007070600002070A07028702005070706E9
:10326000000048A8502050A890050707060000401D
:10327000A0A040A890680103030602048080800398
:1032800007070601002040808080402003070706D2
:1032900001008040202020408005050506000188AF
:1032A00050F850880505050600012020F82020036D
:1032B00003030601FF604080050101060003F803D7
:1032C00003030601FF40E040050707060000080869
:1032D000102040808005070706000020508888885D
:1032E00050200507070600002060A0202020F805D8
:1032F0000707060000708808304080F805070706B9
:103300000000F80810300888700507070600001054
:10331000305090F81010050707060000F880B0C87C
:10332000088870050707060000304080B0C8887024
:10333000050707060000F8081010204040050707A1
:1033400006000070888870888870050707060000EE
:10335000708898680810600307070601FF40E04086
:103360000040E0400307070601FF40E040006040E6
:10337000800407070601001020408040201005034C
:1033800003060002F800F804070706010080402049
:1033900010204080050707060000708810202000DC
:1033A00020050707060000708898A8B08070050700
:1033B0000706000020508888F8888805070706005F
:1033C00000F04848704848F005070706000070887C
:1033D0008080808870050707060000F0484848484C
:1033E00048F0050707060000F88080F08080F805A7
:1033F0000707060000F88080F08080800507070638
:103400000000708880809888700507070600008893
:103410008888F8888888030707060100E040404054
:103420004040E005070706000038101010109060BB
:103430000507070600008890A0C0A0908805070730
:10344000060000808080808080F805070706000065
:103450008888D8A88888880507070600008888C853
:10346000A8988888050707060000708888888888DB
:1034700070050707060000F08888F0808080050846
:10348000080600FF7088888888A870080507070666
:103490000000F08888F0A0908805070706000070FB
:1034A000888070088870050707060000F820202033
:1034B00020202005070706000088888888888870F3
:1034C0000507070600008888885050502005070728
:1034D000060000888888A8A8D88805070706000085
:1034E0008888502050888805070706000088885083
:1034F00020202020050707060000F8081020408043
:10350000F8030707060100E08080808080E005075F
:103510000706000080804020100808030707060106
:1035200000E02020202020E00503030600042050B6
:10353000880501010600FFF802020206020680402B
:10354000050505060000700878887805070706005D
:10355000008080B0C888C8B00505050600007088E6
:103560008088700507070600000808689888986832
:103570000505050600007088F8807005070706003D
:1035800000304840F04040400507070600FE7888BC
:1035900088780888700507070600008080B0C88812
:1035A00088880307070601004000C0404040E0044F
:1035B00009090601FE1000301010109090600507F8
:1035C0000706000080808890E090880307070601C6
:1035D00000C04040404040E0050505060000D0A87E
:1035E000A8A888050505060000B0C88888880505D4
:1035F0000506000070888888700507070600FEB081
:10360000C888C8B080800507070600FE68988898BB
:10361000680808050505060000B0C880808005051B
:103620000506000070807008F005070706000040DE
:1036300040F040404830050505060000888888981D
:103640006805050506000088885050200505050618
:1036500000008888A8A850050505060000885020AD
:1036600050880507070600FE888898680888700556
:103670000505060000F8102040F8040707060100C1
:10368000304020C0204030010707060200808080C3
:1036900080808080040707060100C0204030402061
:1036A000C005030306000448A890000000010000C4
:1036B0000000000100000000000100000000000107
:1036C00000000000000100000000000100000000F8
:1036D00000010000000000010000000000010000E7
:1036E00000000001000000000001000000000001D7
:1036F00000000000000100000000000100000000C8
:1037000000010000000000010000000000010000B6
:1037100000000001000000000001000000000001A6
:103720000000000000010000000000010000000097
:103730000001000000000001000000000001000086
:103740000000000100000000000100000000000176
:103750000000000000010000000000010000000067
:103760000001000000000001000000000001000056
:1037700000000006000001070706020080008080AC
:103780008080800507070600FF2078A0A0A0782091
:10379000050707060000304840E04048B005050531
:1037A00006000088705070880508080600FF8888A9
:1037B0005020F820202001070706020080808000AA
:1037C0008080800508080600FF7080E09048380877
:1037D00070030101060107A00507070600007088B5
:1037E000A8C8A888700406060601017090B05000B1
:1037F000F00605050600002448904824040202064D
:103800000102F010040101060103F005070706009C
:10381000007088E8C8C88870050101060007F80331
:10382000030306010440A040050606060000202010
:10383000F82020F804050506010360902040F004FC
:103840000505060103E0106010E002020206020610
:1038500040800506060600FF888888C8B0800507F6
:103860000706000078E8E868282828010101060218
:1038700003800202020602FE4080030505060103E2
:1038800040C04040E00406060601016090906000E0
:10389000F006050506000090482448900609090630
:1038A00000FF40C04040E40C143C04060909060037
:1038B000FF40C04040E81404081C0509090600FF49
:1038C000C0204020C81828780805070706000020F7
:1038D00000202040887005080806000040207088FD
:1038E00088F888880508080600001020708888F885
:1038F00088880508080600002050708888F88888A5
:1039000005080806000048B0708888F8888805080F
:10391000080600005000708888F8888805080806A6
:1039200000002050708888F8888806070706000085
:103930003C50909CF0909C0509090600FE70888020
:1039400080808870204005080806000040F88080CC
:10395000F08080F805080806000010F88080F080EC
:1039600080F805080806000020F88080F08080F8C4
:1039700005080806000050F88080F08080F80308F1
:10398000080601008040E040404040E0030808068F
:1039900001002040E040404040E0030808060100EC
:1039A00040A0E040404040E0030808060100A000BD
:1039B000E040404040E0050707060000F04848E8C6
:1039C0004848F0050808060000285088C8A89888CC
:1039D00088050808060000402070888888887005DF
:1039E000080806000010207088888888700508087C
:1039F0000600002050708888888870050808060036
:103A000000285070888888887005080806000050D3
:103A10000070888888887005050506000088502099
:103A20005088050707060000709898A8C8C8700558
:103A300008080600004020888888888870050808E3
:103A4000060000102088888888887005080806000D
:103A500000205000888888887005080806000050FB
:103A6000008888888888700508080600001020886B
:103A7000885020202005070706000080F088F0808D
:103A80008080050707060000708890A09088B00528
:103A900008080600004020007008788878050808AB
:103AA00006000010200070087888780508080600D5
:103AB0000020500070087888780508080600002863
:103AC00050007008788878050707060000500070DD
:103AD00008788878050808060000205020700878CB
:103AE000887806050506000078147C907C05070799
:103AF0000600FE70888088702040050808060000D7
:103B00004020007088F8807005080806000010202A
:103B1000007088F8807005080806000020500070CA
:103B200088F8807005070706000050007088F8804C
:103B300070030808060100804000C0404040E003D8
:103B40000808060100408000C0404040E00308082B
:103B500006010040A000C0404040E0060A0A0600FE
:103B6000FEA4A800FC8480808084FC060A0A06006B
:103B7000FE549400FC8404040484FC050808060038
:103B800000285000B0C88888880508080600004052
:103B900020007088888870040A0A0602FE3040807F
:103BA00090909090909090040A0A0600FEC0201019
:103BB00090909090909090060707060001448C8C9E
:103BC0008480403C06070706000188C4C4840408BA
:103BD000F00505050600012000F80020050808068C
:103BE000000040F0C8888898781005080806000092
:103BF000E0F88888888888F80505050600012030E7
:103C0000F830200508080600002070F82020202049
:103C1000E00509090600FF2070A8A8B88888502090
:103C20000509090600FFE080C0B0A8A830282805D3
:103C300009090600FFF8A88888888888A8F8050A76
:103C40000A0600FE205050505088A8A8887053657E
:103C5000727669636500506172616D6574726900A6
:103C600047756172646100506172616D657472695B
:103C70000000677211241FBECFEFD1E2DEBFCDBFBF
:103C800000E00CBF13E0A0E0B2E0E4E6F2EF00E0F9
:103C90000BBF02C007900D92AC31B107D9F728E0F5
:103CA000ACE1B3E001C01D92AA30B207E1F71EE11A
:103CB000CAE3DEE100E006C021970109802FFE0182
:103CC0000E94FB75C933D10780E00807A9F70E945D
:103CD00038670C9430790C9400003F924F925F92B9
:103CE0006F927F928F929F92AF92BF92CF92DF920C
:103CF000EF92FF920F931F93CF93DF934091FB05B9
:103D00005091FC056091FD057091FE05413080E801
:103D100058076105710510F00C94492EDB01CA01AA
:103D2000B695A79597958795C09109060C2F10E039
:103D300020E030E080179107A207B30718F48093C2
:103D40000906C82FD0E0BAE0EB2EF12C14E6C12E04
:103D5000D12C0DE6402E03E0502E87E9682E83E03B
:103D6000782E97E1892E912CA12CB12CC1118FC0F6
:103D700080911502882309F454C042305105610531
:103D8000710508F47FC281E08093D2051092E905A5
:103D90008D2F90E00196982F990F890F880F880F2B
:103DA0008093EA0560E28EEA95E00E94CF39E0ED6B
:103DB000F3E06491662311F40C94592EA1E13A2E9C
:103DC00000ED13E001C0382E8EEA95E00E94CF3955
:103DD0000F5F1F4F8FEF830DF80164916111F3CFD7
:103DE0001EEF130D07C060E28EEA95E00E94CF3906
:103DF000812F11508111F7CF6BEF8EEA95E00E9471
:103E0000CF3960E28EEA95E00E94CF3981E080935D
:103E1000D2054091FB055091FC056091FD05709124
:103E2000FE0580910006811114C180912B03109230
:103E3000000682FF0BC08091FF05811107C0423050
:103E400051056105710510F40C945C2E4831510543
:103E50006105710508F005C1DB01CA01B695A7959A
:103E600097958795E82F2091090630E02C5F3F4F0A
:103E7000281739070CF00DC1CCEFCE0FC0930906FF
:103E800081E080931502D0E0CC2309F471CFC130DA
:103E900009F016C180911502882309F47AC076953D
:103EA00067955795479520912C0330912D0341300C
:103EB00051056105710509F461C2243631050CF420
:103EC000F3C1C901B6010E94AA75CB01B7010E94D6
:103ED000AA75805D80933504E5E3F4E0C901B7017C
:103EE0000E94AA75CB01B7010E94AA75805D8093DC
:103EF0003604C901B7010E94AA75805D809337041A
:103F00001092380401900020E9F73197E553F4400E
:103F100081E1382E3E1A1092E9058D2F90E001962E
:103F2000982F990F890F880F880F8093EA0560E218
:103F30008EEA95E00E94CF39E6ECF3E064916623C7
:103F400061F08F018EEA95E00E94CF390F5F1F4F1D
:103F50003A94F80164916111F5CF6AE38EEA95E035
:103F60000E94CF3906C060E28EEA95E00E94CF3908
:103F70003A943110F8CF65E374E08EEA95E00E9440
:103F80002D664091FB055091FC056091FD057091F7
:103F9000FE058091000681115CC080912B03109278
:103FA000000682FF53CF8091FF0581114FCFDB01C7
:103FB000CA01B695A795979587950197A105B10573
:103FC00009F044CF0E94C7498091130290911402D6
:103FD0009093400480933F048091FB059091FC05F1
:103FE00090933E0480933D0482E08093150282E921
:103FF00093E6909314028093130280EB93E09093E6
:1040000044048093430482EA93E0909346048093AF
:1040100045048CE293E09093420480934104109213
:104020004B0410924C0410924D0410924E0484E8FC
:1040300093E0A0E0B0E08093470490934804A093FD
:104040004904B0934A0480912C0390912D030C9461
:10405000182A10920006483151056105710508F4CF
:10406000FBCE8092FB059092FC05A092FD05B092DC
:10407000FE058BE090E0EBE047E150E060E070E0AF
:104080002091090630E02C5F3F4F281739070CF4C8
:10409000F3CEDF5FCF5FD53008F468CEDF91CF91EC
:1040A0001F910F91FF90EF90DF90CF90BF90AF9056
:1040B0009F908F907F906F905F904F903F9008956A
:1040C000C23009F0BBC180911502882309F47AC07F
:1040D0007695679557954795209134033091350330
:1040E000423051056105710509F4E8C024363105F7
:1040F0000CF4D0C0C901B6010E94AA75CB01B7016A
:104100000E94AA75805D80933504E5E3F4E0C9015F
:10411000B7010E94AA75CB01B7010E94AA75805D04
:1041200080933604C901B7010E94AA75805D80930F
:1041300037041092380401900020E9F73197E553D5
:10414000F44081E1382E3E1A1092E9058D2F90E05F
:104150000196982F990F890F880F880F8093EA0591
:1041600060E28EEA95E00E94CF39F3016491662304
:1041700069F007E913E08EEA95E00E94CF390F5FFE
:104180001F4F3A94F80164916111F5CF6AE38EEA0A
:1041900095E00E94CF3906C060E28EEA95E00E9469
:1041A000CF393A943110F8CF65E374E08EEA95E0A8
:1041B0000E942D664091FB055091FC056091FD0524
:1041C0007091FE0580910006811143CF80912B03F1
:1041D0001092000682FF3ACE8091FF05811136CE03
:1041E000DB01CA01B695A795979587950297A1051A
:1041F000B10509F02BCE0E94C7498091130290911E
:1042000014029093400480933F048091FB059091A9
:10421000FC0590933E0480933D0482E08093150258
:1042200082E993E6909314028093130285E893E069
:10423000909344048093430487E793E0909346046B
:104240008093450484E393E0909342048093410477
:1042500010924B0410924C0410924D0410924E0494
:1042600084E893E0A0E0B0E0809347049093480492
:10427000A0934904B0934A0480913403909135038C
:104280000C94182A2BEF4BEF60ED73E08D2F0E94FA
:104290006B41BFCDE5E3F4E080E2809335042A3042
:1042A00031050CF43DCF33CFE5E3F4E080E28093B9
:1042B00035042A3031050CF41ACE10CE24363105DF
:1042C00014F40C94E32DC901B6010E94AA75CB0128
:1042D000B7010E94AA75805D80933504E5E3F4E0A0
:1042E000C901B7010E94AA75CB01B7010E94AA7546
:1042F000805D80933604C901B7010E94AA75805D74
:10430000809337041092380401900020E9F7319728
:10431000E553F44081E1382E3E1A1092E9058D2FC5
:1043200090E00196982F990F890F880F880F80933E
:10433000EA056EE38EEA95E00E94CF39F3016491BD
:10434000662369F007E913E08EEA95E00E94CF3911
:104350000F5F1F4F3A94F80164916111F5CF6AE342
:104360008EEA95E00E94CF3906C060E28EEA95E0C1
:104370000E94CF393A943110F8CF16CF2436310548
:1043800014F40C94D72DC901B6010E94AA75CB0173
:10439000B7010E94AA75805D80933504E5E3F4E0DF
:1043A000C901B7010E94AA75CB01B7010E94AA7585
:1043B000805D80933604C901B7010E94AA75805DB3
:1043C000809337041092380401900020E9F7319768
:1043D000E553F44081E1382E3E1A1092E9058D2F05
:1043E00090E00196982F990F890F880F880F80937E
:1043F000EA056EE38EEA95E00E94CF39E6ECF3E041
:104400006491662361F08F018EEA95E00E94CF39B6
:104410000F5F1F4F3A94F80164916111F5CF6AE381
:104420008EEA95E00E94CF3906C060E28EEA95E000
:104430000E94CF393A943110F8CF9DCDC33009F0A6
:10444000E0C080911502882309F47CC076956795B9
:1044500057954795209132033091330343305105EE
:104460006105710511F40C943D2B2436310514F4CB
:104470000C94392AC901B6010E94AA75CB01B70173
:104480000E94AA75805D80933504E5E3F4E0C901DC
:10449000B7010E94AA75CB01B7010E94AA75805D81
:1044A00080933604C901B7010E94AA75805D80938C
:1044B00037041092380401900020E9F73197E55352
:1044C000F44081E1382E3E1A1092E9058D2F90E0DC
:1044D0000196982F990F890F880F880F8093EA050E
:1044E00060E28EEA95E00E94CF39F2016491662382
:1044F00069F00DE613E08EEA95E00E94CF390F5F78
:104500001F4F3A94F80164916111F5CF6AE38EEA86
:1045100095E00E94CF3906C060E28EEA95E00E94E5
:10452000CF393A943110F8CF65E374E08EEA95E024
:104530000E942D664091FB055091FC056091FD05A0
:104540007091FE0580910006811183CD80912B032F
:104550001092000682FF7ACC8091FF05811176CC03
:10456000DB01CA01B695A795979587950397A10595
:10457000B10509F06BCC0E94C7498091130290915C
:1045800014029093400480933F048091FB05909126
:10459000FC0590933E0480933D0482E080931502D5
:1045A00082E993E690931402809313028BE593E0E3
:1045B00090934404809343048DE493E090934604E5
:1045C0008093450482E393E09093420480934104F6
:1045D00010924B0410924C0410924D0410924E0411
:1045E00084E893E0A0E0B0E080934704909348040F
:1045F000A0934904B0934A0480913203909133030D
:1046000017C7C43009F0DEC080911502882309F471
:104610007AC07695679557954795209130033091EC
:104620003103443051056105710509F4C7C72436CB
:1046300031050CF414C7C901B6010E94AA75CB015B
:10464000B7010E94AA75805D80933504E5E3F4E02C
:10465000C901B7010E94AA75CB01B7010E94AA75D2
:10466000805D80933604C901B7010E94AA75805D00
:10467000809337041092380401900020E9F73197B5
:10468000E553F44081E1382E3E1A1092E9058D2F52
:1046900090E00196982F990F890F880F880F8093CB
:1046A000EA0560E28EEA95E00E94CF39E3E4F3E0A8
:1046B0006491662361F08F018EEA95E00E94CF3904
:1046C0000F5F1F4F3A94F80164916111F5CF6AE3CF
:1046D0008EEA95E00E94CF3906C060E28EEA95E04E
:1046E0000E94CF393A943110F8CF65E374E08EEA36
:1046F00095E00E942D664091FB055091FC0560916C
:10470000FD057091FE05809100068111A2CC80917B
:104710002B031092000682FF99CB8091FF05811137
:1047200095CBDB01CA01B695A79597958795049718
:10473000A105B10509F08ACB0E94C74980911302F7
:10474000909114029093400480933F048091FB0564
:104750009091FC0590933E0480933D0482E0809309
:10476000150282E993E6909314028093130283E387
:1047700093E0909344048093430485E293E0909304
:1047800046048093450480E393E090934204809331
:10479000410410924B0410924C0410924D0410925C
:1047A0004E0484E893E0A0E0B0E080934704909347
:1047B0004804A0934904B0934A0480913003909137
:1047C000310336C6C53009F0DEC08091150288235A
:1047D00009F47AC0769567955795479520912E03F1
:1047E00030912F03453051056105710509F487C6E5
:1047F000243631050CF429C6C901B6010E94AA75F8
:10480000CB01B7010E94AA75805D80933504E5E372
:10481000F4E0C901B7010E94AA75CB01B7010E945B
:10482000AA75805D80933604C901B7010E94AA75FC
:10483000805D809337041092380401900020E9F7DE
:104840003197E553F44081E1382E3E1A1092E90584
:104850008D2F90E00196982F990F890F880F880F60
:104860008093EA0560E28EEA95E00E94CF39E7E1A5
:10487000F3E06491662361F08F018EEA95E00E9477
:10488000CF390F5F1F4F3A94F80164916111F5CF52
:104890006AE38EEA95E00E94CF3906C060E28EEAB4
:1048A00095E00E94CF393A943110F8CF65E374E077
:1048B0008EEA95E00E942D664091FB055091FC0523
:1048C0006091FD057091FE05809100068111C1CBBC
:1048D00080912B031092000682FFB8CA8091FF05D9
:1048E0008111B4CADB01CA01B695A7959795879542
:1048F0000597A105B10509F0A9CA0E94C749809191
:104900001302909114029093400480933F0480918D
:10491000FB059091FC0590933E0480933D0482E05A
:104920008093150282E993E6909314028093130218
:1049300082E093E0909344048093430484EF92E0F8
:1049400090934604809345048EE293E09093420452
:104950008093410410924B0410924C0410924D0429
:1049600010924E0484E893E0A0E0B0E08093470406
:1049700090934804A0934904B0934A0480912E0375
:1049800090912F0355C5C63009F0DEC08091150205
:10499000882309F47AC076956795579547952091B5
:1049A000360330913703463051056105710509F42E
:1049B000C4C6243631050CF47AC5C901B6010E947B
:1049C000AA75CB01B7010E94AA75805D809335045A
:1049D000E5E3F4E0C901B7010E94AA75CB01B70174
:1049E0000E94AA75805D80933604C901B7010E94B8
:1049F000AA75805D809337041092380401900020DE
:104A0000E9F73197E553F44081E1382E3E1A1092D0
:104A1000E9058D2F90E00196982F990F890F880F47
:104A2000880F8093EA0560E28EEA95E00E94CF3914
:104A3000EAEEF2E06491662361F08F018EEA95E080
:104A40000E94CF390F5F1F4F3A94F80164916111B2
:104A5000F5CF6AE38EEA95E00E94CF3906C060E2A6
:104A60008EEA95E00E94CF393A943110F8CF65E391
:104A700074E08EEA95E00E942D664091FB0550910E
:104A8000FC056091FD057091FE0580910006811185
:104A9000E0CA80912B031092000682FFD7C9809153
:104AA000FF058111D3C9DB01CA01B695A79597957A
:104AB00087950697A105B10509F0C8C90E94C749A5
:104AC00080911302909114029093400480933F04CC
:104AD0008091FB059091FC0590933E0480933D04EA
:104AE00082E08093150282E993E69093140280930A
:104AF00013028AED92E090934404809343048CEC7B
:104B000092E0909346048093450486E393E090936B
:104B100042048093410410924B0410924C04109272
:104B20004D0410924E0484E893E0A0E0B0E080933E
:104B3000470490934804A0934904B0934A04809199
:104B400036039091370374C4C73009F0DEC08091FA
:104B50001502882309F47AC076956795579547958D
:104B600020912003309121034730510561057105E3
:104B700009F400C7243631050CF48FC4C901B6010D
:104B80000E94AA75CB01B7010E94AA75805D80932F
:104B90003504E5E3F4E0C901B7010E94AA75CB0131
:104BA000B7010E94AA75805D80933604C901B701E0
:104BB0000E94AA75805D809337041092380401909A
:104BC0000020E9F73197E553F44081E1382E3E1A91
:104BD0001092E9058D2F90E00196982F990F890F7B
:104BE000880F880F8093EA0560E28EEA95E00E94C4
:104BF000CF39EEEBF2E06491662361F08F018EEA2B
:104C000095E00E94CF390F5F1F4F3A94F8016491ED
:104C10006111F5CF6AE38EEA95E00E94CF3906C0B4
:104C200060E28EEA95E00E94CF393A943110F8CFD5
:104C300065E374E08EEA95E00E942D664091FB05E5
:104C40005091FC056091FD057091FE058091000674
:104C50008111FFC980912B031092000682FFF6C8D4
:104C60008091FF058111F2C8DB01CA01B695A795B5
:104C7000979587950797A105B10509F0E7C80E94A8
:104C8000C74980911302909114029093400480933D
:104C90003F048091FB059091FC0590933E04809326
:104CA0003D0482E08093150282E993E6909314021A
:104CB000809313028EEA92E090934404809343041D
:104CC00080EA92E0909346048093450480E293E06A
:104CD000909342048093410410924B0410924C0430
:104CE00010924D0410924E0484E893E0A0E0B0E0EE
:104CF0008093470490934804A0934904B0934A04D6
:104D0000809120039091210393C3C83009F0DFC044
:104D100080911502882309F47AC076956795579596
:104D2000479520918C0330918D03483051056105E2
:104D3000710509F4C0C5243631050CF4A4C3C901BA
:104D4000B6010E94AA75CB01B7010E94AA75805DC9
:104D500080933504E5E3F4E0C901B7010E94AA7528
:104D6000CB01B7010E94AA75805D80933604C9010A
:104D7000B7010E94AA75805D8093370410923804B1
:104D800001900020E9F73197E553F44081E1382E96
:104D90003E1A1092E9058D2F90E00196982F990FF9
:104DA000890F880F880F8093EA0560E28EEA95E00C
:104DB0000E94CF39E4E9F2E06491662361F08F014B
:104DC0008EEA95E00E94CF390F5F1F4F3A94F801A9
:104DD00064916111F5CF6AE38EEA95E00E94CF39C4
:104DE00006C060E28EEA95E00E94CF393A94311015
:104DF000F8CF65E374E08EEA95E00E942D6640915D
:104E0000FB055091FC056091FD057091FE058091B8
:104E1000000681111EC980912B031092000682FDAD
:104E200001C014C88091FF05811110C8DB01CA01BF
:104E3000B695A795979587950897A105B10509F0AF
:104E400005C80E94C7498091130290911402909363
:104E5000400480933F048091FB059091FC05909362
:104E60003E0480933D0482E08093150282E993E63C
:104E700090931402809313028EE792E0909344047F
:104E80008093430480E792E0909346048093450426
:104E90008CE893E0909342048093410410924B0479
:104EA00010924C0410924D0410924E0484E893E04A
:104EB000A0E0B0E08093470490934804A093490495
:104EC000B0934A0480918C0390918D03B1C2C93094
:104ED00009F0E2C080911502882309F47AC0769522
:104EE000679557954795209148033091490349307C
:104EF00051056105710509F47FC4243631050CF4B0
:104F0000E0C2C901B6010E94AA75CB01B7010E9497
:104F1000AA75805D80933504E5E3F4E0C901B7012B
:104F20000E94AA75CB01B7010E94AA75805D80938B
:104F30003604C901B7010E94AA75805D80933704C9
:104F40001092380401900020E9F73197E553F440BE
:104F500081E1382E3E1A1092E9058D2F90E00196DE
:104F6000982F990F890F880F880F8093EA0560E2C8
:104F70008EEA95E00E94CF39E2E6F2E06491662382
:104F800061F08F018EEA95E00E94CF390F5F1F4FCD
:104F90003A94F80164916111F5CF6AE38EEA95E0E5
:104FA0000E94CF3906C060E28EEA95E00E94CF39B8
:104FB0003A943110F8CF65E374E08EEA95E00E94F0
:104FC0002D664091FB055091FC056091FD057091A7
:104FD000FE058091000681113CC880912B03109240
:104FE000000682FD02C00C94261F8091FF058111EE
:104FF0000C94261FDB01CA01B695A7959795879556
:105000000997A105B10511F00C94261F0E94C7490C
:1050100080911302909114029093400480933F0476
:105020008091FB059091FC0590933E0480933D0494
:1050300082E08093150282E993E6909314028093B4
:1050400013028DE492E090934404809343048FE331
:1050500092E0909346048093450488E493E0909313
:1050600042048093410410924B0410924C0410921D
:105070004D0410924E0484E893E0A0E0B0E08093E9
:10508000470490934804A0934904B0934A04809144
:10509000480390914903CCC1CA3009F0E3C0809124
:1050A0001502882309F47AC0769567955795479538
:1050B00020913803309139034A305105610571055B
:1050C00009F416C5243631050CF40FC2C901B60126
:1050D0000E94AA75CB01B7010E94AA75805D8093DA
:1050E0003504E5E3F4E0C901B7010E94AA75CB01DC
:1050F000B7010E94AA75805D80933604C901B7018B
:105100000E94AA75805D8093370410923804019044
:105110000020E9F73197E553F44081E1382E3E1A3B
:105120001092E9058D2F90E00196982F990F890F25
:10513000880F880F8093EA0560E28EEA95E00E946E
:10514000CF39E0E3F2E06491662361F08F018EEAEB
:1051500095E00E94CF390F5F1F4F3A94F801649198
:105160006111F5CF6AE38EEA95E00E94CF3906C05F
:1051700060E28EEA95E00E94CF393A943110F8CF80
:1051800065E374E08EEA95E00E942D664091FB0590
:105190005091FC056091FD057091FE05809100061F
:1051A00081110C94292080912B031092000682FD1E
:1051B00002C00C94261F8091FF0581110C94261FBC
:1051C000DB01CA01B695A795979587950A97A10522
:1051D000B10511F00C94261F0E94C749809113025B
:1051E000909114029093400480933F048091FB05BA
:1051F0009091FC0590933E0480933D0482E080935F
:10520000150282E993E6909314028093130281E2DF
:1052100092E0909344048093430483E192E090935E
:1052200046048093450488E393E09093420480937E
:10523000410410924B0410924C0410924D041092B1
:105240004E0484E893E0A0E0B0E08093470490939C
:105250004804A0934904B0934A0480913803909184
:105260003903E6C0CB3011F00C94261F8091150253
:10527000882309F47AC076956795579547952091CC
:105280004603309147034B3051056105710509F420
:10529000D0C3243631050CF41EC1C901B6010E94E9
:1052A000AA75CB01B7010E94AA75805D8093350471
:1052B000E5E3F4E0C901B7010E94AA75CB01B7018B
:1052C0000E94AA75805D80933604C901B7010E94CF
:1052D000AA75805D809337041092380401900020F5
:1052E000E9F73197E553F44081E1382E3E1A1092E8
:1052F000E9058D2F90E00196982F990F890F880F5F
:10530000880F8093EA0560E28EEA95E00E94CF392B
:10531000E4E0F2E06491662361F08F018EEA95E0AB
:105320000E94CF390F5F1F4F3A94F80164916111C9
:10533000F5CF6AE38EEA95E00E94CF3906C060E2BD
:105340008EEA95E00E94CF393A943110F8CF65E3A8
:1053500074E08EEA95E00E942D664091FB05509125
:10536000FC056091FD057091FE058091000681119C
:105370000C94292080912B031092000682FD02C01C
:105380000C94261F8091FF0581110C94261FDB01D0
:10539000CA01B695A795979587950B97A105B10575
:1053A00011F00C94261F0E94C7498091130290911E
:1053B00014029093400480933F048091FB059091E8
:1053C000FC0590933E0480933D0482E08093150297
:1053D00082E993E6909314028093130280EF91E0A8
:1053E000909344048093430482EE91E090934604AA
:1053F0008093450486E493E09093420480934104B3
:1054000010924B0410924C0410924D0410924E04D2
:1054100084E893E0A0E0B0E08093470490934804D0
:10542000A0934904B0934A048091460390914703A6
:10543000092E000CAA0BBB0B8093FB059093FC0577
:10544000A093FD05B093FE0547C4E5E3F4E080E2D8
:10545000809335042A3031050CF4E4C9DAC9E5E358
:10546000F4E080E2809335042A3031050CF4F9C869
:10547000EFC8E5E3F4E080E2809335042A3031059B
:105480000CF40EC804C8E5E3F4E080E28093350430
:105490002A3031050CF469CC5FCCE5E3F4E080E21E
:1054A000809335042A3031050CF47ECB74CBE5E3D0
:1054B000F4E080E2809335042A3031050CF493CA7D
:1054C00089CAE5E3F4E080E2809335042A303105AF
:1054D0000CF42DCD23CDE5E3F4E080E28093350498
:1054E0002A3031050CF4EFCEE5CEE5E3F4E080E2BE
:1054F000809335042A3031050CF4FECDF4CD2436EA
:1055000031050CF4A8C3C901B6010E94AA75CB01EC
:10551000B7010E94AA75805D80933504E5E3F4E04D
:10552000C901B7010E94AA75CB01B7010E94AA75F3
:10553000805D80933604C901B7010E94AA75805D21
:10554000809337041092380401900020E9F73197D6
:10555000E553F44081E1382E3E1A1092E9058D2F73
:1055600090E00196982F990F890F880F880F8093EC
:10557000EA056EE38EEA95E00E94CF39E7E1F3E0B9
:105580006491662361F08F018EEA95E00E94CF3925
:105590000F5F1F4F3A94F80164916111F5CF6AE3F0
:1055A0008EEA95E00E94CF3906C060E28EEA95E06F
:1055B0000E94CF393A943110F8CF78C9243631059A
:1055C0000CF417C3C901B6010E94AA75CB01B7013B
:1055D0000E94AA75805D80933504E5E3F4E0C9017B
:1055E000B7010E94AA75CB01B7010E94AA75805D20
:1055F00080933604C901B7010E94AA75805D80932B
:1056000037041092380401900020E9F73197E553F0
:10561000F44081E1382E3E1A1092E9058D2F90E07A
:105620000196982F990F890F880F880F8093EA05AC
:105630006EE38EEA95E00E94CF39E3E4F3E06491F3
:10564000662361F08F018EEA95E00E94CF390F5FEB
:105650001F4F3A94F80164916111F5CF6AE38EEA25
:1056600095E00E94CF3906C060E28EEA95E00E9484
:10567000CF393A943110F8CF38C8243631050CF4BC
:10568000AEC2C901B6010E94AA75CB01B7010E9442
:10569000AA75805D80933504E5E3F4E0C901B701A4
:1056A0000E94AA75CB01B7010E94AA75805D809304
:1056B0003604C901B7010E94AA75805D8093370442
:1056C0001092380401900020E9F73197E553F44037
:1056D00081E1382E3E1A1092E9058D2F90E0019657
:1056E000982F990F890F880F880F8093EA056EE332
:1056F0008EEA95E00E94CF39F2016491662369F049
:105700000DE613E08EEA95E00E94CF390F5F1F4F40
:105710003A94F80164916111F5CF6AE38EEA95E05D
:105720000E94CF3906C060E28EEA95E00E94CF3930
:105730003A943110F8CF0C949422243631050CF4AD
:1057400080C2C901B6010E94AA75CB01B7010E94AF
:10575000AA75805D80933504E5E3F4E0C901B701E3
:105760000E94AA75CB01B7010E94AA75805D809343
:105770003604C901B7010E94AA75805D8093370481
:105780001092380401900020E9F73197E553F44076
:1057900081E1382E3E1A1092E9058D2F90E0019696
:1057A000982F990F890F880F880F8093EA056EE371
:1057B0008EEA95E00E94CF39EAEEF2E0649166232A
:1057C00061F08F018EEA95E00E94CF390F5F1F4F85
:1057D0003A94F80164916111F5CF6AE38EEA95E09D
:1057E0000E94CF3906C060E28EEA95E00E94CF3970
:1057F0003A943110F8CF3BC9243631050CF417C266
:10580000C901B6010E94AA75CB01B7010E94AA7511
:10581000805D80933504E5E3F4E0C901B7010E949F
:10582000AA75CB01B7010E94AA75805D80933604EA
:10583000C901B7010E94AA75805D80933704109258
:10584000380401900020E9F73197E553F44081E1F5
:10585000382E3E1A1092E9058D2F90E00196982F70
:10586000990F890F880F880F8093EA056EE38EEAFF
:1058700095E00E94CF39E2E6F2E06491662361F0A0
:105880008F018EEA95E00E94CF390F5F1F4F3A9447
:10589000F80164916111F5CF6AE38EEA95E00E9408
:1058A000CF3906C060E28EEA95E00E94CF393A9483
:1058B0003110F8CF80CB243631050CF4AEC1C901CC
:1058C000B6010E94AA75CB01B7010E94AA75805D3E
:1058D00080933504E5E3F4E0C901B7010E94AA759D
:1058E000CB01B7010E94AA75805D80933604C9017F
:1058F000B7010E94AA75805D809337041092380426
:1059000001900020E9F73197E553F44081E1382E0A
:105910003E1A1092E9058D2F90E00196982F990F6D
:10592000890F880F880F8093EA056EE38EEA95E071
:105930000E94CF39E4E9F2E06491662361F08F01BF
:105940008EEA95E00E94CF390F5F1F4F3A94F8011D
:1059500064916111F5CF6AE38EEA95E00E94CF3938
:1059600006C060E28EEA95E00E94CF393A94311089
:10597000F8CF3FCA243631050CF445C1C901B60140
:105980000E94AA75CB01B7010E94AA75805D809321
:105990003504E5E3F4E0C901B7010E94AA75CB0123
:1059A000B7010E94AA75805D80933604C901B701D2
:1059B0000E94AA75805D809337041092380401908C
:1059C0000020E9F73197E553F44081E1382E3E1A83
:1059D0001092E9058D2F90E00196982F990F890F6D
:1059E000880F880F8093EA056EE38EEA95E00E94A7
:1059F000CF39EEEBF2E06491662361F08F018EEA1D
:105A000095E00E94CF390F5F1F4F3A94F8016491DF
:105A10006111F5CF6AE38EEA95E00E94CF3906C0A6
:105A200060E28EEA95E00E94CF393A943110F8CFC7
:105A3000FFC8243631050CF422C1C901B6010E9409
:105A4000AA75CB01B7010E94AA75805D80933504C9
:105A5000E5E3F4E0C901B7010E94AA75CB01B701E3
:105A60000E94AA75805D80933604C901B7010E9427
:105A7000AA75805D8093370410923804019000204D
:105A8000E9F73197E553F44081E1382E3E1A109240
:105A9000E9058D2F90E00196982F990F890F880FB7
:105AA000880F8093EA056EE38EEA95E00E94CF3975
:105AB000E4E0F2E06491662361F08F018EEA95E004
:105AC0000E94CF390F5F1F4F3A94F8016491611122
:105AD000F5CF6AE38EEA95E00E94CF3906C060E216
